:100000000C9442010C9473010C9473010C947301D1
:100010000C9473010C9473010C9473010C94730190
:100020000C9473010C9473010C9473010C94730180
:100030000C9473010C9473010C9473010C94730170
:100040000C9473010C9473010C9473010C94730160
:100050000C9473010C9473010C9473010C9476024C
:100060000C9473010C9434060C9400070C947301E7
:100070000C9473010C9473010C9473010C94730130
:100080000C9473010C9473010C9473010C94730120
:100090000C9467060C943F070C9473010C94730145
:1000A0000C9473010C9473010C9473010C94730100
:1000B0000C9473010C9473010C9473010C947301F0
:1000C0000C9473010C9473010C9473010C949A06B4
:1000D0000C947E070C9473010C94CD060C94BD0710
:1000E0000C9473019003930386038A03CA03970356
:1000F0009B03A103A503A903AF03B303B703CA037B
:10010000BD03C103C5030C9460040C94A1030C94BB
:10011000CD050C94CA030C94AD050C9491050C9478
:1001200084080C94B3030C949B030C94BD030C94AF
:1001300090030C94D8050C94B7030C9493030C947F
:10014000AF030C94C1030C9497030C94A9030C9473
:10015000A5030C94C5030C948A030C9481050C949C
:1001600086030000090A02080B0C0D0706030401B0
:10017000000000000000000000000000000000007F
:10018000000000000000000000000000000011104E
:100190000F00000000000000000000000000000050
:1001A00000000000000000000102102020080810DC
:1001B00020401020408002010201080402010102D7
:1001C00004081020408080402010080402018004B0
:1001D000020180402010080402010804020101020B
:1001E000040810204080010204081020408005050A
:1001F0000505070508080808020202020A0A08089D
:1002000004040404010101010101010103030303CA
:1002100003030303040707070C0C0C0C0C0C0C0C59
:100220000202020206060606060606060B0B0B0B6A
:100230000B0B0B0B000020002300260029002C00D4
:100240002F00320000010000030106010901000037
:100250002200250028002B002E003100340002016E
:100260000000050108010B01000021002400270007
:100270002A002D00300033000101000004010701B5
:100280000A01840811241FBECFEFD1E2DEBFCDBF2B
:1002900000E00CBF12E0A0E0B2E0E0E9F4E100E031
:1002A0000BBF02C007900D92A235B107D9F725E028
:1002B000A2E5B2E001C01D92A330B207E1F711E060
:1002C000C2E4D1E000E006C021970109802FFE01C1
:1002D0000E94080AC134D10780E00807A9F70E94EC
:1002E0003A020C94B0090C9400000E94170340E8F5
:1002F00055E260E070E081EC92E00E94FC0761E072
:1003000089E00E94CB0361E08AE00E94CB0361E0B8
:100310008BE00E94CB0361E08CE00E94CB0361E0A4
:100320008DE00E94CB0360E087E00E94CB0361E098
:1003300087E00E94070460E084E00E94CB0361E054
:1003400084E00E94070460E085E00E94CB0361E046
:1003500085E00E94070460E086E00E94CB0361E034
:1003600086E00C940704CF92DF92EF92FF920F93F6
:100370001F93CF93DF9364E072E081EC92E00E94E0
:10038000B8040E94C0026B017C01C0E0D0E003E031
:1003900010E00E94C002DC01CB018C199D09AE095E
:1003A000BF0980329E44A105B10508F05AC00E94E1
:1003B000A109B8010E94B309FC01EE0FFF1FE45C24
:1003C000FD4F61E080810E94070484E00E943704B1
:1003D000892B29F489E00E9437040197D9F085E040
:1003E0000E943704892B29F48AE00E943704019780
:1003F000F1F086E00E943704892B29F48BE00E94FB
:100400003704019709F164EF71E080E090E00E9409
:10041000F102BFCF21964AE050E0BE0181EC92E0AC
:100420000E946A0560E089E00E940704D8CF219607
:100430004AE050E0BE0181EC92E00E946A0560E073
:100440008AE00E940704D5CF21964AE050E0BE0121
:1004500081EC92E00E946A0560E08BE00E94070454
:10046000D2CFDF91CF911F910F91FF90EF90DF904E
:10047000CF9008950E94750160E089E00E94070412
:1004800060E08AE00E94070460E08BE00E940704BD
:1004900060E08CE00E94070460E08DE00E940704A9
:1004A0006DE072E081EC92E00E94B80487E00E9467
:1004B0003704892BD9F76AE272E081EC92E00E945E
:1004C000B8040E94B30160E089E00E94070460E084
:1004D0008AE00E94070460E08BE00E94070481EC40
:1004E00092E00E94CD0580E090E008951F920F9267
:1004F0000FB60F9211242F933F938F939F93AF9337
:10050000BF938091530290915402A0915502B091F3
:1005100056023091520223E0230F2D3720F401962A
:10052000A11DB11D05C026E8230F0296A11DB11D16
:10053000209352028093530290935402A093550249
:10054000B09356028091570290915802A09159029F
:10055000B0915A020196A11DB11D8093570290934C
:100560005802A0935902B0935A02BF91AF919F9144
:100570008F913F912F910F900FBE0F901F90189564
:100580002FB7F894609153027091540280915502F4
:10059000909156022FBF08953FB7F894809157026B
:1005A00090915802A0915902B0915A0226B5A89B89
:1005B00005C02F3F19F00196A11DB11D3FBFBA2FF5
:1005C000A92F982F8827820F911DA11DB11DBC0155
:1005D000CD0142E0660F771F881F991F4A95D1F71A
:1005E0000895CF92DF92EF92FF92CF93DF936B014A
:1005F0007C010E94CC02EB01C114D104E104F1049E
:1006000079F00E94CC026C1B7D0B683E7340A0F316
:1006100081E0C81AD108E108F108C851DC4FECCFDD
:10062000DF91CF91FF90EF90DF90CF900895789475
:1006300084B5826084BD84B5816084BD85B58260E7
:1006400085BD85B5816085BDEEE6F0E08081816085
:100650008083E1E8F0E01082808182608083808185
:1006600081608083E0E8F0E0808181608083E1EB5D
:10067000F0E0808184608083E0EBF0E08081816045
:100680008083E1E9F0E08081826080838081816005
:100690008083E0E9F0E0808181608083E1EAF0E03E
:1006A000808182608083808181608083E0EAF0E0E5
:1006B000808181608083E1E2F1E0808182608083DB
:1006C000808181608083E0E2F1E0808181608083CD
:1006D000EAE7F0E0808184608083808182608083AB
:1006E0008081816080838081806880831092C100D6
:1006F000089590E0FC013197E131F10508F04AC01E
:100700008827EE58FF4F8F4F0C94080A8091800085
:100710008F7703C0809180008F7D80938000089543
:1007200084B58F7702C084B58F7D84BD0895809194
:10073000B0008F7703C08091B0008F7D8093B000B0
:100740000895809190008F7707C0809190008F7DF1
:1007500003C080919000877F8093900008958091DE
:10076000A0008F7707C08091A0008F7D03C080918B
:10077000A000877F8093A0000895809120018F774B
:1007800007C0809120018F7D03C080912001877F69
:10079000809320010895CF93DF9390E0FC01E8550A
:1007A000FE4F2491FC01E251FE4F8491882361F1B8
:1007B00090E0880F991FFC01E859FD4FC591D49135
:1007C000FC01E25BFD4FA591B491611109C09FB797
:1007D000F8948881209582238883EC912E230BC086
:1007E000623061F49FB7F8943881822F809583231B
:1007F0008883EC912E2B2C939FBF06C08FB7F89463
:10080000E8812E2B28838FBFDF91CF9108951F930E
:10081000CF93DF93282F30E0F901EE59FE4F8491FA
:10082000F901E855FE4FD491F901E251FE4FC49110
:10083000CC23C9F0162F81110E947903EC2FF0E030
:10084000EE0FFF1FE25BFD4FA591B4918FB7F894B7
:10085000111105C09C91ED2FE095E92302C0EC91A8
:10086000ED2BEC938FBFDF91CF911F910895CF9324
:10087000DF93282F30E0F901EE59FE4F8491F90102
:10088000E855FE4FD491F901E251FE4FC491CC23BB
:1008900091F081110E947903EC2FF0E0EE0FFF1F21
:1008A000EC5CFD4FA591B491EC91ED2381E090E0DB
:1008B00021F480E002C080E090E0DF91CF910895C4
:1008C000CF92DF92EF92FF920F931F93CF93DF931C
:1008D0006C01EB017B01E40EF51E00E010E0CE158B
:1008E000DF0561F06991D601ED91FC910190F081F5
:1008F000E02DC6011995080F191FF1CFC801DF912E
:10090000CF911F910F91FF90EF90DF90CF900895BE
:100910006115710579F0FB0101900020E9F731972D
:10092000AF01461B570BDC01ED91FC910280F38176
:10093000E02D199480E090E00895DC01ED91FC91A8
:100940000190F081E02D19940F931F93CF93DF93C3
:10095000EC016DE00E949D048C016AE0CE010E94D2
:100960009D04800F911FDF91CF911F910F910895EA
:100970000F931F93CF93DF93EC010E9488048C01A7
:10098000CE010E94A404800F911FDF91CF911F918F
:100990000F9108958F929F92AF92BF92CF92DF9264
:1009A000EF92FF920F931F93CF93DF93CDB7DEB7F4
:1009B000A1970FB6F894DEBF0FBECDBF6C01142F08
:1009C000E52FCB01022F19A2223008F40AE07E01A4
:1009D00021E2E20EF11C802E912CA12CB12C612F72
:1009E0007E2FA50194010E94C709029F10191124AE
:1009F00081E0E81AF1081A3014F4105D01C0195CA6
:100A0000F7011083122FE32FCA01232B242B252B50
:100A100031F7B701C6010E948804A1960FB6F89479
:100A2000DEBF0FBECDBFDF91CF911F910F91FF9021
:100A3000EF90DF90CF90BF90AF909F908F900895F0
:100A4000CF92DF92EF92FF920F931F93CF93DF939A
:100A5000EC016A017B012115310579F4E881F98106
:100A60000190F081E02D642FDF91CF911F910F91C4
:100A7000FF90EF90DF90CF9019942A303105E9F480
:100A800077FF1AC06DE20E949D048C014427552710
:100A9000BA014C195D096E097F092AE0CE010E9456
:100AA000CA04800F911FDF91CF911F910F91FF908A
:100AB000EF90DF90CF9008952AE0B701A601CE0114
:100AC000DF91CF911F910F91FF90EF90DF90CF902A
:100AD0000C94CA040F931F93CF93DF93EC019A01F8
:100AE000AB01770F660B770B0E9420058C01CE01BE
:100AF0000E94A404800F911FDF91CF911F910F914D
:100B00000895FC0124853585F901E05CFF4F808163
:100B10009181329620813181821B930B8F739927AB
:100B20000895DC011C96ED91FC911D97DF01A05CFE
:100B3000BF4F2D913C91119712968D919C911197D9
:100B40002817390739F08D919C91E80FF91F8081A2
:100B500090E008958FEF9FEF0895FC01A485B5857F
:100B6000FD01E05CFF4F20813181329680819181CF
:100B70002817390779F080819181A80FB91F8C91CE
:100B8000208131812F5F3F4F2F73332731832083A3
:100B900090E008958FEF9FEF0895FC0181A18823D5
:100BA00029F0A489B5898C9186FFFBCF11A2089505
:100BB0000F931F93CF93DF93FC01A685B7858D011B
:100BC000005C1F4FE8018881998101968F739927F6
:100BD000AD014E5B5F4FEA0128813981821793078F
:100BE000D1F3E80128813981A20FB31F6C93A68548
:100BF000B785A05CBF4F11969C938E93A689B78949
:100C00002C9181E090E0078C02C0880F991F0A9414
:100C1000E2F7822B8C9381E081A30488F589E02D93
:100C200080818064808381E090E0DF91CF911F918B
:100C30000F910895FB01E05CFF4F208131812F5F10
:100C40003F4F2F733327DB01AE5BBF4F4D915C915C
:100C50002417350741F040815181DB01A40FB51FF6
:100C60008C933183208308951F920F920FB60F92B9
:100C700011240BB60F922F933F934F935F936F9373
:100C80007F938F939F93AF93BF93EF93FF93809145
:100C9000C00082FD07C08091C6006FEB74E00E9427
:100CA0001A0602C08091C600FF91EF91BF91AF91EB
:100CB0009F918F917F916F915F914F913F912F9174
:100CC0000F900BBE0F900FBE0F901F9018951F92A4
:100CD0000F920FB60F9211240BB60F922F933F93E2
:100CE0004F935F936F937F938F939F93AF93BF9334
:100CF000EF93FF938091C80082FD07C08091CE00E2
:100D000067E374E00E941A0602C08091CE00FF9152
:100D1000EF91BF91AF919F918F917F916F915F9173
:100D20004F913F912F910F900BBE0F900FBE0F90E0
:100D30001F9018951F920F920FB60F9211240BB6A9
:100D40000F922F933F934F935F936F937F938F9364
:100D50009F93AF93BF93EF93FF938091D00082FD59
:100D600007C08091D6006FEA73E00E941A0602C0A5
:100D70008091D600FF91EF91BF91AF919F918F919C
:100D80007F916F915F914F913F912F910F900BBE8B
:100D90000F900FBE0F901F9018951F920F920FB6D5
:100DA0000F9211240BB60F922F933F934F935F93A3
:100DB0006F937F938F939F93AF93BF93EF93FF9323
:100DC0008091300182FD07C08091360167E273E0B7
:100DD0000E941A0602C080913601FF91EF91BF91E7
:100DE000AF919F918F917F916F915F914F913F91C3
:100DF0002F910F900BBE0F900FBE0F901F90189564
:100E00001F920F920FB60F9211240BB60F922F93D1
:100E10003F938F939F93EF93FF932091BB04309167
:100E2000BC048091BD049091BE042817390731F4A9
:100E30008091C1008F7D8093C10014C0E091BD04FA
:100E4000F091BE04E558FB4F20818091BD04909144
:100E5000BE0401968F7399279093BE048093BD04BE
:100E60002093C600FF91EF919F918F913F912F9119
:100E70000F900BBE0F900FBE0F901F9018951F92F2
:100E80000F920FB60F9211240BB60F922F933F9330
:100E90008F939F93EF93FF93209133043091340409
:100EA00080913504909136042817390731F48091E8
:100EB000C9008F7D8093C90014C0E0913504F09182
:100EC0003604ED50FC4F208180913504909136041A
:100ED00001968F739927909336048093350420935D
:100EE000CE00FF91EF919F918F913F912F910F90A5
:100EF0000BBE0F900FBE0F901F9018951F920F9270
:100F00000FB60F9211240BB60F922F933F938F932E
:100F10009F93EF93FF932091AB033091AC038091AB
:100F2000AD039091AE032817390731F48091D100B9
:100F30008F7D8093D10014C0E091AD03F091AE039A
:100F4000E559FC4F20818091AD039091AE0301964D
:100F50008F7399279093AE038093AD032093D600AF
:100F6000FF91EF919F918F913F912F910F900BBE29
:100F70000F900FBE0F901F9018951F920F920FB6F3
:100F80000F9211240BB60F922F933F938F939F9341
:100F9000EF93FF9320912303309124038091250345
:100FA000909126032817390731F4809131018F7D04
:100FB0008093310114C0E0912503F0912603ED5197
:100FC000FD4F2081809125039091260301968F7318
:100FD0009927909326038093250320933601FF9150
:100FE000EF919F918F913F912F910F900BBE0F909A
:100FF0000FBE0F901F901895CF92DF92EF92FF9245
:101000000F931F93CF93DF93EC016A017B0141158E
:10101000514E6105710509F1EC89FD8981E090E08F
:1010200008A002C0880F991F0A94E2F7808360E04D
:1010300079E08DE390E0A70196010E94C70989013C
:101040009A01015011092109310936952795179503
:101050000795980101151041A8F0EC89FD891082CF
:1010600060E874E88EE190E0A70196010E94C7094C
:10107000DA01C9010197A109B109B695A79597951C
:1010800087959C01E889F9893083EA89FB89208367
:1010900019A2EE89FF89408181E090E09C010C8CCF
:1010A00002C0220F331F0A94E2F7242B2083EE891B
:1010B000FF8940819C010D8C02C0220F331F0A94CE
:1010C000E2F7242B2083EE89FF8940819C010E8C5E
:1010D00002C0220F331F0A94E2F7242B2083EE89EB
:1010E000FF8920810F8C02C0880F991F0A94E2F7B4
:1010F000809582238083DF91CF911F910F91FF9084
:10110000EF90DF90CF900895CF92DF92EF92FF9211
:10111000E1ECF2E01382128288EEC82E83E0D82E32
:10112000E12CF12CC482D582E682F78266E472E07B
:10113000718360838FEB94E0958784878BE794E0DD
:101140009787868785EC90E0918B808B84EC90E08C
:10115000938B828B80EC90E0958B848B81EC90E07C
:10116000978B868B82EC90E0918F808F86EC90E05D
:10117000938F828F44E0448F33E0358F27E0268FB2
:1011800095E0978F81E080A3EFE9F2E0138212826D
:10119000C482D582E682F78271836083A7E3B4E0DC
:1011A000B587A487A3EFB3E0B787A687ADECB0E01F
:1011B000B18BA08BACECB0E0B38BA28BA8ECB0E011
:1011C000B58BA48BA9ECB0E0B78BA68BAAECB0E0F2
:1011D000B18FA08FAEECB0E0B38FA28F448F358F6C
:1011E000268F978F80A3EDE7F2E013821282C482EC
:1011F000D582E682F78271836083AFEAB3E0B58778
:10120000A487ABE6B3E0B787A687A5EDB0E0B18BC6
:10121000A08BA4EDB0E0B38BA28BA0EDB0E0B58BBA
:10122000A48BA1EDB0E0B78BA68BA2EDB0E0B18F9F
:10123000A08FA6EDB0E0B38FA28F448F358F268F9D
:10124000978F80A3EBE5F2E013821282C482D582ED
:10125000E682F7827183608367E273E07587648753
:1012600063EE72E07787668765E371E0718B608B70
:1012700064E371E0738B628B60E371E0758B648B68
:1012800061E371E0778B668B62E371E0718F608F51
:1012900066E371E0738F628F448F358F268F978F4F
:1012A00080A3FF90EF90DF90CF9008958F929F9250
:1012B000AF92BF92CF92DF92EF92FF92CF93DF93E4
:1012C000EC01688179818A819B81611571058105B5
:1012D000910521F464E279ED8BE597E02DE133EFA0
:1012E00041E050E00E94E90949015A019B01AC012B
:1012F000A7EAB1E40E94100A6B017C01ACEEB4EFE6
:10130000A50194010E941E0ADC01CB018C0D9D1DDC
:10131000AE1DBF1DB7FF03C00197A109B048888368
:101320009983AA83BB839F77DF91CF91FF90EF9042
:10133000DF90CF90BF90AF909F908F9008950C94C6
:10134000560980E092E00C945609A0E0B0E080934A
:10135000000290930102A0930202B0930302089549
:10136000F8940C94460A97FB072E16F4009407D0C5
:1013700077FD09D00E94230A07FC05D03EF4909522
:1013800081959F4F0895709561957F4F0895A1E2D3
:101390001A2EAA1BBB1BFD010DC0AA1FBB1FEE1FEF
:1013A000FF1FA217B307E407F50720F0A21BB30B3A
:1013B000E40BF50B661F771F881F991F1A9469F7B6
:1013C00060957095809590959B01AC01BD01CF0112
:1013D0000895052E97FB1EF400940E94000A57FD05
:1013E00007D00E94C70907FC03D04EF40C94000AF2
:1013F00050954095309521953F4F4F4F5F4F089541
:1014000090958095709561957F4F8F4F9F4F089570
:10141000EE0FFF1F881F8BBF0790F691E02D1994E8
:101420000E94370AA59F900DB49F900DA49F800D38
:10143000911D11240895B7FF0C94100A0E94100A00
:10144000821B930B0895AA1BBB1B51E107C0AA1F67
:10145000BB1FA617B70710F0A61BB70B881F991F55
:101460005A95A9F780959095BC01CD010895A29F4A
:10147000B001B39FC001A39F700D811D1124911D68
:10148000B29F700D811D1124911D0895F894FFCF16
:10149000010000004D696E6967616D6500507265FD
:1014A0007373206669726520627574746F6E20773D
:1014B00068656E2072656164790053746172746945
:1014C0006E67206D696E6967616D650009000A00CD
:1014D0000B0000000000D80560048105AD059105F2
:0214E000CD0538
:00000001FF
