:100000000C9442010C9473010C9473010C947301D1
:100010000C9473010C9473010C9473010C94730190
:100020000C9473010C9473010C9473010C94730180
:100030000C9473010C9473010C9473010C94730170
:100040000C9473010C9473010C9473010C94730160
:100050000C9473010C9473010C9473010C94F602CC
:100060000C9473010C94AA060C9476070C947301FB
:100070000C9473010C9473010C9473010C94730130
:100080000C9473010C9473010C9473010C94730120
:100090000C94DD060C94B5070C9473010C94730159
:1000A0000C9473010C9473010C9473010C94730100
:1000B0000C9473010C9473010C9473010C947301F0
:1000C0000C9473010C9473010C9473010C9410073D
:1000D0000C94F4070C9473010C9443070C943308AC
:1000E0000C94730104040704FA03FE033E040B049A
:1000F0000F04150419041D04230427042B043E04D3
:100100003104350439040C9427040C944E060C94E5
:10011000FA080C9419040C9443060C9407040C94EC
:100120000B040C9423060C941D040C9439040C94B9
:1001300031040C9423040C942B040C940F040C94A1
:1001400035040C9415040C94FA030C94D4040C9408
:10015000F7050C9404040C943E040C9407060C94CC
:10016000FE030000090A02080B0C0D070603040138
:10017000000000000000000000000000000000007F
:10018000000000000000000000000000000011104E
:100190000F00000000000000000000000000000050
:1001A00000000000000000000102102020080810DC
:1001B00020401020408002010201080402010102D7
:1001C00004081020408080402010080402018004B0
:1001D000020180402010080402010804020101020B
:1001E000040810204080010204081020408005050A
:1001F0000505070508080808020202020A0A08089D
:1002000004040404010101010101010103030303CA
:1002100003030303040707070C0C0C0C0C0C0C0C59
:100220000202020206060606060606060B0B0B0B6A
:100230000B0B0B0B000020002300260029002C00D4
:100240002F00320000010000030106010901000037
:100250002200250028002B002E003100340002016E
:100260000000050108010B01000021002400270007
:100270002A002D00300033000101000004010701B5
:100280000A01FA0811241FBECFEFD1E2DEBFCDBFB5
:1002900000E00CBF12E0A0E0B2E0ECE7F5E100E026
:1002A0000BBF02C007900D92A43CB107D9F725E01F
:1002B000A4ECB2E001C01D92A537B207E1F711E04E
:1002C000C2E4D1E000E006C021970109802FFE01C1
:1002D0000E947E0AC134D10780E00807A9F70E9476
:1002E000D7020C94260A0C9400000E948B0340E86D
:1002F00055E260E070E083E393E00E94720861E001
:1003000089E00E943F0461E08AE00E943F0461E0CE
:100310008BE00E943F0461E08CE00E943F0461E0BA
:100320008DE00E943F0460E087E00E943F0461E0AE
:1003300087E00E947B0460E084E00E943F0461E06B
:1003400084E00E947B0460E085E00E943F0461E05D
:1003500085E00E947B0460E086E00E943F0461E04B
:1003600086E00C947B04CF92DF92EF92FF920F9382
:100370001F93CF93DF9364E072E083E393E00E94E6
:100380002E050E94170A6C010E94170A7C010E9428
:10039000170A8C01C3E0D0E0C601BE010E94290A01
:1003A0004AE050E0BC0183E393E00E94E005C7010E
:1003B000BE010E94290A4AE050E0BC0183E393E0B9
:1003C0000E94E005C801BE010E94290A4AE050E0EF
:1003D000BC0183E393E00E94E00561E089E00E94B4
:1003E0007B04C0E0D0E089E00E94AB040197F1F407
:1003F00080E00E94AB04892BB1F36DE072E083E3EF
:1004000093E00E942E0521966EE172E083E393E073
:100410000E9411054AE050E0BE0183E393E00E9490
:10042000E00560E089E00E947B04DDCF68E873E1CD
:1004300080E090E00E9465036BE272E083E393E06A
:100440000E942E0560E089E00E947B0462E372E076
:1004500083E393E00E942E0568EB7BE080E090E070
:100460000E94650361E08AE00E947B048AE00E94AA
:10047000AB040197D9F480E00E94AB04892BB1F35F
:1004800068E372E083E393E00E942E0521966EE11B
:1004900072E083E393E00E9411054AE050E0BE0160
:1004A00083E393E00E94E00560E0DDCF68E873E15C
:1004B00080E090E00E94650369E472E083E393E0EA
:1004C0000E942E0560E08AE00E947B0460E572E0F5
:1004D00083E393E00E942E0568EB7BE080E090E0F0
:1004E0000E94650361E08BE00E947B048BE00E9428
:1004F000AB040197D9F480E00E94AB04892BB1F3DF
:1005000066E572E083E393E00E942E0521966EE19A
:1005100072E083E393E00E9411054AE050E0BE01DF
:1005200083E393E00E94E00560E0DDCF68E873E1DB
:1005300080E090E00E94650367E672E083E393E069
:100540000E942E0560E08BE00E947B046EE672E064
:1005500083E393E00E942E05C330D10519F464E7CC
:1005600072E010C0C230D10519F463E872E00AC02D
:10057000C130D10519F460E972E004C0CD2B71F4EB
:1005800064EA72E083E393E0DF91CF911F910F91D2
:10059000FF90EF90DF90CF900C942E05DF91CF91DC
:1005A0001F910F91FF90EF90DF90CF9008950E94E0
:1005B000750160E089E00E947B0460E08AE00E94AF
:1005C0007B0460E08BE00E947B0460E08CE00E9492
:1005D0007B0460E08DE00E947B040E94B30183E312
:1005E00093E00E94430680E090E008951F920F92EE
:1005F0000FB60F9211242F933F938F939F93AF9336
:10060000BF938091C5029091C602A091C702B0919C
:10061000C8023091C40223E0230F2D3720F4019645
:10062000A11DB11D05C026E8230F0296A11DB11D15
:100630002093C4028093C5029093C602A093C70280
:10064000B093C8028091C9029091CA02A091CB02D6
:10065000B091CC020196A11DB11D8093C902909367
:10066000CA02A093CB02B093CC02BF91AF919F91ED
:100670008F913F912F910F900FBE0F901F90189563
:100680003FB7F8948091C9029091CA02A091CB0221
:10069000B091CC0226B5A89B05C02F3F19F001965A
:1006A000A11DB11D3FBFBA2FA92F982F8827820FF8
:1006B000911DA11DB11DBC01CD0142E0660F771F48
:1006C000881F991F4A95D1F70895CF92DF92EF9234
:1006D000FF92CF93DF936B017C010E944003EB01FB
:1006E000C114D104E104F10479F00E9440036C1BB1
:1006F0007D0B683E7340A0F381E0C81AD108E10881
:10070000F108C851DC4FECCFDF91CF91FF90EF9013
:10071000DF90CF900895789484B5826084BD84B5CD
:10072000816084BD85B5826085BD85B5816085BDEC
:10073000EEE6F0E0808181608083E1E8F0E0108205
:10074000808182608083808181608083E0E8F0E046
:10075000808181608083E1EBF0E080818460808330
:10076000E0EBF0E0808181608083E1E9F0E080816E
:1007700082608083808181608083E0E9F0E0808115
:1007800081608083E1EAF0E0808182608083808103
:1007900081608083E0EAF0E0808181608083E1E233
:1007A000F1E0808182608083808181608083E0E2EB
:1007B000F1E0808181608083EAE7F0E080818460FD
:1007C000808380818260808380818160808380815A
:1007D000806880831092C100089590E0FC013197F9
:1007E000E131F10508F04AC08827EE58FF4F8F4FDE
:1007F0000C947E0A809180008F7703C080918000E6
:100800008F7D80938000089584B58F7702C084B572
:100810008F7D84BD08958091B0008F7703C0809153
:10082000B0008F7D8093B0000895809190008F7705
:1008300007C0809190008F7D03C080919000877FDA
:100840008093900008958091A0008F7707C08091D9
:10085000A0008F7D03C08091A000877F8093A000BF
:100860000895809120018F7707C0809120018F7DAE
:1008700003C080912001877F809320010895CF934A
:10088000DF9390E0FC01E855FE4F2491FC01E2511A
:10089000FE4F8491882361F190E0880F991FFC013D
:1008A000E859FD4FC591D491FC01E25BFD4FA59144
:1008B000B491611109C09FB7F89488812095822373
:1008C0008883EC912E230BC0623061F49FB7F894BB
:1008D0003881822F809583238883EC912E2B2C9353
:1008E0009FBF06C08FB7F894E8812E2B28838FBF57
:1008F000DF91CF9108951F93CF93DF93282F30E09E
:10090000F901EE59FE4F8491F901E855FE4FD4915B
:10091000F901E251FE4FC491CC23C9F0162F811189
:100920000E94ED03EC2FF0E0EE0FFF1FE25BFD4FA6
:10093000A591B4918FB7F894111105C09C91ED2F3A
:10094000E095E92302C0EC91ED2BEC938FBFDF9192
:10095000CF911F910895CF93DF93282F30E0F901B5
:10096000EE59FE4F8491F901E855FE4FD491F901FB
:10097000E251FE4FC491CC2391F081110E94ED030E
:10098000EC2FF0E0EE0FFF1FEC5CFD4FA591B49152
:10099000EC91ED2381E090E021F480E002C080E062
:1009A00090E0DF91CF910895CF92DF92EF92FF9286
:1009B0000F931F93CF93DF936C01EB017B01E40E48
:1009C000F51E00E010E0CE15DF0561F06991D6015B
:1009D000ED91FC910190F081E02DC6011995080F71
:1009E000191FF1CFC801DF91CF911F910F91FF9097
:1009F000EF90DF90CF9008956115710579F0FB01BC
:100A000001900020E9F73197AF01461B570BDC013D
:100A1000ED91FC910280F381E02D199480E090E04B
:100A200008950C94FC04DC01ED91FC910190F0819F
:100A3000E02D19940F931F93CF93DF93EC016DE09A
:100A40000E9413058C016AE0CE010E941305800FFD
:100A5000911FDF91CF911F910F9108950F931F93D5
:100A6000CF93DF93EC010E94FC048C01CE010E9425
:100A70001A05800F911FDF91CF911F910F9108955B
:100A80008F929F92AF92BF92CF92DF92EF92FF929E
:100A90000F931F93CF93DF93CDB7DEB7A1970FB618
:100AA000F894DEBF0FBECDBF6C01142FE52FCB0134
:100AB000022F19A2223008F40AE07E0121E2E20EA0
:100AC000F11C802E912CA12CB12C612F7E2FA50121
:100AD00094010E943D0A029F1019112481E0E81A36
:100AE000F1081A3014F4105D01C0195CF70110838D
:100AF000122FE32FCA01232B242B252B31F7B7010B
:100B0000C6010E94FC04A1960FB6F894DEBF0FBE8A
:100B1000CDBFDF91CF911F910F91FF90EF90DF90AC
:100B2000CF90BF90AF909F908F900895CF92DF921B
:100B3000EF92FF920F931F93CF93DF93EC016A0123
:100B40007B012115310579F4E881F9810190F0816B
:100B5000E02D642FDF91CF911F910F91FF90EF90C7
:100B6000DF90CF9019942A303105E9F477FF1AC04D
:100B70006DE20E9413058C0144275527BA014C19D8
:100B80005D096E097F092AE0CE010E944005800FB1
:100B9000911FDF91CF911F910F91FF90EF90DF9008
:100BA000CF9008952AE0B701A601CE01DF91CF9141
:100BB0001F910F91FF90EF90DF90CF900C94400524
:100BC0000F931F93CF93DF93EC019A01AB01770F43
:100BD000660B770B0E9496058C01CE010E941A05C8
:100BE000800F911FDF91CF911F910F910895FC010C
:100BF00024853585F901E05CFF4F80819181329633
:100C000020813181821B930B8F7399270895DC011A
:100C10001C96ED91FC911D97DF01A05CBF4F2D91BB
:100C20003C91119712968D919C9111972817390735
:100C300039F08D919C91E80FF91F808190E0089523
:100C40008FEF9FEF0895FC01A485B585FD01E05C61
:100C5000FF4F208131813296808191812817390799
:100C600079F080819181A80FB91F8C912081318109
:100C70002F5F3F4F2F7333273183208390E00895F8
:100C80008FEF9FEF0895FC0181A1882329F0A489AB
:100C9000B5898C9186FFFBCF11A208950F931F9306
:100CA000CF93DF93FC01A685B7858D01005C1F4FB4
:100CB000E8018881998101968F739927AD014E5B78
:100CC0005F4FEA012881398182179307D1F3E80148
:100CD00028813981A20FB31F6C93A685B785A05CCC
:100CE000BF4F11969C938E93A689B7892C9181E072
:100CF00090E0078C02C0880F991F0A94E2F7822BBC
:100D00008C9381E081A30488F589E02D8081806443
:100D1000808381E090E0DF91CF911F910F91089542
:100D2000FB01E05CFF4F208131812F5F3F4F2F732C
:100D30003327DB01AE5BBF4F4D915C912417350724
:100D400041F040815181DB01A40FB51F8C933183A9
:100D5000208308951F920F920FB60F9211240BB6A5
:100D60000F922F933F934F935F936F937F938F9344
:100D70009F93AF93BF93EF93FF938091C00082FD49
:100D800007C08091C60061E375E00E94900602C032
:100D90008091C600FF91EF91BF91AF919F918F918C
:100DA0007F916F915F914F913F912F910F900BBE6B
:100DB0000F900FBE0F901F9018951F920F920FB6B5
:100DC0000F9211240BB60F922F933F934F935F9383
:100DD0006F937F938F939F93AF93BF93EF93FF9303
:100DE0008091C80082FD07C08091CE0069EA74E05E
:100DF0000E94900602C08091CE00FF91EF91BF91BA
:100E0000AF919F918F917F916F915F914F913F91A2
:100E10002F910F900BBE0F900FBE0F901F90189543
:100E20001F920F920FB60F9211240BB60F922F93B1
:100E30003F934F935F936F937F938F939F93AF9362
:100E4000BF93EF93FF938091D00082FD07C0809104
:100E5000D60061E274E00E94900602C08091D60044
:100E6000FF91EF91BF91AF919F918F917F916F9182
:100E70005F914F913F912F910F900BBE0F900FBE3E
:100E80000F901F9018951F920F920FB60F9211247A
:100E90000BB60F922F933F934F935F936F937F9374
:100EA0008F939F93AF93BF93EF93FF938091300104
:100EB00082FD07C08091360169E973E00E949006C7
:100EC00002C080913601FF91EF91BF91AF919F9148
:100ED0008F917F916F915F914F913F912F910F90E3
:100EE0000BBE0F900FBE0F901F9018951F920F9280
:100EF0000FB60F9211240BB60F922F933F938F933F
:100F00009F93EF93FF9320912D0530912E058091B3
:100F10002F05909130052817390731F48091C100D1
:100F20008F7D8093C10014C0E0912F05F0913005B2
:100F3000E351FB4F208180912F0590913005019660
:100F40008F7399279093300580932F052093C600C7
:100F5000FF91EF919F918F913F912F910F900BBE39
:100F60000F900FBE0F901F9018951F920F920FB603
:100F70000F9211240BB60F922F933F938F939F9351
:100F8000EF93FF932091A5043091A6048091A704CC
:100F90009091A8042817390731F48091C9008F7DFA
:100FA0008093C90014C0E091A704F091A804EB5904
:100FB000FB4F20818091A7049091A80401968F7324
:100FC00099279093A8048093A7042093CE00FF91C3
:100FD000EF919F918F913F912F910F900BBE0F90AA
:100FE0000FBE0F901F9018951F920F920FB60F9281
:100FF00011240BB60F922F933F938F939F93EF93F0
:10100000FF9320911D0430911E0480911F04909144
:1010100020042817390731F48091D1008F7D809307
:10102000D10014C0E0911F04F0912004E352FC4F62
:10103000208180911F049091200401968F7399273D
:101040009093200480931F042093D600FF91EF918A
:101050009F918F913F912F910F900BBE0F900FBEDC
:101060000F901F9018951F920F920FB60F92112498
:101070000BB60F922F933F938F939F93EF93FF9312
:101080002091950330919603809197039091980356
:101090002817390731F4809131018F7D8093310118
:1010A00014C0E0919703F0919803EB5AFC4F208114
:1010B000809197039091980301968F73992790934D
:1010C00098038093970320933601FF91EF919F91AE
:1010D0008F913F912F910F900BBE0F900FBE0F90ED
:1010E0001F901895CF92DF92EF92FF920F931F936C
:1010F000CF93DF93EC016A017B014115514E6105ED
:10110000710509F1EC89FD8981E090E008A002C039
:10111000880F991F0A94E2F7808360E079E08DE3FD
:1011200090E0A70196010E943D0A89019A010150B1
:1011300011092109310936952795179507959801C9
:1011400001151041A8F0EC89FD89108260E874E86F
:101150008EE190E0A70196010E943D0ADA01C901E3
:101160000197A109B109B695A795979587959C0117
:10117000E889F9893083EA89FB89208319A2EE89FD
:10118000FF89408181E090E09C010C8C02C0220F1D
:10119000331F0A94E2F7242B2083EE89FF894081D4
:1011A0009C010D8C02C0220F331F0A94E2F7242BFE
:1011B0002083EE89FF8940819C010E8C02C0220FA2
:1011C000331F0A94E2F7242B2083EE89FF892081C4
:1011D0000F8C02C0880F991F0A94E2F78095822332
:1011E0008083DF91CF911F910F91FF90EF90DF905F
:1011F000CF900895CF92DF92EF92FF92E3E3F3E076
:101200001382128288EEC82E83E0D82EE12CF12CB6
:10121000C482D582E682F78268EB72E071836083D4
:1012200081E395E0958784878DEE94E097878687A4
:1012300085EC90E0918B808B84EC90E0938B828B9B
:1012400080EC90E0958B848B81EC90E0978B868B83
:1012500082EC90E0918F808F86EC90E0938F828F6C
:1012600044E0448F33E0358F27E0268F95E0978F59
:1012700081E080A3E1E1F3E013821282C482D5828F
:10128000E682F78271836083A9EAB4E0B587A48718
:10129000A5E6B4E0B787A687ADECB0E0B18BA08B34
:1012A000ACECB0E0B38BA28BA8ECB0E0B58BA48B18
:1012B000A9ECB0E0B78BA68BAAECB0E0B18FA08F01
:1012C000AEECB0E0B38FA28F448F358F268F978F0F
:1012D00080A3EFEEF2E013821282C482D582E6820E
:1012E000F78271836083A1E2B4E0B587A487ADED96
:1012F000B3E0B787A687A5EDB0E0B18BA08BA4EDD6
:10130000B0E0B38BA28BA0EDB0E0B58BA48BA1EDC8
:10131000B0E0B78BA68BA2EDB0E0B18FA08FA6EDA9
:10132000B0E0B38FA28F448F358F268F978F80A325
:10133000EDECF2E013821282C482D582E682F7825B
:101340007183608369E973E07587648765E573E09D
:101350007787668765E371E0718B608B64E371E08A
:10136000738B628B60E371E0758B648B61E371E07A
:10137000778B668B62E371E0718F608F66E371E05B
:10138000738F628F448F358F268F978F80A3FF9046
:10139000EF90DF90CF9008958F929F92AF92BF927F
:1013A000CF92DF92EF92FF92CF93DF93EC016881AF
:1013B00079818A819B81611571058105910521F4EF
:1013C00064E279ED8BE597E02DE133EF41E050E009
:1013D0000E945F0A49015A019B01AC01A7EAB1E4EE
:1013E0000E94860A6B017C01ACEEB4EFA50194016A
:1013F0000E94940ADC01CB018C0D9D1DAE1DBF1D0A
:10140000B7FF03C00197A109B04888839983AA83D5
:10141000BB839F77DF91CF91FF90EF90DF90CF90CC
:10142000BF90AF909F908F9008950C94CC0980E06E
:1014300092E00C94CC09A0E0B0E08093000290937D
:101440000102A0930202B09303020895F8940C9451
:10145000BC0A97FB072E16F4009407D077FD09D03D
:101460000E94990A07FC05D03EF4909581959F4F04
:101470000895709561957F4F0895A1E21A2EAA1BD9
:10148000BB1BFD010DC0AA1FBB1FEE1FFF1FA21734
:10149000B307E407F50720F0A21BB30BE40BF50B31
:1014A000661F771F881F991F1A9469F760957095BA
:1014B000809590959B01AC01BD01CF010895052E4B
:1014C00097FB1EF400940E94760A57FD07D00E94F5
:1014D0003D0A07FC03D04EF40C94760A50954095D3
:1014E000309521953F4F4F4F5F4F089590958095D0
:1014F000709561957F4F8F4F9F4F0895EE0FFF1F9F
:10150000881F8BBF0790F691E02D19940E94AD0AB9
:10151000A59F900DB49F900DA49F800D911D112447
:101520000895B7FF0C94860A0E94860A821B930BCB
:101530000895AA1BBB1B51E107C0AA1FBB1FA6171A
:10154000B70710F0A61BB70B881F991F5A95A9F76C
:1015500080959095BC01CD010895A29FB001B39FE5
:10156000C001A39F700D811D1124911DB29F700DAC
:0C157000811D1124911D0895F894FFCFF7
:10157C00010000004D696E6967616D65005465730B
:10158C007420312F33207375636365737300436F5D
:10159C00756E7465722069733A200064656C6179AC
:1015AC00310031206F6666005465737420322F331E
:1015BC0020737563636573730064656C61793200C5
:1015CC0032206F6666005465737420332F3320739A
:1015DC007563636573730064656C617933003320E4
:1015EC006F666600476172656E7465656420686934
:1015FC007421004772656174206368616E636500D5
:10160C004E6F7420746F6F20676F6F642063686116
:10161C006E6365004E6F7420676F6F642063686142
:10162C006E636500000000004E06D404F705230627
:04163C000706430654
:00000001FF
