:100000000C9442010C9473010C9473010C947301D1
:100010000C9473010C9473010C9473010C94730190
:100020000C9473010C9473010C9473010C94730180
:100030000C9473010C9473010C9473010C94730170
:100040000C9473010C9473010C9473010C94730160
:100050000C9473010C9473010C9473010C94920230
:100060000C9473010C9450060C941C070C947301AF
:100070000C9473010C9473010C9473010C94730130
:100080000C9473010C9473010C9473010C94730120
:100090000C9483060C945B070C9473010C9473010D
:1000A0000C9473010C9473010C9473010C94730100
:1000B0000C9473010C9473010C9473010C947301F0
:1000C0000C9473010C9473010C9473010C94B60698
:1000D0000C949A070C9473010C94E9060C94D907BC
:1000E0000C947301AC03AF03A203A603E603B303AE
:1000F000B703BD03C103C503CB03CF03D303E6039B
:10010000D903DD03E1030C94DD030C94AC030C94E0
:10011000A6030C94E6030C94C9050C94D3030C9429
:10012000AD050C94C1030C949D050C94E1030C9453
:10013000CB030C94CF030C94E9050C94B7030C94F7
:10014000B3030C94D9030C94A0080C947C040C9475
:10015000F4050C94BD030C94A2030C94AF030C940F
:10016000C5030000090A02080B0C0D070603040171
:10017000000000000000000000000000000000007F
:10018000000000000000000000000000000011104E
:100190000F00000000000000000000000000000050
:1001A00000000000000000000102102020080810DC
:1001B00020401020408002010201080402010102D7
:1001C00004081020408080402010080402018004B0
:1001D000020180402010080402010804020101020B
:1001E000040810204080010204081020408005050A
:1001F0000505070508080808020202020A0A08089D
:1002000004040404010101010101010103030303CA
:1002100003030303040707070C0C0C0C0C0C0C0C59
:100220000202020206060606060606060B0B0B0B6A
:100230000B0B0B0B000020002300260029002C00D4
:100240002F00320000010000030106010901000037
:100250002200250028002B002E003100340002016E
:100260000000050108010B01000021002400270007
:100270002A002D00300033000101000004010701B5
:100280000A01A00811241FBECFEFD1E2DEBFCDBF0F
:1002900000E00CBF12E0A0E0B2E0E8ECF4E100E026
:1002A0000BBF02C007900D92A236B107D9F725E027
:1002B000A2E6B2E001C01D92A331B207E1F711E05E
:1002C000C2E4D1E000E006C021970109802FFE01C1
:1002D0000E94240AC134D10780E00807A9F70E94D0
:1002E00073020C94CC090C9400000E94330340E884
:1002F00055E260E070E081ED92E00E94180861E054
:1003000089E00E94E70361E08AE00E94E70361E080
:100310008BE00E94E70361E08CE00E94E70361E06C
:100320008DE00E94E70360E087E00E94E70361E060
:1003300087E00E94230460E084E00E94E70361E01C
:1003400084E00E94230460E085E00E94E70361E00E
:1003500085E00E94230460E086E00E94E70361E0FC
:1003600086E00C942304CF92DF92EF92FF920F93DA
:100370001F93CF93DF9364E072E081ED92E00E94DF
:10038000D4040E94DC026B017C01C0E0D0E003E0F9
:1003900010E00E94DC02DC01CB018C199D09AE0942
:1003A000BF0980319742A105B10508F05AC00E94EB
:1003B000BD09B8010E94CF09FC01EE0FFF1FE55BEC
:1003C000FD4F61E080810E94230484E00E94530479
:1003D000892B29F489E00E9453040197D9F085E024
:1003E0000E945304892B29F48AE00E945304019748
:1003F000F1F086E00E945304892B29F48BE00E94DF
:100400005304019709F164EF71E080E090E00E94ED
:100410000D03BFCF21964AE050E0BE0181ED92E08E
:100420000E94860560E089E00E942304D8CF2196CF
:100430004AE050E0BE0181ED92E00E94860560E056
:100440008AE00E942304D5CF21964AE050E0BE0105
:1004500081ED92E00E94860560E08BE00E9423041B
:10046000D2CFDF91CF911F910F91FF90EF90DF904E
:10047000CF9008956DE072E081ED92E00E94D40487
:1004800061E08CE00E94230487E00E945304892BE2
:10049000D9F760E08CE00E94230461E08DE00E94C7
:1004A00023046AE272E081ED92E00E94D4040E948B
:1004B000B3016CE372E081ED92E00E94D40460E04D
:1004C0008CE00E94230460E08DE00E94230460E041
:1004D00089E00E94230460E08AE00E94230460E037
:1004E0008BE00C9423040E94750160E089E00E9477
:1004F000230460E08AE00E94230460E08BE00E9415
:10050000230460E08CE00E94230460E08DE00E9400
:1005100023040E943A0281ED92E00E94E90580E006
:1005200090E008951F920F920FB60F9211242F930F
:100530003F938F939F93AF93BF938091630290916A
:100540006402A0916502B09166023091620223E0DC
:10055000230F2D3720F40196A11DB11D05C026E8FB
:10056000230F0296A11DB11D2093620280936302A6
:1005700090936402A0936502B09366028091670233
:1005800090916802A0916902B0916A020196A11D42
:10059000B11D8093670290936802A0936902B093A3
:1005A0006A02BF91AF919F918F913F912F910F90D0
:1005B0000FBE0F901F9018952FB7F89460916302AB
:1005C0007091640280916502909166022FBF089538
:1005D0003FB7F8948091670290916802A0916902F8
:1005E000B0916A0226B5A89B05C02F3F19F001966D
:1005F000A11DB11D3FBFBA2FA92F982F8827820FA9
:10060000911DA11DB11DBC01CD0142E0660F771FF8
:10061000881F991F4A95D1F70895CF92DF92EF92E4
:10062000FF92CF93DF936B017C010E94E802EB0104
:10063000C114D104E104F10479F00E94E8026C1BBA
:100640007D0B683E7340A0F381E0C81AD108E10831
:10065000F108C851DC4FECCFDF91CF91FF90EF90C4
:10066000DF90CF900895789484B5826084BD84B57E
:10067000816084BD85B5826085BD85B5816085BD9D
:10068000EEE6F0E0808181608083E1E8F0E01082B6
:10069000808182608083808181608083E0E8F0E0F7
:1006A000808181608083E1EBF0E0808184608083E1
:1006B000E0EBF0E0808181608083E1E9F0E080811F
:1006C00082608083808181608083E0E9F0E08081C6
:1006D00081608083E1EAF0E08081826080838081B4
:1006E00081608083E0EAF0E0808181608083E1E2E4
:1006F000F1E0808182608083808181608083E0E29C
:10070000F1E0808181608083EAE7F0E080818460AD
:10071000808380818260808380818160808380810A
:10072000806880831092C100089590E0FC013197A9
:10073000E131F10508F04AC08827EE58FF4F8F4F8E
:100740000C94240A809180008F7703C080918000F0
:100750008F7D80938000089584B58F7702C084B523
:100760008F7D84BD08958091B0008F7703C0809104
:10077000B0008F7D8093B0000895809190008F77B6
:1007800007C0809190008F7D03C080919000877F8B
:100790008093900008958091A0008F7707C080918A
:1007A000A0008F7D03C08091A000877F8093A00070
:1007B0000895809120018F7707C0809120018F7D5F
:1007C00003C080912001877F809320010895CF93FB
:1007D000DF9390E0FC01E855FE4F2491FC01E251CB
:1007E000FE4F8491882361F190E0880F991FFC01EE
:1007F000E859FD4FC591D491FC01E25BFD4FA591F5
:10080000B491611109C09FB7F89488812095822323
:100810008883EC912E230BC0623061F49FB7F8946B
:100820003881822F809583238883EC912E2B2C9303
:100830009FBF06C08FB7F894E8812E2B28838FBF07
:10084000DF91CF9108951F93CF93DF93282F30E04E
:10085000F901EE59FE4F8491F901E855FE4FD4910C
:10086000F901E251FE4FC491CC23C9F0162F81113A
:100870000E949503EC2FF0E0EE0FFF1FE25BFD4FAF
:10088000A591B4918FB7F894111105C09C91ED2FEB
:10089000E095E92302C0EC91ED2BEC938FBFDF9143
:1008A000CF911F910895CF93DF93282F30E0F90166
:1008B000EE59FE4F8491F901E855FE4FD491F901AC
:1008C000E251FE4FC491CC2391F081110E94950317
:1008D000EC2FF0E0EE0FFF1FEC5CFD4FA591B49103
:1008E000EC91ED2381E090E021F480E002C080E013
:1008F00090E0DF91CF910895CF92DF92EF92FF9237
:100900000F931F93CF93DF936C01EB017B01E40EF8
:10091000F51E00E010E0CE15DF0561F06991D6010B
:10092000ED91FC910190F081E02DC6011995080F21
:10093000191FF1CFC801DF91CF911F910F91FF9047
:10094000EF90DF90CF9008956115710579F0FB016C
:1009500001900020E9F73197AF01461B570BDC01EE
:10096000ED91FC910280F381E02D199480E090E0FC
:100970000895DC01ED91FC910190F081E02D199436
:100980000F931F93CF93DF93EC016DE00E94B904A6
:100990008C016AE0CE010E94B904800F911FDF91A3
:1009A000CF911F910F9108950F931F93CF93DF93D2
:1009B000EC010E94A4048C01CE010E94C004800FAF
:1009C000911FDF91CF911F910F9108958F929F9268
:1009D000AF92BF92CF92DF92EF92FF920F931F934D
:1009E000CF93DF93CDB7DEB7A1970FB6F894DEBFF4
:1009F0000FBECDBF6C01142FE52FCB01022F19A222
:100A0000223008F40AE07E0121E2E20EF11C802E81
:100A1000912CA12CB12C612F7E2FA50194010E9455
:100A2000E309029F1019112481E0E81AF1081A3035
:100A300014F4105D01C0195CF7011083122FE32F2D
:100A4000CA01232B242B252B31F7B701C6010E94A5
:100A5000A404A1960FB6F894DEBF0FBECDBFDF9100
:100A6000CF911F910F91FF90EF90DF90CF90BF90AB
:100A7000AF909F908F900895CF92DF92EF92FF9268
:100A80000F931F93CF93DF93EC016A017B01211534
:100A9000310579F4E881F9810190F081E02D642F2E
:100AA000DF91CF911F910F91FF90EF90DF90CF904A
:100AB00019942A303105E9F477FF1AC06DE20E94DB
:100AC000B9048C0144275527BA014C195D096E09F8
:100AD0007F092AE0CE010E94E604800F911FDF917A
:100AE000CF911F910F91FF90EF90DF90CF900895DD
:100AF0002AE0B701A601CE01DF91CF911F910F919E
:100B0000FF90EF90DF90CF900C94E6040F931F932B
:100B1000CF93DF93EC019A01AB01770F660B770B54
:100B20000E943C058C01CE010E94C004800F911FE1
:100B3000DF91CF911F910F910895FC012485358598
:100B4000F901E05CFF4F80819181329620813181F3
:100B5000821B930B8F7399270895DC011C96ED91EE
:100B6000FC911D97DF01A05CBF4F2D913C91119727
:100B700012968D919C9111972817390739F08D9114
:100B80009C91E80FF91F808190E008958FEF9FEF0F
:100B90000895FC01A485B585FD01E05CFF4F20812F
:100BA00031813296808191812817390779F08081CF
:100BB0009181A80FB91F8C91208131812F5F3F4F08
:100BC0002F7333273183208390E008958FEF9FEFB9
:100BD0000895FC0181A1882329F0A489B5898C910D
:100BE00086FFFBCF11A208950F931F93CF93DF933E
:100BF000FC01A685B7858D01005C1F4FE801888147
:100C0000998101968F739927AD014E5B5F4FEA0181
:100C10002881398182179307D1F3E801288139812E
:100C2000A20FB31F6C93A685B785A05CBF4F11962A
:100C30009C938E93A689B7892C9181E090E0078CD4
:100C400002C0880F991F0A94E2F7822B8C9381E0EF
:100C500081A30488F589E02D80818064808381E010
:100C600090E0DF91CF911F910F910895FB01E05C1F
:100C7000FF4F208131812F5F3F4F2F733327DB01DF
:100C8000AE5BBF4F4D915C912417350741F0408119
:100C90005181DB01A40FB51F8C933183208308950C
:100CA0001F920F920FB60F9211240BB60F922F9333
:100CB0003F934F935F936F937F938F939F93AF93E4
:100CC000BF93EF93FF938091C00082FD07C0809196
:100CD000C6006FEC74E00E94360602C08091C60028
:100CE000FF91EF91BF91AF919F918F917F916F9104
:100CF0005F914F913F912F910F900BBE0F900FBEC0
:100D00000F901F9018951F920F920FB60F921124FB
:100D10000BB60F922F933F934F935F936F937F93F5
:100D20008F939F93AF93BF93EF93FF938091C800EE
:100D300082FD07C08091CE0067E474E00E94360611
:100D400002C08091CE00FF91EF91BF91AF919F9132
:100D50008F917F916F915F914F913F912F910F9064
:100D60000BBE0F900FBE0F901F9018951F920F9201
:100D70000FB60F9211240BB60F922F933F934F9300
:100D80005F936F937F938F939F93AF93BF93EF93F3
:100D9000FF938091D00082FD07C08091D6006FEB59
:100DA00073E00E94360602C08091D600FF91EF9159
:100DB000BF91AF919F918F917F916F915F914F9173
:100DC0003F912F910F900BBE0F900FBE0F901F9071
:100DD00018951F920F920FB60F9211240BB60F9217
:100DE0002F933F934F935F936F937F938F939F9333
:100DF000AF93BF93EF93FF938091300182FD07C0C3
:100E00008091360167E373E00E94360602C080914C
:100E10003601FF91EF91BF91AF919F918F917F919B
:100E20006F915F914F913F912F910F900BBE0F905B
:100E30000FBE0F901F9018951F920F920FB60F9232
:100E400011240BB60F922F933F938F939F93EF93A1
:100E5000FF932091CB043091CC048091CD049091EC
:100E6000CE042817390731F48091C1008F7D80931B
:100E7000C10014C0E091CD04F091CE04E557FB4FC2
:100E800020818091CD049091CE0401968F73992793
:100E90009093CE048093CD042093C600FF91EF91F0
:100EA0009F918F913F912F910F900BBE0F900FBE8E
:100EB0000F901F9018951F920F920FB60F9211244A
:100EC0000BB60F922F933F938F939F93EF93FF93C4
:100ED000209143043091440480914504909146044C
:100EE0002817390731F48091C9008F7D8093C9009C
:100EF00014C0E0914504F0914604ED5FFB4F208162
:100F0000809145049091460401968F7399279093A0
:100F10004604809345042093CE00FF91EF919F916A
:100F20008F913F912F910F900BBE0F900FBE0F909E
:100F30001F9018951F920F920FB60F9211240BB6A7
:100F40000F922F933F938F939F93EF93FF93209153
:100F5000BB033091BC038091BD039091BE03281761
:100F6000390731F48091D1008F7D8093D10014C076
:100F7000E091BD03F091BE03E558FC4F20818091C4
:100F8000BD039091BE0301968F7399279093BE0382
:100F90008093BD032093D600FF91EF919F918F9195
:100FA0003F912F910F900BBE0F900FBE0F901F908F
:100FB00018951F920F920FB60F9211240BB60F9235
:100FC0002F933F938F939F93EF93FF93209133033E
:100FD00030913403809135039091360328173907F7
:100FE00031F4809131018F7D8093310114C0E09103
:100FF0003503F0913603ED50FD4F2081809135038C
:101000009091360301968F739927909336038093BE
:10101000350320933601FF91EF919F918F913F917E
:101020002F910F900BBE0F900FBE0F901F90189531
:10103000CF92DF92EF92FF920F931F93CF93DF93A4
:10104000EC016A017B014115514E6105710509F101
:10105000EC89FD8981E090E008A002C0880F991F0B
:101060000A94E2F7808360E079E08DE390E0A701E5
:1010700096010E94E30989019A0101501109210991
:101080003109369527951795079598010115104157
:10109000A8F0EC89FD89108260E874E88EE190E0A8
:1010A000A70196010E94E309DA01C9010197A1098C
:1010B000B109B695A795979587959C01E889F98917
:1010C0003083EA89FB89208319A2EE89FF89408158
:1010D00081E090E09C010C8C02C0220F331F0A9427
:1010E000E2F7242B2083EE89FF8940819C010D8C3F
:1010F00002C0220F331F0A94E2F7242B2083EE89CB
:10110000FF8940819C010E8C02C0220F331F0A947C
:10111000E2F7242B2083EE89FF8920810F8C02C007
:10112000880F991F0A94E2F7809582238083DF91CC
:10113000CF911F910F91FF90EF90DF90CF90089586
:10114000CF92DF92EF92FF92E1EDF2E013821282F2
:1011500088EEC82E83E0D82EE12CF12CC482D582F3
:10116000E682F78265E572E0718360838FEC94E03C
:10117000958784878BE894E09787868785EC90E055
:10118000918B808B84EC90E0938B828B80EC90E051
:10119000958B848B81EC90E0978B868B82EC90E032
:1011A000918F808F86EC90E0938F828F44E0448F04
:1011B00033E0358F27E0268F95E0978F81E080A37D
:1011C000EFEAF2E013821282C482D582E682F782CD
:1011D00071836083A7E4B4E0B587A487A3E0B4E09B
:1011E000B787A687ADECB0E0B18BA08BACECB0E0DC
:1011F000B38BA28BA8ECB0E0B58BA48BA9ECB0E0CC
:10120000B78BA68BAAECB0E0B18FA08FAEECB0E0AC
:10121000B38FA28F448F358F268F978F80A3EDE8F1
:10122000F2E013821282C482D582E682F782718351
:101230006083AFEBB3E0B587A487ABE7B3E0B787D4
:10124000A687A5EDB0E0B18BA08BA4EDB0E0B38B89
:10125000A28BA0EDB0E0B58BA48BA1EDB0E0B78B75
:10126000A68BA2EDB0E0B18FA08FA6EDB0E0B38F5A
:10127000A28F448F358F268F978F80A3EBE6F2E005
:1012800013821282C482D582E682F78271836083E0
:1012900067E373E07587648763EF72E0778766873B
:1012A00065E371E0718B608B64E371E0738B628B3B
:1012B00060E371E0758B648B61E371E0778B668B23
:1012C00062E371E0718F608F66E371E0738F628F0C
:1012D000448F358F268F978F80A3FF90EF90DF90FC
:1012E000CF9008958F929F92AF92BF92CF92DF924C
:1012F000EF92FF92CF93DF93EC01688179818A812D
:101300009B81611571058105910521F464E279EDF8
:101310008BE597E02DE133EF41E050E00E94050AB4
:1013200049015A019B01AC01A7EAB1E40E942C0AD1
:101330006B017C01ACEEB4EFA50194010E943A0A66
:10134000DC01CB018C0D9D1DAE1DBF1DB7FF03C081
:101350000197A109B04888839983AA83BB839F77AB
:10136000DF91CF91FF90EF90DF90CF90BF90AF9043
:101370009F908F9008950C94720980E092E00C94F5
:101380007209A0E0B0E08093000290930102A09364
:101390000202B09303020895F8940C94620A97FB3A
:1013A000072E16F4009407D077FD09D00E943F0A5B
:1013B00007FC05D03EF4909581959F4F0895709558
:1013C00061957F4F0895A1E21A2EAA1BBB1BFD0158
:1013D0000DC0AA1FBB1FEE1FFF1FA217B307E40714
:1013E000F50720F0A21BB30BE40BF50B661F771F6C
:1013F000881F991F1A9469F760957095809590954C
:101400009B01AC01BD01CF010895052E97FB1EF491
:1014100000940E941C0A57FD07D00E94E30907FCB4
:1014200003D04EF40C941C0A5095409530952195AC
:101430003F4F4F4F5F4F0895909580957095619500
:101440007F4F8F4F9F4F0895EE0FFF1F881F8BBF59
:101450000790F691E02D19940E94530AA59F900DD4
:10146000B49F900DA49F800D911D11240895B7FF86
:101470000C942C0A0E942C0A821B930B0895AA1B21
:10148000BB1B51E107C0AA1FBB1FA617B70710F06F
:10149000A61BB70B881F991F5A95A9F780959095A1
:1014A000BC01CD010895A29FB001B39FC001A39FCD
:1014B000700D811D1124911DB29F700D811D11248D
:0814C000911D0895F894FFCF7F
:1014C800010000004D696E6967616D6500507265C5
:1014D8007373206669726520627574746F6E207705
:1014E80068656E207265616479005374617274690D
:1014F8006E67206D696E6967616D65004D696E691B
:1015080067616D6520646F6E65210009000A000B34
:101518000000000000F4057C049D05C905AD05E93F
:021528000500BC
:00000001FF
