:100000000C9481000C94B2000C94B2000C94B200D9
:100010000C94B2000C94B2000C94B2000C94B20098
:100020000C94B2000C94B2000C94B2000C94B20088
:100030000C94B2000C94B2000C94B2000C94B20078
:100040000C94B2000C94B2000C94B2000C94B20068
:100050000C94B2000C94B2000C94B2000C94810584
:100060000C94B2000C942F080C94FB080C94B20072
:100070000C94B2000C94B2000C94B2000C94B20038
:100080000C94B2000C94B2000C94B2000C94B20028
:100090000C9462080C943A090C94B2000C94B200CF
:1000A0000C94B2000C94B2000C94B2000C94B20008
:1000B0000C94B2000C94B2000C94B2000C94B200F8
:1000C0000C94B2000C94B2000C94B2000C949508FD
:1000D0000C9479090C94B2000C94C8080C94B809DB
:1000E0000C94B2000C94D3070C9452060C947F0A23
:1000F0000C947C070C94C8070C948C070C94A807EC
:100100007F0A11241FBECFEFD1E2DEBFCDBF00E0DA
:100110000CBF13E0A0E0B2E0EAE4F9E100E00BBFBD
:1001200002C007900D92A83AB107D9F726E0A8EAD5
:10013000B3E001C01D92AF39B207E1F710E0C1E8AA
:10014000D0E000E006C021970109802FFE010E9447
:10015000790CC038D10780E00807A9F70E946A052A
:100160000C94200C0C9400000E94CB0540E855E252
:1001700060E070E08DE594E00E94F70940E855E208
:1001800060E070E087EF93E00E94F70980E00E9452
:100190002D060C94510BEF92FF920F931F93CF9368
:1001A000DF93CAEDD3E07E0100E010E028E130E00B
:1001B00040E050E060E070E0CB010E947D0BEAED92
:1001C000F3E080E090E08017910739F021913191C0
:1001D0006217730759F30196F6CFF7016193719394
:1001E0007F018C010F5F1F4F05301105F9F628E1E3
:1001F00030E040E050E060E070E0CB010E947D0B19
:100200007093E5036093E40367E072E08DE594E0AA
:100210000E94AC06699179914AE050E08DE594E046
:100220000E94650783E0C43ED807A1F74091DA0336
:100230005091DB036091DC037091DD03A091DE033C
:10024000B091DF03C091E003D091E1030091E2039C
:100250001091E303E8EAF3E080E090E03FE32FE46D
:100260008417950761F08617970749F08A179B074F
:1002700031F08C179D0719F08017910711F4208336
:1002800001C03083019631968931910549F7DF919C
:10029000CF911F910F91FF90EF900895E1ECF3E063
:1002A0008FE3819393E0EA3DF907D9F708950F931F
:1002B0001F93CF93DF9362E172E08DE594E00E949B
:1002C000AC0661E272E08DE594E00E94AC066FE35B
:1002D00072E08DE594E00E94AC066BE572E08DE57E
:1002E00094E00E94AC066FE372E08DE594E00E941A
:1002F000AC0669E772E08DE594E00E94AC066FE31E
:1003000072E08DE594E00E94AC0667E972E08DE54D
:1003100094E00E94AC066FE372E08DE594E00E94E9
:10032000AC0665EB72E08DE594E00E94AC0663EDEF
:1003300072E08DE594E00E948F0660910402709156
:1003400005024AE050E08DE594E00E945E076AEE07
:1003500072E08DE594E00E94AC066AE373E08DE5FF
:1003600094E00E948F0601EC13E0F80160818DE5B6
:1003700094E00E9491066AE373E08DE594E00E94A8
:100380008F06F80161818DE594E00E9491066AE391
:1003900073E08DE594E00E948F06F80162818DE59F
:1003A00094E00E9491066AE373E08DE594E00E9478
:1003B0008F06F80163818DE594E00E9491066AE35F
:1003C00073E08DE594E00E948F06F80164818DE56D
:1003D00094E00E9491066BE372E08DE594E00E9448
:1003E0008F0661E473E08DE594E00E948F066AE376
:1003F00073E08DE594E00E948F06C8EAD3E068813F
:100400008DE594E00E9491066AE373E08DE594E047
:100410000E948F0669818DE594E00E9491066AE34F
:1004200073E08DE594E00E948F066A818DE594E08B
:100430000E9491066AE373E08DE594E00E948F06C6
:100440006B818DE594E00E9491066AE373E08DE58F
:1004500094E00E948F066C818DE594E00E949106E5
:100460006BE372E08DE594E00E94AC066FE372E00E
:100470008DE594E00E948F066FE373E08DE594E0D4
:100480000E948F066FE372E08DE594E00E94AC0657
:100490006AE373E08DE594E00E948F06F8016581C0
:1004A0008DE594E00E9491066AE373E08DE594E0A7
:1004B0000E948F06F80166818DE594E00E94910606
:1004C0006AE373E08DE594E00E948F06F80167818E
:1004D0008DE594E00E9491066AE373E08DE594E077
:1004E0000E948F06F80160858DE594E00E949106D8
:1004F0006AE373E08DE594E00E948F06F801618560
:100500008DE594E00E9491066BE372E08DE594E046
:100510000E948F0661E473E08DE594E00E948F06EF
:100520006AE373E08DE594E00E948F066D818DE5AE
:1005300094E00E9491066AE373E08DE594E00E94E6
:100540008F066E818DE594E00E9491066AE373E068
:100550008DE594E00E948F066F818DE594E00E9406
:1005600091066AE373E08DE594E00E948F0668854A
:100570008DE594E00E9491066AE373E08DE594E0D6
:100580000E948F0669858DE594E00E9491066BE3D9
:1005900072E08DE594E00E94AC066FE372E08DE5B9
:1005A00094E00E948F066FE373E08DE594E00E9473
:1005B0008F066FE372E08DE594E00E94AC066AE37B
:1005C00073E08DE594E00E948F06F80162858DE569
:1005D00094E00E9491066AE373E08DE594E00E9446
:1005E0008F06F80163858DE594E00E9491066AE329
:1005F00073E08DE594E00E948F06F80164858DE537
:1006000094E00E9491066AE373E08DE594E00E9415
:100610008F06F80165858DE594E00E9491066AE3F6
:1006200073E08DE594E00E948F06F80166858DE504
:1006300094E00E9491066BE372E08DE594E00E94E5
:100640008F0661E473E08DE594E00E948F066AE313
:1006500073E08DE594E00E948F066A858DE594E055
:100660000E9491066AE373E08DE594E00E948F0694
:100670006B858DE594E00E9491066AE373E08DE559
:1006800094E00E948F066C858DE594E00E949106AF
:100690006AE373E08DE594E00E948F066D858DE539
:1006A00094E00E9491066AE373E08DE594E00E9475
:1006B0008F066E858DE594E00E9491066BE372E0F3
:1006C0008DE594E00E94AC066FE372E08DE594E066
:1006D0000E948F066FE373E08DE594E00E948F0621
:1006E0006FE372E08DE594E00E94AC066AE373E08C
:1006F0008DE594E00E948F06F80167858DE594E012
:100700000E9491066AE373E08DE594E00E948F06F3
:10071000F80160898DE594E00E9491066AE373E038
:100720008DE594E00E948F06F80161898DE594E0E3
:100730000E9491066AE373E08DE594E00E948F06C3
:10074000F80162898DE594E00E9491066AE373E006
:100750008DE594E00E948F06F80163898DE594E0B1
:100760000E9491066BE372E08DE594E00E948F0693
:1007700061E473E08DE594E00E948F066AE373E024
:100780008DE594E00E948F066F858DE594E00E94D0
:1007900091066AE373E08DE594E00E948F06688914
:1007A0008DE594E00E9491066AE373E08DE594E0A4
:1007B0000E948F0669898DE594E00E9491066AE3A4
:1007C00073E08DE594E00E948F066A898DE594E0E0
:1007D0000E9491066AE373E08DE594E00E948F0623
:1007E0006B898DE594E00E9491066BE372E08DE5E4
:1007F00094E00E94AC066FE372E08DE594E00E9405
:100800008F066FE373E08DE594E00E948F066FE33F
:1008100072E08DE594E00E94AC066AE373E08DE53A
:1008200094E00E948F06F80164898DE594E00E94AF
:1008300091066AE373E08DE594E00E948F06F8016B
:1008400065898DE594E00E9491066AE373E08DE589
:1008500094E00E948F06F80166898DE594E00E947D
:1008600091066AE373E08DE594E00E948F06F8013B
:1008700067898DE594E00E9491066AE373E08DE557
:1008800094E00E948F06F801608D8DE594E00E944F
:1008900091066BE372E08DE594E00E948F0661E4BF
:1008A00073E08DE594E00E948F066AE373E08DE5C6
:1008B00094E00E948F066C898DE594E00E94910679
:1008C0006AE373E08DE594E00E948F066D898DE503
:1008D00094E00E9491066AE373E08DE594E00E9443
:1008E0008F066E898DE594E00E9491066AE373E0BD
:1008F0008DE594E00E948F066F898DE594E00E945B
:1009000091066AE373E08DE594E00E948F06688D9E
:100910008DE594E00E9491066BE372E08DE594E032
:100920000E94AC066FE372E08DE594E00E948F06B2
:100930006FE373E08DE594E00E948F066FE372E051
:100940008DE594E0DF91CF911F910F910C94AC064F
:10095000EF92FF920F931F93CF93DF93C4EED3E0F8
:100960007E0100E010E028E130E040E050E060E08F
:1009700070E0CB010E947D0BE4EEF3E080E090E0BC
:100980008017910739F0219131916217730759F35C
:100990000196F6CFF701619371937F018C010F5F90
:1009A0001F4F05301105F9F628E130E040E050E036
:1009B00060E070E0CB010E947D0B7093EF036093C9
:1009C000EE03699179914AE050E08DE594E00E9450
:1009D000650783E0CE3ED807A1F7DF91CF911F9145
:1009E0000F91FF90EF900895AF92BF92CF92DF9258
:1009F000FF920F931F93CF93DF936C018B0160E7FE
:100A000073E08DE594E00E948F065601C0E0D0E0CF
:100A100001501109C017D1077CF48DE594E00E94C4
:100A20007C0718161906B4F78DE594E00E94A80714
:100A3000F82E8DE0F8120DC0CC0DDD1D1882DF916F
:100A4000CF911F910F91FF90DF90CF90BF90AF900B
:100A500008956F2D8DE594E00E949106F501F192C5
:100A60005F012196D7CFCF93DF93CDB7DEB7A097A5
:100A70000FB6F894DEBF0FBECDBF60E270E0CE01CE
:100A800001960E94F4048DE594E00E94980668E8BF
:100A900073E08DE594E00E948F06CE0101960E94DE
:100AA000F90B4AE050E08DE594E00E945E0763E9AF
:100AB00073E08DE594E00E94AC06CE0101960E94A1
:100AC000F90BA0960FB6F894DEBF0FBECDBFDF9135
:100AD000CF9108950E94B4000E944E010E94A80484
:100AE0008DE594E00E9498060E94CB000E94570179
:100AF0000E9433058DE594E00E94C80780E090E0F5
:100B000008951F920F920FB60F9211242F933F93C7
:100B10008F939F93AF93BF938091EF039091F003D6
:100B2000A091F103B091F2033091EE0323E0230F83
:100B30002D3720F40196A11DB11D05C026E8230F15
:100B40000296A11DB11D2093EE038093EF039093B5
:100B5000F003A093F103B093F2038091F30390911B
:100B6000F403A091F503B091F6030196A11DB11D08
:100B70008093F3039093F403A093F503B093F603EB
:100B8000BF91AF919F918F913F912F910F900FBE89
:100B90000F901F901895789484B5826084BD84B5B9
:100BA000816084BD85B5826085BD85B5816085BD68
:100BB000EEE6F0E0808181608083E1E8F0E0108281
:100BC000808182608083808181608083E0E8F0E0C2
:100BD000808181608083E1EBF0E0808184608083AC
:100BE000E0EBF0E0808181608083E1E9F0E08081EA
:100BF00082608083808181608083E0E9F0E0808191
:100C000081608083E1EAF0E080818260808380817E
:100C100081608083E0EAF0E0808181608083E1E2AE
:100C2000F1E0808182608083808181608083E0E266
:100C3000F1E0808181608083EAE7F0E08081846078
:100C400080838081826080838081816080838081D5
:100C5000806880831092C1000895863308F086531F
:100C600090917B00282F2870977F922B90937B0088
:100C700087702091060290E4299F90011124822B15
:100C800080937C0080917A00806480937A008091C8
:100C90007A0086FDFCCF809178002091790090E069
:100CA000922B0895CF92DF92EF92FF920F931F93B2
:100CB000CF93DF936C01EB017B01E40EF51E00E0A6
:100CC00010E0CE15DF0561F06991D601ED91FC9140
:100CD0000190F081E02DC6011995080F191FF1CF81
:100CE000C801DF91CF911F910F91FF90EF90DF909E
:100CF000CF9008956115710579F0FB0101900020F6
:100D0000E9F73197AF01461B570BDC01ED91FC91E0
:100D10000280F381E02D199480E090E008950C9416
:100D20007A06DC01ED91FC910190F081E02D19949F
:100D30000F931F93CF93DF93EC016DE00E94910618
:100D40008C016AE0CE010E949106800F911FDF9115
:100D5000CF911F910F9108950F931F93CF93DF931E
:100D6000EC010E947A068C01CE010E949806800F49
:100D7000911FDF91CF911F910F9108958F929F92B4
:100D8000AF92BF92CF92DF92EF92FF920F931F9399
:100D9000CF93DF93CDB7DEB7A1970FB6F894DEBF40
:100DA0000FBECDBF6C01142FE52FCB01022F19A26E
:100DB000223008F40AE07E0121E2E20EF11C802ECE
:100DC000912CA12CB12C612F7E2FA50194010E94A2
:100DD000380C029F1019112481E0E81AF1081A302A
:100DE00014F4105D01C0195CF7011083122FE32F7A
:100DF000CA01232B242B252B31F7B701C6010E94F2
:100E00007A06A1960FB6F894DEBF0FBECDBFDF9174
:100E1000CF911F910F91FF90EF90DF90CF90BF90F7
:100E2000AF909F908F900895CF92DF92EF92FF92B4
:100E30000F931F93CF93DF93EC016A017B01211580
:100E4000310579F4E881F9810190F081E02D642F7A
:100E5000DF91CF911F910F91FF90EF90DF90CF9096
:100E600019942A303105E9F477FF1AC06DE20E9427
:100E700091068C0144275527BA014C195D096E096A
:100E80007F092AE0CE010E94BE06800F911FDF91EC
:100E9000CF911F910F91FF90EF90DF90CF90089529
:100EA0002AE0B701A601CE01DF91CF911F910F91EA
:100EB000FF90EF90DF90CF900C94BE069A01AB01AB
:100EC000770F660B770B0C9414070F931F93CF9338
:100ED000DF93EC019A01AB01770F660B770B0E9451
:100EE00014078C01CE010E949806800F911FDF919C
:100EF000CF911F910F910895FC0124853585F9014B
:100F0000E05CFF4F80819181329620813181821B8C
:100F1000930B8F7399270895DC011C96ED91FC913A
:100F20001D97DF01A05CBF4F2D913C911197129648
:100F30008D919C9111972817390739F08D919C91CB
:100F4000E80FF91F808190E008958FEF9FEF0895DB
:100F5000FC01A485B585FD01E05CFF4F2081318156
:100F60003296808191812817390779F080819181AB
:100F7000A80FB91F8C91208131812F5F3F4F2F73B4
:100F800033273183208390E008958FEF9FEF0895FA
:100F9000FC0181A1882329F0A489B5898C9186FF61
:100FA000FBCF11A208950F931F93CF93DF93FC0102
:100FB000A685B7858D01005C1F4FE8018881998166
:100FC00001968F739927AD014E5B5F4FEA0128812F
:100FD000398182179307D1F3E80128813981A20F63
:100FE000B31F6C93A685B785A05CBF4F11969C93E9
:100FF0008E93A689B7892C9181E090E0078C02C07E
:10100000880F991F0A94E2F7822B8C9381E081A3C9
:101010000488F589E02D80818064808381E090E000
:10102000DF91CF911F910F910895FB01E05CFF4F7D
:10103000208131812F5F3F4F2F733327DB01AE5B60
:10104000BF4F4D915C912417350741F0408151818C
:10105000DB01A40FB51F8C933183208308951F9269
:101060000F920FB60F9211240BB60F922F933F934E
:101070004F935F936F937F938F939F93AF93BF93A0
:10108000EF93FF938091C00082FD07C08091C6005E
:101090006BE576E00E94150802C08091C600FF91C2
:1010A000EF91BF91AF919F918F917F916F915F91E0
:1010B0004F913F912F910F900BBE0F900FBE0F904D
:1010C0001F9018951F920F920FB60F9211240BB616
:1010D0000F922F933F934F935F936F937F938F93D1
:1010E0009F93AF93BF93EF93FF938091C80082FDCE
:1010F00007C08091CE0063ED75E00E94150802C024
:101100008091CE00FF91EF91BF91AF919F918F9110
:101110007F916F915F914F913F912F910F900BBEF7
:101120000F900FBE0F901F9018951F920F920FB641
:101130000F9211240BB60F922F933F934F935F930F
:101140006F937F938F939F93AF93BF93EF93FF938F
:101150008091D00082FD07C08091D6006BE475E0DD
:101160000E94150802C08091D600FF91EF91BF91B7
:10117000AF919F918F917F916F915F914F913F912F
:101180002F910F900BBE0F900FBE0F901F901895D0
:101190001F920F920FB60F9211240BB60F922F933E
:1011A0003F934F935F936F937F938F939F93AF93EF
:1011B000BF93EF93FF938091300182FD07C0809130
:1011C000360163EC74E00E94150802C0809136017C
:1011D000FF91EF91BF91AF919F918F917F916F910F
:1011E0005F914F913F912F910F900BBE0F900FBECB
:1011F0000F901F9018951F920F920FB60F92112407
:101200000BB60F922F933F938F939F93EF93FF9380
:1012100020915706309158068091590690915A06B0
:101220002817390731F48091C1008F7D8093C10068
:1012300014C0E0915906F0915A06E95EF94F2081F9
:101240008091590690915A0601968F739927909331
:101250005A06809359062093C600FF91EF919F9103
:101260008F913F912F910F900BBE0F900FBE0F905B
:101270001F9018951F920F920FB60F9211240BB664
:101280000F922F933F938F939F93EF93FF93209110
:10129000CF053091D0058091D1059091D2052817C6
:1012A000390731F48091C9008F7D8093C90014C043
:1012B000E091D105F091D205E157FA4F208180915C
:1012C000D1059091D20501968F7399279093D205FD
:1012D0008093D1052093CE00FF91EF919F918F9144
:1012E0003F912F910F900BBE0F900FBE0F901F904C
:1012F00018951F920F920FB60F9211240BB60F92F2
:101300002F933F938F939F93EF93FF9320914705E4
:10131000309148058091490590914A052817390771
:1013200031F48091D1008F7D8093D10014C0E09181
:101330004905F0914A05E95FFA4F208180914905FE
:1013400090914A0501968F73992790934A0580934F
:1013500049052093D600FF91EF919F918F913F9186
:101360002F910F900BBE0F900FBE0F901F901895EE
:101370001F920F920FB60F9211240BB60F922F935C
:101380003F938F939F93EF93FF932091BF043091EE
:10139000C0048091C1049091C2042817390731F428
:1013A000809131018F7D8093310114C0E091C1049F
:1013B000F091C204E158FB4F20818091C1049091CB
:1013C000C20401968F7399279093C2048093C1043D
:1013D00020933601FF91EF919F918F913F912F9133
:1013E0000F900BBE0F900FBE0F901F901895CF92CD
:1013F000DF92EF92FF920F931F93CF93DF93EC0155
:101400006A017B014115514E6105710509F1EC89B5
:10141000FD8981E090E008A002C0880F991F0A941E
:10142000E2F7808360E079E08DE390E0A701960128
:101430000E94380C89019A010150110921093109D2
:101440003695279517950795980101151041A8F035
:10145000EC89FD89108260E874E88EE190E0A701D4
:1014600096010E94380CDA01C9010197A109B1095E
:10147000B695A795979587959C01E889F98930835A
:10148000EA89FB89208319A2EE89FF89408181E0E6
:1014900090E09C010C8C02C0220F331F0A94E2F7EB
:1014A000242B2083EE89FF8940819C010D8C02C092
:1014B000220F331F0A94E2F7242B2083EE89FF8941
:1014C00040819C010E8C02C0220F331F0A94E2F768
:1014D000242B2083EE89FF8920810F8C02C0880F86
:1014E000991F0A94E2F7809582238083DF91CF9140
:1014F0001F910F91FF90EF90DF90CF900895CF92C2
:10150000DF92EF92FF92EDE5F4E01382128288EE13
:10151000C82E83E0D82EE12CF12CC482D582E6823D
:10152000F7826CE973E0718360838BE596E09587C1
:10153000848787E196E09787868785EC90E0918B9A
:10154000808B84EC90E0938B828B80EC90E0958B89
:10155000848B81EC90E0978B868B82EC90E0918F6E
:10156000808F86EC90E0938F828F44E0448F33E04D
:10157000358F27E0268F95E0978F81E080A3EBE3FE
:10158000F4E013821282C482D582E682F7827183EC
:101590006083A3EDB5E0B587A487AFE8B5E0B78772
:1015A000A687ADECB0E0B18BA08BACECB0E0B38B18
:1015B000A28BA8ECB0E0B58BA48BA9ECB0E0B78B04
:1015C000A68BAAECB0E0B18FA08FAEECB0E0B38FE9
:1015D000A28F448F358F268F978F80A3E9E1F4E0A7
:1015E00013821282C482D582E682F782718360837D
:1015F000ABE4B5E0B587A487A7E0B5E0B787A687D9
:10160000A5EDB0E0B18BA08BA4EDB0E0B38BA28BC5
:10161000A0EDB0E0B58BA48BA1EDB0E0B78BA68BAD
:10162000A2EDB0E0B18FA08FA6EDB0E0B38FA28F96
:10163000448F358F268F978F80A3E7EFF3E01382D7
:101640001282C482D582E682F7827183608363EC62
:1016500074E0758764876FE774E07787668765E372
:1016600071E0718B608B64E371E0738B628B60E37C
:1016700071E0758B648B61E371E0778B668B62E35D
:1016800071E0718F608F66E371E0738F628F448FBA
:10169000358F268F978F80A3FF90EF90DF90CF90AC
:1016A0000895009729F0BC0180E090E00C94F00BC5
:1016B0000895CF93DF9300D01F92CDB7DEB76115A9
:1016C00071058105910579F09B01AC0169833A832D
:1016D0004B835C830E94EC0B29813A814B815C81B6
:1016E0000E945A0C03C060E070E0CB010F900F9095
:1016F0000F900F90DF91CF910895CF92DF92EF92EC
:10170000FF920F931F93621773078407950784F462
:1017100089019A016B017C01C901B8016C197D092D
:101720008E099F090E94590B6C0D7D1D8E1D9F1DFA
:101730001F910F91FF90EF90DF90CF9008958F92BF
:101740009F92AF92BF92CF92DF92EF92FF92CF9390
:10175000DF93EC01688179818A819B816115710534
:101760008105910521F464E279ED8BE597E02DE1A7
:1017700033EF41E050E00E945A0C49015A019B01AD
:10178000AC01A7EAB1E40E94810C6B017C01ACEED4
:10179000B4EFA50194010E948F0CDC01CB018C0DEC
:1017A0009D1DAE1DBF1DB7FF03C00197A109B04825
:1017B00088839983AA83BB83BC01CD019F77DF9186
:1017C000CF91FF90EF90DF90CF90BF90AF909F9020
:1017D0008F9008950C949F0B80E092E00C949F0BE7
:1017E00060930002709301028093020290930302BF
:1017F00008951F93FC0199278827BC01E894119153
:101800001032E9F3193010F01E30C8F31B3251F0DA
:101810001D3249F4689406C00E94230C610F711DAB
:10182000811D911D119110531A30B0F33EF4909523
:101830008095709561957F4F8F4F9F4F1F910895B1
:10184000F8940C94A30C592F482F372F262F660F8E
:10185000771F881F991F660F771F881F991F620FB8
:10186000731F841F951F660F771F881F991F089588
:10187000A1E21A2EAA1BBB1BFD010DC0AA1FBB1F94
:10188000EE1FFF1FA217B307E407F50720F0A21B06
:10189000B30BE40BF50B661F771F881F991F1A9473
:1018A00069F760957095809590959B01AC01BD019D
:1018B000CF010895052E97FB1EF400940E94710C31
:1018C00057FD07D00E94380C07FC03D04EF40C944F
:1018D000710C50954095309521953F4F4F4F5F4F7C
:1018E000089590958095709561957F4F8F4F9F4F8C
:1018F0000895EE0FFF1F881F8BBF0790F691E02D14
:1019000019940E94940CA59F900DB49F900DA49FD4
:10191000800D911D11240895B7FF0C94810C0E9435
:10192000810C821B930B0895A29FB001B39FC0014D
:10193000A39F700D811D1124911DB29F700D811DFB
:0A1940001124911D0895F894FFCFC3
:10194A0001000000050001796F75722073686970E3
:10195A007300506F736974696F6E696E673A200A13
:10196A0000207C20202030207C202031207C202058
:10197A0032207C203320207C202034207C20002D23
:10198A002D2D2D2D2D2D2D2D2D2D2D2D2D2D2D2D7D
:10199A002D2D2D2D2D2D2D2D2D2D00207C2020207F
:1019AA0035207C202036207C202037207C203820BF
:1019BA00207C202039207C2000207C2020313020EF
:1019CA007C203131207C203132207C203133207C34
:1019DA00203134207C2000207C20203135207C20BE
:1019EA003136207C203137207C203138207C203150
:1019FA0039207C2000207C20203230207C2032318B
:101A0A00207C203232207C203233207C2032342049
:101A1A007C2000596F7572206F70706F6E656E74DE
:101A2A0073206669656C643A20002074686569727F
:101A3A00207368697073206C6566742120202020E9
:101A4A00202020202020202020202020202020208C
:101A5A002020202020202020202020202020796FD4
:101A6A0075722063757272656E742072656D616934
:101A7A006E696E67536869707300207C20200020AD
:101A8A00202020202020202020202020202020204C
:101A9A00202020202020202020202020202020203C
:101AAA00202020202020202020202020202020004C
:101ABA00456E7465722074686520636F6F7264691D
:101ACA006E617465733A200041747461636B696E68
:101ADA00672000202E2E2E0000000000D307520699
:081AEA007C07A8078C07C80760
:00000001FF
