:100000000C9444010C9475010C9475010C947501C9
:100010000C9475010C9475010C9475010C94750188
:100020000C9475010C9475010C9475010C94750178
:100030000C9475010C9475010C9475010C94750168
:100040000C9475010C9475010C9475010C94750158
:100050000C9475010C9475010C9475010C94EB0CC7
:100060000C9475010C94E9100C94B5110C94750165
:100070000C9475010C9475010C9475010C94750128
:100080000C9475010C9475010C9475010C94750118
:100090000C941C110C94F4110C9475010C947501C2
:1000A0000C9475010C9475010C9475010C947501F8
:1000B0000C9475010C9475010C9475010C947501E8
:1000C0000C9475010C9475010C9475010C944F11EE
:1000D0000C9433120C9475010C9482110C947212CE
:1000E0000C9475012A0E2D0E200E240E640E310E76
:1000F000350E3B0E3F0E430E490E4D0E510E640E53
:10010000570E5B0E5F0E0C94240E0C9477010C942A
:100110005F0E0C942A0E0C945B0E0C943B0E0C9408
:10012000570E0C9436100C94430E0C942D0E0C9418
:10013000200E0C943F0E0C948D100C94310E0C94E8
:100140004D0E0C9446100C94350E0C9439130C94EF
:10015000510E0C9462100C94490E0C9482100C9465
:10016000FA0E0C94640E0000090A02080B0C0D072D
:100170000603040100000000000000000000000071
:10018000000000000000000000000000000000006F
:10019000000011100F00000000000000000000002F
:1001A000000000000000000000000000010210201C
:1001B000200808102040102040800201020108049D
:1001C0000201010204081020408080402010080431
:1001D000020180040201804020100804020108048A
:1001E00002010102040810204080010204081020CE
:1001F00040800505050507050808080802020202F7
:100200000A0A0808040404040101010101010101B2
:100210000303030303030303040707070C0C0C0C7D
:100220000C0C0C0C02020202060606060606060666
:100230000B0B0B0B0B0B0B0B0000200023002600FD
:1002400029002C002F0032000001000003010601EC
:10025000090100002200250028002B002E0031009B
:10026000340002010000050108010B01000021001B
:10027000240027002A002D00300033000101000077
:10028000040107010A01391311241FBECFEFD1E287
:10029000DEBFCDBF00E00CBF19E0A0E0B2E0E0EFB0
:1002A000FFE200E00BBF02C007900D92A434B1073B
:1002B000D9F72CE0A4E4B9E001C01D92AF36B20733
:1002C000E1F711E0C4E4D1E000E006C021970109A4
:1002D000802FFE010E94CC17C334D10780E00807AD
:1002E000A9F70E943F0B0C944B170C940000FB01E4
:1002F00040815181FC0120813181CA01821B930B15
:1003000008950E948C0D40E855E260E070E08DE2B7
:100310009AE00E94B11261E089E00E94650E61E0FE
:100320008AE00E94650E61E08BE00E94650E61E04C
:100330008CE00E94650E61E08DE00E94650E60E039
:1003400087E00E94650E61E087E00E94A10E60E0F8
:1003500084E00E94650E61E084E00E94A10E60E0EE
:1003600085E00E94650E61E085E00E94A10E60E0DC
:1003700086E00E94650E61E086E00E94A10E80E0AA
:100380000E94EE0D0C940B14CF92DF92EF92FF922D
:100390000F931F93CF93DF930E94350D6B017C0168
:1003A000C0E0D0E003E010E00E94350DDC01CB019D
:1003B0008C199D09AE09BF0980319742A105B1058D
:1003C00008F06CC00E94BB16B8010E947717FC01B0
:1003D000EE0FFF1FE25DF64F61E080810E94A10EEB
:1003E00084E00E94D10E892B29F489E00E94D10E6D
:1003F0000197D9F085E00E94D10E892B29F48AE07B
:100400000E94D10E019721F186E00E94D10E892B26
:1004100029F48BE00E94D10E019769F164EF71E03D
:1004200080E090E00E94660DBFCF21966FE372E0FE
:100430008DE29AE00E94370F4AE050E0BE018DE263
:100440009AE00E941F1060E089E00E94A10ED2CFC6
:1004500021966FE372E08DE29AE00E94370F4AE046
:1004600050E0BE018DE29AE00E941F1060E08AE039
:100470000E94A10EC9CF21966FE372E08DE29AE04F
:100480000E94370F4AE050E0BE018DE29AE00E94E0
:100490001F1060E08BE00E94A10EC0CFCE01DF9163
:1004A000CF911F910F91FF90EF90DF90CF90089523
:1004B0006FE472E08DE29AE00E94540F61E672E010
:1004C0008DE29AE00E94540F6BE872E08DE29AE0B0
:1004D0000E94370F66EC72E08DE29AE00E94540FA2
:1004E00069ED72E08DE29AE00E94540F62E173E0E0
:1004F0008DE29AE00E94370F68E473E08DE29AE0A3
:100500000E94540F64E673E08DE29AE00E94540F5B
:1005100066E873E08DE29AE00E94370F62EC73E0C8
:100520008DE29AE00E94540F64EE73E08DE29AE04F
:100530000E94540F61E08CE00E94A10E87E00E94AF
:10054000D10E892BD9F760E08CE00E94A10E61E00A
:100550008DE00E94A10E6AE074E08DE29AE00E94B4
:10056000540F0E94C4019093BD098093BC0960E2BE
:1005700074E08DE29AE00E94540F60E08CE00E94EB
:10058000A10E60E08DE00E94A10E60E089E00E9473
:10059000A10E60E08AE00E94A10E60E08BE00E9464
:1005A000A10E8091BC099091BD0908950F931F93EE
:1005B000CF93DF930CEA19E0C0E0D0E028E130E00F
:1005C00040E050E060E070E0CB010E9437149B01F6
:1005D000ECEAF9E040E050E04C175D0741F0A191F2
:1005E000B1912A173B0731F04F5F5F4FF5CFF8010C
:1005F0007183608321960E5F1F4FC530D105F1F6E0
:100600008DE29AE0DF91CF911F910F910C94400FF2
:100610000F931F93CF93DF9304E919E0C0E0D0E07C
:1006200028E130E040E050E060E070E0CB010E9463
:1006300037149B01E4E9F9E040E050E04C175D0716
:1006400041F0A191B1912A173B0729F04F5F5F4F0D
:10065000F5CF21E001C020E0211101C0FFCFF8015A
:10066000619371938F012196C530D105C9F68DE252
:100670009AE0DF91CF911F910F910C94400F0F934F
:100680001F93CF93DF930EE919E0C0E0D0E028E19B
:1006900030E040E050E060E070E0CB010E943714B1
:1006A0009B01EEE9F9E040E050E04C175D0741F0B6
:1006B000A191B1912A173B0731F04F5F5F4FF5CF02
:1006C000F8017183608321960E5F1F4FC730D105FB
:1006D000F1F68DE29AE0DF91CF911F910F910C948A
:1006E000400FCF93DF93CAE0D2E029E130E040E051
:1006F00050E060E070E0CB010E943714660F771F76
:10070000FB01E65FFD4F8081918128813981318332
:1007100020838993999382E0CC33D80731F7DF9116
:10072000CF9108950F931F93CF93DF934091940936
:10073000509195096091960970919709A091980937
:10074000B0919909C0919A09D0919B0900919C0997
:1007500010919D09E0E6F9E080E090E03FE32FE4AE
:100760008417950761F08617970749F08A179B074A
:1007700031F08C179D0719F08017910711F4208331
:1007800001C03083019631968931910549F7DF9197
:10079000CF911F910F910895E9E7F9E08FE38193DD
:1007A00099E0E239F907D9F708950F931F93CF9392
:1007B000DF9363E374E08DE29AE00E94370F62E416
:1007C00074E08DE29AE00E94540F6CE774E08DE2D1
:1007D0009AE00E94370F68E974E08DE29AE00E9487
:1007E000540F6AED74E08DE29AE00E94370F67EFD4
:1007F00074E08DE29AE00E94540F69E275E08DE2A8
:100800009AE00E94370F65E475E08DE29AE00E945D
:10081000540F6AED74E08DE29AE00E94370F65E7AD
:1008200075E08DE29AE00E94540F60EA75E08DE277
:100830009AE00E94370F6CEB75E08DE29AE00E941F
:10084000540F6AED74E08DE29AE00E94540F66EF57
:1008500075E08DE29AE00E94540F6AED74E08DE23B
:100860009AE00E94540F63E176E08DE29AE00E94E4
:10087000540F60E474E08DE29AE00E94540F60E34C
:1008800076E08DE29AE00E94370F609192097091B4
:1008900093094AE050E08DE29AE00E94181068E463
:1008A00076E08DE29AE00E94370F60913C027091F1
:1008B0003D024AE050E08DE29AE00E941F106AE992
:1008C00076E08DE29AE00E94370F09E719E0F8011F
:1008D00060818DE29AE00E94390F6AE976E08DE24C
:1008E0009AE00E94370FF80161818DE29AE00E9440
:1008F000390F6AE976E08DE29AE00E94370FF8013D
:1009000062818DE29AE00E94390F6AE976E08DE219
:100910009AE00E94370FF80163818DE29AE00E940D
:10092000390F6AE976E08DE29AE00E94370FF8010C
:1009300064818DE29AE00E94390F6CE276E08DE2EC
:100940009AE00E94370F61EA76E08DE29AE00E9419
:10095000370F6AE976E08DE29AE00E94370FC0E631
:10096000D9E068818DE29AE00E94390F6AE976E069
:100970008DE29AE00E94370F69818DE29AE00E9431
:10098000390F6AE976E08DE29AE00E94370F6A81BA
:100990008DE29AE00E94390F6AE976E08DE29AE0F2
:1009A0000E94370F6B818DE29AE00E94390F6AE94D
:1009B00076E08DE29AE00E94370F6C818DE29AE03A
:1009C0000E94390F6CE276E08DE29AE00E94540FAB
:1009D0006BED74E08DE29AE00E94370F6FE976E0EC
:1009E0008DE29AE00E94370F6BED74E08DE29AE0A1
:1009F0000E94540F6AE976E08DE29AE00E94370F78
:100A0000F80165818DE29AE00E94390F6AE976E08B
:100A10008DE29AE00E94370FF80166818DE29AE03C
:100A20000E94390F6AE976E08DE29AE00E94370F62
:100A3000F80167818DE29AE00E94390F6AE976E059
:100A40008DE29AE00E94370FF80160858DE29AE00E
:100A50000E94390F6AE976E08DE29AE00E94370F32
:100A6000F80161858DE29AE00E94390F6CE276E030
:100A70008DE29AE00E94370F61EA76E08DE29AE01B
:100A80000E94370F6AE976E08DE29AE00E94370F04
:100A90006D818DE29AE00E94390F6AE976E08DE27D
:100AA0009AE00E94370F6E818DE29AE00E94390F22
:100AB0006AE976E08DE29AE00E94370F6F818DE25D
:100AC0009AE00E94390F6AE976E08DE29AE00E948E
:100AD000370F68858DE29AE00E94390F6AE976E067
:100AE0008DE29AE00E94370F69858DE29AE00E94BC
:100AF000390F6CE276E08DE29AE00E94540F6BEDC4
:100B000074E08DE29AE00E94370F6FE976E08DE2A3
:100B10009AE00E94370F6BED74E08DE29AE00E943C
:100B2000540F6AE976E08DE29AE00E94370FF801EF
:100B300062858DE29AE00E94390F6AE976E08DE2E3
:100B40009AE00E94370FF80163858DE29AE00E94D7
:100B5000390F6AE976E08DE29AE00E94370FF801DA
:100B600064858DE29AE00E94390F6AE976E08DE2B1
:100B70009AE00E94370FF80165858DE29AE00E94A5
:100B8000390F6AE976E08DE29AE00E94370FF801AA
:100B900066858DE29AE00E94390F6CE276E08DE284
:100BA0009AE00E94370F61EA76E08DE29AE00E94B7
:100BB000370F6AE976E08DE29AE00E94370F6A8586
:100BC0008DE29AE00E94390F6AE976E08DE29AE0C0
:100BD0000E94370F6B858DE29AE00E94390F6AE917
:100BE00076E08DE29AE00E94370F6C858DE29AE004
:100BF0000E94390F6AE976E08DE29AE00E94370F91
:100C00006D858DE29AE00E94390F6AE976E08DE207
:100C10009AE00E94370F6E858DE29AE00E94390FAC
:100C20006CE276E08DE29AE00E94540F6BED74E086
:100C30008DE29AE00E94370F6FE976E08DE29AE04C
:100C40000E94370F6BED74E08DE29AE00E94540F22
:100C50006AE976E08DE29AE00E94370FF801678535
:100C60008DE29AE00E94390F6AE976E08DE29AE01F
:100C70000E94370FF80160898DE29AE00E94390FD7
:100C80006AE976E08DE29AE00E94370FF801618907
:100C90008DE29AE00E94390F6AE976E08DE29AE0EF
:100CA0000E94370FF80162898DE29AE00E94390FA5
:100CB0006AE976E08DE29AE00E94370FF8016389D5
:100CC0008DE29AE00E94390F6CE276E08DE29AE0C4
:100CD0000E94370F61EA76E08DE29AE00E94370FBA
:100CE0006AE976E08DE29AE00E94370F6F858DE227
:100CF0009AE00E94390F6AE976E08DE29AE00E945C
:100D0000370F68898DE29AE00E94390F6AE976E030
:100D10008DE29AE00E94370F69898DE29AE00E9485
:100D2000390F6AE976E08DE29AE00E94370F6A890E
:100D30008DE29AE00E94390F6AE976E08DE29AE04E
:100D40000E94370F6B898DE29AE00E94390F6CE2A6
:100D500076E08DE29AE00E94540F6BED74E08DE234
:100D60009AE00E94370F6FE976E08DE29AE00E94E8
:100D7000370F6BED74E08DE29AE00E94540F6AE940
:100D800076E08DE29AE00E94370FF80164898DE2E7
:100D90009AE00E94390F6AE976E08DE29AE00E94BB
:100DA000370FF80165898DE29AE00E94390F6AE9F0
:100DB00076E08DE29AE00E94370FF80166898DE2B5
:100DC0009AE00E94390F6AE976E08DE29AE00E948B
:100DD000370FF80167898DE29AE00E94390F6AE9BE
:100DE00076E08DE29AE00E94370FF801608D8DE287
:100DF0009AE00E94390F6CE276E08DE29AE00E9460
:100E0000370F61EA76E08DE29AE00E94370F6AE9D7
:100E100076E08DE29AE00E94370F6C898DE29AE0CD
:100E20000E94390F6AE976E08DE29AE00E94370F5E
:100E30006D898DE29AE00E94390F6AE976E08DE2D1
:100E40009AE00E94370F6E898DE29AE00E94390F76
:100E50006AE976E08DE29AE00E94370F6F898DE2B1
:100E60009AE00E94390F6AE976E08DE29AE00E94EA
:100E7000370F688D8DE29AE00E94390F6CE276E0C0
:100E80008DE29AE00E94540F6BED74E08DE29AE0DF
:100E90000E94370F6FE976E08DE29AE00E94370FEB
:100EA0006BED74E08DE29AE0DF91CF911F910F918D
:100EB0000C94540F0F931F93CF93DF93EC01809109
:100EC0009E0990919F098E010758164FC817D907A0
:100ED00009F07EC01092BB091092BA09F801808116
:100EE000883591F460ED76E08DE29AE00E94540F2F
:100EF00067EF76E08DE29AE00E94540F81E090E087
:100F00009093BB098093BA098091BA099091BB096B
:100F1000892B09F00AC10E94580264E177E08DE252
:100F20009AE00E94370F6091BC097091BD094AE0B8
:100F300050E08DE29AE00E941F108091BC099091D0
:100F4000BD090A970CF441C088E5F80180838091BF
:100F50009209909193090197909393098093920934
:100F60000E94D5036BED74E08DE29AE00E94540F6D
:100F70006AE277E08DE29AE00E94370F4AE050E0A3
:100F8000BE018DE29AE00E941F1062E477E08DE2DC
:100F90009AE00E94540F6BED74E08DE29AE00E949B
:100FA000540F8091920990919309892B09F0BDC04B
:100FB0000E94D50362E577E08DE29AE00E94540F2B
:100FC0001092090210920802B0C062E777E0A5C053
:100FD0008091A0099091A109C817D90719F18091B2
:100FE000A2099091A309C817D907E1F08091A4093B
:100FF0009091A509C817D907A9F08091A6099091E9
:10100000A709C817D90771F08091A8099091A9097B
:10101000C817D90739F08091AA099091AB09C81770
:10102000D90731F51092BB091092BA09F8018081F5
:10103000883591F460ED76E08DE29AE00E94540FDD
:1010400067EF76E08DE29AE00E94540F81E090E035
:101050009093BB098093BA098091BA099091BB091A
:10106000892B09F062C00E94580261E977E057CFEE
:101070008DE2F80180830E94D5036BED74E08DE270
:101080009AE00E94540F6AE277E08DE29AE00E94B3
:10109000370F4AE050E0BE018DE29AE00E941F1037
:1010A00067EA77E08DE29AE00E94540F6BED74E0FE
:1010B0008DE29AE00E94540FEEE9F9E0A8E4B9E06D
:1010C000819191919E01281B390BC90137FF03C003
:1010D0009195819591098D939D9339E0EC3AF307B1
:1010E00079F727E731E042E050E067E070E088E41C
:1010F00099E00E94A0146FEB77E08DE29AE00E94E5
:10110000370F60915409709155094AE050E08DE223
:101110009AE00E941F106BED74E08DE29AE0DF917F
:10112000CF911F910F910C94540FDF91CF911F918C
:101130000F9108950F931F93CF93DF93EC0180914C
:10114000AC099091AD098E010758164FC817D90701
:1011500009F07EC01092BB091092BA09F801808193
:10116000883591F460ED76E08DE29AE00E94540FAC
:1011700067EF76E08DE29AE00E94540F81E090E004
:101180009093BB098093BA098091BA099091BB09E9
:10119000892B09F0DAC00E94580261E977E08DE2FC
:1011A0009AE00E94370F6091BC097091BD094AE036
:1011B00050E08DE29AE00E941F108091BC0990914E
:1011C000BD0905970CF441C088E5F8018083809142
:1011D00092099091930901979093930980939209B2
:1011E0000E94D5036BED74E08DE29AE00E94540FEB
:1011F0006AE277E08DE29AE00E94370F4AE050E021
:10120000BE018DE29AE00E941F1062E477E08DE259
:101210009AE00E94540F6BED74E08DE29AE00E9418
:10122000540F8091920990919309892B09F08DC0F8
:101230000E94D50362E577E08DE29AE00E94540FA8
:10124000109209021092080280C062E777E075C030
:101250008091AE099091AF09C817D90709F47ACFE8
:101260008091B0099091B109C817D90709F472CFDC
:101270008091B2099091B309C817D90709F46ACFD0
:101280008091B4099091B509C817D90709F462CFC4
:101290008DE2F80180830E94D5036BED74E08DE24E
:1012A0009AE00E94540F6AE277E08DE29AE00E9491
:1012B000370F4AE050E0BE018DE29AE00E941F1015
:1012C00067EA77E08DE29AE00E94540F6BED74E0DC
:1012D0008DE29AE00E94540FECEAF9E0A6E5B9E04D
:1012E000819191919E01281B390BC90137FF03C0E1
:1012F0009195819591098D939D9339E0E63BF30794
:1013000079F727E731E042E050E065E070E086E5FC
:1013100099E00E94A0146FEB77E08DE29AE00E94C2
:10132000370F60915E0970915F094AE050E08DE2ED
:101330009AE00E941F106BED74E08DE29AE0DF915D
:10134000CF911F910F910C94540FDF91CF911F916A
:101350000F910895CF93DF938091440990914509AF
:10136000893191050CF098C020913C0230913D02EA
:101370002115310529F410920902109208028DC03E
:10138000880F991FFC01E65FFD4FC081D1818091DC
:10139000940990919509FE01E05AF64FC817D907B4
:1013A000D1F481E280832150310930933D022093B2
:1013B0003C020E94D5036EEC77E08DE29AE00E9439
:1013C000370F4AE050E0BE018DE29AE00E941F1004
:1013D00066EE77E049C08091960990919709C81709
:1013E000D907A9F08091980990919909C817D90750
:1013F00071F080919A0990919B09C817D90739F02B
:1014000080919C0990919D09C817D907D1F481E278
:1014100080832150310930933D0220933C020E9489
:10142000D5036EEC77E08DE29AE00E94370F4AE038
:1014300050E0BE018DE29AE00E941F1069EF77E054
:1014400013C08DE280830E94D5036EEC77E08DE2BD
:101450009AE00E94370F4AE050E0BE018DE29AE028
:101460000E941F106BE078E08DE29AE00E94540F1A
:101470006BED74E08DE29AE00E94540F8091440974
:1014800090914509019690934509809344092091D4
:1014900008023091090201C001C0C901DF91CF915A
:1014A0000895AF92BF92CF92DF92FF920F931F9356
:1014B000CF93DF936C015C01C0E0D0E08B01015061
:1014C0001109C017D1077CF48DE29AE00E94361012
:1014D00018161906B4F78DE29AE00E946210F82EF1
:1014E0008DE0F8120DC0CC0DDD1D1882DF91CF917B
:1014F0001F910F91FF90DF90CF90BF90AF90089514
:101500006F2D8DE29AE00E94660FF501F1925F0166
:101510002196D7CFCF93DF93CDB7DEB7A0970FB685
:10152000F894DEBF0FBECDBF8DE29AE00E94400F5F
:101530006DE278E08DE29AE00E94540F60E270E084
:10154000CE0101960E94510ACE0101960E942417F5
:10155000A0960FB6F894DEBF0FBECDBFDF91CF913E
:1015600008958DE29AE00E94400F69E678E08DE2EE
:101570009AE00E94540F8DE29AE00E9436101816ED
:101580001906CCF78DE29AE00E9462108D3099F72F
:101590000895AF92BF92CF92DF92FF920F931F9365
:1015A000CF93DF936C018B0167E878E08DE29AE0DE
:1015B0000E94370F5601C0E0D0E001501109C0175A
:1015C000D1077CF48DE29AE00E94361018161906B5
:1015D000B4F78DE29AE00E946210F82E8DE0F812C6
:1015E0000DC0CC0DDD1D1882DF91CF911F910F91A1
:1015F000FF90DF90CF90BF90AF9008956F2D8DE258
:101600009AE00E94390FF501F1925F012196D7CF40
:10161000CF93DF93CDB7DEB7A0970FB6F894DEBFB8
:101620000FBECDBF60E270E0CE0101960E94C90AF4
:101630008DE29AE00E94400F62EB78E08DE29AE042
:101640000E94370FCE0101960E9424174AE050E015
:101650008DE29AE00E9418106BE174E08DE29AE04E
:101660000E94540FCE0101960E942417A0960FB637
:10167000F894DEBF0FBECDBFDF91CF9108950F93D9
:101680001F93CF93DF930E9481010E948A0AEB018E
:10169000615071096330710528F16DEB78E08DE2DE
:1016A0009AE00E94540F81E090E09093B9098093F2
:1016B000B8098091B8099091B909019799F463EC40
:1016C00078E08DE29AE00E94540F0E948A0AEB01B2
:1016D000615071096330710560F71092B909109279
:1016E000B809E7CFC130D10509F05CC085E090E0D2
:1016F00090939309809392090E94CC030E94D60292
:101700000E9408030E9471030E9492030E94D50365
:101710000E94B10AC2E0D0E08091080290910902D3
:10172000019709F04DC120914609309147092F5F7B
:101730003F4F3093470920934609C901BE010E94DB
:1017400077178C01019731F50E94080BAB016931C5
:101750007105E0F01093B7090093B6092091B6091E
:101760003091B7092130310589F462EE78E08DE2DD
:101770009AE00E94540F0E94080BAB016931710579
:1017800068F71092B7091092B609E8CFCA010E9413
:101790009A08C2CF20FDC0CF0E94AA09892B09F068
:1017A000BBCFEBC0C230D10509F07EC087E090E02E
:1017B00090939309809392090E94CC030E943F0367
:1017C0000E9408030E9471030E94920360919E0987
:1017D00070919F094AE050E08DE29AE00E941F104C
:1017E0006091A0097091A1094AE050E08DE29AE071
:1017F0000E941F106091A2097091A3094AE050E075
:101800008DE29AE00E941F106091A4097091A509D1
:101810004AE050E08DE29AE00E941F106091A60914
:101820007091A7094AE050E08DE29AE00E941F10F3
:101830006091A8097091A9094AE050E08DE29AE010
:101840000E941F106091AA097091AB094AE050E014
:101850008DE29AE00E941F100E94D5030E94B10AF7
:10186000C2E0D0E08091080290910902019709F04E
:10187000A7C0809146099091470901969093470926
:101880008093460980FD06C00E94080BCB010E9490
:101890005A07E8CFBE010E947717019719F70E94F7
:1018A000AA09892BF9F669C0239709F089C087E056
:1018B00090E090939309809392090E94CC030E9438
:1018C0003F030E9408030E9471030E9492036091EB
:1018D0009E0970919F094AE050E08DE29AE00E94D3
:1018E0001F106091A0097091A1094AE050E08DE2BB
:1018F0009AE00E941F106091A2097091A3094AE02A
:1019000050E08DE29AE00E941F106091A40970914E
:10191000A5094AE050E08DE29AE00E941F10609114
:10192000A6097091A7094AE050E08DE29AE00E9472
:101930001F106091A8097091A9094AE050E08DE25A
:101940009AE00E941F106091AA097091AB094AE0C9
:1019500050E08DE29AE00E941F100E94D5030E9481
:10196000B10AC2E0D0E020C0BE010E947717019703
:10197000D9F40E94AA09892BF1F46AE079E08DE29A
:101980009AE00E94540F1CC080914609909147092B
:101990000196909347098093460980FDE5CF0E9408
:1019A000080BCB010E945A0780910802909109020E
:1019B000019751F305C00E94AA09892BA9F7DDCF31
:1019C0008DE29AE00E94821080E090E0DF91CF915A
:1019D0001F910F9108951F920F920FB60F9211242D
:1019E0002F933F938F939F93AF93BF938091BF09A2
:1019F0009091C009A091C109B091C2093091BE096E
:101A000023E0230F2D3720F40196A11DB11D05C041
:101A100026E8230F0296A11DB11D2093BE098093D5
:101A2000BF099093C009A093C109B093C2098091E6
:101A3000C3099091C409A091C509B091C609019646
:101A4000A11DB11D8093C3099093C409A093C5093A
:101A5000B093C609BF91AF919F918F913F912F9104
:101A60000F900FBE0F901F9018952FB7F8946091AC
:101A7000BF097091C0098091C1099091C2092FBF1F
:101A800008953FB7F8948091C3099091C409A0913B
:101A9000C509B091C60926B5A89B05C02F3F19F00E
:101AA0000196A11DB11D3FBFBA2FA92F982F8827DE
:101AB000820F911DA11DB11DBC01CD0142E0660F39
:101AC000771F881F991F4A95D1F70895CF92DF920B
:101AD000EF92FF92CF93DF936B017C010E94410D47
:101AE000EB01C114D104E104F10479F00E94410D2D
:101AF0006C1B7D0B683E7340A0F381E0C81AD108CF
:101B0000E108F108C851DC4FECCFDF91CF91FF9095
:101B1000EF90DF90CF900895789484B5826084BD73
:101B200084B5816084BD85B5826085BD85B58160E1
:101B300085BDEEE6F0E0808181608083E1E8F0E041
:101B40001082808182608083808181608083E0E870
:101B5000F0E0808181608083E1EBF0E0808184604F
:101B60008083E0EBF0E0808181608083E1E9F0E058
:101B7000808182608083808181608083E0E9F0E001
:101B8000808181608083E1EAF0E0808182608083EF
:101B9000808181608083E0EAF0E0808181608083E1
:101BA000E1E2F1E0808182608083808181608083D6
:101BB000E0E2F1E0808181608083EAE7F0E080810B
:101BC0008460808380818260808380818160808363
:101BD0008081806880831092C1000895863308F068
:101BE000865390917B00282F2870977F922B90939B
:101BF0007B00877020913E0290E4299F9001112480
:101C0000822B80937C0080917A00806480937A009C
:101C100080917A0086FDFCCF809178002091790038
:101C200090E0922B089590E0FC013197E131F105AD
:101C300008F04AC08827EE58FF4F8F4F0C94CC17FE
:101C4000809180008F7703C0809180008F7D80938A
:101C50008000089584B58F7702C084B58F7D84BDE0
:101C600008958091B0008F7703C08091B0008F7D80
:101C70008093B0000895809190008F7707C0809185
:101C800090008F7D03C080919000877F80939000AB
:101C900008958091A0008F7707C08091A0008F7D6C
:101CA00003C08091A000877F8093A0000895809159
:101CB00020018F7707C0809120018F7D03C0809124
:101CC0002001877F809320010895CF93DF9390E0D8
:101CD000FC01E455FE4F2491FC01EE50FE4F84912F
:101CE000882361F190E0880F991FFC01E459FD4FB2
:101CF000C591D491FC01EE5AFD4FA591B4916111AB
:101D000009C09FB7F8948881209582238883EC913D
:101D10002E230BC0623061F49FB7F8943881822F74
:101D2000809583238883EC912E2B2C939FBF06C034
:101D30008FB7F894E8812E2B28838FBFDF91CF9146
:101D400008951F93CF93DF93282F30E0F901EA59CC
:101D5000FE4F8491F901E455FE4FD491F901EE5004
:101D6000FE4FC491CC23C9F0162F81110E94130E8F
:101D7000EC2FF0E0EE0FFF1FEE5AFD4FA591B4914E
:101D80008FB7F894111105C09C91ED2FE095E923D0
:101D900002C0EC91ED2BEC938FBFDF91CF911F919F
:101DA0000895CF93DF93282F30E0F901EA59FE4FD1
:101DB0008491F901E455FE4FD491F901EE50FE4FA4
:101DC000C491CC2391F081110E94130EEC2FF0E00E
:101DD000EE0FFF1FE85CFD4FA591B491EC91ED2350
:101DE00081E090E021F480E002C080E090E0DF91AB
:101DF000CF910895CF92DF92EF92FF920F931F93AE
:101E0000CF93DF936C01EB017B01E40EF51E00E044
:101E100010E0CE15DF0561F06991D601ED91FC91DE
:101E20000190F081E02DC6011995080F191FF1CF1F
:101E3000C801DF91CF911F910F91FF90EF90DF903C
:101E4000CF9008956115710579F0FB010190002094
:101E5000E9F73197AF01461B570BDC01ED91FC917F
:101E60000280F381E02D199480E090E008950C94B5
:101E7000220FDC01ED91FC910190F081E02D19948D
:101E80000F931F93CF93DF93EC016DE00E94390F06
:101E90008C016AE0CE010E94390F800F911FDF9103
:101EA000CF911F910F9108950F931F93CF93DF93BD
:101EB000EC010E94220F8C01CE010E94400F800F86
:101EC000911FDF91CF911F910F9108950F931F9351
:101ED000CF93DF93EC010E94390F8C01CE010E9459
:101EE000400F800F911FDF91CF911F910F910895A7
:101EF0008F929F92AF92BF92CF92DF92EF92FF921A
:101F00000F931F93CF93DF93CDB7DEB7A1970FB693
:101F1000F894DEBF0FBECDBF6C01142FE52FCB01AF
:101F2000022F19A2223008F40AE07E0121E2E20E1B
:101F3000F11C802E912CA12CB12C612F7E2FA5019C
:101F400094010E948B17029F1019112481E0E81A56
:101F5000F1081A3014F4105D01C0195CF701108308
:101F6000122FE32FCA01232B242B252B31F7B70186
:101F7000C6010E94220FA1960FB6F894DEBF0FBED5
:101F8000CDBFDF91CF911F910F91FF90EF90DF9028
:101F9000CF90BF90AF909F908F900895CF92DF9297
:101FA000EF92FF920F931F93CF93DF93EC016A019F
:101FB0007B012115310579F4E881F9810190F081E7
:101FC000E02D642FDF91CF911F910F91FF90EF9043
:101FD000DF90CF9019942A303105E9F477FF1AC0C9
:101FE0006DE20E94390F8C0144275527BA014C1924
:101FF0005D096E097F092AE0CE010E94780F800FEB
:10200000911FDF91CF911F910F91FF90EF90DF9083
:10201000CF9008952AE0B701A601CE01DF91CF91BC
:102020001F910F91FF90EF90DF90CF900C94780F5D
:102030009A01AB01770F660B770B0C94CE0F0F93C1
:102040001F93CF93DF93EC019A01AB01770F660BDF
:10205000770B0E94CE0F8C01CE010E94400F800FA3
:10206000911FDF91CF911F910F910895FC0124855D
:102070003585F901E05CFF4F8081918132962081A6
:102080003181821B930B8F7399270895DC011C9675
:10209000ED91FC911D97DF01A05CBF4F2D913C910C
:1020A000119712968D919C9111972817390739F045
:1020B0008D919C91E80FF91F808190E008958FEF3A
:1020C0009FEF0895FC01A485B585FD01E05CFF4FFD
:1020D000208131813296808191812817390779F0EA
:1020E00080819181A80FB91F8C91208131812F5F50
:1020F0003F4F2F7333273183208390E008958FEF74
:102100009FEF0895FC0181A1882329F0A489B58956
:102110008C9186FFFBCF11A208950F931F93CF934D
:10212000DF93FC01A685B7858D01005C1F4FE80198
:102130008881998101968F739927AD014E5B5F4F1E
:10214000EA012881398182179307D1F3E8012881B8
:102150003981A20FB31F6C93A685B785A05CBF4FD2
:1021600011969C938E93A689B7892C9181E090E07B
:10217000078C02C0880F991F0A94E2F7822B8C9378
:1021800081E081A30488F589E02D808180648083CB
:1021900081E090E0DF91CF911F910F910895FB01B5
:1021A000E05CFF4F208131812F5F3F4F2F7333273A
:1021B000DB01AE5BBF4F4D915C912417350741F0B9
:1021C00040815181DB01A40FB51F8C9331832083A3
:1021D00008951F920F920FB60F9211240BB60F9213
:1021E0002F933F934F935F936F937F938F939F931F
:1021F000AF93BF93EF93FF938091C00082FD07C020
:102200008091C6006BE27CE00E94CF1002C08091FA
:10221000C600FF91EF91BF91AF919F918F917F91F8
:102220006F915F914F913F912F910F900BBE0F9047
:102230000FBE0F901F9018951F920F920FB60F921E
:1022400011240BB60F922F933F934F935F936F938D
:102250007F938F939F93AF93BF93EF93FF9380915F
:10226000C80082FD07C08091CE0063EA7BE00E9437
:10227000CF1002C08091CE00FF91EF91BF91AF913E
:102280009F918F917F916F915F914F913F912F918E
:102290000F900BBE0F900FBE0F901F9018951F92BE
:1022A0000F920FB60F9211240BB60F922F933F93FC
:1022B0004F935F936F937F938F939F93AF93BF934E
:1022C000EF93FF938091D00082FD07C08091D600EC
:1022D0006BE17BE00E94CF1002C08091D600FF919D
:1022E000EF91BF91AF919F918F917F916F915F918E
:1022F0004F913F912F910F900BBE0F900FBE0F90FB
:102300001F9018951F920F920FB60F9211240BB6C3
:102310000F922F933F934F935F936F937F938F937E
:102320009F93AF93BF93EF93FF938091300182FD12
:1023300007C08091360163E97AE00E94CF1002C0A5
:1023400080913601FF91EF91BF91AF919F918F9155
:102350007F916F915F914F913F912F910F900BBEA5
:102360000F900FBE0F901F9018951F920F920FB6EF
:102370000F9211240BB60F922F933F938F939F933D
:10238000EF93FF932091270C3091280C8091290C1A
:1023900090912A0C2817390731F48091C1008F7D64
:1023A0008093C10014C0E091290CF0912A0CE951EE
:1023B000F44F20818091290C90912A0C01968F7303
:1023C000992790932A0C8093290C2093C600FF91A3
:1023D000EF919F918F913F912F910F900BBE0F9096
:1023E0000FBE0F901F9018951F920F920FB60F926D
:1023F00011240BB60F922F933F938F939F93EF93DC
:10240000FF9320919F0B3091A00B8091A10B909195
:10241000A20B2817390731F48091C9008F7D809372
:10242000C90014C0E091A10BF091A20BE15AF44F46
:1024300020818091A10B9091A20B01968F73992717
:102440009093A20B8093A10B2093CE00FF91EF916C
:102450009F918F913F912F910F900BBE0F900FBEC8
:102460000F901F9018951F920F920FB60F92112484
:102470000BB60F922F933F938F939F93EF93FF93FE
:102480002091170B3091180B8091190B90911A0B1A
:102490002817390731F48091D1008F7D8093D100C6
:1024A00014C0E091190BF0911A0BE952F54F2081FD
:1024B0008091190B90911A0B01968F739927909325
:1024C0001A0B8093190B2093D600FF91EF919F91E7
:1024D0008F913F912F910F900BBE0F900FBE0F90D9
:1024E0001F9018951F920F920FB60F9211240BB6E2
:1024F0000F922F933F938F939F93EF93FF9320918E
:102500008F0A3091900A8091910A9091920A28172F
:10251000390731F4809131018F7D8093310114C0EE
:10252000E091910AF091920AE15BF54F2081809150
:10253000910A9091920A01968F7399279093920A2B
:102540008093910A20933601FF91EF919F918F9193
:102550003F912F910F900BBE0F900FBE0F901F90C9
:102560001895CF92DF92EF92FF920F931F93CF9324
:10257000DF93EC016A017B014115514E6105710544
:1025800009F1EC89FD8981E090E008A002C0880F84
:10259000991F0A94E2F7808360E079E08DE390E090
:1025A000A70196010E948B1789019A010150110918
:1025B0002109310936952795179507959801011539
:1025C0001041A8F0EC89FD89108260E874E88EE182
:1025D00090E0A70196010E948B17DA01C9010197CB
:1025E000A109B109B695A795979587959C01E889AA
:1025F000F9893083EA89FB89208319A2EE89FF8952
:10260000408181E090E09C010C8C02C0220F331FBE
:102610000A94E2F7242B2083EE89FF8940819C01F4
:102620000D8C02C0220F331F0A94E2F7242B208363
:10263000EE89FF8940819C010E8C02C0220F331F5E
:102640000A94E2F7242B2083EE89FF8920810F8CE6
:1026500002C0880F991F0A94E2F780958223808335
:10266000DF91CF911F910F91FF90EF90DF90CF906E
:102670000895CF92DF92EF92FF92EDE2FAE013829B
:10268000128288EEC82E83E0D82EE12CF12CC48271
:10269000D582E682F78268E379E0718360838BE21A
:1026A0009CE09587848787EE9BE09787868785ECFB
:1026B00090E0918B808B84EC90E0938B828B80EC0C
:1026C00090E0958B848B81EC90E0978B868B82ECED
:1026D00090E0918F808F86EC90E0938F828F44E022
:1026E000448F33E0358F27E0268F95E0978F81E088
:1026F00080A3EBE0FAE013821282C482D582E682E4
:10270000F78271836083A3EABBE0B587A487AFE556
:10271000BBE0B787A687ADECB0E0B18BA08BACEC8B
:10272000B0E0B38BA28BA8ECB0E0B58BA48BA9EC86
:10273000B0E0B78BA68BAAECB0E0B18FA08FAEEC67
:10274000B0E0B38FA28F448F358F268F978F80A3F1
:10275000E9EEF9E013821282C482D582E682F78222
:1027600071836083ABE1BBE0B587A487A7EDBAE0D6
:10277000B787A687A5EDB0E0B18BA08BA4EDB0E044
:10278000B38BA28BA0EDB0E0B58BA48BA1EDB0E034
:10279000B78BA68BA2EDB0E0B18FA08FA6EDB0E015
:1027A000B38FA28F448F358F268F978F80A3E7EC4E
:1027B000F9E013821282C482D582E682F7827183A5
:1027C000608363E97AE0758764876FE47AE07787EE
:1027D000668765E371E0718B608B64E371E0738BF6
:1027E000628B60E371E0758B648B61E371E0778BE2
:1027F000668B62E371E0718F608F66E371E0738FC7
:10280000628F448F358F268F978F80A3FF90EF9034
:10281000DF90CF900895009729F0BC0180E090E010
:102820000C941B170895CF93DF9300D01F92CDB760
:10283000DEB7611571058105910579F09B01AC0149
:1028400069833A834B835C830E94171729813A81FD
:102850004B815C810E94AD1703C060E070E0CB014A
:102860000F900F900F900F90DF91CF910895CF921E
:10287000DF92EF92FF920F931F9362177307840703
:10288000950784F489019A016B017C01C901B801A3
:102890006C197D098E099F090E9413146C0D7D1D12
:1028A0008E1D9F1D1F910F91FF90EF90DF90CF9095
:1028B0000895DC01FB018C9190819D93819341509F
:1028C000510914161506BCF30895CF92DF92EF92CA
:1028D000FF920F931F93CF93DF93D82FC92F6B01D4
:1028E0008A017901F9011995B80197FF0FC0C60156
:1028F000F701199597FF02C0C60119C0B8018D2FC5
:102900009C2FF701199597FD0EC00FC0C601F70166
:1029100019951816190684F3B8018D2F9C2FF7010D
:10292000199597FD02C0C80102C08D2F9C2FDF9121
:10293000CF911F910F91FF90EF90DF90CF9008956E
:102940002F923F924F925F926F927F928F929F92BF
:10295000AF92BF92CF92DF92EF92FF920F931F93AD
:10296000CF93DF93CDB7DEB72A970FB6F894DEBFCB
:102970000FBECDBF8C017B015A87498769015195F4
:10298000419551095E834D8329853A85200F311F7A
:102990003A83298337E0E316F10478F589809A8039
:1029A00049855A85E49EC001E59E900DF49E900DE8
:1029B00011247801E80EF91E8E149F0408F077C1E7
:1029C000340106151705A0F4530169857A85A61A06
:1029D000B70AB301C501F60119951816190644F492
:1029E00049855A85B501C3010E9459143501E9CFC3
:1029F00029853A85820E931EDFCFC701969587956C
:102A000049855A85849F5001859FB00C949FB00CD6
:102A10001124A00EB11EB701615071097C836B8334
:102A200077E0E716F10409F44CC08B819C81849F08
:102A30003001859F700C949F700C1124600E711EE4
:102A400099E2E916F104A8F1C70123E0969587956C
:102A50002A95E1F7849F4001859F900C949F900CEC
:102A600011241401220C331CA801420D531DB8017E
:102A7000680D791D9601C8010E9465142C01A501FD
:102A8000480D591D9194819491089601B501C50195
:102A9000880D991D0E9465145C01B301680D791DB4
:102AA0009601A301C301821993090E9465143C0198
:102AB00001C028019601A301B501C2010E9465145D
:102AC0005C0149855A85B501C8010E945914898065
:102AD0009A804B815C8169857A85469F9001479FEA
:102AE000300D569F300D11243A8329833901600E31
:102AF000711E23015401140120E030E06A147B04AC
:102B000008F43FC0B801C5012F833887F601199535
:102B10002F81388518161906A4F1892B61F449858F
:102B20005A85B501C1010E94591489859A85280EDC
:102B3000391E21E030E0E985FA85AE0EBF1EDECFFA
:102B4000B801C3012F833887F6011995A301698560
:102B50007A85461B570B5C834B832F81388597FD05
:102B600014C0892B61F449855A85B201C3010E94C2
:102B7000591429853A85421A530A21E030E06B80C6
:102B80007C806A147B04E0F60FC049855A85B30146
:102B9000C5010E94591449855A85A40EB51E6B8043
:102BA0007C8021E030E0AACF232B69F5E985FA8506
:102BB000EE9EC001EF9E900DFE9E900D11247801B7
:102BC000E80EF91E8E149F0408F071C0340106153A
:102BD0001705A0F4530129853A85A21AB30AB30157
:102BE000C501F60119951816190644F449855A8548
:102BF000B501C3010E9459143501E9CF29853A85F1
:102C0000820E931EDFCF89819A814D815E81841B64
:102C1000950BB801680F791F7A8369837501E218F3
:102C2000F308A101401B510BE416F5060CF4A701B3
:102C30001416150634F4B501641B750BC8010E9407
:102C4000591442018618970849815A814419550937
:102C500089859A85481B590B8416950608F4A401AA
:102C6000141615063CF469817A81641B750BC50145
:102C70000E945914E985FA85EE15FF0548F4C7014D
:102C8000BF010E9463179601AF01C8010E94A01402
:102C900029853A852815390550F409811A810819C2
:102CA0001909C401B9010E9463177B016DCE2A96F0
:102CB0000FB6F894DEBF0FBECDBFDF91CF911F914D
:102CC0000F91FF90EF90DF90CF90BF90AF909F90CB
:102CD0008F907F906F905F904F903F902F900895CE
:102CE0008F929F92AF92BF92CF92DF92EF92FF921C
:102CF000CF93DF93EC01688179818A819B81611593
:102D000071058105910521F464E279ED8BE597E089
:102D10002DE133EF41E050E00E94AD1749015A0127
:102D20009B01AC01A7EAB1E40E94D4176B017C01BE
:102D3000ACEEB4EFA50194010E94E217DC01CB01D7
:102D40008C0D9D1DAE1DBF1DB7FF03C00197A109CE
:102D5000B04888839983AA83BB839F77DF91CF9103
:102D6000FF90EF90DF90CF90BF90AF909F908F90AB
:102D700008950C94701680E092E00C947016A0E018
:102D8000B0E08093000290930102A0930202B093FE
:102D9000030208958F929F92AF92BF92CF92DF92DB
:102DA000EF92FF92CF93DF93EC01688179818A8162
:102DB0009B81611571058105910521F464E279ED2E
:102DC0008BE597E02DE133EF41E050E00E94AD1735
:102DD00049015A019B01AC01A7EAB1E40E94D41752
:102DE0006B017C01ACEEB4EFA50194010E94E217E7
:102DF000DC01CB018C0D9D1DAE1DBF1DB7FF03C0B7
:102E00000197A109B04888839983AA83BB83BC0139
:102E1000CD019F77DF91CF91FF90EF90DF90CF9022
:102E2000BF90AF909F908F9008950C94CA1684E045
:102E300092E00C94CA16609304027093050280938A
:102E400006029093070208951F93FC019927882793
:102E5000BC01E89411911032E9F3193010F01E30E2
:102E6000C8F31B3251F01D3249F4689406C00E9429
:102E70004E17610F711D811D911D119110531A3054
:102E8000B0F33EF490958095709561957F4F8F4F8C
:102E90009F4F1F910895F8940C94F617592F482FBF
:102EA000372F262F660F771F881F991F660F771FF2
:102EB000881F991F620F731F841F951F660F771F4E
:102EC000881F991F0895AA1BBB1B51E107C0AA1FA9
:102ED000BB1FA617B70710F0A61BB70B881F991FBB
:102EE0005A95A9F780959095BC01CD01089597FB5F
:102EF000072E16F4009407D077FD09D00E946317BF
:102F000007FC05D03EF4909581959F4F08957095EC
:102F100061957F4F0895A1E21A2EAA1BBB1BFD01EC
:102F20000DC0AA1FBB1FEE1FFF1FA217B307E407A8
:102F3000F50720F0A21BB30BE40BF50B661F771F00
:102F4000881F991F1A9469F76095709580959095E0
:102F50009B01AC01BD01CF010895052E97FB1EF426
:102F600000940E94C41757FD07D00E948B1707FCDE
:102F700003D04EF40C94C41750954095309521958C
:102F80003F4F4F4F5F4F0895909580957095619595
:102F90007F4F8F4F9F4F0895EE0FFF1F881F8BBFEE
:102FA0000790F691E02D19940E94E717A59F900DC8
:102FB000B49F900DA49F800D911D11240895B7FF1B
:102FC0000C94D4170E94D417821B930B0895A29FD0
:102FD000B001B39FC001A39F700D811D1124911DED
:102FE000B29F700D811D1124911D0895F894FFCF9B
:102FF00001000000010000000100000001000200CB
:1030000003000400050006000700080009000A008C
:103010000B000C000D000E000F001000110012003C
:1030200013001400150016001700180005000159C0
:103030006F75722073636F72652069733A2000594F
:103040006F7520666F756E642061207368697021EA
:103050000054686973206D696E6967616D65206FE2
:103060006E6C7920757365732074686520332072E7
:1030700069676874204C4544732E00507265737301
:1030800020616E6420686F6C642061206C6974201C
:103090004C4544277320627574746F6E20776865A1
:1030A0006E2074686579207475726E206F6E20755D
:1030B0006E74696C2000746865204C4544207475FA
:1030C000726E73206F66662E0045616368207375AB
:1030D000636365737366756C20627574746F6E20BC
:1030E000707265737320696E6372656173657320B6
:1030F000796F75722073636F726520627920312E4B
:103100002000466F72206120737563636573736678
:10311000756C207368697020686974206765742015
:1031200061626F766520352073636F7265206F6E04
:1031300020456173792C200061626F766520313003
:10314000206F6E204D656469756D206F7220486137
:1031500072642E00596F75722073636F72652077E9
:10316000696C6C20757064617465206F6E20736388
:103170007265656E2E005072657373206C6566749F
:103180006D6F7374206669726520627574746F6EFA
:10319000207768656E207265616479202D207468DF
:1031A00065206C6566746D6F737420677265656EFB
:1031B00020004C45442077696C6C20737461792041
:1031C0006F6E20647572696E672074686520676130
:1031D0006D652E005468652067616D65206C6173B4
:1031E0007473203130207365636F6E64732E2047D3
:1031F0006F6F64206C75636B210053746172746926
:103200006E67206D696E6967616D65202E2E2E00D8
:103210004D696E6967616D652066696E6973686581
:10322000642100506F736974696F6E696E673A202C
:103230000A002020202020202020202020202020C4
:10324000202020202020202020202020202020207E
:10325000202020202020202020202020202020206E
:1032600020202020204C6567656E6400207C202093
:1032700030207C202031207C202032207C202033F4
:10328000207C202034207C0009090909093F3A20CC
:103290006F6E20796F7572206669656C6420697342
:1032A00020656D7074792073706F742C206F6E20A0
:1032B0006F70706F6E656E747320697320756E69C0
:1032C00064656E74696669656400202D2D2D2D2D51
:1032D0002D2D2D2D2D2D2D2D2D2D2D2D2D2D2D2D1E
:1032E0002D2D2D2D2D2D0009090909094F3A206F8B
:1032F0006E20796F7572206669656C642069742030
:10330000697320706F736974696F6E206F662079BE
:103310006F7572207368697000207C202035207CD6
:10332000202036207C202037207C202038207C2044
:103330002039207C000909090909213A206F6E20F3
:10334000796F7572206669656C64206D65616E7356
:1033500020796F75722064657374726F796564206B
:10336000736869700009090909092D3A206F6E20F8
:10337000626F7468206669656C6473206D65616E48
:10338000732061747461636B206D6973736564008D
:10339000207C203130207C203131207C20313220B3
:1033A0007C203133207C203134207C00090909093C
:1033B00009583A206F6E206F70706F6E656E74736F
:1033C000206669656C64206D65616E73206F707036
:1033D0006F6E656E74732064657374726F79656463
:1033E000207368697000207C203135207C203136C4
:1033F000207C203137207C203138207C203139203E
:103400007C2000207C203230207C203231207C2027
:103410003232207C203233207C203234207C200049
:10342000596F7572206F70706F6E656E74277320A0
:103430006669656C643A2000207368697073206C5B
:10344000656674212020202020202020202020209C
:10345000202020202020202020202020202020206C
:103460002020202020202020202020596F7572202D
:1034700063757272656E742072656D61696E696ED6
:10348000672073686970733A2000207C2020002038
:10349000202020202020202020202020202020202C
:1034A000202020202020202020202020202020201C
:1034B000202020202020202020202020202020002C
:1034C000596F7527766520616C726561647920613A
:1034D000747461636B6564207468697320706F73C2
:1034E0006974696F6E2100596F752073756E6B205A
:1034F0007468652073686970206576656E206D6FED
:1035000072652100596F75722066696E616C207357
:10351000636F72652069733A2000596F752061747A
:103520007461636B656420706F736974696F6E207A
:103530002000596F75206869742061207368697074
:103540002100596F752068697420616C6C20746863
:103550006520736869707320796F752077696E20B4
:1035600021005468652061747461636B2077617316
:10357000206E6F74207375636365737366756C2159
:103580000056616C7565206F6620636F756E74659B
:10359000722069733A2000596F7520646964206E47
:1035A0006F74206869742061207368697021005904
:1035B0006F75206D69737365642062792000596F9F
:1035C0007572206F70706F6E656E742061747461B7
:1035D000636B65642000596F757220736869702091
:1035E000776173206869742100596F757220736860
:1035F0006970207761732068697400596F75722053
:103600006F70706F6E656E7420646964206E6F7485
:1036100020686974206120736869702100506963B3
:103620006B20796F757220646966666963756C7466
:10363000793A203120666F7220456173792C2032EF
:1036400020666F72204D656469756D2C203320668D
:103650006F7220486172642E00507265737320741B
:10366000686520456E746572206B657920746F20E3
:1036700073746172743A00456E7465722074686583
:1036800020636F6F7264696E6174657320796F7502
:10369000207769736820746F2061747461636B3A7A
:1036A000200041747461636B696E6720004C534B5A
:1036B0004A4600496E76616C6964206D6F64652CC2
:1036C00020706C65617365207265656E7465723A11
:1036D0002000496E76616C696420636F6F72646963
:1036E0006E617465732C20706C65617365207472F3
:1036F0007920616761696E3A2000596F75206C6F9F
:10370000737420616C6C20796F75722073686970B6
:10371000732120596F75206C6F736521200009009B
:103720000A000B00000000008D10FA0E3610621027
:0437300046108210AD
:00000001FF
