:100000000C9444010C9475010C9475010C947501C9
:100010000C9475010C9475010C9475010C94750188
:100020000C9475010C9475010C9475010C94750178
:100030000C9475010C9475010C9475010C94750168
:100040000C9475010C9475010C9475010C94750158
:100050000C9475010C9475010C9475010C94ED0CC5
:100060000C9475010C94EB100C94B7110C94750161
:100070000C9475010C9475010C9475010C94750128
:100080000C9475010C9475010C9475010C94750118
:100090000C941E110C94F6110C9475010C947501BE
:1000A0000C9475010C9475010C9475010C947501F8
:1000B0000C9475010C9475010C9475010C947501E8
:1000C0000C9475010C9475010C9475010C945111EC
:1000D0000C9435120C9475010C9484110C947412C8
:1000E0000C9475012C0E2F0E220E260E660E330E6A
:1000F000370E3D0E410E450E4B0E4F0E530E660E43
:10010000590E5D0E610E0C94260E0C9477010C9422
:10011000610E0C942C0E0C945D0E0C943D0E0C9400
:10012000590E0C9438100C94450E0C942F0E0C9410
:10013000220E0C94410E0C948F100C94330E0C94E0
:100140004F0E0C9448100C94370E0C943B130C94E7
:10015000530E0C9464100C944B0E0C9484100C945D
:10016000FC0E0C94660E0000090A02080B0C0D0729
:100170000603040100000000000000000000000071
:10018000000000000000000000000000000000006F
:10019000000011100F00000000000000000000002F
:1001A000000000000000000000000000010210201C
:1001B000200808102040102040800201020108049D
:1001C0000201010204081020408080402010080431
:1001D000020180040201804020100804020108048A
:1001E00002010102040810204080010204081020CE
:1001F00040800505050507050808080802020202F7
:100200000A0A0808040404040101010101010101B2
:100210000303030303030303040707070C0C0C0C7D
:100220000C0C0C0C02020202060606060606060666
:100230000B0B0B0B0B0B0B0B0000200023002600FD
:1002400029002C002F0032000001000003010601EC
:10025000090100002200250028002B002E0031009B
:10026000340002010000050108010B01000021001B
:10027000240027002A002D00300033000101000077
:10028000040107010A013B1311241FBECFEFD1E285
:10029000DEBFCDBF00E00CBF19E0A0E0B2E0E4EFAC
:1002A000FFE200E00BBF02C007900D92A237B1073A
:1002B000D9F72CE0A2E7B9E001C01D92AD39B20731
:1002C000E1F711E0C4E4D1E000E006C021970109A4
:1002D000802FFE010E94CE17C334D10780E00807AB
:1002E000A9F70E943F0B0C944D170C940000FB01E2
:1002F00040815181FC0120813181CA01821B930B15
:1003000008950E948E0D40E855E260E070E08BE5B4
:100310009AE00E94B31261E089E00E94670E61E0FA
:100320008AE00E94670E61E08BE00E94670E61E048
:100330008CE00E94670E61E08DE00E94670E60E035
:1003400087E00E94670E61E087E00E94A30E60E0F4
:1003500084E00E94670E61E084E00E94A30E60E0EA
:1003600085E00E94670E61E085E00E94A30E60E0D8
:1003700086E00E94670E61E086E00E94A30E80E0A6
:100380000E94F00D0C940D14CF92DF92EF92FF9229
:100390000F931F93CF93DF930E94370D6B017C0166
:1003A000C0E0D0E003E010E00E94370DDC01CB019B
:1003B0008C199D09AE09BF0980319742A105B1058D
:1003C00008F06CC00E94BD16B8010E947917FC01AC
:1003D000EE0FFF1FE45AF64F61E080810E94A30EEA
:1003E00084E00E94D30E892B29F489E00E94D30E69
:1003F0000197D9F085E00E94D30E892B29F48AE079
:100400000E94D30E019721F186E00E94D30E892B22
:1004100029F48BE00E94D30E019769F164EF71E03B
:1004200080E090E00E94680DBFCF21966FE372E0FC
:100430008BE59AE00E94390F4AE050E0BE018BE55F
:100440009AE00E94211060E089E00E94A30ED2CFC2
:1004500021966FE372E08BE59AE00E94390F4AE043
:1004600050E0BE018BE59AE00E94211060E08AE036
:100470000E94A30EC9CF21966FE372E08BE59AE04C
:100480000E94390F4AE050E0BE018BE59AE00E94DD
:10049000211060E08BE00E94A30EC0CFCE01DF915F
:1004A000CF911F910F91FF90EF90DF90CF90089523
:1004B0006FE472E08BE59AE00E94560F61E672E00D
:1004C0008BE59AE00E94560F6BE872E08BE59AE0AC
:1004D0000E94390F66EC72E08BE59AE00E94560F9D
:1004E00069ED72E08BE59AE00E94560F62E173E0DD
:1004F0008BE59AE00E94390F68E473E08BE59AE09F
:100500000E94560F64E673E08BE59AE00E94560F56
:1005100066E873E08BE59AE00E94390F62EC73E0C5
:100520008BE59AE00E94560F64EE73E08BE59AE04B
:100530000E94560F61E08CE00E94A30E87E00E94AB
:10054000D30E892BD9F760E08CE00E94A30E61E006
:100550008DE00E94A30E6AE074E08BE59AE00E94B1
:10056000560F0E94C4019093EB098093EA0960E260
:1005700074E08BE59AE00E94560F60E08CE00E94E8
:10058000A30E60E08DE00E94A30E60E089E00E946F
:10059000A30E60E08AE00E94A30E60E08BE00E9460
:1005A000A30E8091EA099091EB0908950F931F9390
:1005B000CF93DF930AED19E0C0E0D0E028E130E00E
:1005C00040E050E060E070E0CB010E9439149B01F4
:1005D000EAEDF9E040E050E04C175D0741F0A191F1
:1005E000B1912A173B0731F04F5F5F4FF5CFF8010C
:1005F0007183608321960E5F1F4FC530D105F1F6E0
:100600008BE59AE0DF91CF911F910F910C94420FEF
:100610000F931F93CF93DF9302EC19E0C0E0D0E07B
:1006200028E130E040E050E060E070E0CB010E9463
:1006300039149B01E2ECF9E040E050E04C175D0713
:1006400041F0A191B1912A173B0729F04F5F5F4F0D
:10065000F5CF21E001C020E0211101C0FFCFF8015A
:10066000619371938F012196C530D105C9F68BE551
:100670009AE0DF91CF911F910F910C94420F0F934D
:100680001F93CF93DF930CEC19E0C0E0D0E028E19A
:1006900030E040E050E060E070E0CB010E943914AF
:1006A0009B01ECECF9E040E050E04C175D0741F0B5
:1006B000A191B1912A173B0731F04F5F5F4FF5CF02
:1006C000F8017183608321960E5F1F4FC730D105FB
:1006D000F1F68BE59AE0DF91CF911F910F910C9489
:1006E000420FCF93DF93CAE0D2E029E130E040E04F
:1006F00050E060E070E0CB010E943914660F771F74
:10070000FB01E65FFD4F8081918128813981318332
:1007100020838993999382E0CC33D80731F7DF9116
:10072000CF9108950F931F93CF93DF934091C20908
:100730005091C3096091C4097091C509A091C6097F
:10074000B091C709C091C809D091C9090091CA09DF
:100750001091CB09EEE8F9E080E090E03FE32FE470
:100760008417950761F08617970749F08A179B074A
:1007700031F08C179D0719F08017910711F4208331
:1007800001C03083019631968931910549F7DF9197
:10079000CF911F910F910895E7EAF9E08FE38193DC
:1007A00099E0E03CF907D9F708950F931F93CF9391
:1007B000DF9363E374E08BE59AE00E94390F62E413
:1007C00074E08BE59AE00E94560F6CE774E08BE5CD
:1007D0009AE00E94390F68E974E08BE59AE00E9484
:1007E000560F6AED74E08BE59AE00E94390F67EFCF
:1007F00074E08BE59AE00E94560F69E275E08BE5A4
:100800009AE00E94390F65E475E08BE59AE00E945A
:10081000560F6AED74E08BE59AE00E94390F65E7A8
:1008200075E08BE59AE00E94560F60EA75E08BE573
:100830009AE00E94390F6CEB75E08BE59AE00E941C
:10084000560F6AED74E08BE59AE00E94560F66EF52
:1008500075E08BE59AE00E94560F6AED74E08BE537
:100860009AE00E94560F63E176E08BE59AE00E94E1
:10087000560F60E474E08BE59AE00E94560F60E347
:1008800076E08BE59AE00E94390F6091C009709183
:10089000C1094AE050E08BE59AE00E941A1068E432
:1008A00076E08BE59AE00E94390F60913C027091EE
:1008B0003D024AE050E08BE59AE00E9421106AE98F
:1008C00076E08BE59AE00E94390F07EA19E0F8011B
:1008D00060818BE59AE00E943B0F6AE976E08BE548
:1008E0009AE00E94390FF80161818BE59AE00E943D
:1008F0003B0F6AE976E08BE59AE00E94390FF80138
:1009000062818BE59AE00E943B0F6AE976E08BE515
:100910009AE00E94390FF80163818BE59AE00E940A
:100920003B0F6AE976E08BE59AE00E94390FF80107
:1009300064818BE59AE00E943B0F6CE276E08BE5E8
:100940009AE00E94390F61EA76E08BE59AE00E9416
:10095000390F6AE976E08BE59AE00E94390FCEE81C
:10096000D9E068818BE59AE00E943B0F6AE976E066
:100970008BE59AE00E94390F69818BE59AE00E942D
:100980003B0F6AE976E08BE59AE00E94390F6A81B5
:100990008BE59AE00E943B0F6AE976E08BE59AE0EE
:1009A0000E94390F6B818BE59AE00E943B0F6AE948
:1009B00076E08BE59AE00E94390F6C818BE59AE036
:1009C0000E943B0F6CE276E08BE59AE00E94560FA6
:1009D0006BED74E08BE59AE00E94390F6FE976E0E9
:1009E0008BE59AE00E94390F6BED74E08BE59AE09D
:1009F0000E94560F6AE976E08BE59AE00E94390F73
:100A0000F80165818BE59AE00E943B0F6AE976E088
:100A10008BE59AE00E94390FF80166818BE59AE038
:100A20000E943B0F6AE976E08BE59AE00E94390F5D
:100A3000F80167818BE59AE00E943B0F6AE976E056
:100A40008BE59AE00E94390FF80160858BE59AE00A
:100A50000E943B0F6AE976E08BE59AE00E94390F2D
:100A6000F80161858BE59AE00E943B0F6CE276E02D
:100A70008BE59AE00E94390F61EA76E08BE59AE017
:100A80000E94390F6AE976E08BE59AE00E94390FFF
:100A90006D818BE59AE00E943B0F6AE976E08BE579
:100AA0009AE00E94390F6E818BE59AE00E943B0F1D
:100AB0006AE976E08BE59AE00E94390F6F818BE559
:100AC0009AE00E943B0F6AE976E08BE59AE00E948B
:100AD000390F68858BE59AE00E943B0F6AE976E062
:100AE0008BE59AE00E94390F69858BE59AE00E94B8
:100AF0003B0F6CE276E08BE59AE00E94560F6BEDBF
:100B000074E08BE59AE00E94390F6FE976E08BE59F
:100B10009AE00E94390F6BED74E08BE59AE00E9439
:100B2000560F6AE976E08BE59AE00E94390FF801EA
:100B300062858BE59AE00E943B0F6AE976E08BE5DF
:100B40009AE00E94390FF80163858BE59AE00E94D4
:100B50003B0F6AE976E08BE59AE00E94390FF801D5
:100B600064858BE59AE00E943B0F6AE976E08BE5AD
:100B70009AE00E94390FF80165858BE59AE00E94A2
:100B80003B0F6AE976E08BE59AE00E94390FF801A5
:100B900066858BE59AE00E943B0F6CE276E08BE580
:100BA0009AE00E94390F61EA76E08BE59AE00E94B4
:100BB000390F6AE976E08BE59AE00E94390F6A8581
:100BC0008BE59AE00E943B0F6AE976E08BE59AE0BC
:100BD0000E94390F6B858BE59AE00E943B0F6AE912
:100BE00076E08BE59AE00E94390F6C858BE59AE000
:100BF0000E943B0F6AE976E08BE59AE00E94390F8C
:100C00006D858BE59AE00E943B0F6AE976E08BE503
:100C10009AE00E94390F6E858BE59AE00E943B0FA7
:100C20006CE276E08BE59AE00E94560F6BED74E083
:100C30008BE59AE00E94390F6FE976E08BE59AE048
:100C40000E94390F6BED74E08BE59AE00E94560F1D
:100C50006AE976E08BE59AE00E94390FF801678532
:100C60008BE59AE00E943B0F6AE976E08BE59AE01B
:100C70000E94390FF80160898BE59AE00E943B0FD2
:100C80006AE976E08BE59AE00E94390FF801618904
:100C90008BE59AE00E943B0F6AE976E08BE59AE0EB
:100CA0000E94390FF80162898BE59AE00E943B0FA0
:100CB0006AE976E08BE59AE00E94390FF8016389D2
:100CC0008BE59AE00E943B0F6CE276E08BE59AE0C0
:100CD0000E94390F61EA76E08BE59AE00E94390FB5
:100CE0006AE976E08BE59AE00E94390F6F858BE523
:100CF0009AE00E943B0F6AE976E08BE59AE00E9459
:100D0000390F68898BE59AE00E943B0F6AE976E02B
:100D10008BE59AE00E94390F69898BE59AE00E9481
:100D20003B0F6AE976E08BE59AE00E94390F6A8909
:100D30008BE59AE00E943B0F6AE976E08BE59AE04A
:100D40000E94390F6B898BE59AE00E943B0F6CE2A1
:100D500076E08BE59AE00E94560F6BED74E08BE530
:100D60009AE00E94390F6FE976E08BE59AE00E94E5
:100D7000390F6BED74E08BE59AE00E94560F6AE93B
:100D800076E08BE59AE00E94390FF80164898BE5E3
:100D90009AE00E943B0F6AE976E08BE59AE00E94B8
:100DA000390FF80165898BE59AE00E943B0F6AE9EB
:100DB00076E08BE59AE00E94390FF80166898BE5B1
:100DC0009AE00E943B0F6AE976E08BE59AE00E9488
:100DD000390FF80167898BE59AE00E943B0F6AE9B9
:100DE00076E08BE59AE00E94390FF801608D8BE583
:100DF0009AE00E943B0F6CE276E08BE59AE00E945D
:100E0000390F61EA76E08BE59AE00E94390F6AE9D2
:100E100076E08BE59AE00E94390F6C898BE59AE0C9
:100E20000E943B0F6AE976E08BE59AE00E94390F59
:100E30006D898BE59AE00E943B0F6AE976E08BE5CD
:100E40009AE00E94390F6E898BE59AE00E943B0F71
:100E50006AE976E08BE59AE00E94390F6F898BE5AD
:100E60009AE00E943B0F6AE976E08BE59AE00E94E7
:100E7000390F688D8BE59AE00E943B0F6CE276E0BB
:100E80008BE59AE00E94560F6BED74E08BE59AE0DB
:100E90000E94390F6FE976E08BE59AE00E94390FE6
:100EA0006BED74E08BE59AE0DF91CF911F910F918C
:100EB0000C94560F0F931F93CF93DF93EC01809107
:100EC000CC099091CD098E010955164FC817D90745
:100ED00009F07EC01092E9091092E809F8018081BA
:100EE000883591F460ED76E08BE59AE00E94560F2C
:100EF00067EF76E08BE59AE00E94560F81E090E084
:100F00009093E9098093E8098091E8099091E909B3
:100F1000892B09F00AC10E94580261E277E08BE553
:100F20009AE00E94390F6091EA097091EB094AE05A
:100F300050E08BE59AE00E9421108091EA0990919F
:100F4000EB090A970CF441C088E5F8018083809191
:100F5000C0099091C10901979093C1098093C0097C
:100F60000E94D5036BED74E08BE59AE00E94560F6A
:100F700067E377E08BE59AE00E94390F4AE050E0A2
:100F8000BE018BE59AE00E9421106FE477E08BE5CB
:100F90009AE00E94560F6BED74E08BE59AE00E9498
:100FA000560F8091C0099091C109892B09F0BDC0ED
:100FB0000E94D5036FE577E08BE59AE00E94560F1B
:100FC0001092090210920802B0C06FE777E0A5C046
:100FD0008091CE099091CF09C817D90719F1809156
:100FE000D0099091D109C817D907E1F08091D209B1
:100FF0009091D309C817D907A9F08091D40990918D
:10100000D509C817D90771F08091D6099091D709F1
:10101000C817D90739F08091D8099091D909C81714
:10102000D90731F51092E9091092E809F801808199
:10103000883591F460ED76E08BE59AE00E94560FDA
:1010400067EF76E08BE59AE00E94560F81E090E032
:101050009093E9098093E8098091E8099091E90962
:10106000892B09F062C00E9458026EE977E057CFE1
:101070008DE2F80180830E94D5036BED74E08BE56F
:101080009AE00E94560F67E377E08BE59AE00E94B2
:10109000390F4AE050E0BE018BE59AE00E94211032
:1010A00064EB77E08BE59AE00E94560F6BED74E0FD
:1010B0008BE59AE00E94560FECECF9E0A6E7B9E068
:1010C000819191919E01281B390BC90137FF03C003
:1010D0009195819591098D939D9339E0EA3DF307B0
:1010E00079F727E731E042E050E067E070E086E71B
:1010F00099E00E94A2146CEC77E08BE59AE00E94E4
:10110000390F60918209709183094AE050E08BE5C4
:101110009AE00E9421106BED74E08BE59AE0DF917C
:10112000CF911F910F910C94560FDF91CF911F918A
:101130000F9108950F931F93CF93DF93EC0180914C
:10114000DA099091DB098E010955164FC817D907A6
:1011500009F07EC01092E9091092E809F801808137
:10116000883591F460ED76E08BE59AE00E94560FA9
:1011700067EF76E08BE59AE00E94560F81E090E001
:101180009093E9098093E8098091E8099091E90931
:10119000892B09F0DAC00E9458026EE977E08BE5EE
:1011A0009AE00E94390F6091EA097091EB094AE0D8
:1011B00050E08BE59AE00E9421108091EA0990911D
:1011C000EB0905970CF441C088E5F8018083809114
:1011D000C0099091C10901979093C1098093C009FA
:1011E0000E94D5036BED74E08BE59AE00E94560FE8
:1011F00067E377E08BE59AE00E94390F4AE050E020
:10120000BE018BE59AE00E9421106FE477E08BE548
:101210009AE00E94560F6BED74E08BE59AE00E9415
:10122000560F8091C0099091C109892B09F08DC09A
:101230000E94D5036FE577E08BE59AE00E94560F98
:10124000109209021092080280C06FE777E075C023
:101250008091DC099091DD09C817D90709F47ACF8C
:101260008091DE099091DF09C817D90709F472CF80
:101270008091E0099091E109C817D90709F46ACF74
:101280008091E2099091E309C817D90709F462CF68
:101290008DE2F80180830E94D5036BED74E08BE54D
:1012A0009AE00E94560F67E377E08BE59AE00E9490
:1012B000390F4AE050E0BE018BE59AE00E94211010
:1012C00064EB77E08BE59AE00E94560F6BED74E0DB
:1012D0008BE59AE00E94560FEAEDF9E0A4E8B9E048
:1012E000819191919E01281B390BC90137FF03C0E1
:1012F0009195819591098D939D9339E0E43EF30793
:1013000079F727E731E042E050E065E070E084E8FB
:1013100099E00E94A2146CEC77E08BE59AE00E94C1
:10132000390F60918C0970918D094AE050E08BE58E
:101330009AE00E9421106BED74E08BE59AE0DF915A
:10134000CF911F910F910C94560FDF91CF911F9168
:101350000F910895CF93DF93809172099091730953
:10136000893191050CF098C020913C0230913D02EA
:101370002115310529F410920902109208028DC03E
:10138000880F991FFC01E65FFD4FC081D1818091DC
:10139000C2099091C309FE01E257F64FC817D90759
:1013A000D1F481E280832150310930933D022093B2
:1013B0003C020E94D5036BED77E08BE59AE00E943A
:1013C000390F4AE050E0BE018BE59AE00E942110FF
:1013D00063EF77E049C08091C4099091C509C817AF
:1013E000D907A9F08091C6099091C709C817D907F4
:1013F00071F08091C8099091C909C817D90739F0CF
:101400008091CA099091CB09C817D907D1F481E21C
:1014100080832150310930933D0220933C020E9489
:10142000D5036BED77E08BE59AE00E94390F4AE037
:1014300050E0BE018BE59AE00E94211066E078E062
:1014400013C08DE280830E94D5036BED77E08BE5BE
:101450009AE00E94390F4AE050E0BE018BE59AE025
:101460000E94211068E178E08BE59AE00E94560F17
:101470006BED74E08BE59AE00E94560F8091720943
:10148000909173090196909373098093720920914A
:1014900008023091090201C001C0C901DF91CF915A
:1014A0000895AF92BF92CF92DF92FF920F931F9356
:1014B000CF93DF936C015C01C0E0D0E08B01015061
:1014C0001109C017D1077CF48BE59AE00E9438100F
:1014D00018161906B4F78BE59AE00E946410F82EEE
:1014E0008DE0F8120DC0CC0DDD1D1882DF91CF917B
:1014F0001F910F91FF90DF90CF90BF90AF90089514
:101500006F2D8BE59AE00E94680FF501F1925F0163
:101510002196D7CFCF93DF93CDB7DEB7A0970FB685
:10152000F894DEBF0FBECDBF8BE59AE00E94420F5C
:101530006AE378E08BE59AE00E94560F60E270E083
:10154000CE0101960E94510ACE0101960E942617F3
:10155000A0960FB6F894DEBF0FBECDBFDF91CF913E
:1015600008958BE59AE00E94420F66E778E08BE5EC
:101570009AE00E94560F8BE59AE00E9438101816E8
:101580001906CCF78BE59AE00E9464108D3099F72C
:101590000895AF92BF92CF92DF92FF920F931F9365
:1015A000CF93DF936C018B0164E978E08BE59AE0DF
:1015B0000E94390F5601C0E0D0E001501109C01758
:1015C000D1077CF48BE59AE00E94381018161906B2
:1015D000B4F78BE59AE00E946410F82E8DE0F812C3
:1015E0000DC0CC0DDD1D1882DF91CF911F910F91A1
:1015F000FF90DF90CF90BF90AF9008956F2D8BE557
:101600009AE00E943B0FF501F1925F012196D7CF3E
:10161000CF93DF93CDB7DEB7A0970FB6F894DEBFB8
:101620000FBECDBF60E270E0CE0101960E94C90AF4
:101630008BE59AE00E94420F6FEB78E08BE59AE031
:101640000E94390FCE0101960E9426174AE050E011
:101650008BE59AE00E941A106BE174E08BE59AE04A
:101660000E94560FCE0101960E942617A0960FB633
:10167000F894DEBF0FBECDBFDF91CF910895EF92FA
:10168000FF920F931F93CF93DF930E9481010E94DB
:101690008A0AFB0121E030E03093E7092093E60954
:1016A0002091E6093091E70921303105A1F46AEC77
:1016B00078E08BE59AE00E94560F0E948A0AFB01AF
:1016C000AB01415051094330510550F71092E709E1
:1016D0001092E609E5CFE130F10509F063C085E03D
:1016E00090E09093C1098093C0090E94CC030E94AE
:1016F000D6020E9408030E9471030E9492030E9476
:10170000D5030E94B10A02E010E080910802909196
:101710000902019709F054C12091740930917509AB
:101720002F5F3F4F3093750920937409C901B801A9
:101730000E9479177C0181E0E816F10459F50E94B6
:10174000080BEB016931710508F169EE78E08BE572
:101750009AE00E94560FF092E509E092E409809128
:10176000E4099091E509019789F460E179E08BE55E
:101770009AE00E94560F0E94080BEB016931710537
:1017800070F71092E5091092E409E9CFCE010E94AA
:101790009A08BBCF20FDB9CF0E94AA09892B09F076
:1017A000B4CFEBC0E230F10509F07EC087E090E0F5
:1017B0009093C1098093C0090E94CC030E943F030B
:1017C0000E9408030E9471030E9492036091CC0959
:1017D0007091CD094AE050E08BE59AE00E9421101B
:1017E0006091CE097091CF094AE050E08BE59AE014
:1017F0000E9421106091D0097091D1094AE050E017
:101800008BE59AE00E9421106091D2097091D30972
:101810004AE050E08BE59AE00E9421106091D409E3
:101820007091D5094AE050E08BE59AE00E942110C2
:101830006091D6097091D7094AE050E08BE59AE0B3
:101840000E9421106091D8097091D9094AE050E0B6
:101850008BE59AE00E9421100E94D5030E94B10AF4
:10186000C2E0D0E08091080290910902019709F04E
:10187000A7C080917409909175090196909375099C
:101880008093740980FD06C00E94080BCB010E9462
:101890005A07E8CFBE010E947917019719F70E94F5
:1018A000AA09892BF9F669C0339709F089C087E046
:1018B00090E09093C1098093C0090E94CC030E94DC
:1018C0003F030E9408030E9471030E9492036091EB
:1018D000CC097091CD094AE050E08BE59AE00E9476
:1018E00021106091CE097091CF094AE050E08BE55C
:1018F0009AE00E9421106091D0097091D1094AE0CC
:1019000050E08BE59AE00E9421106091D20970911D
:10191000D3094AE050E08BE59AE00E9421106091E3
:10192000D4097091D5094AE050E08BE59AE00E9415
:1019300021106091D6097091D7094AE050E08BE5FB
:101940009AE00E9421106091D8097091D9094AE06B
:1019500050E08BE59AE00E9421100E94D5030E947E
:10196000B10AC2E0D0E020C0BE010E947917019701
:10197000D9F40E94AA09892BF1F468E379E08BE598
:101980009AE00E94560F1CC08091740990917509CD
:101990000196909375098093740980FDE5CF0E94AC
:1019A000080BCB010E945A0780910802909109020E
:1019B000019751F305C00E94AA09892BA9F7DDCF31
:1019C0008BE59AE00E94841080E090E0DF91CF9157
:1019D0001F910F91FF90EF9008951F920F920FB6F5
:1019E0000F9211242F933F938F939F93AF93BF93A5
:1019F0008091ED099091EE09A091EF09B091F00965
:101A00003091EC0923E0230F2D3720F40196A11D1E
:101A1000B11D05C026E8230F0296A11DB11D20931C
:101A2000EC098093ED099093EE09A093EF09B09330
:101A3000F0098091F1099091F209A091F309B09118
:101A4000F4090196A11DB11D8093F1099093F2094B
:101A5000A093F309B093F409BF91AF919F918F9137
:101A60003F912F910F900FBE0F901F9018952FB799
:101A7000F8946091ED097091EE098091EF099091D1
:101A8000F0092FBF08953FB7F8948091F109909124
:101A9000F209A091F309B091F40926B5A89B05C0FD
:101AA0002F3F19F00196A11DB11D3FBFBA2FA92FDD
:101AB000982F8827820F911DA11DB11DBC01CD015A
:101AC00042E0660F771F881F991F4A95D1F7089546
:101AD000CF92DF92EF92FF92CF93DF936B017C0165
:101AE0000E94430DEB01C114D104E104F10479F02B
:101AF0000E94430D6C1B7D0B683E7340A0F381E098
:101B0000C81AD108E108F108C851DC4FECCFDF91C9
:101B1000CF91FF90EF90DF90CF900895789484B5A7
:101B2000826084BD84B5816084BD85B5826085BDD9
:101B300085B5816085BDEEE6F0E0808181608083BF
:101B4000E1E8F0E0108280818260808380818160A2
:101B50008083E0E8F0E0808181608083E1EBF0E069
:101B6000808184608083E0EBF0E08081816080830D
:101B7000E1E9F0E080818260808380818160808300
:101B8000E0E9F0E0808181608083E1EAF0E080813B
:101B900082608083808181608083E0EAF0E08081E0
:101BA00081608083E1E2F1E08081826080838081D6
:101BB00081608083E0E2F1E0808181608083EAE7F8
:101BC000F0E0808184608083808182608083808176
:101BD000816080838081806880831092C100089535
:101BE000863308F0865390917B00282F2870977FCA
:101BF000922B90937B00877020913E0290E4299F66
:101C000090011124822B80937C0080917A00806463
:101C100080937A0080917A0086FDFCCF80917800D5
:101C20002091790090E0922B089590E0FC0131978B
:101C3000E131F10508F04AC08827EE58FF4F8F4F79
:101C40000C94CE17809180008F7703C08091800024
:101C50008F7D80938000089584B58F7702C084B50E
:101C60008F7D84BD08958091B0008F7703C08091EF
:101C7000B0008F7D8093B0000895809190008F77A1
:101C800007C0809190008F7D03C080919000877F76
:101C90008093900008958091A0008F7707C0809175
:101CA000A0008F7D03C08091A000877F8093A0005B
:101CB0000895809120018F7707C0809120018F7D4A
:101CC00003C080912001877F809320010895CF93E6
:101CD000DF9390E0FC01E455FE4F2491FC01EE50AF
:101CE000FE4F8491882361F190E0880F991FFC01D9
:101CF000E459FD4FC591D491FC01EE5AFD4FA591D9
:101D0000B491611109C09FB7F8948881209582230E
:101D10008883EC912E230BC0623061F49FB7F89456
:101D20003881822F809583238883EC912E2B2C93EE
:101D30009FBF06C08FB7F894E8812E2B28838FBFF2
:101D4000DF91CF9108951F93CF93DF93282F30E039
:101D5000F901EA59FE4F8491F901E455FE4FD491FF
:101D6000F901EE50FE4FC491CC23C9F0162F81111A
:101D70000E94150EEC2FF0E0EE0FFF1FEE5AFD4F04
:101D8000A591B4918FB7F894111105C09C91ED2FD6
:101D9000E095E92302C0EC91ED2BEC938FBFDF912E
:101DA000CF911F910895CF93DF93282F30E0F90151
:101DB000EA59FE4F8491F901E455FE4FD491F9019F
:101DC000EE50FE4FC491CC2391F081110E94150E6C
:101DD000EC2FF0E0EE0FFF1FE85CFD4FA591B491F2
:101DE000EC91ED2381E090E021F480E002C080E0FE
:101DF00090E0DF91CF910895CF92DF92EF92FF9222
:101E00000F931F93CF93DF936C01EB017B01E40EE3
:101E1000F51E00E010E0CE15DF0561F06991D601F6
:101E2000ED91FC910190F081E02DC6011995080F0C
:101E3000191FF1CFC801DF91CF911F910F91FF9032
:101E4000EF90DF90CF9008956115710579F0FB0157
:101E500001900020E9F73197AF01461B570BDC01D9
:101E6000ED91FC910280F381E02D199480E090E0E7
:101E700008950C94240FDC01ED91FC910190F08108
:101E8000E02D19940F931F93CF93DF93EC016DE036
:101E90000E943B0F8C016AE0CE010E943B0F800F35
:101EA000911FDF91CF911F910F9108950F931F9371
:101EB000CF93DF93EC010E94240F8C01CE010E948E
:101EC000420F800F911FDF91CF911F910F910895C5
:101ED0000F931F93CF93DF93EC010E943B0F8C0174
:101EE000CE010E94420F800F911FDF91CF911F9171
:101EF0000F9108958F929F92AF92BF92CF92DF92EF
:101F0000EF92FF920F931F93CF93DF93CDB7DEB77E
:101F1000A1970FB6F894DEBF0FBECDBF6C01142F92
:101F2000E52FCB01022F19A2223008F40AE07E012E
:101F300021E2E20EF11C802E912CA12CB12C612FFC
:101F40007E2FA50194010E948D17029F1019112464
:101F500081E0E81AF1081A3014F4105D01C0195C30
:101F6000F7011083122FE32FCA01232B242B252BDB
:101F700031F7B701C6010E94240FA1960FB6F8945D
:101F8000DEBF0FBECDBFDF91CF911F910F91FF90AC
:101F9000EF90DF90CF90BF90AF909F908F9008957B
:101FA000CF92DF92EF92FF920F931F93CF93DF9325
:101FB000EC016A017B012115310579F4E881F98191
:101FC0000190F081E02D642FDF91CF911F910F914F
:101FD000FF90EF90DF90CF9019942A303105E9F40B
:101FE00077FF1AC06DE20E943B0F8C0144275527F2
:101FF000BA014C195D096E097F092AE0CE010E94E1
:102000007A0F800F911FDF91CF911F910F91FF9059
:10201000EF90DF90CF9008952AE0B701A601CE019E
:10202000DF91CF911F910F91FF90EF90DF90CF90B4
:102030000C947A0F9A01AB01770F660B770B0C9417
:10204000D00F0F931F93CF93DF93EC019A01AB0155
:10205000770F660B770B0E94D00F8C01CE010E9488
:10206000420F800F911FDF91CF911F910F91089523
:10207000FC0124853585F901E05CFF4F8081918169
:10208000329620813181821B930B8F73992708959B
:10209000DC011C96ED91FC911D97DF01A05CBF4F08
:1020A0002D913C91119712968D919C911197281723
:1020B000390739F08D919C91E80FF91F808190E0EC
:1020C00008958FEF9FEF0895FC01A485B585FD016C
:1020D000E05CFF4F20813181329680819181281709
:1020E000390779F080819181A80FB91F8C912081E7
:1020F00031812F5F3F4F2F7333273183208390E04F
:1021000008958FEF9FEF0895FC0181A1882329F0A6
:10211000A489B5898C9186FFFBCF11A208950F93F6
:102120001F93CF93DF93FC01A685B7858D01005CDB
:102130001F4FE8018881998101968F739927AD011E
:102140004E5B5F4FEA012881398182179307D1F3F3
:10215000E80128813981A20FB31F6C93A685B7854A
:10216000A05CBF4F11969C938E93A689B7892C9142
:1021700081E090E0078C02C0880F991F0A94E2F773
:10218000822B8C9381E081A30488F589E02D8081E6
:102190008064808381E090E0DF91CF911F910F9167
:1021A0000895FB01E05CFF4F208131812F5F3F4F9D
:1021B0002F733327DB01AE5BBF4F4D915C9124172A
:1021C000350741F040815181DB01A40FB51F8C938D
:1021D0003183208308951F920F920FB60F9211241E
:1021E0000BB60F922F933F934F935F936F937F9311
:1021F0008F939F93AF93BF93EF93FF938091C00012
:1022000082FD07C08091C60069E57CE00E94D11084
:1022100002C08091C600FF91EF91BF91AF919F9155
:102220008F917F916F915F914F913F912F910F907F
:102230000BBE0F900FBE0F901F9018951F920F921C
:102240000FB60F9211240BB60F922F933F934F931B
:102250005F936F937F938F939F93AF93BF93EF930E
:10226000FF938091C80082FD07C08091CE0061ED90
:102270007BE00E94D11002C08091CE00FF91EF91CF
:10228000BF91AF919F918F917F916F915F914F918E
:102290003F912F910F900BBE0F900FBE0F901F908C
:1022A00018951F920F920FB60F9211240BB60F9232
:1022B0002F933F934F935F936F937F938F939F934E
:1022C000AF93BF93EF93FF938091D00082FD07C03F
:1022D0008091D60069E47BE00E94D11002C0809119
:1022E000D600FF91EF91BF91AF919F918F917F9118
:1022F0006F915F914F913F912F910F900BBE0F9077
:102300000FBE0F901F9018951F920F920FB60F924D
:1023100011240BB60F922F933F934F935F936F93BC
:102320007F938F939F93AF93BF93EF93FF9380918E
:10233000300182FD07C08091360161EC7AE00E9495
:10234000D11002C080913601FF91EF91BF91AF9102
:102350009F918F917F916F915F914F913F912F91BD
:102360000F900BBE0F900FBE0F901F9018951F92ED
:102370000F920FB60F9211240BB60F922F933F932B
:102380008F939F93EF93FF932091550C3091560CB0
:102390008091570C9091580C2817390731F480918F
:1023A000C1008F7D8093C10014C0E091570CF09163
:1023B000580CEB5EF34F20818091570C9091580C94
:1023C00001968F7399279093580C8093570C209304
:1023D000C600FF91EF919F918F913F912F910F90A8
:1023E0000BBE0F900FBE0F901F9018951F920F926B
:1023F0000FB60F9211240BB60F922F933F938F932A
:102400009F93EF93FF932091CD0B3091CE0B809152
:10241000CF0B9091D00B2817390731F48091C90068
:102420008F7D8093C90014C0E091CF0BF091D00B49
:10243000E357F44F20818091CF0B9091D00B019600
:102440008F7399279093D00B8093CF0B2093CE005E
:10245000FF91EF919F918F913F912F910F900BBE24
:102460000F900FBE0F901F9018951F920F920FB6EE
:102470000F9211240BB60F922F933F938F939F933C
:10248000EF93FF932091450B3091460B8091470BC2
:102490009091480B2817390731F48091D1008F7D36
:1024A0008093D10014C0E091470BF091480BEB5F93
:1024B000F44F20818091470B9091480B01968F73C8
:1024C00099279093480B8093470B2093D600FF9158
:1024D000EF919F918F913F912F910F900BBE0F9095
:1024E0000FBE0F901F9018951F920F920FB60F926C
:1024F00011240BB60F922F933F938F939F93EF93DB
:10250000FF932091BD0A3091BE0A8091BF0A90913D
:10251000C00A2817390731F4809131018F7D8093EB
:10252000310114C0E091BF0AF091C00AE358F54FA1
:1025300020818091BF0A9091C00A01968F739927DC
:102540009093C00A8093BF0A20933601FF91EF91C8
:102550009F918F913F912F910F900BBE0F900FBEC7
:102560000F901F901895CF92DF92EF92FF920F93EA
:102570001F93CF93DF93EC016A017B014115514E0C
:102580006105710509F1EC89FD8981E090E008A001
:1025900002C0880F991F0A94E2F7808360E079E017
:1025A0008DE390E0A70196010E948D1789019A01A1
:1025B000015011092109310936952795179507957D
:1025C000980101151041A8F0EC89FD89108260E89E
:1025D00074E88EE190E0A70196010E948D17DA0160
:1025E000C9010197A109B109B695A7959795879556
:1025F0009C01E889F9893083EA89FB89208319A243
:10260000EE89FF89408181E090E09C010C8C02C042
:10261000220F331F0A94E2F7242B2083EE89FF89CF
:1026200040819C010D8C02C0220F331F0A94E2F7F7
:10263000242B2083EE89FF8940819C010E8C02C0EF
:10264000220F331F0A94E2F7242B2083EE89FF899F
:1026500020810F8C02C0880F991F0A94E2F78095A1
:1026600082238083DF91CF911F910F91FF90EF9094
:10267000DF90CF900895CF92DF92EF92FF92EBE53B
:10268000FAE01382128288EEC82E83E0D82EE12C65
:10269000F12CC482D582E682F78266E679E0718306
:1026A000608389E59CE09587848785E19CE0978736
:1026B000868785EC90E0918B808B84EC90E0938B07
:1026C000828B80EC90E0958B848B81EC90E0978BF3
:1026D000868B82EC90E0918F808F86EC90E0938FD8
:1026E000828F44E0448F33E0358F27E0268F95E0DA
:1026F000978F81E080A3E9E3FAE013821282C4821B
:10270000D582E682F78271836083A1EDBBE0B58755
:10271000A487ADE8BBE0B787A687ADECB0E0B18B8E
:10272000A08BACECB0E0B38BA28BA8ECB0E0B58B87
:10273000A48BA9ECB0E0B78BA68BAAECB0E0B18F6C
:10274000A08FAEECB0E0B38FA28F448F358F268F71
:10275000978F80A3E7E1FAE013821282C482D582C8
:10276000E682F78271836083A9E4BBE0B587A48722
:10277000A5E0BBE0B787A687A5EDB0E0B18BA08B45
:10278000A4EDB0E0B38BA28BA0EDB0E0B58BA48B31
:10279000A1EDB0E0B78BA68BA2EDB0E0B18FA08F1A
:1027A000A6EDB0E0B38FA28F448F358F268F978F21
:1027B00080A3E5EFF9E013821282C482D582E6821B
:1027C000F7827183608361EC7AE0758764876DE7D7
:1027D0007AE07787668765E371E0718B608B64E3ED
:1027E00071E0738B628B60E371E0758B648B61E3E6
:1027F00071E0778B668B62E371E0718F608F66E3C7
:1028000071E0738F628F448F358F268F978F80A3EF
:10281000FF90EF90DF90CF900895009729F0BC01D2
:1028200080E090E00C941D170895CF93DF9300D0C3
:102830001F92CDB7DEB7611571058105910579F05D
:102840009B01AC0169833A834B835C830E94191717
:1028500029813A814B815C810E94AF1703C060E0FF
:1028600070E0CB010F900F900F900F90DF91CF9100
:102870000895CF92DF92EF92FF920F931F9362170A
:1028800073078407950784F489019A016B017C0121
:10289000C901B8016C197D098E099F090E941514A0
:1028A0006C0D7D1D8E1D9F1D1F910F91FF90EF9050
:1028B000DF90CF900895DC01FB018C9190819D9376
:1028C00081934150510914161506BCF30895CF9217
:1028D000DF92EF92FF920F931F93CF93DF93D82F46
:1028E000C92F6B018A017901F9011995B80197FF88
:1028F0000FC0C601F701199597FF02C0C60119C0A4
:10290000B8018D2F9C2FF701199597FD0EC00FC0B0
:10291000C601F70119951816190684F3B8018D2F11
:102920009C2FF701199597FD02C0C80102C08D2F99
:102930009C2FDF91CF911F910F91FF90EF90DF902F
:10294000CF9008952F923F924F925F926F927F9215
:102950008F929F92AF92BF92CF92DF92EF92FF92AF
:102960000F931F93CF93DF93CDB7DEB72A970FB6A0
:10297000F894DEBF0FBECDBF8C017B015A8749871B
:1029800069015195419551095E834D8329853A85A9
:10299000200F311F3A83298337E0E316F10478F5DD
:1029A00089809A8049855A85E49EC001E59E900DF4
:1029B000F49E900D11247801E80EF91E8E149F04E8
:1029C00008F077C1340106151705A0F45301698595
:1029D0007A85A61AB70AB301C501F601199518162A
:1029E000190644F449855A85B501C3010E945B1458
:1029F0003501E9CF29853A85820E931EDFCFC701C5
:102A00009695879549855A85849F5001859FB00C7E
:102A1000949FB00C1124A00EB11EB7016150710932
:102A20007C836B8377E0E716F10409F44CC08B815B
:102A30009C81849F3001859F700C949F700C1124A1
:102A4000600E711E99E2E916F104A8F1C70123E0B6
:102A5000969587952A95E1F7849F4001859F900C74
:102A6000949F900C11241401220C331CA801420DD8
:102A7000531DB801680D791D9601C8010E946714A5
:102A80002C01A501480D591D91948194910896013E
:102A9000B501C501880D991D0E9467145C01B30141
:102AA000680D791D9601A301C301821993090E9443
:102AB00067143C0101C028019601A301B501C201C0
:102AC0000E9467145C0149855A85B501C8010E94BE
:102AD0005B1489809A804B815C8169857A85469FE9
:102AE0009001479F300D569F300D11243A83298362
:102AF0003901600E711E23015401140120E030E001
:102B00006A147B0408F43FC0B801C5012F833887DD
:102B1000F60119952F81388518161906A4F1892B0D
:102B200061F449855A85B501C1010E945B1489850C
:102B30009A85280E391E21E030E0E985FA85AE0E2F
:102B4000BF1EDECFB801C3012F833887F601199568
:102B5000A30169857A85461B570B5C834B832F81C4
:102B6000388597FD14C0892B61F449855A85B201D7
:102B7000C3010E945B1429853A85421A530A21E059
:102B800030E06B807C806A147B04E0F60FC04985DE
:102B90005A85B301C5010E945B1449855A85A40E6C
:102BA000B51E6B807C8021E030E0AACF232B69F535
:102BB000E985FA85EE9EC001EF9E900DFE9E900D78
:102BC00011247801E80EF91E8E149F0408F071C0DC
:102BD000340106151705A0F4530129853A85A21A78
:102BE000B30AB301C501F60119951816190644F484
:102BF00049855A85B501C3010E945B143501E9CFAF
:102C000029853A85820E931EDFCF89819A814D8175
:102C10005E81841B950BB801680F791F7A836983E5
:102C20007501E218F308A101401B510BE416F506EB
:102C30000CF4A7011416150634F4B501641B750BCA
:102C4000C8010E945B1442018618970849815A8185
:102C50004419550989859A85481B590B8416950690
:102C600008F4A401141615063CF469817A81641BEA
:102C7000750BC5010E945B14E985FA85EE15FF0509
:102C800048F4C701BF010E9465179601AF01C80152
:102C90000E94A21429853A852815390550F4098126
:102CA0001A8108191909C401B9010E9465177B012D
:102CB0006DCE2A960FB6F894DEBF0FBECDBFDF9162
:102CC000CF911F910F91FF90EF90DF90CF90BF9029
:102CD000AF909F908F907F906F905F904F903F90BC
:102CE0002F9008958F929F92AF92BF92CF92DF92D2
:102CF000EF92FF92CF93DF93EC01688179818A8113
:102D00009B81611571058105910521F464E279EDDE
:102D10008BE597E02DE133EF41E050E00E94AF17E3
:102D200049015A019B01AC01A7EAB1E40E94D61700
:102D30006B017C01ACEEB4EFA50194010E94E41795
:102D4000DC01CB018C0D9D1DAE1DBF1DB7FF03C067
:102D50000197A109B04888839983AA83BB839F7791
:102D6000DF91CF91FF90EF90DF90CF90BF90AF9029
:102D70009F908F9008950C94721680E092E00C94CE
:102D80007216A0E0B0E08093000290930102A0933D
:102D90000202B093030208958F929F92AF92BF9266
:102DA000CF92DF92EF92FF92CF93DF93EC01688195
:102DB00079818A819B81611571058105910521F4D5
:102DC00064E279ED8BE597E02DE133EF41E050E0EF
:102DD0000E94AF1749015A019B01AC01A7EAB1E477
:102DE0000E94D6176B017C01ACEEB4EFA5019401F3
:102DF0000E94E417DC01CB018C0D9D1DAE1DBF1D93
:102E0000B7FF03C00197A109B04888839983AA83BB
:102E1000BB83BC01CD019F77DF91CF91FF90EF90F5
:102E2000DF90CF90BF90AF909F908F9008950C94BB
:102E3000CC1684E092E00C94CC166093040270935C
:102E40000502809306029093070208951F93FC01E8
:102E500099278827BC01E89411911032E9F31930C1
:102E600010F01E30C8F31B3251F01D3249F4689443
:102E700006C00E945017610F711D811D911D119197
:102E800010531A30B0F33EF490958095709561958B
:102E90007F4F8F4F9F4F1F910895F8940C94F81710
:102EA000592F482F372F262F660F771F881F991FFE
:102EB000660F771F881F991F620F731F841F951F4E
:102EC000660F771F881F991F0895AA1BBB1B51E12E
:102ED00007C0AA1FBB1FA617B70710F0A61BB70B8A
:102EE000881F991F5A95A9F780959095BC01CD012F
:102EF000089597FB072E16F4009407D077FD09D0AC
:102F00000E94651707FC05D03EF4909581959F4F70
:102F10000895709561957F4F0895A1E21A2EAA1B1E
:102F2000BB1BFD010DC0AA1FBB1FEE1FFF1FA21779
:102F3000B307E407F50720F0A21BB30BE40BF50B76
:102F4000661F771F881F991F1A9469F760957095FF
:102F5000809590959B01AC01BD01CF010895052E90
:102F600097FB1EF400940E94C61757FD07D00E94DD
:102F70008D1707FC03D04EF40C94C617509540955E
:102F8000309521953F4F4F4F5F4F08959095809515
:102F9000709561957F4F8F4F9F4F0895EE0FFF1FE4
:102FA000881F8BBF0790F691E02D19940E94E917B6
:102FB000A59F900DB49F900DA49F800D911D11248D
:102FC0000895B7FF0C94D6170E94D617821B930B57
:102FD0000895A29FB001B39FC001A39F700D811DF2
:102FE0001124911DB29F700D811D1124911D089512
:042FF000F894FFCF83
:102FF40001000000010000000100000001000200C7
:1030040003000400050006000700080009000A0088
:103014000B000C000D000E000F0010001100120038
:1030240013001400150016001700180005000159BC
:103034006F75722073636F72652069733A2000594B
:103044006F7520666F756E642061207368697021E6
:103054000054686973206D696E6967616D65206FDE
:103064006E6C7920757365732074686520332072E3
:1030740069676874204C4544732E005072657373FD
:1030840020616E6420686F6C642061206C69742018
:103094004C4544277320627574746F6E207768659D
:1030A4006E2074686579207475726E206F6E207559
:1030B4006E74696C2000746865204C4544207475F6
:1030C400726E73206F66662E0045616368207375A7
:1030D400636365737366756C20627574746F6E20B8
:1030E400707265737320696E6372656173657320B2
:1030F400796F75722073636F726520627920312E47
:103104002000466F72206120737563636573736674
:10311400756C207368697020686974206765742011
:1031240061626F766520352073636F7265206F6E00
:1031340020456173792C200061626F7665203130FF
:10314400206F6E204D656469756D206F7220486133
:1031540072642E00596F75722073636F72652077E5
:10316400696C6C20757064617465206F6E20736384
:103174007265656E2E005072657373206C6566749B
:103184006D6F7374206669726520627574746F6EF6
:10319400207768656E207265616479202D207468DB
:1031A40065206C6566746D6F737420677265656EF7
:1031B40020004C45442077696C6C2073746179203D
:1031C4006F6E20647572696E67207468652067612C
:1031D4006D652E005468652067616D65206C6173B0
:1031E4007473203130207365636F6E64732E2047CF
:1031F4006F6F64206C75636B210053746172746922
:103204006E67206D696E6967616D65202E2E2E00D4
:103214004D696E6967616D652066696E697368657D
:10322400642100506F736974696F6E696E673A2028
:103234000A002020202020202020202020202020C0
:10324400202020202020202020202020202020207A
:10325400202020202020202020202020202020206A
:1032640020202020204C6567656E6400207C20208F
:1032740030207C202031207C202032207C202033F0
:10328400207C202034207C0009090909093F3A20C8
:103294006F6E20796F7572206669656C642069733E
:1032A40020656D7074792073706F742C206F6E209C
:1032B4006F70706F6E656E747320697320756E69BC
:1032C40064656E74696669656400202D2D2D2D2D4D
:1032D4002D2D2D2D2D2D2D2D2D2D2D2D2D2D2D2D1A
:1032E4002D2D2D2D2D2D0009090909094F3A206F87
:1032F4006E20796F7572206669656C64206974202C
:10330400697320706F736974696F6E206F662079BA
:103314006F7572207368697000207C202035207CD2
:10332400202036207C202037207C202038207C2040
:103334002039207C000909090909213A206F6E20EF
:10334400796F7572206669656C64206D65616E7352
:1033540020796F75722064657374726F7965642067
:10336400736869700009090909092D3A206F6E20F4
:10337400626F7468206669656C6473206D65616E44
:10338400732061747461636B206D69737365640089
:10339400207C203130207C203131207C20313220AF
:1033A4007C203133207C203134207C000909090938
:1033B40009583A206F6E206F70706F6E656E74736B
:1033C400206669656C64206D65616E73206F707032
:1033D4006F6E656E74732064657374726F7965645F
:1033E400207368697000207C203135207C203136C0
:1033F400207C203137207C203138207C203139203A
:103404007C2000207C203230207C203231207C2023
:103414003232207C203233207C203234207C200045
:10342400596F7572206F70706F6E656E742773209C
:103434006669656C643A2000207368697073206C57
:103444006566742120202020202020202020202098
:103454002020202020202020202020202020202068
:103464002020202020202020202020596F75722029
:1034740063757272656E742072656D61696E696ED2
:10348400672073686970733A2000207C2020002034
:103494002020202020202020202020202020202028
:1034A4002020202020202020202020202020202018
:1034B4002020202020202020202020202020200028
:1034C400596F7527766520616C7265616479206136
:1034D400747461636B6564207468697320706F73BE
:1034E4006974696F6E2100596F75206C6F73652064
:1034F400796F7572207475726E20666F72206E6FAC
:1035040074206B656570696E6720747261636B21EA
:1035140000596F75722066696E616C2073636F72F7
:10352400652069733A2000596F7520617474616372
:103534006B656420706F736974696F6E2020005925
:103544006F7520686974206120736869702100595F
:103554006F752068697420616C6C207468652073D1
:103564006869707320796F752077696E2021005423
:1035740068652061747461636B20776173206E6F7A
:1035840074207375636365737366756C210056618B
:103594006C7565206F6620636F756E746572206943
:1035A400733A2000596F7520646964206E6F74202B
:1035B400686974206120736869702100596F7520EF
:1035C4006D69737365642062792000596F75722088
:1035D4006F70706F6E656E742061747461636B6577
:1035E400642000596F757220736869702077617365
:1035F400206869742100596F75722073686970209E
:103604007761732068697400596F7572206F7070E8
:103614006F6E656E7420646964206E6F74206869CF
:10362400742061207368697021005069636B20798C
:103634006F757220646966666963756C74793A2083
:103644003120666F7220456173792C203220666FB9
:1036540072204D656469756D2C203320666F72206D
:10366400486172642E00507265737320746865201B
:10367400456E746572206B657920746F2073746174
:1036840072743A00456E7465722074686520636FC5
:103694006F7264696E6174657320796F75207769E0
:1036A400736820746F2061747461636B3A20004105
:1036B400747461636B696E672000496E76616C692E
:1036C40064206D6F64652C20706C65617365207275
:1036D40065656E7465723A2000496E76616C696442
:1036E40020636F6F7264696E617465732C20706CF3
:1036F4006561736520747279206167616E3A200098
:10370400496E76616C696420636F6F7264696E617F
:103714007465732C20706C656173652074727920F4
:10372400616761696E3A2000596F75206C6F73741C
:1037340020616C6C20796F757220736869707321D5
:1037440020596F75206C6F736521200009000A00F1
:103754000B00000000008F10FC0E3810641048109D
:023764008410CF
:00000001FF
