:100000000C9481000C94B2000C94B2000C94B200D9
:100010000C94B2000C94B2000C94B2000C94B20098
:100020000C94B2000C94B2000C94B2000C94B20088
:100030000C94B2000C94B2000C94B2000C94B20078
:100040000C94B2000C94B2000C94B2000C94B20068
:100050000C94B2000C94B2000C94B2000C940D01FC
:100060000C94B2000C94D6020C94A2030C94B2002F
:100070000C94B2000C94B2000C94B2000C94B20038
:100080000C94B2000C94B2000C94B2000C94B20028
:100090000C9409030C94E1030C94B2000C94B2008C
:1000A0000C94B2000C94B2000C94B2000C94B20008
:1000B0000C94B2000C94B2000C94B2000C94B200F8
:1000C0000C94B2000C94B2000C94B2000C943C035B
:1000D0000C9420040C94B2000C946F030C945F04F5
:1000E0000C94B2000C9423020C9426050C944F023D
:1000F0000C9433020C946F020C947A020C94B901A4
:10010000260511241FBECFEFD1E2DEBFCDBF00E038
:100110000CBF12E0A0E0B2E0EEE4FCE000E00BBFB8
:1001200002C007900D92AE3AB107D9F725E0AEEACA
:10013000B2E001C01D92AF35B207E1F710E0C1E8AF
:10014000D0E000E006C021970109802FFE010E9447
:100150001D06C038D10780E00807A9F70E940201F8
:100160000C94F8050C9400000E94570140E855E2F9
:1001700060E070E08DE193E00E949E0440E855E26B
:1001800060E070E087EB92E00C949E0460E072E027
:100190008DE193E00E9411026FE072E08DE193E047
:1001A0000E94110266E272E08DE193E00E9411026A
:1001B0006EE372E08DE193E00E94110266E272E06C
:1001C0008DE193E00E94110265E572E08DE193E01C
:1001D0000E94110266E272E08DE193E00E9411023A
:1001E0006DE672E08DE193E00E94110266E272E03A
:1001F0008DE193E00E94110265E872E08DE193E0E9
:100200000C9411020E94B4000E94C6008DE193E09C
:100210000E946F0280E090E008951F920F920FB647
:100220000F9211242F933F938F939F93AF93BF937C
:100230008091AF029091B002A091B102B091B20250
:100240003091AE0223E0230F2D3720F40196A11D3B
:10025000B11D05C026E8230F0296A11DB11D2093F4
:10026000AE028093AF029093B002A093B102B0931C
:10027000B2028091B3029091B402A091B502B09104
:10028000B6020196A11DB11D8093B3029093B402F2
:10029000A093B502B093B602BF91AF919F918F9199
:1002A0003F912F910F900FBE0F901F90189578944B
:1002B00084B5826084BD84B5816084BD85B582606B
:1002C00085BD85B5816085BDEEE6F0E08081816009
:1002D0008083E1E8F0E01082808182608083808109
:1002E00081608083E0E8F0E0808181608083E1EBE1
:1002F000F0E0808184608083E0EBF0E080818160C9
:100300008083E1E9F0E08081826080838081816088
:100310008083E0E9F0E0808181608083E1EAF0E0C1
:10032000808182608083808181608083E0EAF0E068
:10033000808181608083E1E2F1E08081826080835E
:10034000808181608083E0E2F1E080818160808350
:10035000EAE7F0E08081846080838081826080832E
:100360008081816080838081806880831092C10059
:100370000895CF92DF92EF92FF920F931F93CF9346
:10038000DF936C01EB017B01E40EF51E00E010E051
:10039000CE15DF0561F06991D601ED91FC910190D8
:1003A000F081E02DC6011995080F191FF1CFC80182
:1003B000DF91CF911F910F91FF90EF90DF90CF9041
:1003C00008956115710579F0FB0101900020E9F7AE
:1003D0003197AF01461B570BDC01ED91FC91028078
:1003E000F381E02D199480E090E00895DC01ED9117
:1003F000FC910190F081E02D19940F931F93CF93FE
:10040000DF93EC016DE00E94F6018C016AE0CE0101
:100410000E94F601800F911FDF91CF911F910F91E4
:1004200008950F931F93CF93DF93EC010E94E10196
:100430008C01CE010E94FD01800F911FDF91CF91B1
:100440001F910F910895FC0124853585F901E05C29
:10045000FF4F80819181329620813181821B930BE5
:100460008F7399270895DC011C96ED91FC911D97DF
:10047000DF01A05CBF4F2D913C91119712968D9199
:100480009C9111972817390739F08D919C91E80FAD
:10049000F91F808190E008958FEF9FEF0895FC0190
:1004A000A485B585FD01E05CFF4F20813181329646
:1004B000808191812817390779F080819181A80F77
:1004C000B91F8C91208131812F5F3F4F2F733327CC
:1004D0003183208390E008958FEF9FEF0895FC0112
:1004E00081A1882329F0A489B5898C9186FFFBCF4F
:1004F00011A208950F931F93CF93DF93FC01A6855C
:10050000B7858D01005C1F4FE801888199810196B4
:100510008F739927AD014E5B5F4FEA0128813981C6
:1005200082179307D1F3E80128813981A20FB31F05
:100530006C93A685B785A05CBF4F11969C938E9354
:10054000A689B7892C9181E090E0078C02C0880FC2
:10055000991F0A94E2F7822B8C9381E081A304888F
:10056000F589E02D80818064808381E090E0DF91D7
:10057000CF911F910F910895FB01E05CFF4F208107
:1005800031812F5F3F4F2F733327DB01AE5BBF4FAE
:100590004D915C912417350741F040815181DB0179
:1005A000A40FB51F8C933183208308951F920F925F
:1005B0000FB60F9211240BB60F922F933F934F93C8
:1005C0005F936F937F938F939F93AF93BF93EF93BB
:1005D000FF938091C00082FD07C08091C6006BE14F
:1005E00075E00E94BC0202C08091C600FF91EF91AD
:1005F000BF91AF919F918F917F916F915F914F913B
:100600003F912F910F900BBE0F900FBE0F901F9038
:1006100018951F920F920FB60F9211240BB60F92DE
:100620002F933F934F935F936F937F938F939F93FA
:10063000AF93BF93EF93FF938091C80082FD07C0F3
:100640008091CE0063E974E00E94BC0202C08091F8
:10065000CE00FF91EF91BF91AF919F918F917F91CC
:100660006F915F914F913F912F910F900BBE0F9023
:100670000FBE0F901F9018951F920F920FB60F92FA
:1006800011240BB60F922F933F934F935F936F9369
:100690007F938F939F93AF93BF93EF93FF9380913B
:1006A000D00082FD07C08091D6006BE074E00E940C
:1006B000BC0202C08091D600FF91EF91BF91AF9133
:1006C0009F918F917F916F915F914F913F912F916A
:1006D0000F900BBE0F900FBE0F901F9018951F929A
:1006E0000F920FB60F9211240BB60F922F933F93D8
:1006F0004F935F936F937F938F939F93AF93BF932A
:10070000EF93FF938091300182FD07C08091360105
:1007100063E873E00E94BC0202C080913601FF9141
:10072000EF91BF91AF919F918F917F916F915F9169
:100730004F913F912F910F900BBE0F900FBE0F90D6
:100740001F9018951F920F920FB60F9211240BB69F
:100750000F922F933F938F939F93EF93FF9320914B
:100760001705309118058091190590911A052817E1
:10077000390731F48091C1008F7D8093C10014C08E
:10078000E0911905F0911A05E952FB4F2081809103
:10079000190590911A0501968F73992790931A0560
:1007A000809319052093C600FF91EF919F918F913F
:1007B0003F912F910F900BBE0F900FBE0F901F9087
:1007C00018951F920F920FB60F9211240BB60F922D
:1007D0002F933F938F939F93EF93FF9320918F04D9
:1007E00030919004809191049091920428173907D8
:1007F00031F48091C9008F7D8093C90014C0E091CD
:100800009104F0919204E15BFB4F2081809191046F
:100810009091920401968F739927909392048093FC
:1008200091042093CE00FF91EF919F918F913F9182
:100830002F910F900BBE0F900FBE0F901F90189529
:100840001F920F920FB60F9211240BB60F922F9397
:100850003F938F939F93EF93FF93209107043091E1
:1008600008048091090490910A042817390731F48B
:100870008091D1008F7D8093D10014C0E091090454
:10088000F0910A04E953FC4F208180910904909172
:100890000A0401968F73992790930A0480930904A0
:1008A0002093D600FF91EF919F918F913F912F91CF
:1008B0000F900BBE0F900FBE0F901F9018951F92B8
:1008C0000F920FB60F9211240BB60F922F933F93F6
:1008D0008F939F93EF93FF9320917F033091800339
:1008E00080918103909182032817390731F4809118
:1008F00031018F7D8093310114C0E0918103F0912B
:100900008203E15CFC4F20818091810390918203FE
:1009100001968F739927909382038093810320938C
:100920003601FF91EF919F918F913F912F910F9001
:100930000BBE0F900FBE0F901F901895CF92DF92B5
:10094000EF92FF920F931F93CF93DF93EC016A0115
:100950007B014115514E6105710509F1EC89FD8955
:1009600081E090E008A002C0880F991F0A94E2F786
:10097000808360E079E08DE390E0A70196010E941A
:10098000FB0589019A0101501109210931093695A8
:10099000279517950795980101151041A8F0EC8946
:1009A000FD89108260E874E88EE190E0A70196016D
:1009B0000E94FB05DA01C9010197A109B109B695A9
:1009C000A795979587959C01E889F9893083EA89ED
:1009D000FB89208319A2EE89FF89408181E090E0A4
:1009E0009C010C8C02C0220F331F0A94E2F7242BC7
:1009F0002083EE89FF8940819C010D8C02C0220F6B
:100A0000331F0A94E2F7242B2083EE89FF8940816B
:100A10009C010E8C02C0220F331F0A94E2F7242B94
:100A20002083EE89FF8920810F8C02C0880F991FD7
:100A30000A94E2F7809582238083DF91CF911F9102
:100A40000F91FF90EF90DF90CF900895CF92DF92BB
:100A5000EF92FF92EDE1F3E01382128288EEC82E4E
:100A600083E0D82EE12CF12CC482D582E682F78275
:100A700061EA72E0718360838BE195E095878487FA
:100A800087ED94E09787868785EC90E0918B808B4B
:100A900084EC90E0938B828B80EC90E0958B848B40
:100AA00081EC90E0978B868B82EC90E0918F808F29
:100AB00086EC90E0938F828F44E0448F33E0358F53
:100AC00027E0268F95E0978F81E080A3EBEFF2E09F
:100AD00013821282C482D582E682F7827183608398
:100AE000A3E9B4E0B587A487AFE4B4E0B787A687ED
:100AF000ADECB0E0B18BA08BACECB0E0B38BA28BD3
:100B0000A8ECB0E0B58BA48BA9ECB0E0B78BA68BBA
:100B1000AAECB0E0B18FA08FAEECB0E0B38FA28FA3
:100B2000448F358F268F978F80A3E9EDF2E01382F3
:100B30001282C482D582E682F78271836083ABE041
:100B4000B4E0B587A487A7ECB3E0B787A687A5ED87
:100B5000B0E0B18BA08BA4EDB0E0B38BA28BA0ED85
:100B6000B0E0B58BA48BA1EDB0E0B78BA68BA2ED66
:100B7000B0E0B18FA08FA6EDB0E0B38FA28F448F0D
:100B8000358F268F978F80A3E7EBF2E013821282D6
:100B9000C482D582E682F7827183608363E873E062
:100BA000758764876FE373E07787668765E371E035
:100BB000718B608B64E371E0738B628B60E371E037
:100BC000758B648B61E371E0778B668B62E371E018
:100BD000718F608F66E371E0738F628F448F358F02
:100BE000268F978F80A3FF90EF90DF90CF9008958E
:100BF000F8940C942506A1E21A2EAA1BBB1BFD013A
:100C00000DC0AA1FBB1FEE1FFF1FA217B307E407EB
:100C1000F50720F0A21BB30BE40BF50B661F771F43
:100C2000881F991F1A9469F7609570958095909523
:100C30009B01AC01BD01CF010895EE0FFF1F881F7E
:0E0C40008BBF0790F691E02D1994F894FFCF2A
:100C4E00506F736974696F6E696E673A200A00207F
:100C5E002030207C202031207C202032207C20332C
:100C6E0020207C2034002D2D2D2D2D2D2D2D2D2DA4
:100C7E002D2D2D2D2D2D2D2D2D2D2D2D2D002020DD
:100C8E0035207C202036207C202037207C203820E8
:100C9E00207C203900203130207C203131207C20F6
:100CAE003132207C203133207C203134002031350C
:100CBE00207C203136207C203137207C203138209A
:100CCE007C20313900203230207C203231207C20B3
:100CDE003232207C203233207C203234000000005F
:0E0CEE00007A02B90123024F0233026F0200A6
:00000001FF
