:100000000C9444010C9475010C9475010C947501C9
:100010000C9475010C9475010C9475010C94750188
:100020000C9475010C9475010C9475010C94750178
:100030000C9475010C9475010C9475010C94750168
:100040000C9475010C9475010C9475010C94750158
:100050000C9475010C9475010C9475010C947D0C35
:100060000C9475010C947B100C9447110C94750141
:100070000C9475010C9475010C9475010C94750128
:100080000C9475010C9475010C9475010C94750118
:100090000C94AE100C9486110C9475010C9475019F
:1000A0000C9475010C9475010C9475010C947501F8
:1000B0000C9475010C9475010C9475010C947501E8
:1000C0000C9475010C9475010C9475010C94E1105D
:1000D0000C94C5110C9475010C9414110C94041219
:1000E0000C947501BC0DBF0DB20DB60DF60DC30D10
:1000F000C70DCD0DD10DD50DDB0DDF0DE30DF60DCB
:10010000E90DED0DF10D0C94C70D0C94DB0D0C9465
:10011000D10D0C94B20D0C9477010C94D80F0C9463
:10012000E30D0C94C30D0C94C80F0C94F40F0C94B5
:10013000CD0D0C94F60D0C94CB120C94BC0D0C94BC
:10014000DF0D0C94F10D0C94D50D0C94E90D0C946D
:1001500014100C94B60D0C94BF0D0C94ED0D0C9472
:100160008C0E0C941F100000090A02080B0C0D07DE
:100170000603040100000000000000000000000071
:10018000000000000000000000000000000000006F
:10019000000011100F00000000000000000000002F
:1001A000000000000000000000000000010210201C
:1001B000200808102040102040800201020108049D
:1001C0000201010204081020408080402010080431
:1001D000020180040201804020100804020108048A
:1001E00002010102040810204080010204081020CE
:1001F00040800505050507050808080802020202F7
:100200000A0A0808040404040101010101010101B2
:100210000303030303030303040707070C0C0C0C7D
:100220000C0C0C0C02020202060606060606060666
:100230000B0B0B0B0B0B0B0B0000200023002600FD
:1002400029002C002F0032000001000003010601EC
:10025000090100002200250028002B002E0031009B
:10026000340002010000050108010B01000021001B
:10027000240027002A002D00300033000101000077
:10028000040107010A01CB1211241FBECFEFD1E2F6
:10029000DEBFCDBF00E00CBF19E0A0E0B2E0E4E1BA
:1002A000FFE200E00BBF02C007900D92A231B10740
:1002B000D9F72CE0A2E1B9E001C01D92A933B20741
:1002C000E1F711E0C4E4D1E000E006C021970109A4
:1002D000802FFE010E945E17C334D10780E008071B
:1002E000A9F70E94220B0C94DD160C940000FB0170
:1002F00040815181FC0120813181CA01821B930B15
:1003000008950E941E0D40E855E260E070E087EF1E
:1003100099E00E94431261E089E00E94F70D61E0DC
:100320008AE00E94F70D61E08BE00E94F70D61E02A
:100330008CE00E94F70D61E08DE00E94F70D60E017
:1003400087E00E94F70D61E087E00E94330E60E0D5
:1003500084E00E94F70D61E084E00E94330E60E0CB
:1003600085E00E94F70D61E085E00E94330E60E0B9
:1003700086E00E94F70D61E086E00E94330E80E087
:100380000E94800D0C949D13CF92DF92EF92FF920A
:100390000F931F93CF93DF930E94C70C6B017C01D7
:1003A000C0E0D0E003E010E00E94C70CDC01CB010C
:1003B0008C199D09AE09BF0980319742A105B1058D
:1003C00008F06CC00E944D16B8010E940917FC018C
:1003D000EE0FFF1FE550F74F61E080810E94330E62
:1003E00084E00E94630E892B29F489E00E94630E49
:1003F0000197D9F085E00E94630E892B29F48AE0E9
:100400000E94630E019721F186E00E94630E892B02
:1004100029F48BE00E94630E019769F164EF71E0AB
:1004200080E090E00E94F80CBFCF21966FE372E06D
:1004300087EF99E00E94C90E4AE050E0BE0187EFC5
:1004400099E00E94B10F60E089E00E94330ED2CFA4
:1004500021966FE372E087EF99E00E94C90E4AE0AF
:1004600050E0BE0187EF99E00E94B10F60E08AE0A2
:100470000E94330EC9CF21966FE372E087EF99E0B7
:100480000E94C90E4AE050E0BE0187EF99E00E9449
:10049000B10F60E08BE00E94330EC0CFCE01DF9140
:1004A000CF911F910F91FF90EF90DF90CF90089523
:1004B0006FE472E087EF99E00E94E60E61E672E079
:1004C00087EF99E00E94E60E6BE872E087EF99E013
:1004D0000E94C90E66EC72E087EF99E00E94E60E7A
:1004E00069ED72E087EF99E00E94E60E62E173E049
:1004F00087EF99E00E94C90E68E473E087EF99E006
:100500000E94E60E64E673E087EF99E00E94E60E33
:1005100066E873E087EF99E00E94C90E62EC73E031
:1005200087EF99E00E94E60E64EE73E087EF99E0B2
:100530000E94E60E61E08CE00E94330E87E00E948C
:10054000630E892BD9F760E08CE00E94330E61E0E6
:100550008DE00E94330E6AE074E087EF99E00E941C
:10056000E60E0E94C401909387098093860960E299
:1005700074E087EF99E00E94E60E60E08CE00E9454
:10058000330E60E08DE00E94330E60E089E00E944F
:10059000330E60E08AE00E94330E60E08BE00E9440
:1005A000330E809186099091870908950F931F93C8
:1005B000CF93DF930AE719E0C0E0D0E028E130E014
:1005C00040E050E060E070E0CB010E94C9139B0165
:1005D000EAE7F9E040E050E04C175D0741F0A191F7
:1005E000B1912A173B0731F04F5F5F4FF5CFF8010C
:1005F0007183608321960E5F1F4FC530D105F1F6E0
:1006000087EF99E0DF91CF911F910F910C94D20E5B
:100610000F931F93CF93DF9302E619E0C0E0D0E081
:1006200028E130E040E050E060E070E0CB010E9463
:10063000C9139B01E2E6F9E040E050E04C175D078A
:1006400041F0A191B1912A173B0729F04F5F5F4F0D
:10065000F5CF21E001C020E0211101C0FFCFF8015A
:10066000619371938F012196C530D105C9F687EF4B
:1006700099E0DF91CF911F910F910C94D20E0F93BF
:100680001F93CF93DF930CE619E0C0E0D0E028E1A0
:1006900030E040E050E060E070E0CB010E94C91320
:1006A0009B01ECE6F9E040E050E04C175D0741F0BB
:1006B000A191B1912A173B0731F04F5F5F4FF5CF02
:1006C000F8017183608321960E5F1F4FC730D105FB
:1006D000F1F687EF99E0DF91CF911F910F910C9484
:1006E000D20ECF93DF93CAE0D2E029E130E040E0C0
:1006F00050E060E070E0CB010E94C913660F771FE5
:10070000FB01E65FFD4F8081918128813981318332
:1007100020838993999382E0CC33D80731F7DF9116
:10072000CF9108950F931F93CF93DF934091620968
:10073000509163096091640970916509A0916609FF
:10074000B0916709C0916809D091690900916A095F
:1007500010916B09EEE2F9E080E090E03FE32FE4D6
:100760008417950761F08617970749F08A179B074A
:1007700031F08C179D0719F08017910711F4208331
:1007800001C03083019631968931910549F7DF9197
:10079000CF911F910F910895E7E4F9E08FE38193E2
:1007A00099E0E036F907D9F708950F931F93CF9397
:1007B000DF9363E374E087EF99E00E94C90E62E47F
:1007C00074E087EF99E00E94E60E6CE774E087EF33
:1007D00099E00E94C90E68E974E087EF99E00E94F1
:1007E000E60E6AED74E087EF99E00E94C90E67EFAC
:1007F00074E087EF99E00E94E60E69E275E087EF0A
:1008000099E00E94C90E65E475E087EF99E00E94C7
:10081000E60E6AED74E087EF99E00E94C90E65E785
:1008200075E087EF99E00E94E60E60EA75E087EFD9
:1008300099E00E94C90E6CEB75E087EF99E00E9489
:10084000E60E6AED74E087EF99E00E94E60E66EF2F
:1008500075E087EF99E00E94E60E6AED74E087EF9D
:1008600099E00E94E60E63E176E087EF99E00E944E
:10087000E60E60E474E087EF99E00E94E60E60E324
:1008800076E087EF99E00E94C90E6091600970914F
:1008900061094AE050E087EF99E00E94AA0F68E4FE
:1008A00076E087EF99E00E94C90E60913C0270915A
:1008B0003D024AE050E087EF99E00E94B10F6AE9FB
:1008C00076E087EF99E00E94C90E07E419E0F8018D
:1008D000608187EF99E00E94CB0E6AE976E087EFAE
:1008E00099E00E94C90EF801618187EF99E00E94AA
:1008F000CB0E6AE976E087EF99E00E94C90EF80115
:10090000628187EF99E00E94CB0E6AE976E087EF7B
:1009100099E00E94C90EF801638187EF99E00E9477
:10092000CB0E6AE976E087EF99E00E94C90EF801E4
:10093000648187EF99E00E94CB0E6CE276E087EF4E
:1009400099E00E94C90E61EA76E087EF99E00E9483
:10095000C90E6AE976E087EF99E00E94C90ECEE2FF
:10096000D9E0688187EF99E00E94CB0E6AE976E0D2
:1009700087EF99E00E94C90E698187EF99E00E9494
:10098000CB0E6AE976E087EF99E00E94C90E6A8192
:1009900087EF99E00E94CB0E6AE976E087EF99E055
:1009A0000E94C90E6B8187EF99E00E94CB0E6AE925
:1009B00076E087EF99E00E94C90E6C8187EF99E09D
:1009C0000E94CB0E6CE276E087EF99E00E94E60E83
:1009D0006BED74E087EF99E00E94C90E6FE976E055
:1009E00087EF99E00E94C90E6BED74E087EF99E004
:1009F0000E94E60E6AE976E087EF99E00E94C90E50
:100A0000F801658187EF99E00E94CB0E6AE976E0F4
:100A100087EF99E00E94C90EF801668187EF99E09F
:100A20000E94CB0E6AE976E087EF99E00E94C90E3A
:100A3000F801678187EF99E00E94CB0E6AE976E0C2
:100A400087EF99E00E94C90EF801608587EF99E071
:100A50000E94CB0E6AE976E087EF99E00E94C90E0A
:100A6000F801618587EF99E00E94CB0E6CE276E099
:100A700087EF99E00E94C90E61EA76E087EF99E07E
:100A80000E94C90E6AE976E087EF99E00E94C90EDC
:100A90006D8187EF99E00E94CB0E6AE976E087EFDF
:100AA00099E00E94C90E6E8187EF99E00E94CB0EFB
:100AB0006AE976E087EF99E00E94C90E6F8187EFBF
:100AC00099E00E94CB0E6AE976E087EF99E00E94F8
:100AD000C90E688587EF99E00E94CB0E6AE976E03F
:100AE00087EF99E00E94C90E698587EF99E00E941F
:100AF000CB0E6CE276E087EF99E00E94E60E6BED9C
:100B000074E087EF99E00E94C90E6FE976E087EF05
:100B100099E00E94C90E6BED74E087EF99E00E94A6
:100B2000E60E6AE976E087EF99E00E94C90EF801C7
:100B3000628587EF99E00E94CB0E6AE976E087EF45
:100B400099E00E94C90EF801638587EF99E00E9441
:100B5000CB0E6AE976E087EF99E00E94C90EF801B2
:100B6000648587EF99E00E94CB0E6AE976E087EF13
:100B700099E00E94C90EF801658587EF99E00E940F
:100B8000CB0E6AE976E087EF99E00E94C90EF80182
:100B9000668587EF99E00E94CB0E6CE276E087EFE6
:100BA00099E00E94C90E61EA76E087EF99E00E9421
:100BB000C90E6AE976E087EF99E00E94C90E6A855E
:100BC00087EF99E00E94CB0E6AE976E087EF99E023
:100BD0000E94C90E6B8587EF99E00E94CB0E6AE9EF
:100BE00076E087EF99E00E94C90E6C8587EF99E067
:100BF0000E94CB0E6AE976E087EF99E00E94C90E69
:100C00006D8587EF99E00E94CB0E6AE976E087EF69
:100C100099E00E94C90E6E8587EF99E00E94CB0E85
:100C20006CE276E087EF99E00E94E60E6BED74E0EF
:100C300087EF99E00E94C90E6FE976E087EF99E0AF
:100C40000E94C90E6BED74E087EF99E00E94E60EFA
:100C50006AE976E087EF99E00E94C90EF80167859E
:100C600087EF99E00E94CB0E6AE976E087EF99E082
:100C70000E94C90EF801608987EF99E00E94CB0EAF
:100C80006AE976E087EF99E00E94C90EF801618970
:100C900087EF99E00E94CB0E6AE976E087EF99E052
:100CA0000E94C90EF801628987EF99E00E94CB0E7D
:100CB0006AE976E087EF99E00E94C90EF80163893E
:100CC00087EF99E00E94CB0E6CE276E087EF99E027
:100CD0000E94C90E61EA76E087EF99E00E94C90E92
:100CE0006AE976E087EF99E00E94C90E6F8587EF89
:100CF00099E00E94CB0E6AE976E087EF99E00E94C6
:100D0000C90E688987EF99E00E94CB0E6AE976E008
:100D100087EF99E00E94C90E698987EF99E00E94E8
:100D2000CB0E6AE976E087EF99E00E94C90E6A89E6
:100D300087EF99E00E94CB0E6AE976E087EF99E0B1
:100D40000E94C90E6B8987EF99E00E94CB0E6CE27E
:100D500076E087EF99E00E94E60E6BED74E087EF96
:100D600099E00E94C90E6FE976E087EF99E00E9452
:100D7000C90E6BED74E087EF99E00E94E60E6AE918
:100D800076E087EF99E00E94C90EF801648987EF49
:100D900099E00E94CB0E6AE976E087EF99E00E9425
:100DA000C90EF801658987EF99E00E94CB0E6AE9C8
:100DB00076E087EF99E00E94C90EF801668987EF17
:100DC00099E00E94CB0E6AE976E087EF99E00E94F5
:100DD000C90EF801678987EF99E00E94CB0E6AE996
:100DE00076E087EF99E00E94C90EF801608D87EFE9
:100DF00099E00E94CB0E6CE276E087EF99E00E94CA
:100E0000C90E61EA76E087EF99E00E94C90E6AE9AF
:100E100076E087EF99E00E94C90E6C8987EF99E030
:100E20000E94CB0E6AE976E087EF99E00E94C90E36
:100E30006D8987EF99E00E94CB0E6AE976E087EF33
:100E400099E00E94C90E6E8987EF99E00E94CB0E4F
:100E50006AE976E087EF99E00E94C90E6F8987EF13
:100E600099E00E94CB0E6AE976E087EF99E00E9454
:100E7000C90E688D87EF99E00E94CB0E6CE276E098
:100E800087EF99E00E94E60E6BED74E087EF99E042
:100E90000E94C90E6FE976E087EF99E00E94C90EC3
:100EA0006BED74E087EF99E0DF91CF911F910F9187
:100EB0000C94E60E0F931F93CF93DF93EC01809178
:100EC0006C0990916D09C817D90709F06AC08E01A5
:100ED000095B164FF8018081883531F460ED76E0CA
:100EE00087EF99E00E94E60E0E9458026DED76E0D1
:100EF00087EF99E00E94C90E609186097091870979
:100F00004AE050E087EF99E00E94B10F8091860996
:100F1000909187090A970CF441C088E5F801808315
:100F20008091600990916109019790936109809384
:100F300060090E94D5036BED74E087EF99E00E9491
:100F4000E60E63EF76E087EF99E00E94C90E4AE073
:100F500050E0BE0187EF99E00E94B10F6BE077E0AF
:100F600087EF99E00E94E60E6BED74E087EF99E061
:100F70000E94E60E8091600990916109892B09F029
:100F8000B7C00E94D5036BE177E087EF99E00E943C
:100F9000E60E1092090210920802AAC06BE377E0F5
:100FA0009FC080916E0990916F09C817D90719F1F8
:100FB0008091700990917109C817D907E1F080916B
:100FC000720990917309C817D907A9F08091740923
:100FD00090917509C817D90771F0809176099091A1
:100FE0007709C817D90739F0809178099091790964
:100FF000C817D907F1F40E9458026AE577E087EF35
:1010000099E00E94C90E60918609709187094AE0B3
:1010100050E087EF99E00E94B10F8091860990918E
:1010200087090A970CF4BACFFE01E95BF64F88E511
:1010300076CF8DE2FE01E95BF64F80830E94D503F7
:101040006BED74E087EF99E00E94E60E63EF76E0C7
:1010500087EF99E00E94C90E4AE050E0BE0187EF99
:1010600099E00E94B10F60E777E087EF99E00E9476
:10107000E60E6BED74E087EF99E00E94E60EECE679
:10108000F9E0A6E1B9E0819191919E01281B390B0D
:10109000C90137FF03C09195819591098D939D9367
:1010A00039E0EA37F30779F727E731E042E050E02B
:1010B00067E070E086E199E00E94321468E877E02A
:1010C00087EF99E00E94C90E60912209709123096F
:1010D0004AE050E087EF99E00E94B10F6BED74E0B9
:1010E00087EF99E0DF91CF911F910F910C94E60E5D
:1010F000DF91CF911F910F9108950F931F93CF937D
:10110000DF93EC0180917A0990917B098E01095B54
:10111000164FC817D90709F07EC0109285091092A2
:101120008409F8018081883591F467E977E087EFD9
:1011300099E00E94E60E6EEB77E087EF99E00E945F
:10114000E60E81E090E09093850980938409809178
:10115000840990918509892B09F0DAC00E94580210
:101160006AE577E087EF99E00E94C90E60918609F1
:10117000709187094AE050E087EF99E00E94B10F33
:10118000809186099091870905970CF441C088E504
:10119000F801808380916009909161090197909393
:1011A0006109809360090E94D5036BED74E087EFBD
:1011B00099E00E94E60E63EF76E087EF99E00E94E7
:1011C000C90E4AE050E0BE0187EF99E00E94B10FDE
:1011D0006BE077E087EF99E00E94E60E6BED74E03C
:1011E00087EF99E00E94E60E809160099091610975
:1011F000892B09F08DC00E94D5036BE177E087EF62
:1012000099E00E94E60E109209021092080280C036
:101210006BE377E075C080917C0990917D09C817D8
:10122000D90709F47ACF80917E0990917F09C81778
:10123000D90709F472CF8091800990918109C8176C
:10124000D90709F46ACF8091820990918309C81760
:10125000D90709F462CF8DE2F80180830E94D5039B
:101260006BED74E087EF99E00E94E60E63EF76E0A5
:1012700087EF99E00E94C90E4AE050E0BE0187EF77
:1012800099E00E94B10F60E777E087EF99E00E9454
:10129000E60E6BED74E087EF99E00E94E60EEAE758
:1012A000F9E0A4E2B9E0819191919E01281B390BEC
:1012B000C90137FF03C09195819591098D939D9345
:1012C00039E0E438F30779F727E731E042E050E00E
:1012D00065E070E084E299E00E94321468E877E00B
:1012E00087EF99E00E94C90E60912C0970912D0939
:1012F0004AE050E087EF99E00E94B10F6BED74E097
:1013000087EF99E0DF91CF911F910F910C94E60E3A
:10131000DF91CF911F910F910895CF93DF9380912B
:10132000120990911309893191050CF098C0209110
:101330003C0230913D022115310529F41092090239
:10134000109208028DC0880F991FFC01E65FFD4FC7
:10135000C081D1818091620990916309FE01E25DB3
:10136000F64FC817D907D1F481E2808321503109A3
:1013700030933D0220933C020E94D50368EE77E053
:1013800087EF99E00E94C90E4AE050E0BE0187EF66
:1013900099E00E94B10F60E078E049C08091640953
:1013A00090916509C817D907A9F0809166099091B5
:1013B0006709C817D90771F0809168099091690988
:1013C000C817D90739F080916A0990916B09C8173D
:1013D000D907D1F481E280832150310930933D0255
:1013E00020933C020E94D50368EE77E087EF99E0F6
:1013F0000E94C90E4AE050E0BE0187EF99E00E94CA
:10140000B10F63E178E013C08DE280830E94D503C1
:1014100068EE77E087EF99E00E94C90E4AE050E05D
:10142000BE0187EF99E00E94B10F65E278E087EF97
:1014300099E00E94E60E6BED74E087EF99E00E9460
:10144000E60E809112099091130901969093130969
:1014500080931209209108023091090201C001C055
:10146000C901DF91CF910895AF92BF92CF92DF92E1
:10147000FF920F931F93CF93DF936C015C01C0E049
:10148000D0E08B0101501109C017D1077CF487EF20
:1014900099E00E94C80F18161906B4F787EF99E073
:1014A0000E94F40FF82E8DE0F8120DC0CC0DDD1D5A
:1014B0001882DF91CF911F910F91FF90DF90CF9015
:1014C000BF90AF9008956F2D87EF99E00E94F80EBE
:1014D000F501F1925F012196D7CFCF93DF93CDB77E
:1014E000DEB7A0970FB6F894DEBF0FBECDBF87EF73
:1014F00099E00E94D20E67E478E087EF99E00E94BD
:10150000E60E60E270E0CE0101960E94340ACE0140
:1015100001960E94B616A0960FB6F894DEBF0FBED5
:10152000CDBFDF91CF91089587EF99E00E94D20E51
:1015300063E878E087EF99E00E94E60E87EF99E094
:101540000E94C80F18161906CCF787EF99E00E9481
:10155000F40F8D3099F70895AF92BF92CF92DF923A
:10156000FF920F931F93CF93DF936C018B0161EA7E
:1015700078E087EF99E00E94C90E5601C0E0D0E004
:1015800001501109C017D1077CF487EF99E00E9440
:10159000C80F18161906B4F787EF99E00E94F40FE8
:1015A000F82E8DE0F8120DC0CC0DDD1D1882DF91F4
:1015B000CF911F910F91FF90DF90CF90BF90AF9090
:1015C00008956F2D87EF99E00E94CB0EF501F192FF
:1015D0005F012196D7CFCF93DF93CDB7DEB7A0972A
:1015E0000FB6F894DEBF0FBECDBF60E270E0CE0153
:1015F00001960E94AC0A87EF99E00E94D20E6CEC33
:1016000078E087EF99E00E94C90ECE0101960E9412
:10161000B6164AE050E087EF99E00E94AA0F6BE10E
:1016200074E087EF99E00E94E60ECE0101960E94D9
:10163000B616A0960FB6F894DEBF0FBECDBFDF91F1
:10164000CF910895CF93DF930E9481010E946D0A8C
:1016500061307105D1F585E090E090936109809348
:1016600060090E94CC030E94D6020E9408030E94D7
:1016700071030E9492030E94D5030E94940AC2E063
:10168000D0E08091080290910902019709F02CC1E5
:1016900020911409309115092F5F3F4F30931509A0
:1016A00020931409C901BE010E940917019731F462
:1016B0000E94EB0ACB010E947D08E3CF20FDE1CF21
:1016C0000E948D09892BE9F6ECC06230710509F0A2
:1016D0007EC087E090E090936109809360090E944A
:1016E000CC030E943F030E9408030E9471030E94E2
:1016F000920360916C0970916D094AE050E087EFA8
:1017000099E00E94B10F60916E0970916F094AE0F3
:1017100050E087EF99E00E94B10F609170097091DD
:1017200071094AE050E087EF99E00E94B10F6091A3
:101730007209709173094AE050E087EF99E00E94C6
:10174000B10F60917409709175094AE050E087EF1C
:1017500099E00E94B10F60917609709177094AE093
:1017600050E087EF99E00E94B10F60917809709185
:1017700079094AE050E087EF99E00E94B10F0E949A
:10178000D5030E94940AC2E0D0E0809108029091B3
:101790000902019709F0A8C08091140990911509D8
:1017A0000196909315098093140980FD06C00E944C
:1017B000EB0ACB010E945A07E8CFBE010E9409172D
:1017C000019719F70E948D09892BF9F66AC06330D9
:1017D000710509F089C087E090E0909361098093DA
:1017E00060090E94CC030E943F030E9408030E94EC
:1017F00071030E94920360916C0970916D094AE037
:1018000050E087EF99E00E94B10F60916E097091EE
:101810006F094AE050E087EF99E00E94B10F6091B4
:101820007009709171094AE050E087EF99E00E94D9
:10183000B10F60917209709173094AE050E087EF2F
:1018400099E00E94B10F60917409709175094AE0A6
:1018500050E087EF99E00E94B10F60917609709196
:1018600077094AE050E087EF99E00E94B10F60915C
:101870007809709179094AE050E087EF99E00E9479
:10188000B10F0E94D5030E94940AC2E0D0E020C0AC
:10189000BE010E9409170197D9F40E948D09892B76
:1018A000F1F467ED78E087EF99E00E94E60E1CC046
:1018B00080911409909115090196909315098093D0
:1018C000140980FDE5CF0E94EB0ACB010E945A0764
:1018D0008091080290910902019751F305C00E947E
:1018E0008D09892BA9F7DDCF87EF99E00E941410AD
:1018F00080E090E0DF91CF9108951F920F920FB694
:101900000F9211242F933F938F939F93AF93BF9385
:101910008091890990918A09A0918B09B0918C09D5
:101920003091880923E0230F2D3720F40196A11D63
:10193000B11D05C026E8230F0296A11DB11D2093FD
:1019400088098093890990938A09A0938B09B093A1
:101950008C0980918D0990918E09A0918F09B09189
:1019600090090196A11DB11D80938D0990938E0958
:10197000A0938F09B0939009BF91AF919F918F91E0
:101980003F912F910F900FBE0F901F9018952FB77A
:10199000F8946091890970918A0980918B099091DE
:1019A0008C092FBF08953FB7F89480918D099091CD
:1019B0008E09A0918F09B091900926B5A89B05C00A
:1019C0002F3F19F00196A11DB11D3FBFBA2FA92FBE
:1019D000982F8827820F911DA11DB11DBC01CD013B
:1019E00042E0660F771F881F991F4A95D1F7089527
:1019F000CF92DF92EF92FF92CF93DF936B017C0146
:101A00000E94D30CEB01C114D104E104F10479F07C
:101A10000E94D30C6C1B7D0B683E7340A0F381E0E9
:101A2000C81AD108E108F108C851DC4FECCFDF91AA
:101A3000CF91FF90EF90DF90CF900895789484B588
:101A4000826084BD84B5816084BD85B5826085BDBA
:101A500085B5816085BDEEE6F0E0808181608083A0
:101A6000E1E8F0E010828081826080838081816083
:101A70008083E0E8F0E0808181608083E1EBF0E04A
:101A8000808184608083E0EBF0E0808181608083EE
:101A9000E1E9F0E0808182608083808181608083E1
:101AA000E0E9F0E0808181608083E1EAF0E080811C
:101AB00082608083808181608083E0EAF0E08081C1
:101AC00081608083E1E2F1E08081826080838081B7
:101AD00081608083E0E2F1E0808181608083EAE7D9
:101AE000F0E0808184608083808182608083808157
:101AF000816080838081806880831092C100089516
:101B0000863308F0865390917B00282F2870977FAA
:101B1000922B90937B00877020913E0290E4299F46
:101B200090011124822B80937C0080917A00806444
:101B300080937A0080917A0086FDFCCF80917800B6
:101B40002091790090E0922B089590E0FC0131976C
:101B5000E131F10508F04AC08827EE58FF4F8F4F5A
:101B60000C945E17809180008F7703C08091800075
:101B70008F7D80938000089584B58F7702C084B5EF
:101B80008F7D84BD08958091B0008F7703C08091D0
:101B9000B0008F7D8093B0000895809190008F7782
:101BA00007C0809190008F7D03C080919000877F57
:101BB0008093900008958091A0008F7707C0809156
:101BC000A0008F7D03C08091A000877F8093A0003C
:101BD0000895809120018F7707C0809120018F7D2B
:101BE00003C080912001877F809320010895CF93C7
:101BF000DF9390E0FC01E455FE4F2491FC01EE5090
:101C0000FE4F8491882361F190E0880F991FFC01B9
:101C1000E459FD4FC591D491FC01EE5AFD4FA591B9
:101C2000B491611109C09FB7F894888120958223EF
:101C30008883EC912E230BC0623061F49FB7F89437
:101C40003881822F809583238883EC912E2B2C93CF
:101C50009FBF06C08FB7F894E8812E2B28838FBFD3
:101C6000DF91CF9108951F93CF93DF93282F30E01A
:101C7000F901EA59FE4F8491F901E455FE4FD491E0
:101C8000F901EE50FE4FC491CC23C9F0162F8111FB
:101C90000E94A50DEC2FF0E0EE0FFF1FEE5AFD4F56
:101CA000A591B4918FB7F894111105C09C91ED2FB7
:101CB000E095E92302C0EC91ED2BEC938FBFDF910F
:101CC000CF911F910895CF93DF93282F30E0F90132
:101CD000EA59FE4F8491F901E455FE4FD491F90180
:101CE000EE50FE4FC491CC2391F081110E94A50DBE
:101CF000EC2FF0E0EE0FFF1FE85CFD4FA591B491D3
:101D0000EC91ED2381E090E021F480E002C080E0DE
:101D100090E0DF91CF910895CF92DF92EF92FF9202
:101D20000F931F93CF93DF936C01EB017B01E40EC4
:101D3000F51E00E010E0CE15DF0561F06991D601D7
:101D4000ED91FC910190F081E02DC6011995080FED
:101D5000191FF1CFC801DF91CF911F910F91FF9013
:101D6000EF90DF90CF9008956115710579F0FB0138
:101D700001900020E9F73197AF01461B570BDC01BA
:101D8000ED91FC910280F381E02D199480E090E0C8
:101D900008950C94B40EDC01ED91FC910190F0815A
:101DA000E02D19940F931F93CF93DF93EC016DE017
:101DB0000E94CB0E8C016AE0CE010E94CB0E800FF8
:101DC000911FDF91CF911F910F9108950F931F9352
:101DD000CF93DF93EC010E94B40E8C01CE010E94E0
:101DE000D20E800F911FDF91CF911F910F91089517
:101DF0000F931F93CF93DF93EC010E94CB0E8C01C6
:101E0000CE010E94D20E800F911FDF91CF911F91C2
:101E10000F9108958F929F92AF92BF92CF92DF92CF
:101E2000EF92FF920F931F93CF93DF93CDB7DEB75F
:101E3000A1970FB6F894DEBF0FBECDBF6C01142F73
:101E4000E52FCB01022F19A2223008F40AE07E010F
:101E500021E2E20EF11C802E912CA12CB12C612FDD
:101E60007E2FA50194010E941D17029F10191124B5
:101E700081E0E81AF1081A3014F4105D01C0195C11
:101E8000F7011083122FE32FCA01232B242B252BBC
:101E900031F7B701C6010E94B40EA1960FB6F894AF
:101EA000DEBF0FBECDBFDF91CF911F910F91FF908D
:101EB000EF90DF90CF90BF90AF909F908F9008955C
:101EC000CF92DF92EF92FF920F931F93CF93DF9306
:101ED000EC016A017B012115310579F4E881F98172
:101EE0000190F081E02D642FDF91CF911F910F9130
:101EF000FF90EF90DF90CF9019942A303105E9F4EC
:101F000077FF1AC06DE20E94CB0E8C014427552743
:101F1000BA014C195D096E097F092AE0CE010E94C1
:101F20000A0F800F911FDF91CF911F910F91FF90AA
:101F3000EF90DF90CF9008952AE0B701A601CE017F
:101F4000DF91CF911F910F91FF90EF90DF90CF9095
:101F50000C940A0F9A01AB01770F660B770B0C9468
:101F6000600F0F931F93CF93DF93EC019A01AB01A6
:101F7000770F660B770B0E94600F8C01CE010E94D9
:101F8000D20E800F911FDF91CF911F910F91089575
:101F9000FC0124853585F901E05CFF4F808191814A
:101FA000329620813181821B930B8F73992708957C
:101FB000DC011C96ED91FC911D97DF01A05CBF4FE9
:101FC0002D913C91119712968D919C911197281704
:101FD000390739F08D919C91E80FF91F808190E0CD
:101FE00008958FEF9FEF0895FC01A485B585FD014D
:101FF000E05CFF4F208131813296808191812817EA
:10200000390779F080819181A80FB91F8C912081C7
:1020100031812F5F3F4F2F7333273183208390E02F
:1020200008958FEF9FEF0895FC0181A1882329F087
:10203000A489B5898C9186FFFBCF11A208950F93D7
:102040001F93CF93DF93FC01A685B7858D01005CBC
:102050001F4FE8018881998101968F739927AD01FF
:102060004E5B5F4FEA012881398182179307D1F3D4
:10207000E80128813981A20FB31F6C93A685B7852B
:10208000A05CBF4F11969C938E93A689B7892C9123
:1020900081E090E0078C02C0880F991F0A94E2F754
:1020A000822B8C9381E081A30488F589E02D8081C7
:1020B0008064808381E090E0DF91CF911F910F9148
:1020C0000895FB01E05CFF4F208131812F5F3F4F7E
:1020D0002F733327DB01AE5BBF4F4D915C9124170B
:1020E000350741F040815181DB01A40FB51F8C936E
:1020F0003183208308951F920F920FB60F921124FF
:102100000BB60F922F933F934F935F936F937F93F1
:102110008F939F93AF93BF93EF93FF938091C000F2
:1021200082FD07C08091C60065EF7BE00E946110D0
:1021300002C08091C600FF91EF91BF91AF919F9136
:102140008F917F916F915F914F913F912F910F9060
:102150000BBE0F900FBE0F901F9018951F920F92FD
:102160000FB60F9211240BB60F922F933F934F93FC
:102170005F936F937F938F939F93AF93BF93EF93EF
:10218000FF938091C80082FD07C08091CE006DE66C
:102190007BE00E94611002C08091CE00FF91EF9120
:1021A000BF91AF919F918F917F916F915F914F916F
:1021B0003F912F910F900BBE0F900FBE0F901F906D
:1021C00018951F920F920FB60F9211240BB60F9213
:1021D0002F933F934F935F936F937F938F939F932F
:1021E000AF93BF93EF93FF938091D00082FD07C020
:1021F0008091D60065EE7AE00E94611002C0809165
:10220000D600FF91EF91BF91AF919F918F917F91F8
:102210006F915F914F913F912F910F900BBE0F9057
:102220000FBE0F901F9018951F920F920FB60F922E
:1022300011240BB60F922F933F934F935F936F939D
:102240007F938F939F93AF93BF93EF93FF9380916F
:10225000300182FD07C0809136016DE57AE00E9471
:10226000611002C080913601FF91EF91BF91AF9153
:102270009F918F917F916F915F914F913F912F919E
:102280000F900BBE0F900FBE0F901F9018951F92CE
:102290000F920FB60F9211240BB60F922F933F930C
:1022A0008F939F93EF93FF932091F10B3091F20B5B
:1022B0008091F30B9091F40B2817390731F480913A
:1022C000C1008F7D8093C10014C0E091F30BF091A9
:1022D000F40BEF54F44F20818091F30B9091F40BA9
:1022E00001968F7399279093F40B8093F30B2093AF
:1022F000C600FF91EF919F918F913F912F910F9089
:102300000BBE0F900FBE0F901F9018951F920F924B
:102310000FB60F9211240BB60F922F933F938F930A
:102320009F93EF93FF932091690B30916A0B8091FB
:102330006B0B90916C0B2817390731F48091C90011
:102340008F7D8093C90014C0E0916B0BF0916C0BF2
:10235000E75DF44F208180916B0B90916C0B01969F
:102360008F73992790936C0B80936B0B2093CE0007
:10237000FF91EF919F918F913F912F910F900BBE05
:102380000F900FBE0F901F9018951F920F920FB6CF
:102390000F9211240BB60F922F933F938F939F931D
:1023A000EF93FF932091E10A3091E20A8091E30AD2
:1023B0009091E40A2817390731F48091D1008F7D7C
:1023C0008093D10014C0E091E30AF091E40AEF5544
:1023D000F54F20818091E30A9091E40A01968F7372
:1023E00099279093E40A8093E30A2093D600FF9103
:1023F000EF919F918F913F912F910F900BBE0F9076
:102400000FBE0F901F9018951F920F920FB60F924C
:1024100011240BB60F922F933F938F939F93EF93BB
:10242000FF932091590A30915A0A80915B0A90914A
:102430005C0A2817390731F4809131018F7D809330
:10244000310114C0E0915B0AF0915C0AE75EF54F40
:10245000208180915B0A90915C0A01968F73992785
:1024600090935C0A80935B0A20933601FF91EF9171
:102470009F918F913F912F910F900BBE0F900FBEA8
:102480000F901F901895CF92DF92EF92FF920F93CB
:102490001F93CF93DF93EC016A017B014115514EED
:1024A0006105710509F1EC89FD8981E090E008A0E2
:1024B00002C0880F991F0A94E2F7808360E079E0F8
:1024C0008DE390E0A70196010E941D1789019A01F2
:1024D000015011092109310936952795179507955E
:1024E000980101151041A8F0EC89FD89108260E87F
:1024F00074E88EE190E0A70196010E941D17DA01B1
:10250000C9010197A109B109B695A7959795879536
:102510009C01E889F9893083EA89FB89208319A223
:10252000EE89FF89408181E090E09C010C8C02C023
:10253000220F331F0A94E2F7242B2083EE89FF89B0
:1025400040819C010D8C02C0220F331F0A94E2F7D8
:10255000242B2083EE89FF8940819C010E8C02C0D0
:10256000220F331F0A94E2F7242B2083EE89FF8980
:1025700020810F8C02C0880F991F0A94E2F7809582
:1025800082238083DF91CF911F910F91FF90EF9075
:10259000DF90CF900895CF92DF92EF92FF92E7EF16
:1025A000F9E01382128288EEC82E83E0D82EE12C47
:1025B000F12CC482D582E682F78265E079E07183EE
:1025C000608385EF9BE09587848781EB9BE097870D
:1025D000868785EC90E0918B808B84EC90E0938BE8
:1025E000828B80EC90E0958B848B81EC90E0978BD4
:1025F000868B82EC90E0918F808F86EC90E0938FB9
:10260000828F44E0448F33E0358F27E0268F95E0BA
:10261000978F81E080A3E5EDF9E013821282C482F6
:10262000D582E682F78271836083ADE6BBE0B58731
:10263000A487A9E2BBE0B787A687ADECB0E0B18B79
:10264000A08BACECB0E0B38BA28BA8ECB0E0B58B68
:10265000A48BA9ECB0E0B78BA68BAAECB0E0B18F4D
:10266000A08FAEECB0E0B38FA28F448F358F268F52
:10267000978F80A3E3EBF9E013821282C482D582A4
:10268000E682F78271836083A5EEBAE0B587A487FE
:10269000A1EABAE0B787A687A5EDB0E0B18BA08B21
:1026A000A4EDB0E0B38BA28BA0EDB0E0B58BA48B12
:1026B000A1EDB0E0B78BA68BA2EDB0E0B18FA08FFB
:1026C000A6EDB0E0B38FA28F448F358F268F978F02
:1026D00080A3E1E9F9E013821282C482D582E68206
:1026E000F782718360836DE57AE07587648769E1BD
:1026F0007AE07787668765E371E0718B608B64E3CE
:1027000071E0738B628B60E371E0758B648B61E3C6
:1027100071E0778B668B62E371E0718F608F66E3A7
:1027200071E0738F628F448F358F268F978F80A3D0
:10273000FF90EF90DF90CF900895009729F0BC01B3
:1027400080E090E00C94AD160895CF93DF9300D015
:102750001F92CDB7DEB7611571058105910579F03E
:102760009B01AC0169833A834B835C830E94A91669
:1027700029813A814B815C810E943F1703C060E050
:1027800070E0CB010F900F900F900F90DF91CF91E1
:102790000895CF92DF92EF92FF920F931F936217EB
:1027A00073078407950784F489019A016B017C0102
:1027B000C901B8016C197D098E099F090E94A513F2
:1027C0006C0D7D1D8E1D9F1D1F910F91FF90EF9031
:1027D000DF90CF900895DC01FB018C9190819D9357
:1027E00081934150510914161506BCF30895CF92F8
:1027F000DF92EF92FF920F931F93CF93DF93D82F27
:10280000C92F6B018A017901F9011995B80197FF68
:102810000FC0C601F701199597FF02C0C60119C084
:10282000B8018D2F9C2FF701199597FD0EC00FC091
:10283000C601F70119951816190684F3B8018D2FF2
:102840009C2FF701199597FD02C0C80102C08D2F7A
:102850009C2FDF91CF911F910F91FF90EF90DF9010
:10286000CF9008952F923F924F925F926F927F92F6
:102870008F929F92AF92BF92CF92DF92EF92FF9290
:102880000F931F93CF93DF93CDB7DEB72A970FB681
:10289000F894DEBF0FBECDBF8C017B015A874987FC
:1028A00069015195419551095E834D8329853A858A
:1028B000200F311F3A83298337E0E316F10478F5BE
:1028C00089809A8049855A85E49EC001E59E900DD5
:1028D000F49E900D11247801E80EF91E8E149F04C9
:1028E00008F077C1340106151705A0F45301698576
:1028F0007A85A61AB70AB301C501F601199518160B
:10290000190644F449855A85B501C3010E94EB13A9
:102910003501E9CF29853A85820E931EDFCFC701A5
:102920009695879549855A85849F5001859FB00C5F
:10293000949FB00C1124A00EB11EB7016150710913
:102940007C836B8377E0E716F10409F44CC08B813C
:102950009C81849F3001859F700C949F700C112482
:10296000600E711E99E2E916F104A8F1C70123E097
:10297000969587952A95E1F7849F4001859F900C55
:10298000949F900C11241401220C331CA801420DB9
:10299000531DB801680D791D9601C8010E94F713F7
:1029A0002C01A501480D591D91948194910896011F
:1029B000B501C501880D991D0E94F7135C01B30193
:1029C000680D791D9601A301C301821993090E9424
:1029D000F7133C0101C028019601A301B501C20112
:1029E0000E94F7135C0149855A85B501C8010E9410
:1029F000EB1389809A804B815C8169857A85469F3B
:102A00009001479F300D569F300D11243A83298342
:102A10003901600E711E23015401140120E030E0E1
:102A20006A147B0408F43FC0B801C5012F833887BE
:102A3000F60119952F81388518161906A4F1892BEE
:102A400061F449855A85B501C1010E94EB1389855E
:102A50009A85280E391E21E030E0E985FA85AE0E10
:102A6000BF1EDECFB801C3012F833887F601199549
:102A7000A30169857A85461B570B5C834B832F81A5
:102A8000388597FD14C0892B61F449855A85B201B8
:102A9000C3010E94EB1329853A85421A530A21E0AB
:102AA00030E06B807C806A147B04E0F60FC04985BF
:102AB0005A85B301C5010E94EB1349855A85A40EBE
:102AC000B51E6B807C8021E030E0AACF232B69F516
:102AD000E985FA85EE9EC001EF9E900DFE9E900D59
:102AE00011247801E80EF91E8E149F0408F071C0BD
:102AF000340106151705A0F4530129853A85A21A59
:102B0000B30AB301C501F60119951816190644F464
:102B100049855A85B501C3010E94EB133501E9CF00
:102B200029853A85820E931EDFCF89819A814D8156
:102B30005E81841B950BB801680F791F7A836983C6
:102B40007501E218F308A101401B510BE416F506CC
:102B50000CF4A7011416150634F4B501641B750BAB
:102B6000C8010E94EB1342018618970849815A81D7
:102B70004419550989859A85481B590B8416950671
:102B800008F4A401141615063CF469817A81641BCB
:102B9000750BC5010E94EB13E985FA85EE15FF055B
:102BA00048F4C701BF010E94F5169601AF01C801A4
:102BB0000E94321429853A852815390550F4098177
:102BC0001A8108191909C401B9010E94F5167B017F
:102BD0006DCE2A960FB6F894DEBF0FBECDBFDF9143
:102BE000CF911F910F91FF90EF90DF90CF90BF900A
:102BF000AF909F908F907F906F905F904F903F909D
:102C00002F9008958F929F92AF92BF92CF92DF92B2
:102C1000EF92FF92CF93DF93EC01688179818A81F3
:102C20009B81611571058105910521F464E279EDBF
:102C30008BE597E02DE133EF41E050E00E943F1734
:102C400049015A019B01AC01A7EAB1E40E94661751
:102C50006B017C01ACEEB4EFA50194010E947417E6
:102C6000DC01CB018C0D9D1DAE1DBF1DB7FF03C048
:102C70000197A109B04888839983AA83BB839F7772
:102C8000DF91CF91FF90EF90DF90CF90BF90AF900A
:102C90009F908F9008950C94021680E092E00C941F
:102CA0000216A0E0B0E08093000290930102A0938E
:102CB0000202B093030208958F929F92AF92BF9247
:102CC000CF92DF92EF92FF92CF93DF93EC01688176
:102CD00079818A819B81611571058105910521F4B6
:102CE00064E279ED8BE597E02DE133EF41E050E0D0
:102CF0000E943F1749015A019B01AC01A7EAB1E4C8
:102D00000E9466176B017C01ACEEB4EFA501940143
:102D10000E947417DC01CB018C0D9D1DAE1DBF1DE3
:102D2000B7FF03C00197A109B04888839983AA839C
:102D3000BB83BC01CD019F77DF91CF91FF90EF90D6
:102D4000DF90CF90BF90AF909F908F9008950C949C
:102D50005C1684E092E00C945C166093040270931D
:102D60000502809306029093070208951F93FC01C9
:102D700099278827BC01E89411911032E9F31930A2
:102D800010F01E30C8F31B3251F01D3249F4689424
:102D900006C00E94E016610F711D811D911D1191E9
:102DA00010531A30B0F33EF490958095709561956C
:102DB0007F4F8F4F9F4F1F910895F8940C94881761
:102DC000592F482F372F262F660F771F881F991FDF
:102DD000660F771F881F991F620F731F841F951F2F
:102DE000660F771F881F991F0895AA1BBB1B51E10F
:102DF00007C0AA1FBB1FA617B70710F0A61BB70B6B
:102E0000881F991F5A95A9F780959095BC01CD010F
:102E1000089597FB072E16F4009407D077FD09D08C
:102E20000E94F51607FC05D03EF4909581959F4FC2
:102E30000895709561957F4F0895A1E21A2EAA1BFF
:102E4000BB1BFD010DC0AA1FBB1FEE1FFF1FA2175A
:102E5000B307E407F50720F0A21BB30BE40BF50B57
:102E6000661F771F881F991F1A9469F760957095E0
:102E7000809590959B01AC01BD01CF010895052E71
:102E800097FB1EF400940E94561757FD07D00E942E
:102E90001D1707FC03D04EF40C945617509540951F
:102EA000309521953F4F4F4F5F4F089590958095F6
:102EB000709561957F4F8F4F9F4F0895EE0FFF1FC5
:102EC000881F8BBF0790F691E02D19940E94791707
:102ED000A59F900DB49F900DA49F800D911D11246E
:102EE0000895B7FF0C9466170E946617821B930B18
:102EF0000895A29FB001B39FC001A39F700D811DD3
:102F00001124911DB29F700D811D1124911D0895F2
:042F1000F894FFCF63
:102F140001000000010000000100000001000200A7
:102F240003000400050006000700080009000A0069
:102F34000B000C000D000E000F0010001100120019
:102F4400130014001500160017001800050001599D
:102F54006F75722073636F72652069733A2000592C
:102F64006F7520666F756E642061207368697021C7
:102F74000054686973206D696E6967616D65206FBF
:102F84006E6C7920757365732074686520332072C4
:102F940069676874204C4544732E005072657373DE
:102FA40020616E6420686F6C642061206C697420F9
:102FB4004C4544277320627574746F6E207768657E
:102FC4006E2074686579207475726E206F6E20753A
:102FD4006E74696C2000746865204C4544207475D7
:102FE400726E73206F66662E004561636820737588
:102FF400636365737366756C20627574746F6E2099
:10300400707265737320696E637265617365732092
:10301400796F75722073636F726520627920312E27
:103024002000466F72206120737563636573736655
:10303400756C2073686970206869742067657420F2
:1030440061626F766520352073636F7265206F6EE1
:1030540020456173792C200061626F7665203130E0
:10306400206F6E204D656469756D206F7220486114
:1030740072642E00596F75722073636F72652077C6
:10308400696C6C20757064617465206F6E20736365
:103094007265656E2E005072657373206C6566747C
:1030A4006D6F7374206669726520627574746F6ED7
:1030B400207768656E207265616479202D207468BC
:1030C40065206C6566746D6F737420677265656ED8
:1030D40020004C45442077696C6C2073746179201E
:1030E4006F6E20647572696E67207468652067610D
:1030F4006D652E005468652067616D65206C617391
:103104007473203130207365636F6E64732E2047AF
:103114006F6F64206C75636B210053746172746902
:103124006E67206D696E6967616D65202E2E2E00B5
:103134004D696E6967616D652066696E697368655E
:10314400642100506F736974696F6E696E673A2009
:103154000A002020202020202020202020202020A1
:10316400202020202020202020202020202020205B
:10317400202020202020202020202020202020204B
:1031840020202020204C6567656E6400207C202070
:1031940030207C202031207C202032207C202033D1
:1031A400207C202034207C0009090909093F3A20A9
:1031B4006F6E20796F7572206669656C642069731F
:1031C40020656D7074792073706F742C206F6E207D
:1031D4006F70706F6E656E747320697320756E699D
:1031E40064656E74696669656400202D2D2D2D2D2E
:1031F4002D2D2D2D2D2D2D2D2D2D2D2D2D2D2D2DFB
:103204002D2D2D2D2D2D0009090909094F3A206F67
:103214006E20796F7572206669656C64206974200C
:10322400697320706F736974696F6E206F6620799B
:103234006F7572207368697000207C202035207CB3
:10324400202036207C202037207C202038207C2021
:103254002039207C000909090909213A206F6E20D0
:10326400796F7572206669656C64206D65616E7333
:1032740020796F75722064657374726F7965642048
:10328400736869700009090909092D3A206F6E20D5
:10329400626F7468206669656C6473206D65616E25
:1032A400732061747461636B206D6973736564006A
:1032B400207C203130207C203131207C2031322090
:1032C4007C203133207C203134207C000909090919
:1032D40009583A206F6E206F70706F6E656E74734C
:1032E400206669656C64206D65616E73206F707013
:1032F4006F6E656E74732064657374726F79656440
:10330400207368697000207C203135207C203136A0
:10331400207C203137207C203138207C203139201A
:103324007C2000207C203230207C203231207C2004
:103334003232207C203233207C203234207C200026
:10334400596F7572206F70706F6E656E742773207D
:103354006669656C643A2000207368697073206C38
:103364006566742120202020202020202020202079
:103374002020202020202020202020202020202049
:103384002020202020202020202020596F7572200A
:1033940063757272656E742072656D61696E696EB3
:1033A400672073686970733A2000207C2020002015
:1033B4002020202020202020202020202020202009
:1033C40020202020202020202020202020202020F9
:1033D4002020202020202020202020202020200009
:1033E400616C7265616479206869747400596F75E1
:1033F400722066696E616C2073636F7265206973F5
:103404003A2000596F752061747461636B656420A0
:10341400706F736974696F6E202000596F7520682E
:103424006974206120736869702100596F75206880
:10343400697420616C6C20746865207368697073AA
:1034440020796F752077696E2021005468652061AA
:10345400747461636B20776173206E6F742073756D
:10346400636365737366756C210056616C756520C2
:103474006F6620636F756E7465722069733A2000FD
:10348400596F7520646964206E6F742068697420B4
:103494006120736869702100596F75206D697373B9
:1034A40065642062792000596F7527766520616C08
:1034B40072656164792061747461636B65642074FE
:1034C40068697320706F736974696F6E2100596F36
:1034D40075206C6F736520796F7572207475726EC8
:1034E40020666F72206E6F74206B656570696E67FD
:1034F40020747261636B2100596F7572206F707054
:103504006F6E656E742061747461636B6564200012
:10351400596F7572207368697020776173206869C8
:10352400742100596F757220736869702077617314
:103534002068697400596F7572206F70706F6E65C2
:103544006E7420646964206E6F74206869742061ED
:10355400207368697021005069636B20796F7572FC
:1035640020646966666963756C74793A20312066F3
:103574006F7220456173792C203220666F72204D62
:10358400656469756D2C203320666F722048617202
:10359400642E0050726573732074686520456E74E0
:1035A4006572206B657920746F2073746172743A4C
:1035B40000456E7465722074686520636F6F726471
:1035C400696E6174657320796F75207769736820FB
:1035D400746F2061747461636B3A20004174746188
:1035E400636B696E672000596F75206C6F7374206C
:1035F400616C6C20796F7572207368697073212017
:10360400596F75206C6F736521200009000A000B47
:1036140000000000001F108C0EC80FF40FD80F1408
:02362400100094
:00000001FF
