:100000000C9481000C94B2000C94B2000C94B200D9
:100010000C94B2000C94B2000C94B2000C94B20098
:100020000C94B2000C94B2000C94B2000C94B20088
:100030000C94B2000C94B2000C94B2000C94B20078
:100040000C94B2000C94B2000C94B2000C94B20068
:100050000C94B2000C94B2000C94B2000C94820187
:100060000C94B2000C943B040C9407050C94B20061
:100070000C94B2000C94B2000C94B2000C94B20038
:100080000C94B2000C94B2000C94B2000C94B20028
:100090000C946E040C9446050C94B2000C94B200BF
:1000A0000C94B2000C94B2000C94B2000C94B20008
:1000B0000C94B2000C94B2000C94B2000C94B200F8
:1000C0000C94B2000C94B2000C94B2000C94A104F5
:1000D0000C9485050C94B2000C94D4040C94C405C3
:1000E0000C94B2000C94D4030C94DF030C94B4036E
:1000F0000C9453020C9498030C948B060C94880374
:100100008B0611241FBECFEFD1E2DEBFCDBF00E0D2
:100110000CBF12E0A0E0B2E0EAEEF0E100E00BBFBD
:1001200002C007900D92AA3EB107D9F725E0AAEECA
:10013000B2E001C01D92A53AB207E1F710E0C1E8B4
:10014000D0E000E006C021970109802FFE010E9447
:100150004908C038D10780E00807A9F70E94730159
:100160000C9405080C9400000E94CC0140E855E274
:1001700060E070E083E693E00E94030640E855E209
:1001800060E070E08DEF92E00E94030680E00E9444
:100190002E020C945D0765E072E083E693E00E9416
:1001A000AD0264E172E083E693E00E94AD026BE28F
:1001B00072E083E693E00E94AD0263E472E083E6BE
:1001C00093E00E94AD026BE272E083E693E00E944E
:1001D000AD026AE572E083E693E00E94AD026BE255
:1001E00072E083E693E00E94AD0262E772E083E68C
:1001F00093E00E94AD026BE272E083E693E00E941E
:10020000AD026AE872E083E693E00C94AD02EF92EF
:10021000FF920F931F93CF93DF93CAEED2E07E013C
:1002200000E010E028E130E040E050E060E070E005
:10023000CB010E948907EAEEF2E080E090E08017AF
:10024000910739F0219131916217730759F30196A3
:10025000F6CFF701619371937F018C010F5F1F4F00
:1002600005301105F9F628E130E040E050E060E0AB
:1002700070E0CB010E9489077093F5026093F4024D
:10028000699179914AE050E083E693E00E9471031E
:1002900082E0C43FD807A1F7DF91CF911F910F9162
:1002A000FF90EF900895CF9362EA72E083E693E0C7
:1002B0000E94AD0283E693E00E948803892B89F0B7
:1002C00083E693E00E94B403C82F69EB72E083E6F3
:1002D00093E00E9490026C2F83E693E0CF910C9400
:1002E000BF02CF9108950E94B4000E9407010E94AE
:1002F000CB000E94530183E693E00E94D40380E088
:1003000090E008951F920F920FB60F9211242F9331
:100310003F938F939F93AF93BF938091F5029091FA
:10032000F602A091F702B091F8023091F40223E0B6
:10033000230F2D3720F40196A11DB11D05C026E81D
:10034000230F0296A11DB11D2093F4028093F502A4
:100350009093F602A093F702B093F8028091F9020D
:100360009091FA02A091FB02B091FC020196A11DAE
:10037000B11D8093F9029093FA02A093FB02B0930F
:10038000FC02BF91AF919F918F913F912F910F9060
:100390000FBE0F901F901895789484B5826084BD2D
:1003A00084B5816084BD85B5826085BD85B5816079
:1003B00085BDEEE6F0E0808181608083E1E8F0E0D9
:1003C0001082808182608083808181608083E0E808
:1003D000F0E0808181608083E1EBF0E080818460E7
:1003E0008083E0EBF0E0808181608083E1E9F0E0F0
:1003F000808182608083808181608083E0E9F0E099
:10040000808181608083E1EAF0E080818260808386
:10041000808181608083E0EAF0E080818160808378
:10042000E1E2F1E08081826080838081816080836D
:10043000E0E2F1E0808181608083EAE7F0E08081A2
:1004400084608083808182608083808181608083FA
:100450008081806880831092C1000895863308F0FF
:10046000865390917B00282F2870977F922B909332
:100470007B0087702091040290E4299F9001112451
:10048000822B80937C0080917A00806480937A0034
:1004900080917A0086FDFCCF8091780020917900D0
:1004A00090E0922B0895CF92DF92EF92FF920F93FC
:1004B0001F93CF93DF936C01EB017B01E40EF51EDC
:1004C00000E010E0CE15DF0561F06991D601ED91F5
:1004D000FC910190F081E02DC6011995080F191FBC
:1004E000F1CFC801DF91CF911F910F91FF90EF9055
:1004F000DF90CF9008956115710579F0FB010190AF
:100500000020E9F73197AF01461B570BDC01ED9155
:10051000FC910280F381E02D199480E090E0089531
:100520000C947B02DC01ED91FC910190F081E02DB7
:1005300019940F931F93CF93DF93EC016DE00E940A
:1005400092028C016AE0CE010E949202800F911FFC
:10055000DF91CF911F910F9108950F931F93CF9328
:10056000DF93EC010E947B028C01CE010E94990274
:10057000800F911FDF91CF911F910F9108950F93DD
:100580001F93CF93DF93EC010E9492028C01CE0166
:100590000E949902800F911FDF91CF911F910F91BF
:1005A00008958F929F92AF92BF92CF92DF92EF9277
:1005B000FF920F931F93CF93DF93CDB7DEB7A19731
:1005C0000FB6F894DEBF0FBECDBF6C01142FE52F20
:1005D000CB01022F19A2223008F40AE07E0121E2A9
:1005E000E20EF11C802E912CA12CB12C612F7E2FBC
:1005F000A50194010E940808029F1019112481E0AE
:10060000E81AF1081A3014F4105D01C0195CF70102
:100610001083122FE32FCA01232B242B252B31F714
:10062000B701C6010E947B02A1960FB6F894DEBF07
:100630000FBECDBFDF91CF911F910F91FF90EF9033
:10064000DF90CF90BF90AF909F908F900895CF9202
:10065000DF92EF92FF920F931F93CF93DF93EC0102
:100660006A017B012115310579F4E881F981019056
:10067000F081E02D642FDF91CF911F910F91FF90BA
:10068000EF90DF90CF9019942A303105E9F477FF8D
:100690001AC06DE20E9492028C0144275527BA01CC
:1006A0004C195D096E097F092AE0CE010E94D10232
:1006B000800F911FDF91CF911F910F91FF90EF90CD
:1006C000DF90CF9008952AE0B701A601CE01DF9117
:1006D000CF911F910F91FF90EF90DF90CF900C94EE
:1006E000D1020F931F93CF93DF93EC019A01AB01DB
:1006F000770F660B770B0E9427038C01CE010E94B7
:100700009902800F911FDF91CF911F910F91089552
:10071000FC0124853585F901E05CFF4F80819181E2
:10072000329620813181821B930B8F739927089514
:10073000DC011C96ED91FC911D97DF01A05CBF4F81
:100740002D913C91119712968D919C91119728179C
:10075000390739F08D919C91E80FF91F808190E065
:1007600008958FEF9FEF0895FC01A485B585FD01E5
:10077000E05CFF4F20813181329680819181281782
:10078000390779F080819181A80FB91F8C91208160
:1007900031812F5F3F4F2F7333273183208390E0C8
:1007A00008958FEF9FEF0895FC0181A1882329F020
:1007B000A489B5898C9186FFFBCF11A208950F9370
:1007C0001F93CF93DF93FC01A685B7858D01005C55
:1007D0001F4FE8018881998101968F739927AD0198
:1007E0004E5B5F4FEA012881398182179307D1F36D
:1007F000E80128813981A20FB31F6C93A685B785C4
:10080000A05CBF4F11969C938E93A689B7892C91BB
:1008100081E090E0078C02C0880F991F0A94E2F7EC
:10082000822B8C9381E081A30488F589E02D80815F
:100830008064808381E090E0DF91CF911F910F91E0
:100840000895FB01E05CFF4F208131812F5F3F4F16
:100850002F733327DB01AE5BBF4F4D915C912417A3
:10086000350741F040815181DB01A40FB51F8C9306
:100870003183208308951F920F920FB60F92112497
:100880000BB60F922F933F934F935F936F937F938A
:100890008F939F93AF93BF93EF93FF938091C0008B
:1008A00082FD07C08091C60061E675E00E942104C8
:1008B00002C08091C600FF91EF91BF91AF919F91CF
:1008C0008F917F916F915F914F913F912F910F90F9
:1008D0000BBE0F900FBE0F901F9018951F920F9296
:1008E0000FB60F9211240BB60F922F933F934F9395
:1008F0005F936F937F938F939F93AF93BF93EF9388
:10090000FF938091C80082FD07C08091CE0069ED01
:1009100074E00E94210402C08091CE00FF91EF910B
:10092000BF91AF919F918F917F916F915F914F9107
:100930003F912F910F900BBE0F900FBE0F901F9005
:1009400018951F920F920FB60F9211240BB60F92AB
:100950002F933F934F935F936F937F938F939F93C7
:10096000AF93BF93EF93FF938091D00082FD07C0B8
:100970008091D60061E574E00E94210402C080915C
:10098000D600FF91EF91BF91AF919F918F917F9191
:100990006F915F914F913F912F910F900BBE0F90F0
:1009A0000FBE0F901F9018951F920F920FB60F92C7
:1009B00011240BB60F922F933F934F935F936F9336
:1009C0007F938F939F93AF93BF93EF93FF93809108
:1009D000300182FD07C08091360169EC73E00E940E
:1009E000210402C080913601FF91EF91BF91AF9138
:1009F0009F918F917F916F915F914F913F912F9137
:100A00000F900BBE0F900FBE0F901F9018951F9266
:100A10000F920FB60F9211240BB60F922F933F93A4
:100A20008F939F93EF93FF9320915D0530915E0527
:100A300080915F05909160052817390731F4809106
:100A4000C1008F7D8093C10014C0E0915F05F091DB
:100A50006005E35EFA4F208180915F05909160050B
:100A600001968F7399279093600580935F0520937B
:100A7000C600FF91EF919F918F913F912F910F9021
:100A80000BBE0F900FBE0F901F9018951F920F92E4
:100A90000FB60F9211240BB60F922F933F938F93A3
:100AA0009F93EF93FF932091D5043091D6048091CA
:100AB000D7049091D8042817390731F48091C900E0
:100AC0008F7D8093C90014C0E091D704F091D804C1
:100AD000EB56FB4F20818091D7049091D80401966A
:100AE0008F7399279093D8048093D7042093CE00D6
:100AF000FF91EF919F918F913F912F910F900BBE9E
:100B00000F900FBE0F901F9018951F920F920FB667
:100B10000F9211240BB60F922F933F938F939F93B5
:100B2000EF93FF9320914D0430914E0480914F0438
:100B3000909150042817390731F48091D1008F7DAE
:100B40008093D10014C0E0914F04F0915004E35F12
:100B5000FB4F208180914F049091500401968F7338
:100B600099279093500480934F042093D600FF91CF
:100B7000EF919F918F913F912F910F900BBE0F900E
:100B80000FBE0F901F9018951F920F920FB60F92E5
:100B900011240BB60F922F933F938F939F93EF9354
:100BA000FF932091C5033091C6038091C7039091B4
:100BB000C8032817390731F4809131018F7D809364
:100BC000310114C0E091C703F091C803EB57FC4F0B
:100BD00020818091C7039091C80301968F73992754
:100BE0009093C8038093C70320933601FF91EF9140
:100BF0009F918F913F912F910F900BBE0F900FBE41
:100C00000F901F901895CF92DF92EF92FF920F9363
:100C10001F93CF93DF93EC016A017B014115514E85
:100C20006105710509F1EC89FD8981E090E008A07A
:100C300002C0880F991F0A94E2F7808360E079E090
:100C40008DE390E0A70196010E94080889019A01AE
:100C500001501109210931093695279517950795F6
:100C6000980101151041A8F0EC89FD89108260E817
:100C700074E88EE190E0A70196010E940808DA016D
:100C8000C9010197A109B109B695A79597958795CF
:100C90009C01E889F9893083EA89FB89208319A2BC
:100CA000EE89FF89408181E090E09C010C8C02C0BC
:100CB000220F331F0A94E2F7242B2083EE89FF8949
:100CC00040819C010D8C02C0220F331F0A94E2F771
:100CD000242B2083EE89FF8940819C010E8C02C069
:100CE000220F331F0A94E2F7242B2083EE89FF8919
:100CF00020810F8C02C0880F991F0A94E2F780951B
:100D000082238083DF91CF911F910F91FF90EF900D
:100D1000DF90CF900895CF92DF92EF92FF92E3E6BB
:100D2000F3E01382128288EEC82E83E0D82EE12CE5
:100D3000F12CC482D582E682F7826DED72E0718378
:100D4000608381E695E0958784878DE195E09787BC
:100D5000868785EC90E0918B808B84EC90E0938B80
:100D6000828B80EC90E0958B848B81EC90E0978B6C
:100D7000868B82EC90E0918F808F86EC90E0938F51
:100D8000828F44E0448F33E0358F27E0268F95E053
:100D9000978F81E080A3E1E4F3E013821282C482A2
:100DA000D582E682F78271836083A9EDB4E0B587CE
:100DB000A487A5E9B4E0B787A687ADECB0E0B18B16
:100DC000A08BACECB0E0B38BA28BA8ECB0E0B58B01
:100DD000A48BA9ECB0E0B78BA68BAAECB0E0B18FE6
:100DE000A08FAEECB0E0B38FA28F448F358F268FEB
:100DF000978F80A3EFE1F3E013821282C482D58241
:100E0000E682F78271836083A1E5B4E0B587A487A9
:100E1000ADE0B4E0B787A687A5EDB0E0B18BA08BBD
:100E2000A4EDB0E0B38BA28BA0EDB0E0B58BA48BAA
:100E3000A1EDB0E0B78BA68BA2EDB0E0B18FA08F93
:100E4000A6EDB0E0B38FA28F448F358F268F978F9A
:100E500080A3EDEFF2E013821282C482D582E68293
:100E6000F7827183608369EC73E07587648765E856
:100E700073E07787668765E371E0718B608B64E36D
:100E800071E0738B628B60E371E0758B648B61E35F
:100E900071E0778B668B62E371E0718F608F66E340
:100EA00071E0738F628F448F358F268F978F80A369
:100EB000FF90EF90DF90CF900895009729F0BC014C
:100EC00080E090E00C94FC070895CF93DF9300D06E
:100ED0001F92CDB7DEB7611571058105910579F0D7
:100EE0009B01AC0169833A834B835C830E94F807C2
:100EF00029813A814B815C810E942A0803C060E00D
:100F000070E0CB010F900F900F900F90DF91CF9179
:100F10000895CF92DF92EF92FF920F931F93621783
:100F200073078407950784F489019A016B017C019A
:100F3000C901B8016C197D098E099F090E946507D6
:100F40006C0D7D1D8E1D9F1D1F910F91FF90EF90C9
:100F5000DF90CF9008958F929F92AF92BF92CF92E1
:100F6000DF92EF92FF92CF93DF93EC01688179815A
:100F70008A819B81611571058105910521F464E2E7
:100F800079ED8BE597E02DE133EF41E050E00E94F1
:100F90002A0849015A019B01AC01A7EAB1E40E9469
:100FA00051086B017C01ACEEB4EFA50194010E94E5
:100FB0005F08DC01CB018C0D9D1DAE1DBF1DB7FF71
:100FC00003C00197A109B04888839983AA83BB8392
:100FD000BC01CD019F77DF91CF91FF90EF90DF9023
:100FE000CF90BF90AF909F908F9008950C94AB07D7
:100FF00080E092E00C94AB076093000270930102D2
:1010000080930202909303020895F8940C9473085D
:10101000A1E21A2EAA1BBB1BFD010DC0AA1FBB1FFC
:10102000EE1FFF1FA217B307E407F50720F0A21B6E
:10103000B30BE40BF50B661F771F881F991F1A94DB
:1010400069F760957095809590959B01AC01BD0105
:10105000CF010895052E97FB1EF400940E944108CD
:1010600057FD07D00E94080807FC03D04EF40C94EB
:10107000410850954095309521953F4F4F4F5F4F18
:10108000089590958095709561957F4F8F4F9F4FF4
:101090000895EE0FFF1F881F8BBF0790F691E02D7C
:1010A00019940E946408A59F900DB49F900DA49F71
:1010B000800D911D11240895B7FF0C9451080E94D2
:1010C0005108821B930B0895A29FB001B39FC001EA
:1010D000A39F700D811D1124911DB29F700D811D64
:0A10E0001124911D0895F894FFCF2C
:1010EA000100000001506F736974696F6E696E6761
:1010FA003A200A00202030207C202031207C202029
:10110A0032207C203320207C2034002D2D2D2D2DC3
:10111A002D2D2D2D2D2D2D2D2D2D2D2D2D2D2D2DF5
:10112A002D2D00202035207C202036207C202037C1
:10113A00207C203820207C203900203130207C205F
:10114A003131207C203132207C203133207C203107
:10115A003400203135207C203136207C2031372064
:10116A007C203138207C20313900203230207C200C
:10117A003231207C203232207C203233207C2032D3
:10118A003400576865726520796F752077616E6ED5
:10119A00612061747461636B0054686520636F6FCA
:1011AA007264696E6174657320796F7520696E70F7
:1011BA007574206172653A200000000000DF035355
:0A11CA00028803B4039803D4030065
:00000001FF
