:100000000C9444010C9475010C9475010C947501C9
:100010000C9475010C9475010C9475010C94750188
:100020000C9475010C9475010C9475010C94750178
:100030000C9475010C9475010C9475010C94750168
:100040000C9475010C9475010C9475010C94750158
:100050000C9475010C9475010C9475010C94300D81
:100060000C9475010C942E110C94FA110C947501DA
:100070000C9475010C9475010C9475010C94750128
:100080000C9475010C9475010C9475010C94750118
:100090000C9461110C9439120C9475010C94750137
:1000A0000C9475010C9475010C9475010C947501F8
:1000B0000C9475010C9475010C9475010C947501E8
:1000C0000C9475010C9475010C9475010C949411A9
:1000D0000C9478120C9475010C94C7110C94B712FF
:1000E0000C9475016F0E720E650E690EA90E760ED8
:1000F0007A0E800E840E880E8E0E920E960EA90E2B
:100100009C0EA00EA40E0C94690E0C9477010C9416
:10011000A40E0C946F0E0C94A00E0C94800E0C94F4
:100120009C0E0C947B100C94880E0C94720E0C9404
:10013000650E0C94840E0C94D2100C94760E0C94D4
:10014000920E0C948B100C947A0E0C947E130C94DB
:10015000960E0C94A7100C948E0E0C94C7100C9451
:100160003F0F0C94A90E0000090A02080B0C0D07A2
:100170000603040100000000000000000000000071
:10018000000000000000000000000000000000006F
:10019000000011100F00000000000000000000002F
:1001A000000000000000000000000000010210201C
:1001B000200808102040102040800201020108049D
:1001C0000201010204081020408080402010080431
:1001D000020180040201804020100804020108048A
:1001E00002010102040810204080010204081020CE
:1001F00040800505050507050808080802020202F7
:100200000A0A0808040404040101010101010101B2
:100210000303030303030303040707070C0C0C0C7D
:100220000C0C0C0C02020202060606060606060666
:100230000B0B0B0B0B0B0B0B0000200023002600FD
:1002400029002C002F0032000001000003010601EC
:10025000090100002200250028002B002E0031009B
:10026000340002010000050108010B01000021001B
:10027000240027002A002D00300033000101000077
:10028000040107010A017E1311241FBECFEFD1E242
:10029000DEBFCDBF00E00CBF19E0A0E0B2E0EAE7AE
:1002A000F0E300E00BBF02C007900D92A03CB10745
:1002B000D9F72CE0A0ECB9E001C01D92AB3EB2072B
:1002C000E1F711E0C4E4D1E000E006C021970109A4
:1002D000802FFE010E941118C334D10780E0080767
:1002E000A9F70E94250B0C9490170C940000FB01B9
:1002F00040815181FC0120813181CA01821B930B15
:1003000008950E94D10D40E855E260E070E089EA6E
:100310009AE00E94F61261E089E00E94AA0E61E074
:100320008AE00E94AA0E61E08BE00E94AA0E61E0C2
:100330008CE00E94AA0E61E08DE00E94AA0E60E0AF
:1003400087E00E94AA0E61E087E00E94E60E60E06E
:1003500084E00E94AA0E61E084E00E94E60E60E064
:1003600085E00E94AA0E61E085E00E94E60E60E052
:1003700086E00E94AA0E61E086E00E94E60E80E020
:100380000E94330E0C945014CF92DF92EF92FF92A2
:100390000F931F93CF93DF930E947A0D6B017C0123
:1003A000C0E0D0E003E010E00E947A0DDC01CB0158
:1003B0008C199D09AE09BF0980319742A105B1058D
:1003C00008F06CC00E940017B8010E94BC17FC0125
:1003D000EE0FFF1FE655F64F61E080810E94E60EAA
:1003E00084E00E94160F892B29F489E00E94160FE1
:1003F0000197D9F085E00E94160F892B29F48AE035
:100400000E94160F019721F186E00E94160F892B9A
:1004100029F48BE00E94160F019769F164EF71E0F7
:1004200080E090E00E94AB0DBFCF21966FE372E0B9
:1004300089EA9AE00E947C0F4AE050E0BE0189EA16
:100440009AE00E94641060E089E00E94E60ED2CF3C
:1004500021966FE372E089EA9AE00E947C0F4AE0FD
:1004600050E0BE0189EA9AE00E94641060E08AE0F0
:100470000E94E60EC9CF21966FE372E089EA9AE006
:100480000E947C0F4AE050E0BE0189EA9AE00E9497
:10049000641060E08BE00E94E60EC0CFCE01DF91D9
:1004A000CF911F910F91FF90EF90DF90CF90089523
:1004B0006FE472E089EA9AE00E94990F61E672E0C7
:1004C00089EA9AE00E94990F6BE872E089EA9AE063
:1004D0000E947C0F66EC72E089EA9AE00E94990F14
:1004E00069ED72E089EA9AE00E94990F62E173E097
:1004F00089EA9AE00E947C0F68E473E089EA9AE056
:100500000E94990F64E673E089EA9AE00E94990FCD
:1005100066E873E089EA9AE00E947C0F62EC73E07F
:1005200089EA9AE00E94990F64EE73E089EA9AE002
:100530000E94990F61E08CE00E94E60E87E00E9425
:10054000160F892BD9F760E08CE00E94E60E61E07F
:100550008DE00E94E60E6AE074E089EA9AE00E946B
:10056000990F0E94C4019093390A8093380A60E27F
:1005700074E089EA9AE00E94990F60E08CE00E94A2
:10058000E60E60E08DE00E94E60E60E089E00E94E9
:10059000E60E60E08AE00E94E60E60E08BE00E94DA
:1005A000E60E8091380A9091390A08950F931F93AF
:1005B000CF93DF9308E21AE0C0E0D0E028E130E01A
:1005C00040E050E060E070E0CB010E947C149B01B1
:1005D000E8E2FAE040E050E04C175D0741F0A191FD
:1005E000B1912A173B0731F04F5F5F4FF5CFF8010C
:1005F0007183608321960E5F1F4FC530D105F1F6E0
:1006000089EA9AE0DF91CF911F910F910C94850FA9
:100610000F931F93CF93DF9300E11AE0C0E0D0E087
:1006200028E130E040E050E060E070E0CB010E9463
:100630007C149B01E0E1FAE040E050E04C175D07DC
:1006400041F0A191B1912A173B0729F04F5F5F4F0D
:10065000F5CF21E001C020E0211101C0FFCFF8015A
:10066000619371938F012196C530D105C9F689EA4E
:100670009AE0DF91CF911F910F910C94850F0F930A
:100680001F93CF93DF930AE11AE0C0E0D0E028E1A6
:1006900030E040E050E060E070E0CB010E947C146C
:1006A0009B01EAE1FAE040E050E04C175D0741F0C1
:1006B000A191B1912A173B0731F04F5F5F4FF5CF02
:1006C000F8017183608321960E5F1F4FC730D105FB
:1006D000F1F689EA9AE0DF91CF911F910F910C9486
:1006E000850FCF93DF93CAE0D2E029E130E040E00C
:1006F00050E060E070E0CB010E947C14660F771F31
:10070000FB01E65FFD4F8081918128813981318332
:1007100020838993999382E0CC33D80731F7DF9116
:10072000CF9108950F931F93CF93DF934091100AB9
:100730005091110A6091120A7091130AA091140A43
:10074000B091150AC091160AD091170A0091180AA3
:100750001091190AECEDF9E080E090E03FE32FE41E
:100760008417950761F08617970749F08A179B074A
:1007700031F08C179D0719F08017910711F4208331
:1007800001C03083019631968931910549F7DF9197
:10079000CF911F910F910895E5EFF9E08FE38193D9
:1007A0009AE0EE30F907D9F708950F931F93CF938E
:1007B000DF9363E374E089EA9AE00E947C0F62E4CD
:1007C00074E089EA9AE00E94990F6CE774E089EA84
:1007D0009AE00E947C0F68E974E089EA9AE00E943E
:1007E000990F6AED74E089EA9AE00E947C0F67EF46
:1007F00074E089EA9AE00E94990F69E275E089EA5B
:100800009AE00E947C0F65E475E089EA9AE00E9414
:10081000990F6AED74E089EA9AE00E947C0F65E71F
:1008200075E089EA9AE00E94990F60EA75E089EA2A
:100830009AE00E947C0F6CEB75E089EA9AE00E94D6
:10084000990F6AED74E089EA9AE00E94990F66EFC9
:1008500075E089EA9AE00E94990F6AED74E089EAEE
:100860009AE00E94990F63E176E089EA9AE00E949B
:10087000990F60E474E089EA9AE00E94990F60E3BE
:1008800076E089EA9AE00E947C0F60910E0A7091EE
:100890000F0A4AE050E089EA9AE00E945D1068E49D
:1008A00076E089EA9AE00E947C0F60913C027091A8
:1008B0003D024AE050E089EA9AE00E9464106AE949
:1008C00076E089EA9AE00E947C0F05EF19E0F801D2
:1008D000608189EA9AE00E947E0F6AE976E089EAFF
:1008E0009AE00E947C0FF801618189EA9AE00E94F7
:1008F0007E0F6AE976E089EA9AE00E947C0FF801AF
:10090000628189EA9AE00E947E0F6AE976E089EACC
:100910009AE00E947C0FF801638189EA9AE00E94C4
:100920007E0F6AE976E089EA9AE00E947C0FF8017E
:10093000648189EA9AE00E947E0F6CE276E089EA9F
:100940009AE00E947C0F61EA76E089EA9AE00E94D0
:100950007C0F6AE976E089EA9AE00E947C0FCCED90
:10096000D9E0688189EA9AE00E947E0F6AE976E020
:1009700089EA9AE00E947C0F698189EA9AE00E94E4
:100980007E0F6AE976E089EA9AE00E947C0F6A812C
:1009900089EA9AE00E947E0F6AE976E089EA9AE0A5
:1009A0000E947C0F6B8189EA9AE00E947E0F6AE9BF
:1009B00076E089EA9AE00E947C0F6C8189EA9AE0ED
:1009C0000E947E0F6CE276E089EA9AE00E94990F1D
:1009D0006BED74E089EA9AE00E947C0F6FE976E0A3
:1009E00089EA9AE00E947C0F6BED74E089EA9AE054
:1009F0000E94990F6AE976E089EA9AE00E947C0FEA
:100A0000F801658189EA9AE00E947E0F6AE976E042
:100A100089EA9AE00E947C0FF801668189EA9AE0EF
:100A20000E947E0F6AE976E089EA9AE00E947C0FD4
:100A3000F801678189EA9AE00E947E0F6AE976E010
:100A400089EA9AE00E947C0FF801608589EA9AE0C1
:100A50000E947E0F6AE976E089EA9AE00E947C0FA4
:100A6000F801618589EA9AE00E947E0F6CE276E0E7
:100A700089EA9AE00E947C0F61EA76E089EA9AE0CE
:100A80000E947C0F6AE976E089EA9AE00E947C0F76
:100A90006D8189EA9AE00E947E0F6AE976E089EA30
:100AA0009AE00E947C0F6E8189EA9AE00E947E0F94
:100AB0006AE976E089EA9AE00E947C0F6F8189EA10
:100AC0009AE00E947E0F6AE976E089EA9AE00E9445
:100AD0007C0F688589EA9AE00E947E0F6AE976E0D9
:100AE00089EA9AE00E947C0F698589EA9AE00E946F
:100AF0007E0F6CE276E089EA9AE00E94990F6BED36
:100B000074E089EA9AE00E947C0F6FE976E089EA56
:100B10009AE00E947C0F6BED74E089EA9AE00E94F3
:100B2000990F6AE976E089EA9AE00E947C0FF80161
:100B3000628589EA9AE00E947E0F6AE976E089EA96
:100B40009AE00E947C0FF801638589EA9AE00E948E
:100B50007E0F6AE976E089EA9AE00E947C0FF8014C
:100B6000648589EA9AE00E947E0F6AE976E089EA64
:100B70009AE00E947C0FF801658589EA9AE00E945C
:100B80007E0F6AE976E089EA9AE00E947C0FF8011C
:100B9000668589EA9AE00E947E0F6CE276E089EA37
:100BA0009AE00E947C0F61EA76E089EA9AE00E946E
:100BB0007C0F6AE976E089EA9AE00E947C0F6A85F8
:100BC00089EA9AE00E947E0F6AE976E089EA9AE073
:100BD0000E947C0F6B8589EA9AE00E947E0F6AE989
:100BE00076E089EA9AE00E947C0F6C8589EA9AE0B7
:100BF0000E947E0F6AE976E089EA9AE00E947C0F03
:100C00006D8589EA9AE00E947E0F6AE976E089EABA
:100C10009AE00E947C0F6E8589EA9AE00E947E0F1E
:100C20006CE276E089EA9AE00E94990F6BED74E03D
:100C300089EA9AE00E947C0F6FE976E089EA9AE0FF
:100C40000E947C0F6BED74E089EA9AE00E94990F94
:100C50006AE976E089EA9AE00E947C0FF8016785EC
:100C600089EA9AE00E947E0F6AE976E089EA9AE0D2
:100C70000E947C0FF801608989EA9AE00E947E0F49
:100C80006AE976E089EA9AE00E947C0FF8016189BE
:100C900089EA9AE00E947E0F6AE976E089EA9AE0A2
:100CA0000E947C0FF801628989EA9AE00E947E0F17
:100CB0006AE976E089EA9AE00E947C0FF80163898C
:100CC00089EA9AE00E947E0F6CE276E089EA9AE077
:100CD0000E947C0F61EA76E089EA9AE00E947C0F2C
:100CE0006AE976E089EA9AE00E947C0F6F8589EADA
:100CF0009AE00E947E0F6AE976E089EA9AE00E9413
:100D00007C0F688989EA9AE00E947E0F6AE976E0A2
:100D100089EA9AE00E947C0F698989EA9AE00E9438
:100D20007E0F6AE976E089EA9AE00E947C0F6A8980
:100D300089EA9AE00E947E0F6AE976E089EA9AE001
:100D40000E947C0F6B8989EA9AE00E947E0F6CE218
:100D500076E089EA9AE00E94990F6BED74E089EAE7
:100D60009AE00E947C0F6FE976E089EA9AE00E949F
:100D70007C0F6BED74E089EA9AE00E94990F6AE9B2
:100D800076E089EA9AE00E947C0FF801648989EA9A
:100D90009AE00E947E0F6AE976E089EA9AE00E9472
:100DA0007C0FF801658989EA9AE00E947E0F6AE962
:100DB00076E089EA9AE00E947C0FF801668989EA68
:100DC0009AE00E947E0F6AE976E089EA9AE00E9442
:100DD0007C0FF801678989EA9AE00E947E0F6AE930
:100DE00076E089EA9AE00E947C0FF801608D89EA3A
:100DF0009AE00E947E0F6CE276E089EA9AE00E9417
:100E00007C0F61EA76E089EA9AE00E947C0F6AE949
:100E100076E089EA9AE00E947C0F6C8989EA9AE080
:100E20000E947E0F6AE976E089EA9AE00E947C0FD0
:100E30006D8989EA9AE00E947E0F6AE976E089EA84
:100E40009AE00E947C0F6E8989EA9AE00E947E0FE8
:100E50006AE976E089EA9AE00E947C0F6F8989EA64
:100E60009AE00E947E0F6AE976E089EA9AE00E94A1
:100E70007C0F688D89EA9AE00E947E0F6CE276E032
:100E800089EA9AE00E94990F6BED74E089EA9AE092
:100E90000E947C0F6FE976E089EA9AE00E947C0F5D
:100EA0006BED74E089EA9AE0DF91CF911F910F9189
:100EB0000C94990F0F931F93CF93DF93EC018091C4
:100EC0001A0A90911B0A8E010B50164FC817D907AA
:100ED00009F07EC01092370A1092360AF80180811C
:100EE000883591F460ED76E089EA9AE00E94990FE6
:100EF00067EF76E089EA9AE00E94990F81E090E03E
:100F00009093370A8093360A8091360A9091370A77
:100F1000892B09F00AC10E94580264E177E089EA4E
:100F20009AE00E947C0F6091380A7091390A4AE079
:100F300050E089EA9AE00E9464108091380A90910A
:100F4000390A0A970CF441C088E5F8018083809142
:100F50000E0A90910F0A019790930F0A80930E0A40
:100F60000E94D5036BED74E089EA9AE00E94990F24
:100F70006AE277E089EA9AE00E947C0F4AE050E05A
:100F8000BE0189EA9AE00E94641062E477E089EA8F
:100F90009AE00E94990F6BED74E089EA9AE00E9452
:100FA000990F80910E0A90910F0A892B09F0BDC00C
:100FB0000E94D50362E577E089EA9AE00E94990FE2
:100FC0001092090210920802B0C062E777E0A5C053
:100FD00080911C0A90911D0AC817D90719F18091B8
:100FE0001E0A90911F0AC817D907E1F08091200AC4
:100FF0009091210AC817D907A9F08091220A9091EF
:10100000230AC817D90771F08091240A9091250A04
:10101000C817D90739F08091260A9091270AC81776
:10102000D90731F51092370A1092360AF8018081FB
:10103000883591F460ED76E089EA9AE00E94990F94
:1010400067EF76E089EA9AE00E94990F81E090E0EC
:101050009093370A8093360A8091360A9091370A26
:10106000892B09F062C00E94580261E977E057CFEE
:101070008DE2F80180830E94D5036BED74E089EA6C
:101080009AE00E94990F6AE277E089EA9AE00E946A
:101090007C0F4AE050E0BE0189EA9AE00E946410A9
:1010A00067EA77E089EA9AE00E94990F6BED74E0B5
:1010B00089EA9AE00E94990FEAE1FAE0A4ECB9E02B
:1010C000819191919E01281B390BC90137FF03C003
:1010D0009195819591098D939D933AE0E832F307BC
:1010E00079F727E731E042E050E067E070E084EC18
:1010F00099E00E94E5146FEB77E089EA9AE00E949C
:101100007C0F6091D0097091D1094AE050E089EAE2
:101110009AE00E9464106BED74E089EA9AE0DF9136
:10112000CF911F910F910C94990FDF91CF911F9147
:101130000F9108950F931F93CF93DF93EC0180914C
:10114000280A9091290A8E010B50164FC817D9070B
:1011500009F07EC01092370A1092360AF801808199
:10116000883591F460ED76E089EA9AE00E94990F63
:1011700067EF76E089EA9AE00E94990F81E090E0BB
:101180009093370A8093360A8091360A9091370AF5
:10119000892B09F0DAC00E94580261E977E089EAF8
:1011A0009AE00E947C0F6091380A7091390A4AE0F7
:1011B00050E089EA9AE00E9464108091380A909188
:1011C000390A05970CF441C088E5F80180838091C5
:1011D0000E0A90910F0A019790930F0A80930E0ABE
:1011E0000E94D5036BED74E089EA9AE00E94990FA2
:1011F0006AE277E089EA9AE00E947C0F4AE050E0D8
:10120000BE0189EA9AE00E94641062E477E089EA0C
:101210009AE00E94990F6BED74E089EA9AE00E94CF
:10122000990F80910E0A90910F0A892B09F08DC0B9
:101230000E94D50362E577E089EA9AE00E94990F5F
:10124000109209021092080280C062E777E075C030
:1012500080912A0A90912B0AC817D90709F47ACFEE
:1012600080912C0A90912D0AC817D90709F472CFE2
:1012700080912E0A90912F0AC817D90709F46ACFD6
:101280008091300A9091310AC817D90709F462CFCA
:101290008DE2F80180830E94D5036BED74E089EA4A
:1012A0009AE00E94990F6AE277E089EA9AE00E9448
:1012B0007C0F4AE050E0BE0189EA9AE00E94641087
:1012C00067EA77E089EA9AE00E94990F6BED74E093
:1012D00089EA9AE00E94990FE8E2FAE0A2EDB9E00B
:1012E000819191919E01281B390BC90137FF03C0E1
:1012F0009195819591098D939D933AE0E233F3079F
:1013000079F727E731E042E050E065E070E082EDF8
:1013100099E00E94E5146FEB77E089EA9AE00E9479
:101320007C0F6091DA097091DB094AE050E089EAAC
:101330009AE00E9464106BED74E089EA9AE0DF9114
:10134000CF911F910F910C94990FDF91CF911F9125
:101350000F910895CF93DF938091C0099091C109B7
:10136000893191050CF07EC020913C0230913D0204
:101370002115310529F4109209021092080273C058
:10138000880F991FFC01E65FFD4FC081D1818091DC
:10139000100A9091110AFE01E452F64FC817D907BE
:1013A000E1F08091120A9091130AC817D907A9F0A9
:1013B0008091140A9091150AC817D90771F080918D
:1013C000160A9091170AC817D90739F08091180AA0
:1013D0009091190AC817D907D1F481E2808321506E
:1013E000310930933D0220933C020E94D5036EECFC
:1013F00077E089EA9AE00E947C0F4AE050E0BE0163
:1014000089EA9AE00E94641066EE77E013C08DE2EC
:1014100080830E94D5036EEC77E089EA9AE00E940F
:101420007C0F4AE050E0BE0189EA9AE00E94641015
:1014300069EF77E089EA9AE00E94990F6BED74E01A
:1014400089EA9AE00E94990F8091C0099091C109A0
:1014500001969093C1098093C009209108023091B0
:10146000090201C001C0C901DF91CF910895AF9277
:10147000BF92CF92DF92FF920F931F93CF93DF9390
:101480006C015C01C0E0D0E08B0101501109C01774
:10149000D1077CF489EA9AE00E947B10181619069D
:1014A000B4F789EA9AE00E94A710F82E8DE0F812AE
:1014B0000DC0CC0DDD1D1882DF91CF911F910F91D2
:1014C000FF90DF90CF90BF90AF9008956F2D89EA85
:1014D0009AE00E94AB0FF501F1925F012196D7CF00
:1014E000CF93DF93CDB7DEB7A0970FB6F894DEBFEA
:1014F0000FBECDBF89EA9AE00E94850F6BE178E0CC
:1015000089EA9AE00E94990F60E270E0CE010196AC
:101510000E94370ACE0101960E946917A0960FB665
:10152000F894DEBF0FBECDBFDF91CF91089589EA59
:101530009AE00E94850F67E578E089EA9AE00E94C8
:10154000990F89EA9AE00E947B1018161906CCF7C9
:1015500089EA9AE00E94A7108D3099F70895AF921A
:10156000BF92CF92DF92FF920F931F93CF93DF939F
:101570006C018B0165E778E089EA9AE00E947C0FB4
:101580005601C0E0D0E001501109C017D1077CF42A
:1015900089EA9AE00E947B1018161906B4F789EAC6
:1015A0009AE00E94A710F82E8DE0F8120DC0CC0D25
:1015B000DD1D1882DF91CF911F910F91FF90DF9079
:1015C000CF90BF90AF9008956F2D89EA9AE00E9466
:1015D0007E0FF501F1925F012196D7CFCF93DF9374
:1015E000CDB7DEB7A0970FB6F894DEBF0FBECDBF64
:1015F00060E270E0CE0101960E94AF0A89EA9AE0AB
:101600000E94850F60EA78E089EA9AE00E947C0FE8
:10161000CE0101960E9469174AE050E089EA9AE0FB
:101620000E945D106BE174E089EA9AE00E94990FD4
:10163000CE0101960E946917A0960FB6F894DEBFFE
:101640000FBECDBFDF91CF9108950F931F93CF931E
:10165000DF930E9481016BEA78E089EA9AE00E94B8
:10166000990F6DEC78E089EA9AE00E947C0F64E0C3
:1016700079E089EA9AE00E94990F0E94700AFB01C2
:10168000AB01415051094330510508F121E030E0F0
:101690003093350A2093340A2091340A3091350A68
:1016A00021303105A1F460E379E089EA9AE00E94F3
:1016B000990F0E94700AFB01AB0141505109433060
:1016C000510550F71092350A1092340AE5CFE130F7
:1016D000F10509F098C085E090E090930F0A80939F
:1016E0000E0A0E94CC030E94D6020E9408030E94A8
:1016F00071030E9492036FE479E089EA9AE00E9404
:10170000990F6091280A7091290A4AE050E089EA0D
:101710009AE00E94641060912A0A70912B0A4AE0B4
:1017200050E089EA9AE00E94641060912C0A70915E
:101730002D0A4AE050E089EA9AE00E946410609124
:101740002E0A70912F0A4AE050E089EA9AE00E943E
:1017500064106091300A7091310A4AE050E089EAE1
:101760009AE00E94641089EA9AE00E94850F0E9424
:10177000D5030E94970AC2E0D0E0809108029091C0
:101780000902019709F061C12091C2093091C30992
:101790002F5F3F4F3093C3092093C209C901BE0197
:1017A0000E94BC178C01019731F50E94EE0AAB0133
:1017B00069317105E0F01093330A0093320A2091E9
:1017C000320A3091330A2130310589F46EE579E02F
:1017D00089EA9AE00E94990F0E94EE0AAB016931F2
:1017E000710568F71092330A1092320AE8CFCA01E5
:1017F0000E949A08C2CF20FDC0CF0E94AA09892B5F
:1018000009F0BBCFFFC0E230F10509F088C087E0E6
:1018100090E090930F0A80930E0A0E94CC030E94DE
:101820003F030E9408030E9471030E9492036FE429
:1018300079E089EA9AE00E94990F60911A0A709102
:101840001B0A4AE050E089EA9AE00E946410609125
:101850001C0A70911D0A4AE050E089EA9AE00E9451
:10186000641060911E0A70911F0A4AE050E089EAF4
:101870009AE00E9464106091200A7091210A4AE067
:1018800050E089EA9AE00E9464106091220A709107
:10189000230A4AE050E089EA9AE00E9464106091CD
:1018A000240A7091250A4AE050E089EA9AE00E94F1
:1018B00064106091260A7091270A4AE050E089EA94
:1018C0009AE00E94641089EA9AE00E94850F0E94C3
:1018D000D5030E94970AC2E0D0E08091080290915F
:1018E0000902019709F0B1C08091C2099091C30922
:1018F00001969093C3098093C20980FD06C00E949F
:10190000EE0ACB010E945A07E8CFBE010E94BC1725
:10191000019719F70E94AA09892BF9F673C033972A
:1019200009F093C087E090E090930F0A80930E0A2D
:101930000E94CC030E943F030E9408030E9471038F
:101940000E9492036FE479E089EA9AE00E94990F7D
:1019500060911A0A70911B0A4AE050E089EA9AE005
:101960000E94641060911C0A70911D0A4AE050E0C8
:1019700089EA9AE00E94641060911E0A70911F0A21
:101980004AE050E089EA9AE00E9464106091200ADF
:101990007091210A4AE050E089EA9AE00E946410BE
:1019A0006091220A7091230A4AE050E089EA9AE0A5
:1019B0000E9464106091240A7091250A4AE050E068
:1019C00089EA9AE00E9464106091260A7091270AC1
:1019D0004AE050E089EA9AE00E94641089EA9AE0BD
:1019E0000E94850F0E94D5030E94970AC2E0D0E0B2
:1019F00020C0BE010E94BC170197D9F40E94AA0919
:101A0000892BF1F466E879E089EA9AE00E94990F5F
:101A10001CC08091C2099091C30901969093C3099B
:101A20008093C20980FDE5CF0E94EE0ACB010E949F
:101A30005A078091080290910902019751F305C05D
:101A40000E94AA09892BA9F7DDCF89EA9AE00E94B2
:101A5000C71080E090E0DF91CF911F910F91089522
:101A60001F920F920FB60F9211242F933F938F93D3
:101A70009F93AF93BF9380913B0A90913C0AA091B2
:101A80003D0AB0913E0A30913A0A23E0230F2D37E8
:101A900020F40196A11DB11D05C026E8230F029672
:101AA000A11DB11D20933A0A80933B0A90933C0AF2
:101AB000A0933D0AB0933E0A80913F0A9091400A5C
:101AC000A091410AB091420A0196A11DB11D8093D7
:101AD0003F0A9093400AA093410AB093420ABF91F3
:101AE000AF919F918F913F912F910F900FBE0F90CB
:101AF0001F9018952FB7F89460913B0A70913C0A9B
:101B000080913D0A90913E0A2FBF08953FB7F89407
:101B100080913F0A9091400AA091410AB091420AF7
:101B200026B5A89B05C02F3F19F00196A11DB11D38
:101B30003FBFBA2FA92F982F8827820F911DA11D73
:101B4000B11DBC01CD0142E0660F771F881F991FB0
:101B50004A95D1F70895CF92DF92EF92FF92CF93FB
:101B6000DF936B017C010E94860DEB01C114D1044F
:101B7000E104F10479F00E94860D6C1B7D0B683E38
:101B80007340A0F381E0C81AD108E108F108C851F8
:101B9000DC4FECCFDF91CF91FF90EF90DF90CF90B3
:101BA0000895789484B5826084BD84B5816084BDD5
:101BB00085B5826085BD85B5816085BDEEE6F0E0C6
:101BC000808181608083E1E8F0E010828081826022
:101BD0008083808181608083E0E8F0E080818160A3
:101BE0008083E1EBF0E0808184608083E0EBF0E0D3
:101BF000808181608083E1E9F0E080818260808380
:101C0000808181608083E0E9F0E080818160808371
:101C1000E1EAF0E08081826080838081816080835E
:101C2000E0EAF0E0808181608083E1E2F1E08081A0
:101C300082608083808181608083E0E2F1E0808146
:101C400081608083EAE7F0E0808184608083808126
:101C500082608083808181608083808180688083CE
:101C60001092C1000895863308F0865390917B004E
:101C7000282F2870977F922B90937B00877020915C
:101C80003E0290E4299F90011124822B80937C00D6
:101C900080917A00806480937A0080917A0086FD3A
:101CA000FCCF809178002091790090E0922B0895EC
:101CB00090E0FC013197E131F10508F04AC0882736
:101CC000EE58FF4F8F4F0C941118809180008F7742
:101CD00003C0809180008F7D80938000089584B53B
:101CE0008F7702C084B58F7D84BD08958091B00048
:101CF0008F7703C08091B0008F7D8093B0000895EE
:101D0000809190008F7707C0809190008F7D03C0F5
:101D100080919000877F8093900008958091A0002B
:101D20008F7707C08091A0008F7D03C08091A000B5
:101D3000877F8093A0000895809120018F7707C04E
:101D4000809120018F7D03C080912001877F809347
:101D500020010895CF93DF9390E0FC01E455FE4FFE
:101D60002491FC01EE50FE4F8491882361F190E0B4
:101D7000880F991FFC01E459FD4FC591D491FC01D6
:101D8000EE5AFD4FA591B491611109C09FB7F89427
:101D90008881209582238883EC912E230BC06230AA
:101DA00061F49FB7F8943881822F809583238883CC
:101DB000EC912E2B2C939FBF06C08FB7F894E8812F
:101DC0002E2B28838FBFDF91CF9108951F93CF9340
:101DD000DF93282F30E0F901EA59FE4F8491F90191
:101DE000E455FE4FD491F901EE50FE4FC491CC233F
:101DF000C9F0162F81110E94580EEC2FF0E0EE0F63
:101E0000FF1FEE5AFD4FA591B4918FB7F8941111B1
:101E100005C09C91ED2FE095E92302C0EC91ED2BDC
:101E2000EC938FBFDF91CF911F910895CF93DF93F4
:101E3000282F30E0F901EA59FE4F8491F901E45569
:101E4000FE4FD491F901EE50FE4FC491CC2391F096
:101E500081110E94580EEC2FF0E0EE0FFF1FE85C9E
:101E6000FD4FA591B491EC91ED2381E090E021F438
:101E700080E002C080E090E0DF91CF910895CF92A2
:101E8000DF92EF92FF920F931F93CF93DF936C013A
:101E9000EB017B01E40EF51E00E010E0CE15DF053E
:101EA00061F06991D601ED91FC910190F081E02DF6
:101EB000C6011995080F191FF1CFC801DF91CF9105
:101EC0001F910F91FF90EF90DF90CF9008956115D3
:101ED000710579F0FB0101900020E9F73197AF011E
:101EE000461B570BDC01ED91FC910280F381E02D44
:101EF000199480E090E008950C94670FDC01ED9157
:101F0000FC910190F081E02D19940F931F93CF93D2
:101F1000DF93EC016DE00E947E0F8C016AE0CE0140
:101F20000E947E0F800F911FDF91CF911F910F9123
:101F300008950F931F93CF93DF93EC010E94670FD7
:101F40008C01CE010E94850F800F911FDF91CF91F0
:101F50001F910F9108950F931F93CF93DF93EC017F
:101F60000E947E0F8C01CE010E94850F800F911F71
:101F7000DF91CF911F910F9108958F929F92AF9211
:101F8000BF92CF92DF92EF92FF920F931F93CF9366
:101F9000DF93CDB7DEB7A1970FB6F894DEBF0FBEC3
:101FA000CDBF6C01142FE52FCB01022F19A22230D7
:101FB00008F40AE07E0121E2E20EF11C802E912C51
:101FC000A12CB12C612F7E2FA50194010E94D01766
:101FD000029F1019112481E0E81AF1081A3014F454
:101FE000105D01C0195CF7011083122FE32FCA01A5
:101FF000232B242B252B31F7B701C6010E94670F35
:10200000A1960FB6F894DEBF0FBECDBFDF91CF9182
:102010001F910F91FF90EF90DF90CF90BF90AF9006
:102020009F908F900895CF92DF92EF92FF920F933F
:102030001F93CF93DF93EC016A017B0121153105DA
:1020400079F4E881F9810190F081E02D642FDF912E
:10205000CF911F910F91FF90EF90DF90CF90199447
:102060002A303105E9F477FF1AC06DE20E947E0F35
:102070008C0144275527BA014C195D096E097F0967
:102080002AE0CE010E94BD0F800F911FDF91CF91FA
:102090001F910F91FF90EF90DF90CF9008952AE06D
:1020A000B701A601CE01DF91CF911F910F91FF9053
:1020B000EF90DF90CF900C94BD0F9A01AB01770F9A
:1020C000660B770B0C9413100F931F93CF93DF9332
:1020D000EC019A01AB01770F660B770B0E9413108E
:1020E0008C01CE010E94850F800F911FDF91CF914F
:1020F0001F910F910895FC0124853585F901E05C5D
:10210000FF4F80819181329620813181821B930B18
:102110008F7399270895DC011C96ED91FC911D9712
:10212000DF01A05CBF4F2D913C91119712968D91CC
:102130009C9111972817390739F08D919C91E80FE0
:10214000F91F808190E008958FEF9FEF0895FC01C3
:10215000A485B585FD01E05CFF4F20813181329679
:10216000808191812817390779F080819181A80FAA
:10217000B91F8C91208131812F5F3F4F2F733327FF
:102180003183208390E008958FEF9FEF0895FC0145
:1021900081A1882329F0A489B5898C9186FFFBCF82
:1021A00011A208950F931F93CF93DF93FC01A6858F
:1021B000B7858D01005C1F4FE801888199810196E8
:1021C0008F739927AD014E5B5F4FEA0128813981FA
:1021D00082179307D1F3E80128813981A20FB31F39
:1021E0006C93A685B785A05CBF4F11969C938E9388
:1021F000A689B7892C9181E090E0078C02C0880FF6
:10220000991F0A94E2F7822B8C9381E081A30488C2
:10221000F589E02D80818064808381E090E0DF910A
:10222000CF911F910F910895FB01E05CFF4F20813A
:1022300031812F5F3F4F2F733327DB01AE5BBF4FE1
:102240004D915C912417350741F040815181DB01AC
:10225000A40FB51F8C933183208308951F920F9292
:102260000FB60F9211240BB60F922F933F934F93FB
:102270005F936F937F938F939F93AF93BF93EF93EE
:10228000FF938091C00082FD07C08091C60067EA7D
:102290007CE00E94141102C08091C600FF91EF9172
:1022A000BF91AF919F918F917F916F915F914F916E
:1022B0003F912F910F900BBE0F900FBE0F901F906C
:1022C00018951F920F920FB60F9211240BB60F9212
:1022D0002F933F934F935F936F937F938F939F932E
:1022E000AF93BF93EF93FF938091C80082FD07C027
:1022F0008091CE006FE17CE00E94141102C08091B9
:10230000CE00FF91EF91BF91AF919F918F917F91FF
:102310006F915F914F913F912F910F900BBE0F9056
:102320000FBE0F901F9018951F920F920FB60F922D
:1023300011240BB60F922F933F934F935F936F939C
:102340007F938F939F93AF93BF93EF93FF9380916E
:10235000D00082FD07C08091D60067E97BE00E9433
:10236000141102C08091D600FF91EF91BF91AF91FF
:102370009F918F917F916F915F914F913F912F919D
:102380000F900BBE0F900FBE0F901F9018951F92CD
:102390000F920FB60F9211240BB60F922F933F930B
:1023A0004F935F936F937F938F939F93AF93BF935D
:1023B000EF93FF938091300182FD07C08091360139
:1023C0006FE07BE00E94141102C080913601FF9102
:1023D000EF91BF91AF919F918F917F916F915F919D
:1023E0004F913F912F910F900BBE0F900FBE0F900A
:1023F0001F9018951F920F920FB60F9211240BB6D3
:102400000F922F933F938F939F93EF93FF9320917E
:10241000A30C3091A40C8091A50C9091A60C2817C8
:10242000390731F48091C1008F7D8093C10014C0C1
:10243000E091A50CF091A60CED59F34F208180910D
:10244000A50C9091A60C01968F7399279093A60CDA
:102450008093A50C2093C600FF91EF919F918F91DF
:102460003F912F910F900BBE0F900FBE0F901F90BA
:1024700018951F920F920FB60F9211240BB60F9260
:102480002F933F938F939F93EF93FF9320911B0C78
:1024900030911C0C80911D0C90911E0C281739074F
:1024A00031F48091C9008F7D8093C90014C0E09100
:1024B0001D0CF0911E0CE552F44F208180911D0CF3
:1024C00090911E0C01968F73992790931E0C809308
:1024D0001D0C2093CE00FF91EF919F918F913F9122
:1024E0002F910F900BBE0F900FBE0F901F9018955D
:1024F0001F920F920FB60F9211240BB60F922F93CB
:102500003F938F939F93EF93FF932091930B309181
:10251000940B8091950B9091960B2817390731F405
:102520008091D1008F7D8093D10014C0E091950BF4
:10253000F091960BED5AF44F20818091950B90917C
:10254000960B01968F7399279093960B8093950B1A
:102550002093D600FF91EF919F918F913F912F9102
:102560000F900BBE0F900FBE0F901F9018951F92EB
:102570000F920FB60F9211240BB60F922F933F9329
:102580008F939F93EF93FF9320910B0B30910C0B44
:1025900080910D0B90910E0B2817390731F4809123
:1025A00031018F7D8093310114C0E0910D0BF091CA
:1025B0000E0BE553F54F208180910D0B90910E0B82
:1025C00001968F73992790930E0B80930D0B209398
:1025D0003601FF91EF919F918F913F912F910F9035
:1025E0000BBE0F900FBE0F901F901895CF92DF92E9
:1025F000EF92FF920F931F93CF93DF93EC016A0149
:102600007B014115514E6105710509F1EC89FD8988
:1026100081E090E008A002C0880F991F0A94E2F7B9
:10262000808360E079E08DE390E0A70196010E944D
:10263000D01789019A0101501109210931093695F4
:10264000279517950795980101151041A8F0EC8979
:10265000FD89108260E874E88EE190E0A7019601A0
:102660000E94D017DA01C9010197A109B109B695F5
:10267000A795979587959C01E889F9893083EA8920
:10268000FB89208319A2EE89FF89408181E090E0D7
:102690009C010C8C02C0220F331F0A94E2F7242BFA
:1026A0002083EE89FF8940819C010D8C02C0220F9E
:1026B000331F0A94E2F7242B2083EE89FF8940819F
:1026C0009C010E8C02C0220F331F0A94E2F7242BC8
:1026D0002083EE89FF8920810F8C02C0880F991F0B
:1026E0000A94E2F7809582238083DF91CF911F9136
:1026F0000F91FF90EF90DF90CF900895CF92DF92EF
:10270000EF92FF92E9EAFAE01382128288EEC82E75
:1027100083E0D82EE12CF12CC482D582E682F782A8
:1027200064EB79E07183608387EA9CE09587848716
:1027300083E69CE09787868785EC90E0918B808B81
:1027400084EC90E0938B828B80EC90E0958B848B73
:1027500081EC90E0978B868B82EC90E0918F808F5C
:1027600086EC90E0938F828F44E0448F33E0358F86
:1027700027E0268F95E0978F81E080A3E7E8FAE0D5
:1027800013821282C482D582E682F78271836083CB
:10279000AFE1BCE0B587A487ABEDBBE0B787A68708
:1027A000ADECB0E0B18BA08BACECB0E0B38BA28B06
:1027B000A8ECB0E0B58BA48BA9ECB0E0B78BA68BEE
:1027C000AAECB0E0B18FA08FAEECB0E0B38FA28FD7
:1027D000448F358F268F978F80A3E5E6FAE013822A
:1027E0001282C482D582E682F78271836083A7E970
:1027F000BBE0B587A487A3E5BBE0B787A687A5EDB7
:10280000B0E0B18BA08BA4EDB0E0B38BA28BA0EDB8
:10281000B0E0B58BA48BA1EDB0E0B78BA68BA2ED99
:10282000B0E0B18FA08FA6EDB0E0B38FA28F448F40
:10283000358F268F978F80A3E3E4FAE0138212820C
:10284000C482D582E682F782718360836FE07BE089
:10285000758764876BEC7AE07787668765E371E05C
:10286000718B608B64E371E0738B628B60E371E06A
:10287000758B648B61E371E0778B668B62E371E04B
:10288000718F608F66E371E0738F628F448F358F35
:10289000268F978F80A3FF90EF90DF90CF900895C1
:1028A000009729F0BC0180E090E00C946017089537
:1028B000CF93DF9300D01F92CDB7DEB761157105BE
:1028C0008105910579F09B01AC0169833A834B83C3
:1028D0005C830E945C1729813A814B815C810E9454
:1028E000F21703C060E070E0CB010F900F900F90E3
:1028F0000F90DF91CF910895CF92DF92EF92FF92E8
:102900000F931F93621773078407950784F4890157
:102910009A016B017C01C901B8016C197D098E090E
:102920009F090E9458146C0D7D1D8E1D9F1D1F91C7
:102930000F91FF90EF90DF90CF900895DC01FB01A5
:102940008C9190819D9381934150510914161506E5
:10295000BCF30895CF92DF92EF92FF920F931F93F3
:10296000CF93DF93D82FC92F6B018A017901F90129
:102970001995B80197FF0FC0C601F701199597FF88
:1029800002C0C60119C0B8018D2F9C2FF7011995FF
:1029900097FD0EC00FC0C601F7011995181619064C
:1029A00084F3B8018D2F9C2FF701199597FD02C074
:1029B000C80102C08D2F9C2FDF91CF911F910F91E5
:1029C000FF90EF90DF90CF9008952F923F924F921B
:1029D0005F926F927F928F929F92AF92BF92CF92AF
:1029E000DF92EF92FF920F931F93CF93DF93CDB7B8
:1029F000DEB72A970FB6F894DEBF0FBECDBF8C01AD
:102A00007B015A87498769015195419551095E8338
:102A10004D8329853A85200F311F3A83298337E07A
:102A2000E316F10478F589809A8049855A85E49EF9
:102A3000C001E59E900DF49E900D11247801E80EE2
:102A4000F91E8E149F0408F077C13401061517058E
:102A5000A0F4530169857A85A61AB70AB301C501A6
:102A6000F60119951816190644F449855A85B501D9
:102A7000C3010E949E143501E9CF29853A85820E53
:102A8000931EDFCFC7019695879549855A85849F08
:102A90005001859FB00C949FB00C1124A00EB11E64
:102AA000B701615071097C836B8377E0E716F1040D
:102AB00009F44CC08B819C81849F3001859F700CF0
:102AC000949F700C1124600E711E99E2E916F104B6
:102AD000A8F1C70123E0969587952A95E1F7849F91
:102AE0004001859F900C949F900C11241401220C9E
:102AF000331CA801420D531DB801680D791D9601C4
:102B0000C8010E94AA142C01A501480D591D9194D9
:102B1000819491089601B501C501880D991D0E9407
:102B2000AA145C01B301680D791D9601A301C301CC
:102B3000821993090E94AA143C0101C02801960140
:102B4000A301B501C2010E94AA145C0149855A85FE
:102B5000B501C8010E949E1489809A804B815C81D6
:102B600069857A85469F9001479F300D569F300DAD
:102B700011243A8329833901600E711E2301540107
:102B8000140120E030E06A147B0408F43FC0B8016F
:102B9000C5012F833887F60119952F8138851816BE
:102BA0001906A4F1892B61F449855A85B501C10143
:102BB0000E949E1489859A85280E391E21E030E0F6
:102BC000E985FA85AE0EBF1EDECFB801C3012F83A3
:102BD0003887F6011995A30169857A85461B570B3D
:102BE0005C834B832F81388597FD14C0892B61F45A
:102BF00049855A85B201C3010E949E1429853A85F0
:102C0000421A530A21E030E06B807C806A147B0416
:102C1000E0F60FC049855A85B301C5010E949E1494
:102C200049855A85A40EB51E6B807C8021E030E07A
:102C3000AACF232B69F5E985FA85EE9EC001EF9EA8
:102C4000900DFE9E900D11247801E80EF91E8E1451
:102C50009F0408F071C0340106151705A0F4530154
:102C600029853A85A21AB30AB301C501F60119955F
:102C70001816190644F449855A85B501C3010E9406
:102C80009E143501E9CF29853A85820E931EDFCF48
:102C900089819A814D815E81841B950BB801680FF3
:102CA000791F7A8369837501E218F308A101401B3B
:102CB000510BE416F5060CF4A7011416150634F4AE
:102CC000B501641B750BC8010E949E144201861851
:102CD000970849815A814419550989859A85481B65
:102CE000590B8416950608F4A401141615063CF435
:102CF00069817A81641B750BC5010E949E14E98568
:102D0000FA85EE15FF0548F4C701BF010E94A81718
:102D10009601AF01C8010E94E51429853A8528155E
:102D2000390550F409811A8108191909C401B9013A
:102D30000E94A8177B016DCE2A960FB6F894DEBFCD
:102D40000FBECDBFDF91CF911F910F91FF90EF90FC
:102D5000DF90CF90BF90AF909F908F907F906F90BB
:102D60005F904F903F902F9008958F929F92AF92D7
:102D7000BF92CF92DF92EF92FF92CF93DF93EC015D
:102D8000688179818A819B81611571058105910531
:102D900021F464E279ED8BE597E02DE133EF41E03A
:102DA00050E00E94F21749015A019B01AC01A7EAC9
:102DB000B1E40E9419186B017C01ACEEB4EFA501DF
:102DC00094010E942718DC01CB018C0D9D1DAE1DC6
:102DD000BF1DB7FF03C00197A109B048888399833D
:102DE000AA83BB839F77DF91CF91FF90EF90DF9015
:102DF000CF90BF90AF909F908F9008950C94B51690
:102E000080E092E00C94B516A0E0B0E08093000260
:102E100090930102A0930202B093030208958F924F
:102E20009F92AF92BF92CF92DF92EF92FF92CF9399
:102E3000DF93EC01688179818A819B81611571053D
:102E40008105910521F464E279ED8BE597E02DE1B0
:102E500033EF41E050E00E94F21749015A019B0113
:102E6000AC01A7EAB1E40E9419186B017C01ACEE39
:102E7000B4EFA50194010E942718DC01CB018C0D51
:102E80009D1DAE1DBF1DB7FF03C00197A109B0482E
:102E900088839983AA83BB83BC01CD019F77DF918F
:102EA000CF91FF90EF90DF90CF90BF90AF909F9029
:102EB0008F9008950C940F1784E092E00C940F17F4
:102EC00060930402709305028093060290930702B8
:102ED00008951F93FC0199278827BC01E89411915C
:102EE0001032E9F3193010F01E30C8F31B3251F0E4
:102EF0001D3249F4689406C00E949317610F711D3A
:102F0000811D911D119110531A30B0F33EF490952C
:102F10008095709561957F4F8F4F9F4F1F910895BA
:102F2000F8940C943B18592F482F372F262F660FF3
:102F3000771F881F991F660F771F881F991F620FC1
:102F4000731F841F951F660F771F881F991F089591
:102F5000AA1BBB1B51E107C0AA1FBB1FA617B707BF
:102F600010F0A61BB70B881F991F5A95A9F78095DB
:102F70009095BC01CD01089597FB072E16F400949F
:102F800007D077FD09D00E94A81707FC05D03EF4B2
:102F9000909581959F4F0895709561957F4F089505
:102FA000A1E21A2EAA1BBB1BFD010DC0AA1FBB1F4D
:102FB000EE1FFF1FA217B307E407F50720F0A21BBF
:102FC000B30BE40BF50B661F771F881F991F1A942C
:102FD00069F760957095809590959B01AC01BD0156
:102FE000CF010895052E97FB1EF400940E94091846
:102FF00057FD07D00E94D01707FC03D04EF40C9465
:10300000091850954095309521953F4F4F4F5F4F90
:10301000089590958095709561957F4F8F4F9F4F44
:103020000895EE0FFF1F881F8BBF0790F691E02DCC
:1030300019940E942C18A59F900DB49F900DA49FE9
:10304000800D911D11240895B7FF0C9419180E944A
:103050001918821B930B0895A29FB001B39FC00162
:10306000A39F700D811D1124911DB29F700D811DB4
:0A3070001124911D0895F894FFCF7C
:10307A000100000001000000010000000100020040
:10308A0003000400050006000700080009000A0002
:10309A000B000C000D000E000F00100011001200B2
:1030AA001300140015001600170018000500015936
:1030BA006F75722073636F72652069733A200059C5
:1030CA006F7520666F756E64206120736869702160
:1030DA000054686973206D696E6967616D65206F58
:1030EA006E6C79207573657320746865203320725D
:1030FA0069676874204C4544732E00507265737377
:10310A0020616E6420686F6C642061206C69742091
:10311A004C4544277320627574746F6E2077686516
:10312A006E2074686579207475726E206F6E2075D2
:10313A006E74696C2000746865204C45442074756F
:10314A00726E73206F66662E004561636820737520
:10315A00636365737366756C20627574746F6E2031
:10316A00707265737320696E63726561736573202B
:10317A00796F75722073636F726520627920312EC0
:10318A002000466F722061207375636365737366EE
:10319A00756C20736869702068697420676574208B
:1031AA0061626F766520352073636F7265206F6E7A
:1031BA0020456173792C200061626F766520313079
:1031CA00206F6E204D656469756D206F72204861AD
:1031DA0072642E00596F75722073636F726520775F
:1031EA00696C6C20757064617465206F6E207363FE
:1031FA007265656E2E005072657373206C65667415
:10320A006D6F7374206669726520627574746F6E6F
:10321A00207768656E207265616479202D20746854
:10322A0065206C6566746D6F737420677265656E70
:10323A0020004C45442077696C6C207374617920B6
:10324A006F6E20647572696E6720746865206761A5
:10325A006D652E005468652067616D65206C617329
:10326A007473203130207365636F6E64732E204748
:10327A006F6F64206C75636B21005374617274699B
:10328A006E67206D696E6967616D65202E2E2E004E
:10329A004D696E6967616D652066696E69736865F7
:1032AA00642100506F736974696F6E696E673A20A2
:1032BA000A0020202020202020202020202020203A
:1032CA0020202020202020202020202020202020F4
:1032DA0020202020202020202020202020202020E4
:1032EA0020202020204C6567656E6400207C202009
:1032FA0030207C202031207C202032207C2020336A
:10330A00207C202034207C0009090909093F3A2041
:10331A006F6E20796F7572206669656C64206973B7
:10332A0020656D7074792073706F742C206F6E2015
:10333A006F70706F6E656E747320697320756E6935
:10334A0064656E74696669656400202D2D2D2D2DC6
:10335A002D2D2D2D2D2D2D2D2D2D2D2D2D2D2D2D93
:10336A002D2D2D2D2D2D0009090909094F3A206F00
:10337A006E20796F7572206669656C6420697420A5
:10338A00697320706F736974696F6E206F66207934
:10339A006F7572207368697000207C202035207C4C
:1033AA00202036207C202037207C202038207C20BA
:1033BA002039207C000909090909213A206F6E2069
:1033CA00796F7572206669656C64206D65616E73CC
:1033DA0020796F75722064657374726F79656420E1
:1033EA00736869700009090909092D3A206F6E206E
:1033FA00626F7468206669656C6473206D65616EBE
:10340A00732061747461636B206D69737365640002
:10341A00207C203130207C203131207C2031322028
:10342A007C203133207C203134207C0009090909B1
:10343A0009583A206F6E206F70706F6E656E7473E4
:10344A00206669656C64206D65616E73206F7070AB
:10345A006F6E656E74732064657374726F796564D8
:10346A00207368697000207C203135207C20313639
:10347A00207C203137207C203138207C20313920B3
:10348A007C2000207C203230207C203231207C209D
:10349A003232207C203233207C203234207C2000BF
:1034AA00596F7572206F70706F6E656E7427732016
:1034BA006669656C643A2000207368697073206CD1
:1034CA006566742120202020202020202020202012
:1034DA0020202020202020202020202020202020E2
:1034EA002020202020202020202020596F757220A3
:1034FA0063757272656E742072656D61696E696E4C
:10350A00672073686970733A2000207C20200020AD
:10351A0020202020202020202020202020202020A1
:10352A002020202020202020202020202020202091
:10353A0020202020202020202020202020202000A1
:10354A00596F7527766520616C72656164792061AF
:10355A00747461636B6564207468697320706F7337
:10356A006974696F6E2100596F752073756E6B20CF
:10357A007468652073686970206576656E206D6F62
:10358A0072652100596F75722066696E616C2073CD
:10359A00636F72652069733A2000596F75206174F0
:1035AA007461636B656420706F736974696F6E20F0
:1035BA002000596F752068697420612073686970EA
:1035CA002100596F752068697420616C6C207468D9
:1035DA006520736869707320796F752077696E202A
:1035EA0021005468652061747461636B207761738C
:1035FA00206E6F74207375636365737366756C21CF
:10360A000056616C7565206F6620636F756E746510
:10361A00722069733A2000596F7520646964206EBC
:10362A006F74206869742061207368697021005979
:10363A006F75206D69737365642062792000596F14
:10364A007572206F70706F6E656E7420617474612C
:10365A00636B65642000596F757220736869702006
:10366A00776173206869742100596F7572206F70D1
:10367A00706F6E656E7420646964206E6F74206862
:10368A0069742061207368697021005069636B2036
:10369A00796F757220646966666963756C74793AC4
:1036AA00203120666F7220456173792C20322066A2
:1036BA006F72204D656469756D2C203320666F72B8
:1036CA0020486172642E00507265737320746865B5
:1036DA0020456E746572206B657920746F2073744F
:1036EA006172743A00456E7465722074686520636D
:1036FA006F6F7264696E6174657320796F75207774
:10370A0069736820746F2061747461636B3A200076
:10371A0041747461636B696E67200057656C636FEF
:10372A006D6520746F20426174746C65736869708A
:10373A002C20436F6D6D616E6465722E00466F7248
:10374A0020636F6F7264696E617465732C206F6E8B
:10375A006C7920696E70757420696E74656765721C
:10376A00732E20416C6C206E6F6E2D696E746567C6
:10377A0065722000696E707574732077696C6C20AD
:10378A0062652064656661756C74656420746F2077
:10379A00636F6F7264696E617465202730272E002B
:1037AA00496E76616C6964206D6F64652C20706C5B
:1037BA0065617365207265656E7465723A200044AE
:1037CA00656D6F20707572706F7365732000496E36
:1037DA0076616C696420636F6F7264696E61746587
:1037EA00732C20706C65617365207472792061672F
:1037FA0061696E3A2000596F75206C6F737420618D
:10380A006C6C20796F757220736869707321205906
:10381A006F75206C6F736521200009000A000B0088
:10382A0000000000D2103F0F7B10A7108B10C710AA
:00000001FF
