:100000000C9444010C9475010C9475010C947501C9
:100010000C9475010C9475010C9475010C94750188
:100020000C9475010C9475010C9475010C94750178
:100030000C9475010C9475010C9475010C94750168
:100040000C9475010C9475010C9475010C94750158
:100050000C9475010C9475010C9475010C94060BAD
:100060000C9475010C94040F0C94D00F0C94750132
:100070000C9475010C9475010C9475010C94750128
:100080000C9475010C9475010C9475010C94750118
:100090000C94370F0C940F100C9475010C9475018F
:1000A0000C9475010C9475010C9475010C947501F8
:1000B0000C9475010C9475010C9475010C947501E8
:1000C0000C9475010C9475010C9475010C946A0FD5
:1000D0000C944E100C9475010C949D0F0C948D1083
:1000E0000C947501450C480C3B0C3F0C7F0C4C0CE0
:1000F000500C560C5A0C5E0C640C680C6C0C7F0C8B
:10010000720C760C7A0C0C94480C0C9477010C94BD
:100110003B0C0C945E0C0C946C0C0C94450C0C94E5
:10012000680C0C944C0C0C949D0E0C94150D0C94B6
:10013000A80E0C94760C0C945A0C0C94560C0C943F
:1001400054110C94720C0C94510E0C943F0C0C94A2
:10015000610E0C947D0E0C947A0C0C947F0C0C9414
:10016000640C0C94500C0000090A02080B0C0D07DB
:100170000603040100000000000000000000000071
:10018000000000000000000000000000000000006F
:10019000000011100F00000000000000000000002F
:1001A000000000000000000000000000010210201C
:1001B000200808102040102040800201020108049D
:1001C0000201010204081020408080402010080431
:1001D000020180040201804020100804020108048A
:1001E00002010102040810204080010204081020CE
:1001F00040800505050507050808080802020202F7
:100200000A0A0808040404040101010101010101B2
:100210000303030303030303040707070C0C0C0C7D
:100220000C0C0C0C02020202060606060606060666
:100230000B0B0B0B0B0B0B0B0000200023002600FD
:1002400029002C002F0032000001000003010601EC
:10025000090100002200250028002B002E0031009B
:10026000340002010000050108010B01000021001B
:10027000240027002A002D00300033000101000077
:10028000040107010A01541111241FBECFEFD1E26E
:10029000DEBFCDBF00E00CBF19E0A0E0B2E0E6E2B7
:1002A000FCE200E00BBF02C007900D92A83BB10733
:1002B000D9F72CE0A8EBB9E001C01D92A33EB2072C
:1002C000E1F711E0C4E4D1E000E006C021970109A4
:1002D000802FFE010E94E715C334D10780E0080794
:1002E000A9F70E9491090C9466150C940000FB017B
:1002F00040815181FC0120813181CA01821B930B15
:1003000008950E94A70B40E855E260E070E081EAA2
:100310009AE00E94CC1061E089E00E94800C61E0CC
:100320008AE00E94800C61E08BE00E94800C61E01A
:100330008CE00E94800C61E08DE00E94800C60E007
:1003400087E00E94800C61E087E00E94BC0C60E0C6
:1003500084E00E94800C61E084E00E94BC0C60E0BC
:1003600085E00E94800C61E085E00E94BC0C60E0AA
:1003700086E00E94800C61E086E00E94BC0C80E078
:100380000E94090C0C9426127F928F929F92AF923A
:10039000BF92CF92DF92EF92FF920F931F93CF9372
:1003A000DF930E94500B4B015C01C0E0D0E023E0E2
:1003B000C22ED12C0E94500BDC01CB018819990967
:1003C000AA09BB0980319742A105B10508F044C0D4
:1003D0000E94D614B6010E949215FC01EE0FFF1F79
:1003E000EF55F64F61E080810E94BC0C0BE919E0EB
:1003F00091EAE92E99E0F92EF80180810E5F1F4FF6
:100400000E94EC0C892B39F4F7017080872D0E9433
:10041000EC0C019771F0F2E0EF0EF11C29E0013ACB
:10042000120751F764EF71E080E090E00E94810BC9
:10043000C1CF21966FE372E081EA9AE00E94520DEB
:100440004AE050E0BE0181EA9AE00E943A0E60E084
:10045000872D0E94BC0CDFCFCE01DF91CF911F9181
:100460000F91FF90EF90DF90CF90BF90AF909F9053
:100470008F907F9008956FE472E081EA9AE00E9485
:100480006F0D61E672E081EA9AE00E946F0D6BE801
:1004900072E081EA9AE00E94520D66EC72E081EA15
:1004A0009AE00E946F0D69ED72E081EA9AE00E9485
:1004B0006F0D62E173E081EA9AE00E94520D68E4F8
:1004C00073E081EA9AE00E946F0D64E673E081EACE
:1004D0009AE00E946F0D66E873E081EA9AE00E945C
:1004E000520D62EC73E081EA9AE00E946F0D64EEB7
:1004F00073E081EA9AE00E946F0D61E08CE00E9457
:10050000BC0C87E00E94EC0C892BD9F760E08CE0F2
:100510000E94BC0C61E08DE00E94BC0C6AE074E0BB
:1005200081EA9AE00E946F0D0E94C4019093BF0976
:100530008093BE0960E274E081EA9AE00E946F0D48
:1005400060E08CE00E94BC0C60E08DE00E94BC0C7E
:1005500060E089E00E94BC0C60E08AE00E94BC0C74
:1005600060E08BE00E94BC0C8091BE099091BF09B5
:1005700008950F931F93CF93DF9308E21AE0C0E032
:10058000D0E028E130E040E050E060E070E0CB01F6
:100590000E9452129B01E8E2FAE040E050E04C1762
:1005A0005D0741F0A191B1912A173B0731F04F5FF0
:1005B0005F4FF5CFF8017183608321960E5F1F4F67
:1005C000C530D105F1F681EA9AE0DF91CF911F9114
:1005D0000F910C945B0D0F931F93CF93DF9300E16A
:1005E0001AE0C0E0D0E028E130E040E050E060E018
:1005F00070E0CB010E9452129B01E0E1FAE040E082
:1006000050E04C175D0741F0A191B1912A173B07CB
:1006100029F04F5F5F4FF5CF21E001C020E02111AD
:1006200001C0FFCFF801619371938F012196C5300E
:10063000D105C9F681EA9AE0DF91CF911F910F9120
:100640000C945B0D0F931F93CF93DF930AE11AE095
:10065000C0E0D0E028E130E040E050E060E070E051
:10066000CB010E9452129B01EAE1FAE040E050E027
:100670004C175D0741F0A191B1912A173B0731F06A
:100680004F5F5F4FF5CFF8017183608321960E5F56
:100690001F4FC730D105F1F681EA9AE0DF91CF9183
:1006A0001F910F910C945B0DCF93DF93CAE0D2E0C2
:1006B00029E130E040E050E060E070E0CB010E94D2
:1006C0005212660F771FFB01E65FFD4F808191811B
:1006D00028813981318320838993999382E0CC33B7
:1006E000D80731F7DF91CF9108950F931F93CF93E0
:1006F000DF934091100A5091110A6091120A709193
:10070000130AA091140AB091150AC091160AD0914B
:10071000170A0091180A1091190AECEDF9E080E02F
:1007200090E03FE32FE48417950761F08617970761
:1007300049F08A179B0731F08C179D0719F0801735
:10074000910711F4208301C03083019631968931DD
:10075000910549F7DF91CF911F910F910895E5EF32
:10076000F9E08FE381939AE0EE30F907D9F7089525
:10077000CF93DF9363E374E081EA9AE00E94520D25
:1007800062E474E081EA9AE00E946F0D6CE774E025
:1007900081EA9AE00E94520D68E974E081EA9AE0E9
:1007A0000E946F0D6AED74E081EA9AE00E94520D9A
:1007B00067EF74E081EA9AE00E946F0D69E275E0EC
:1007C00081EA9AE00E94520D65E475E081EA9AE0C0
:1007D0000E946F0D6AED74E081EA9AE00E94520D6A
:1007E00065E775E081EA9AE00E946F0D60EA75E0C6
:1007F00081EA9AE00E94520D6CEB75E081EA9AE082
:100800000E946F0D6AED74E081EA9AE00E946F0D1C
:1008100066EF75E081EA9AE00E946F0D6AED74E080
:1008200081EA9AE00E946F0D63E176E081EA9AE046
:100830000E946F0D60E474E081EA9AE00E946F0DFF
:1008400060E376E081EA9AE00E94520D60910E0A20
:1008500070910F0A4AE050E081EA9AE00E94330E5C
:1008600068E476E081EA9AE00E94520D60913C02D1
:1008700070913D024AE050E081EA9AE00E943A0E0F
:10088000C5EFD9E06AE976E081EA9AE00E94520D6C
:10089000699181EA9AE00E94540D89E0CA3FD80725
:1008A00089F76CE276E081EA9AE00E94520D61EAF3
:1008B00076E081EA9AE00E94520DCCEDD9E06AE937
:1008C00076E081EA9AE00E94520D699181EA9AE00D
:1008D0000E94540D89E0C13ED80789F76CE276E0AA
:1008E00081EA9AE00E946F0D6BED74E081EA9AE074
:1008F0000E94520D6FE976E081EA9AE00E94520D63
:100900006BED74E081EA9AE00E946F0DCAEFD9E0C6
:100910006AE976E081EA9AE00E94520D699181EAE3
:100920009AE00E94540D89E0CF3FD80789F76CE226
:1009300076E081EA9AE00E94520D61EA76E081EA6F
:100940009AE00E94520DC1EED9E06AE976E081EAB0
:100950009AE00E94520D699181EA9AE00E94540D3A
:1009600089E0C63ED80789F76CE276E081EA9AE032
:100970000E946F0D6BED74E081EA9AE00E94520DC7
:100980006FE976E081EA9AE00E94520D6BED74E027
:1009900081EA9AE00E946F0DCFEFD9E06AE976E034
:1009A00081EA9AE00E94520D699181EA9AE00E94E0
:1009B000540D8AE0C430D80789F76CE276E081EA0A
:1009C0009AE00E94520D61EA76E081EA9AE00E9484
:1009D000520DC6EED9E06AE976E081EA9AE00E941B
:1009E000520D699181EA9AE00E94540D89E0CB3E54
:1009F000D80789F76CE276E081EA9AE00E946F0DF1
:100A00006BED74E081EA9AE00E94520D6FE976E0A6
:100A100081EA9AE00E94520D6BED74E081EA9AE05F
:100A20000E946F0DC4E0DAE06AE976E081EA9AE0BC
:100A30000E94520D699181EA9AE00E94540D8AE069
:100A4000C930D80789F76CE276E081EA9AE00E9423
:100A5000520D61EA76E081EA9AE00E94520DCBEEF7
:100A6000D9E06AE976E081EA9AE00E94520D699144
:100A700081EA9AE00E94540D89E0C03FD80789F7C7
:100A80006CE276E081EA9AE00E946F0D6BED74E013
:100A900081EA9AE00E94520D6FE976E081EA9AE0DD
:100AA0000E94520D6BED74E081EA9AE00E946F0D96
:100AB000C9E0DAE06AE976E081EA9AE00E94520D44
:100AC000699181EA9AE00E94540D8AE0CE30D807FD
:100AD00089F76CE276E081EA9AE00E94520D61EAC1
:100AE00076E081EA9AE00E94520DC0EFD9E06AE90F
:100AF00076E081EA9AE00E94520D699181EA9AE0DB
:100B00000E94540D89E0C53FD80789F76CE276E072
:100B100081EA9AE00E946F0D6BED74E081EA9AE041
:100B20000E94520D6FE976E081EA9AE00E94520D30
:100B30006BED74E081EA9AE0DF91CF910C946F0D38
:100B40000F931F93CF93DF93EC0180911A0A90913A
:100B50001B0A8E010B50164FC817D90731F510929A
:100B6000BD091092BC09F8018081883591F460EDCF
:100B700076E081EA9AE00E946F0D67EF76E081EA05
:100B80009AE00E946F0D81E090E09093BD09809300
:100B9000BC098091BC099091BD09892B09F0BCC0AA
:100BA0000E943B0264E177E050C080911C0A909162
:100BB0001D0AC817D90721F180911E0A90911F0ABA
:100BC000C817D907E9F08091200A9091210AC81727
:100BD000D907B1F08091220A9091230AC817D9074A
:100BE00079F08091240A9091250AC817D90741F01D
:100BF0008091260A9091270AC817D90709F091C059
:100C00001092BD091092BC09F8018081883591F4D9
:100C100060ED76E081EA9AE00E946F0D67EF76E082
:100C200081EA9AE00E946F0D81E090E09093BD0907
:100C30008093BC098091BC099091BD09892B09F072
:100C40006BC00E943B0261E977E081EA9AE00E9472
:100C5000520D6091BE097091BF094AE050E081EAEF
:100C60009AE00E943A0E8091BE099091BF090A97BE
:100C70000CF446C088E5F801808380910E0A9091BB
:100C80000F0A019790930F0A80930E0A0E94B803EF
:100C90006BED74E081EA9AE00E946F0D6AE277E002
:100CA00081EA9AE00E94520D4AE050E0BE0181EADA
:100CB0009AE00E943A0E62E477E081EA9AE00E94AC
:100CC0006F0D6BED74E081EA9AE00E946F0D81E098
:100CD00090E0909309028093080280910E0A90910F
:100CE0000F0A892BC9F40E94B80362E577E081EA14
:100CF0009AE00E946F0D10920902109208020CC037
:100D000062E777E081EA9AE00E946F0D81E090E06F
:100D10009093090280930802809108029091090241
:100D20005FC08DE2F80180830E94B8036BED74E030
:100D300081EA9AE00E946F0D6AE277E081EA9AE028
:100D40000E94520D4AE050E0BE0181EA9AE00E9402
:100D50003A0E67EA77E081EA9AE00E946F0D6BED48
:100D600074E081EA9AE00E946F0DEAE1FAE0A4ECF7
:100D7000B9E0819191919E01281B390BC90137FF80
:100D800003C09195819591098D939D933AE0E83246
:100D9000F30779F727E731E042E050E067E070E0E1
:100DA00084EC99E00E94BB126FEB77E081EA9AE055
:100DB0000E94520D6091D0097091D1094AE050E033
:100DC00081EA9AE00E943A0E6BED74E081EA9AE0C3
:100DD0000E946F0D81E090E09093090280930802D9
:100DE000DF91CF911F910F9108950F931F93CF9390
:100DF000DF93EC018091280A9091290A8E010B5013
:100E0000164FC817D907E9F080912A0A90912B0A4A
:100E1000C817D907B1F080912C0A90912D0AC817F4
:100E2000D90779F080912E0A90912F0AC817D90717
:100E300041F08091300A9091310AC817D90709F022
:100E400091C01092BD091092BC09F80180818835CB
:100E500091F460ED76E081EA9AE00E946F0D67EF11
:100E600076E081EA9AE00E946F0D81E090E0909335
:100E7000BD098093BC098091BC099091BD09892B63
:100E800009F06BC00E943B0261E977E081EA9AE0D9
:100E90000E94520D6091BE097091BF094AE050E076
:100EA00081EA9AE00E943A0E8091BE099091BF09B2
:100EB00005970CF446C088E5F801808380910E0AFE
:100EC00090910F0A019790930F0A80930E0A0E9447
:100ED000B8036BED74E081EA9AE00E946F0D6AE25C
:100EE00077E081EA9AE00E94520D4AE050E0BE01AC
:100EF00081EA9AE00E943A0E62E477E081EA9AE0A1
:100F00000E946F0D6BED74E081EA9AE00E946F0D14
:100F100081E090E0909309028093080280910E0A8C
:100F200090910F0A892BC9F40E94B80362E577E01B
:100F300081EA9AE00E946F0D109209021092080255
:100F40000CC062E777E081EA9AE00E946F0D81E0D1
:100F500090E090930902809308028091080290919A
:100F600009025FC08DE2F80180830E94B8036BED37
:100F700074E081EA9AE00E946F0D6AE277E081EA0C
:100F80009AE00E94520D4AE050E0BE0181EA9AE0E8
:100F90000E943A0E67EA77E081EA9AE00E946F0DBC
:100FA0006BED74E081EA9AE00E946F0DE8E2FAE0EE
:100FB000A2EDB9E0819191919E01281B390BC901E5
:100FC00037FF03C09195819591098D939D933AE0E8
:100FD000E233F30779F727E731E042E050E065E0DC
:100FE00070E082ED99E00E94BB126FEB77E081EA3E
:100FF0009AE00E94520D6091DA097091DB094AE093
:1010000050E081EA9AE00E943A0E6BED74E081EACA
:101010009AE00E946F0D81E090E090930902809326
:101020000802DF91CF911F910F910895CF93DF9325
:101030008091C0099091C109893191050CF07EC061
:1010400020913C0230913D022115310529F4109286
:1010500009021092080273C0880F991FFC01E65F15
:10106000FD4FC081D1818091100A9091110AFE013B
:10107000E452F64FC817D907E1F08091120A909117
:10108000130AC817D907A9F08091140A9091150A7C
:10109000C817D90771F08091160A9091170AC817DE
:1010A000D90739F08091180A9091190AC817D90701
:1010B000D1F481E280832150310930933D022093A5
:1010C0003C020E94B8036EEC77E081EA9AE00E944D
:1010D000520D4AE050E0BE0181EA9AE00E943A0EC9
:1010E00066EE77E013C08DE280830E94B8036EEC59
:1010F00077E081EA9AE00E94520D4AE050E0BE019A
:1011000081EA9AE00E943A0E69EF77E081EA9AE07C
:101110000E946F0D6BED74E081EA9AE00E946F0D02
:101120008091C0099091C10901969093C109809363
:10113000C009209108023091090201C001C0C90113
:10114000DF91CF910895AF92BF92CF92DF92FF923D
:101150000F931F93CF93DF936C015C01C0E0D0E04D
:101160008B0101501109C017D1077CF481EA9AE084
:101170000E94510E18161906B4F781EA9AE00E94EF
:101180007D0EF82E8DE0F8120DC0CC0DDD1D1882FD
:10119000DF91CF911F910F91FF90DF90CF90BF9083
:1011A000AF9008956F2D81EA9AE00E94810DF501BC
:1011B000F1925F012196D7CFCF93DF93CDB7DEB702
:1011C000A0970FB6F894DEBF0FBECDBF81EA9AE0BC
:1011D0000E945B0D6BE178E081EA9AE00E946F0D5E
:1011E00060E270E0CE0101960E94A308CE01019654
:1011F0000E943F15A0960FB6F894DEBF0FBECDBF7C
:10120000DF91CF91089581EA9AE00E945B0D67E536
:1012100078E081EA9AE00E946F0D81EA9AE00E94EC
:10122000510E18161906CCF781EA9AE00E947D0E3D
:101230008D3099F70895AF92BF92CF92DF92FF92CF
:101240000F931F93CF93DF936C018B0165E778E0D9
:1012500081EA9AE00E94520D5601C0E0D0E00150B0
:101260001109C017D1077CF481EA9AE00E94510E5F
:1012700018161906B4F781EA9AE00E947D0EF82E3E
:101280008DE0F8120DC0CC0DDD1D1882DF91CF91DD
:101290001F910F91FF90DF90CF90BF90AF90089576
:1012A0006F2D81EA9AE00E94540DF501F1925F01E1
:1012B0002196D7CFCF93DF93CDB7DEB7A0970FB6E8
:1012C000F894DEBF0FBECDBF60E270E0CE010196A4
:1012D0000E941B0981EA9AE00E945B0D60EA78E0B7
:1012E00081EA9AE00E94520DCE0101960E943F15BC
:1012F0004AE050E081EA9AE00E94330E6BE174E02C
:1013000081EA9AE00E946F0DCE0101960E943F157E
:10131000A0960FB6F894DEBF0FBECDBFDF91CF9180
:1013200008950F931F93CF93DF930E9481016BEA7F
:1013300078E081EA9AE00E946F0D6DEC78E081EA36
:101340009AE00E94520D64E079E081EA9AE00E94FE
:101350006F0D0E94DC08FB01AB0141505109433085
:10136000510508F121E030E03093BB092093BA0920
:101370002091BA093091BB0921303105A1F460E315
:1013800079E081EA9AE00E946F0D0E94DC08FB017F
:10139000AB01415051094330510550F71092BB0940
:1013A0001092BA09E5CFE130F10509F05CC085E0A3
:1013B00090E090930F0A80930E0A0E94AF030E9460
:1013C000B9020E94EB020E9454030E9475030E941E
:1013D000B8030E940309C2E0D0E080910802909116
:1013E0000902019709F007C12091C2093091C30990
:1013F0002F5F3F4F3093C3092093C209C901BE013B
:101400000E9492158C01019731F50E945A09AB0197
:1014100069317105E0F01093B9090093B809209182
:10142000B8093091B9092130310589F46FE479E0C8
:1014300081EA9AE00E946F0D0E945A09AB0169315E
:10144000710568F71092B9091092B809E8CFCA017E
:101450000E94F506C2CF20FDC0CF0E941608892B3E
:1014600009F0BBCFA7C0E230F10509F05AC087E010
:1014700090E090930F0A80930E0A0E94AF030E949F
:1014800022030E94EB020E9454030E9475030E94F3
:10149000B8030E94030902E010E0C0910802D09155
:1014A0000902C130D10509F0A6C08091C20990910E
:1014B000C30901969093C3098093C20980FD26C099
:1014C0000E945A09AB0169317105E0F0D093B90966
:1014D000C093B8092091B8093091B909213031057C
:1014E00089F46FE479E081EA9AE00E946F0D0E942E
:1014F0005A09AB016931710568F71092B909109268
:10150000B809E8CFCA010E94A005C7CFB8010E9460
:101510009215019711F60E941608892B09F0BDCF8C
:1015200049C0339709F067C087E090E090930F0AB5
:1015300080930E0A0E94AF030E9422030E94EB02D6
:101540000E9454030E9475030E94B8030E9403097D
:1015500002E010E014C00E945A09AB016931710524
:1015600058F0D093B909C093B8092091B8093091C7
:10157000B9092130310549F1CA010E94A005C09185
:101580000802D0910902C130D105A9F58091C209A4
:101590009091C30901969093C3098093C20980FF7B
:1015A000DACFB8010E949215019749F70E941608F8
:1015B000892BE1F467E779E081EA9AE00E946F0DF8
:1015C000109209021092080216C06FE479E081EAD5
:1015D0009AE00E946F0D0E945A09AB0169317105B2
:1015E00020F61092B9091092B809BFCF0E941608D0
:1015F000892B29F6DFCF81EA9AE00E949D0E80E0D8
:1016000090E0DF91CF911F910F9108951F920F925B
:101610000FB60F9211242F933F938F939F93AF9305
:10162000BF938091330A9091340AA091350AB0910A
:10163000360A3091320A23E0230F2D3720F4019629
:10164000A11DB11D05C026E8230F0296A11DB11DE5
:101650002093320A8093330A9093340AA093350A78
:10166000B093360A8091370A9091380AA091390ACE
:10167000B0913A0A0196A11DB11D8093370A90934B
:10168000380AA093390AB0933A0ABF91AF919F915B
:101690008F913F912F910F900FBE0F901F90189533
:1016A0002FB7F8946091330A7091340A8091350A0B
:1016B0009091360A2FBF08953FB7F8948091370A6A
:1016C0009091380AA091390AB0913A0A26B5A89BA0
:1016D00005C02F3F19F00196A11DB11D3FBFBA2FC4
:1016E000A92F982F8827820F911DA11DB11DBC0124
:1016F000CD0142E0660F771F881F991F4A95D1F7E9
:101700000895CF92DF92EF92FF92CF93DF936B0118
:101710007C010E945C0BEB01C114D104E104F104D3
:1017200079F00E945C0B6C1B7D0B683E7340A0F34C
:1017300081E0C81AD108E108F108C851DC4FECCFAC
:10174000DF91CF91FF90EF90DF90CF900895789444
:1017500084B5826084BD84B5816084BD85B58260B6
:1017600085BD85B5816085BDEEE6F0E08081816054
:101770008083E1E8F0E01082808182608083808154
:1017800081608083E0E8F0E0808181608083E1EB2C
:10179000F0E0808184608083E0EBF0E08081816014
:1017A0008083E1E9F0E080818260808380818160D4
:1017B0008083E0E9F0E0808181608083E1EAF0E00D
:1017C000808182608083808181608083E0EAF0E0B4
:1017D000808181608083E1E2F1E0808182608083AA
:1017E000808181608083E0E2F1E08081816080839C
:1017F000EAE7F0E08081846080838081826080837A
:101800008081816080838081806880831092C100A4
:101810000895863308F0865390917B00282F287016
:10182000977F922B90937B00877020913E0290E4EB
:10183000299F90011124822B80937C0080917A0053
:10184000806480937A0080917A0086FDFCCF80913D
:1018500078002091790090E0922B089590E0FC01AF
:101860003197E131F10508F04AC08827EE58FF4F63
:101870008F4F0C94E715809180008F7703C0809183
:1018800080008F7D80938000089584B58F7702C09B
:1018900084B58F7D84BD08958091B0008F7703C09B
:1018A0008091B0008F7D8093B0000895809190006A
:1018B0008F7707C0809190008F7D03C0809190004A
:1018C000877F8093900008958091A0008F7707C054
:1018D0008091A0008F7D03C08091A000877F8093BE
:1018E000A0000895809120018F7707C0809120018A
:1018F0008F7D03C080912001877F80932001089510
:10190000CF93DF9390E0FC01E455FE4F2491FC015E
:10191000EE50FE4F8491882361F190E0880F991F6B
:10192000FC01E459FD4FC591D491FC01EE5AFD4FE5
:10193000A591B491611109C09FB7F8948881209551
:1019400082238883EC912E230BC0623061F49FB711
:10195000F8943881822F809583238883EC912E2BF5
:101960002C939FBF06C08FB7F894E8812E2B288355
:101970008FBFDF91CF9108951F93CF93DF93282FCF
:1019800030E0F901EA59FE4F8491F901E455FE4F28
:10199000D491F901EE50FE4FC491CC23C9F0162F1B
:1019A00081110E942E0CEC2FF0E0EE0FFF1FEE5A7B
:1019B000FD4FA591B4918FB7F894111105C09C917A
:1019C000ED2FE095E92302C0EC91ED2BEC938FBF56
:1019D000DF91CF911F910895CF93DF93282F30E0AF
:1019E000F901EA59FE4F8491F901E455FE4FD49173
:1019F000F901EE50FE4FC491CC2391F081110E9469
:101A00002E0CEC2FF0E0EE0FFF1FE85CFD4FA591D0
:101A1000B491EC91ED2381E090E021F480E002C0EC
:101A200080E090E0DF91CF910895CF92DF92EF9226
:101A3000FF920F931F93CF93DF936C01EB017B0118
:101A4000E40EF51E00E010E0CE15DF0561F06991AF
:101A5000D601ED91FC910190F081E02DC601199520
:101A6000080F191FF1CFC801DF91CF911F910F917E
:101A7000FF90EF90DF90CF9008956115710579F098
:101A8000FB0101900020E9F73197AF01461B570B8E
:101A9000DC01ED91FC910280F381E02D199480E04E
:101AA00090E008950C943D0DDC01ED91FC910190C6
:101AB000F081E02D19940F931F93CF93DF93EC01E6
:101AC0006DE00E94540D8C016AE0CE010E94540D1D
:101AD000800F911FDF91CF911F910F9108950F9368
:101AE0001F93CF93DF93EC010E943D0D8C01CE013B
:101AF0000E945B0D800F911FDF91CF911F910F917D
:101B000008950F931F93CF93DF93EC010E94540D20
:101B10008C01CE010E945B0D800F911FDF91CF9150
:101B20001F910F9108958F929F92AF92BF92CF9283
:101B3000DF92EF92FF920F931F93CF93DF93CDB776
:101B4000DEB7A1970FB6F894DEBF0FBECDBF6C0114
:101B5000142FE52FCB01022F19A2223008F40AE03E
:101B60007E0121E2E20EF11C802E912CA12CB12CE1
:101B7000612F7E2FA50194010E94A615029F1019C6
:101B8000112481E0E81AF1081A3014F4105D01C044
:101B9000195CF7011083122FE32FCA01232B242B8A
:101BA000252B31F7B701C6010E943D0DA1960FB656
:101BB000F894DEBF0FBECDBFDF91CF911F910F9183
:101BC000FF90EF90DF90CF90BF90AF909F908F905D
:101BD0000895CF92DF92EF92FF920F931F93CF93CE
:101BE000DF93EC016A017B012115310579F4E8816D
:101BF000F9810190F081E02D642FDF91CF911F9149
:101C00000F91FF90EF90DF90CF9019942A3031051B
:101C1000E9F477FF1AC06DE20E94540D8C0144274D
:101C20005527BA014C195D096E097F092AE0CE01DA
:101C30000E94930D800F911FDF91CF911F910F9103
:101C4000FF90EF90DF90CF9008952AE0B701A601B2
:101C5000CE01DF91CF911F910F91FF90EF90DF9018
:101C6000CF900C94930D9A01AB01770F660B770B15
:101C70000C94E90D0F931F93CF93DF93EC019A011E
:101C8000AB01770F660B770B0E94E90D8C01CE013B
:101C90000E945B0D800F911FDF91CF911F910F91DB
:101CA0000895FC0124853585F901E05CFF4F8081B2
:101CB0009181329620813181821B930B8F739927FA
:101CC0000895DC011C96ED91FC911D97DF01A05C4D
:101CD000BF4F2D913C91119712968D919C91119728
:101CE0002817390739F08D919C91E80FF91F8081F1
:101CF00090E008958FEF9FEF0895FC01A485B585CE
:101D0000FD01E05CFF4F208131813296808191811D
:101D10002817390779F080819181A80FB91F8C911C
:101D2000208131812F5F3F4F2F73332731832083F1
:101D300090E008958FEF9FEF0895FC0181A1882323
:101D400029F0A489B5898C9186FFFBCF11A2089553
:101D50000F931F93CF93DF93FC01A685B7858D0169
:101D6000005C1F4FE8018881998101968F73992744
:101D7000AD014E5B5F4FEA012881398182179307DD
:101D8000D1F3E80128813981A20FB31F6C93A68596
:101D9000B785A05CBF4F11969C938E93A689B78997
:101DA0002C9181E090E0078C02C0880F991F0A9463
:101DB000E2F7822B8C9381E081A30488F589E02DE2
:101DC00080818064808381E090E0DF91CF911F91DA
:101DD0000F910895FB01E05CFF4F208131812F5F5F
:101DE0003F4F2F733327DB01AE5BBF4F4D915C91AB
:101DF0002417350741F040815181DB01A40FB51F45
:101E00008C933183208308951F920F920FB60F9207
:101E100011240BB60F922F933F934F935F936F93C1
:101E20007F938F939F93AF93BF93EF93FF93809193
:101E3000C00082FD07C08091C6006FE97CE00E946F
:101E4000EA0E02C08091C600FF91EF91BF91AF9161
:101E50009F918F917F916F915F914F913F912F91C2
:101E60000F900BBE0F900FBE0F901F9018951F92F2
:101E70000F920FB60F9211240BB60F922F933F9330
:101E80004F935F936F937F938F939F93AF93BF9382
:101E9000EF93FF938091C80082FD07C08091CE0030
:101EA00067E17CE00E94EA0E02C08091CE00FF91C3
:101EB000EF91BF91AF919F918F917F916F915F91C2
:101EC0004F913F912F910F900BBE0F900FBE0F902F
:101ED0001F9018951F920F920FB60F9211240BB6F8
:101EE0000F922F933F934F935F936F937F938F93B3
:101EF0009F93AF93BF93EF93FF938091D00082FDA8
:101F000007C08091D6006FE87BE00E94EA0E02C015
:101F10008091D600FF91EF91BF91AF919F918F91EA
:101F20007F916F915F914F913F912F910F900BBED9
:101F30000F900FBE0F901F9018951F920F920FB623
:101F40000F9211240BB60F922F933F934F935F93F1
:101F50006F937F938F939F93AF93BF93EF93FF9371
:101F60008091300182FD07C08091360167E07BE0FF
:101F70000E94EA0E02C080913601FF91EF91BF915D
:101F8000AF919F918F917F916F915F914F913F9111
:101F90002F910F900BBE0F900FBE0F901F901895B2
:101FA0001F920F920FB60F9211240BB60F922F9320
:101FB0003F938F939F93EF93FF9320919B0C3091CE
:101FC0009C0C80919D0C90919E0C2817390731F440
:101FD0008091C1008F7D8093C10014C0E0919D0C61
:101FE000F0919E0CE55AF34F208180919D0C9091C9
:101FF0009E0C01968F73992790939E0C80939D0C55
:102000002093C600FF91EF919F918F913F912F9167
:102010000F900BBE0F900FBE0F901F9018951F9240
:102020000F920FB60F9211240BB60F922F933F937E
:102030008F939F93EF93FF932091130C3091140C87
:102040008091150C9091160C2817390731F4809166
:10205000C9008F7D8093C90014C0E091150CF091E8
:10206000160CED52F44F20818091150C9091160CB6
:1020700001968F7399279093160C8093150C2093DB
:10208000CE00FF91EF919F918F913F912F910F90F3
:102090000BBE0F900FBE0F901F9018951F920F92BE
:1020A0000FB60F9211240BB60F922F933F938F937D
:1020B0009F93EF93FF9320918B0B30918C0B80912A
:1020C0008D0B90918E0B2817390731F48091D10038
:1020D0008F7D8093D10014C0E0918D0BF0918E0B19
:1020E000E55BF44F208180918D0B90918E0B0196D2
:1020F0008F73992790938E0B80938D0B2093D6002E
:10210000FF91EF919F918F913F912F910F900BBE77
:102110000F900FBE0F901F9018951F920F920FB641
:102120000F9211240BB60F922F933F938F939F938F
:10213000EF93FF932091030B3091040B8091050BDB
:102140009091060B2817390731F4809131018F7D6A
:102150008093310114C0E091050BF091060BED5313
:10216000F54F20818091050B9091060B01968F739E
:1021700099279093060B8093050B20933601FF91CE
:10218000EF919F918F913F912F910F900BBE0F90E8
:102190000FBE0F901F901895CF92DF92EF92FF9293
:1021A0000F931F93CF93DF93EC016A017B014115DD
:1021B000514E6105710509F1EC89FD8981E090E0DE
:1021C00008A002C0880F991F0A94E2F7808360E09C
:1021D00079E08DE390E0A70196010E94A6158901A0
:1021E0009A01015011092109310936952795179552
:1021F0000795980101151041A8F0EC89FD8910821E
:1022000060E874E88EE190E0A70196010E94A615AF
:10221000DA01C9010197A109B109B695A79597956A
:1022200087959C01E889F9893083EA89FB892083B5
:1022300019A2EE89FF89408181E090E09C010C8C1D
:1022400002C0220F331F0A94E2F7242B2083EE8969
:10225000FF8940819C010D8C02C0220F331F0A941C
:10226000E2F7242B2083EE89FF8940819C010E8CAC
:1022700002C0220F331F0A94E2F7242B2083EE8939
:10228000FF8920810F8C02C0880F991F0A94E2F702
:10229000809582238083DF91CF911F910F91FF90D2
:1022A000EF90DF90CF900895CF92DF92EF92FF9260
:1022B000E1EAFAE01382128288EEC82E83E0D82E7B
:1022C000E12CF12CC482D582E682F7826BEA79E0B8
:1022D000718360838FE99CE0958784878BE59CE020
:1022E0009787868785EC90E0918B808B84EC90E0DB
:1022F000938B828B80EC90E0958B848B81EC90E0CB
:10230000978B868B82EC90E0918F808F86EC90E0AB
:10231000938F828F44E0448F33E0358F27E0268F00
:1023200095E0978F81E080A3EFE7FAE013821282B5
:10233000C482D582E682F78271836083A7E1BCE024
:10234000B587A487A3EDBBE0B787A687ADECB0E067
:10235000B18BA08BACECB0E0B38BA28BA8ECB0E05F
:10236000B58BA48BA9ECB0E0B78BA68BAAECB0E040
:10237000B18FA08FAEECB0E0B38FA28F448F358FBA
:10238000268F978F80A3EDE5FAE013821282C48234
:10239000D582E682F78271836083AFE8BBE0B587C0
:1023A000A487ABE4BBE0B787A687A5EDB0E0B18B0F
:1023B000A08BA4EDB0E0B38BA28BA0EDB0E0B58B09
:1023C000A48BA1EDB0E0B78BA68BA2EDB0E0B18FEE
:1023D000A08FA6EDB0E0B38FA28F448F358F268FEC
:1023E000978F80A3EBE3FAE013821282C482D58236
:1023F000E682F7827183608367E07BE0758764879C
:1024000063EC7AE07787668765E371E0718B608BB8
:1024100064E371E0738B628B60E371E0758B648BB6
:1024200061E371E0778B668B62E371E0718F608F9F
:1024300066E371E0738F628F448F358F268F978F9D
:1024400080A3FF90EF90DF90CF900895009729F040
:10245000BC0180E090E00C9436150895CF93DF9393
:1024600000D01F92CDB7DEB76115710581059105CA
:1024700079F09B01AC0169833A834B835C830E94B2
:10248000321529813A814B815C810E94C81503C0B5
:1024900060E070E0CB010F900F900F900F90DF91F4
:1024A000CF910895CF92DF92EF92FF920F931F93F7
:1024B000621773078407950784F489019A016B01F9
:1024C0007C01C901B8016C197D098E099F090E9420
:1024D0002E126C0D7D1D8E1D9F1D1F910F91FF9063
:1024E000EF90DF90CF900895DC01FB018C919081FB
:1024F0009D9381934150510914161506BCF308951C
:10250000CF92DF92EF92FF920F931F93CF93DF93BF
:10251000D82FC92F6B018A017901F9011995B801EA
:1025200097FF0FC0C601F701199597FF02C0C601BA
:1025300019C0B8018D2F9C2FF701199597FD0EC07A
:102540000FC0C601F70119951816190684F3B801D2
:102550008D2F9C2FF701199597FD02C0C80102C06D
:102560008D2F9C2FDF91CF911F910F91FF90EF90B6
:10257000DF90CF9008952F923F924F925F926F928B
:102580007F928F929F92AF92BF92CF92DF92EF9203
:10259000FF920F931F93CF93DF93CDB7DEB72A97A8
:1025A0000FB6F894DEBF0FBECDBF8C017B015A87FA
:1025B000498769015195419551095E834D8329856C
:1025C0003A85200F311F3A83298337E0E316F1045F
:1025D00078F589809A8049855A85E49EC001E59EF8
:1025E000900DF49E900D11247801E80EF91E8E14C2
:1025F0009F0408F077C1340106151705A0F45301B4
:1026000069857A85A61AB70AB301C501F60119953D
:102610001816190644F449855A85B501C3010E946C
:1026200074123501E9CF29853A85820E931EDFCFDA
:10263000C7019695879549855A85849F5001859F46
:10264000B00C949FB00C1124A00EB11EB7016150C4
:1026500071097C836B8377E0E716F10409F44CC0C1
:102660008B819C81849F3001859F700C949F700C9E
:102670001124600E711E99E2E916F104A8F1C70158
:1026800023E0969587952A95E1F7849F4001859FE1
:10269000900C949F900C11241401220C331CA8015F
:1026A000420D531DB801680D791D9601C8010E94A5
:1026B00080122C01A501480D591D91948194910817
:1026C0009601B501C501880D991D0E9480125C011B
:1026D000B301680D791D9601A301C3018219930905
:1026E0000E9480123C0101C028019601A301B5019E
:1026F000C2010E9480125C0149855A85B501C8015A
:102700000E94741289809A804B815C8169857A85E8
:10271000469F9001479F300D569F300D11243A83FC
:1027200029833901600E711E23015401140120E038
:1027300030E06A147B0408F43FC0B801C5012F8360
:102740003887F60119952F81388518161906A4F1D6
:10275000892B61F449855A85B501C1010E94741223
:1027600089859A85280E391E21E030E0E985FA85B1
:10277000AE0EBF1EDECFB801C3012F833887F6012E
:102780001995A30169857A85461B570B5C834B839A
:102790002F81388597FD14C0892B61F449855A85AE
:1027A000B201C3010E94741229853A85421A530A64
:1027B00021E030E06B807C806A147B04E0F60FC07F
:1027C00049855A85B301C5010E94741249855A850D
:1027D000A40EB51E6B807C8021E030E0AACF232BB5
:1027E00069F5E985FA85EE9EC001EF9E900DFE9E8B
:1027F000900D11247801E80EF91E8E149F0408F044
:1028000071C0340106151705A0F4530129853A85D6
:10281000A21AB30AB301C501F601199518161906D3
:1028200044F449855A85B501C3010E9474123501EB
:10283000E9CF29853A85820E931EDFCF89819A815F
:102840004D815E81841B950BB801680F791F7A83D7
:1028500069837501E218F308A101401B510BE416CE
:10286000F5060CF4A7011416150634F4B501641B23
:10287000750BC8010E94741242018618970849819D
:102880005A814419550989859A85481B590B841624
:10289000950608F4A401141615063CF469817A81A2
:1028A000641B750BC5010E947412E985FA85EE154B
:1028B000FF0548F4C701BF010E947E159601AF01D4
:1028C000C8010E94BB1229853A852815390550F4A4
:1028D00009811A8108191909C401B9010E947E15DC
:1028E0007B016DCE2A960FB6F894DEBF0FBECDBF2A
:1028F000DF91CF911F910F91FF90EF90DF90CF90DC
:10290000BF90AF909F908F907F906F905F904F900F
:102910003F902F9008958F929F92AF92BF92CF9247
:10292000DF92EF92FF92CF93DF93EC016881798180
:102930008A819B81611571058105910521F464E20D
:1029400079ED8BE597E02DE133EF41E050E00E9417
:10295000C81549015A019B01AC01A7EAB1E40E94E4
:10296000EF156B017C01ACEEB4EFA50194010E9460
:10297000FD15DC01CB018C0D9D1DAE1DBF1DB7FFEC
:1029800003C00197A109B04888839983AA83BB83B8
:102990009F77DF91CF91FF90EF90DF90CF90BF9026
:1029A000AF909F908F9008950C948B1480E092E0EC
:1029B0000C948B14A0E0B0E080930002909301028D
:1029C000A0930202B093030208958F929F92AF9258
:1029D000BF92CF92DF92EF92FF92CF93DF93EC0101
:1029E000688179818A819B816115710581059105D5
:1029F00021F464E279ED8BE597E02DE133EF41E0DE
:102A000050E00E94C81549015A019B01AC01A7EA98
:102A1000B1E40E94EF156B017C01ACEEB4EFA501AF
:102A200094010E94FD15DC01CB018C0D9D1DAE1D96
:102A3000BF1DB7FF03C00197A109B04888839983E0
:102A4000AA83BB83BC01CD019F77DF91CF91FF901B
:102A5000EF90DF90CF90BF90AF909F908F900895B0
:102A60000C94E51484E092E00C94E5146093040265
:102A700070930502809306029093070208951F93B6
:102A8000FC0199278827BC01E89411911032E9F3E1
:102A9000193010F01E30C8F31B3251F01D3249F4CA
:102AA000689406C00E946915610F711D811D911DFA
:102AB000119110531A30B0F33EF4909580957095B3
:102AC00061957F4F8F4F9F4F1F910895F8940C94FD
:102AD0001116592F482F372F262F660F771F881F63
:102AE000991F660F771F881F991F620F731F841F1E
:102AF000951F660F771F881F991F0895AA1BBB1B80
:102B000051E107C0AA1FBB1FA617B70710F0A61BED
:102B1000B70B881F991F5A95A9F780959095BC010E
:102B2000CD01089597FB072E16F4009407D077FD8A
:102B300009D00E947E1507FC05D03EF49095819542
:102B40009F4F0895709561957F4F0895A1E21A2EC9
:102B5000AA1BBB1BFD010DC0AA1FBB1FEE1FFF1F41
:102B6000A217B307E407F50720F0A21BB30BE40B91
:102B7000F50B661F771F881F991F1A9469F76095D8
:102B80007095809590959B01AC01BD01CF01089592
:102B9000052E97FB1EF400940E94DF1557FD07D009
:102BA0000E94A61507FC03D04EF40C94DF15509537
:102BB0004095309521953F4F4F4F5F4F0895909529
:102BC0008095709561957F4F8F4F9F4F0895EE0FC1
:102BD000FF1F881F8BBF0790F691E02D19940E946C
:102BE0000216A59F900DB49F900DA49F800D911D7E
:102BF00011240895B7FF0C94EF150E94EF15821B66
:102C0000930B0895A29FB001B39FC001A39F700DC5
:102C1000811D1124911DB29F700D811D1124911DE4
:062C20000895F894FFCFB7
:102C26000100000001000000010000000100020098
:102C360003000400050006000700080009000A005A
:102C46000B000C000D000E000F001000110012000A
:102C5600130014001500160017001800050001598E
:102C66006F75722073636F72652069733A2000591D
:102C76006F7520666F756E642061207368697021B8
:102C86000054686973206D696E6967616D65206FB0
:102C96006E6C7920757365732074686520332072B5
:102CA60069676874204C4544732E005072657373CF
:102CB60020616E6420686F6C642061206C697420EA
:102CC6004C4544277320627574746F6E207768656F
:102CD6006E2074686579207475726E206F6E20752B
:102CE6006E74696C2000746865204C4544207475C8
:102CF600726E73206F66662E004561636820737579
:102D0600636365737366756C20627574746F6E2089
:102D1600707265737320696E637265617365732083
:102D2600796F75722073636F726520627920312E18
:102D36002000466F72206120737563636573736646
:102D4600756C2073686970206869742067657420E3
:102D560061626F766520352073636F7265206F6ED2
:102D660020456173792C200061626F7665203130D1
:102D7600206F6E204D656469756D206F7220486105
:102D860072642E00596F75722073636F72652077B7
:102D9600696C6C20757064617465206F6E20736356
:102DA6007265656E2E005072657373206C6566746D
:102DB6006D6F7374206669726520627574746F6EC8
:102DC600207768656E207265616479202D207468AD
:102DD60065206C6566746D6F737420677265656EC9
:102DE60020004C45442077696C6C2073746179200F
:102DF6006F6E20647572696E6720746865206761FE
:102E06006D652E005468652067616D65206C617381
:102E16007473203130207365636F6E64732E2047A0
:102E26006F6F64206C75636B2100537461727469F3
:102E36006E67206D696E6967616D65202E2E2E00A6
:102E46004D696E6967616D652066696E697368654F
:102E5600642100506F736974696F6E696E673A20FA
:102E66000A00202020202020202020202020202092
:102E7600202020202020202020202020202020204C
:102E8600202020202020202020202020202020203C
:102E960020202020204C6567656E6400207C202061
:102EA60030207C202031207C202032207C202033C2
:102EB600207C202034207C0009090909093F3A209A
:102EC6006F6E20796F7572206669656C6420697310
:102ED60020656D7074792073706F742C206F6E206E
:102EE6006F70706F6E656E747320697320756E698E
:102EF60064656E74696669656400202D2D2D2D2D1F
:102F06002D2D2D2D2D2D2D2D2D2D2D2D2D2D2D2DEB
:102F16002D2D2D2D2D2D0009090909094F3A206F58
:102F26006E20796F7572206669656C6420697420FD
:102F3600697320706F736974696F6E206F6620798C
:102F46006F7572207368697000207C202035207CA4
:102F5600202036207C202037207C202038207C2012
:102F66002039207C000909090909213A206F6E20C1
:102F7600796F7572206669656C64206D65616E7324
:102F860020796F75722064657374726F7965642039
:102F9600736869700009090909092D3A206F6E20C6
:102FA600626F7468206669656C6473206D65616E16
:102FB600732061747461636B206D6973736564005B
:102FC600207C203130207C203131207C2031322081
:102FD6007C203133207C203134207C00090909090A
:102FE60009583A206F6E206F70706F6E656E74733D
:102FF600206669656C64206D65616E73206F707004
:103006006F6E656E74732064657374726F79656430
:10301600207368697000207C203135207C20313691
:10302600207C203137207C203138207C203139200B
:103036007C2000207C203230207C203231207C20F5
:103046003232207C203233207C203234207C200017
:10305600596F7572206F70706F6E656E742773206E
:103066006669656C643A2000207368697073206C29
:10307600656674212020202020202020202020206A
:10308600202020202020202020202020202020203A
:103096002020202020202020202020596F757220FB
:1030A60063757272656E742072656D61696E696EA4
:1030B600672073686970733A2000207C2020002006
:1030C60020202020202020202020202020202020FA
:1030D60020202020202020202020202020202020EA
:1030E60020202020202020202020202020202000FA
:1030F600596F7527766520616C7265616479206108
:10310600747461636B6564207468697320706F738F
:103116006974696F6E2100596F752073756E6B2027
:103126007468652073686970206576656E206D6FBA
:1031360072652100596F75722066696E616C207325
:10314600636F72652069733A2000596F7520617448
:103156007461636B656420706F736974696F6E2048
:103166002000596F75206869742061207368697042
:103176002100596F752068697420616C6C20746831
:103186006520736869707320796F752077696E2082
:1031960021005468652061747461636B20776173E4
:1031A600206E6F74207375636365737366756C2127
:1031B6000056616C7565206F6620636F756E746569
:1031C600722069733A2000596F7520646964206E15
:1031D6006F742068697420612073686970210059D2
:1031E6006F75206D69737365642062792000596F6D
:1031F6007572206F70706F6E656E74206174746185
:10320600636B65642000596F75722073686970205E
:10321600776173206869742100596F7572206F7029
:10322600706F6E656E7420646964206E6F742068BA
:1032360069742061207368697021005069636B208E
:10324600796F757220646966666963756C74793A1C
:10325600203120666F7220456173792C20322066FA
:103266006F72204D656469756D2C203320666F7210
:1032760020486172642E005072657373207468650D
:1032860020456E746572206B657920746F207374A7
:103296006172743A00456E746572207468652063C5
:1032A6006F6F7264696E6174657320796F752077CC
:1032B60069736820746F2061747461636B3A2000CF
:1032C60041747461636B696E67200057656C636F48
:1032D6006D6520746F20426174746C6573686970E3
:1032E6002C20436F6D6D616E6465722E00466F72A1
:1032F60020636F6F7264696E617465732C206F6EE4
:103306006C7920696E70757420696E746567657274
:10331600732E20416C6C206E6F6E2D696E7465671E
:1033260065722000696E707574732077696C6C2005
:1033360062652064656661756C74656420746F20CF
:10334600636F6F7264696E617465202730272E0083
:10335600496E76616C6964206D6F64652C20706CB3
:1033660065617365207265656E7465723A20004901
:103376006E76616C696420636F6F7264696E6174E6
:1033860065732C20706C6561736520747279206199
:103396006761696E3A2000596F75206C6F737420EF
:1033A600616C6C20796F7572207368697073212067
:1033B600596F75206C6F73652120000400050006A7
:1033C6000009000A000B0000000000A80E150D51B0
:0833D6000E7D0E610E9D0E003C
:00000001FF
