:100000000C9483000C94B4000C94B4000C94B400D1
:100010000C94B4000C94B4000C94B4000C94B40090
:100020000C94B4000C94B4000C94B4000C94B40080
:100030000C94B4000C94B4000C94B4000C94B40070
:100040000C94B4000C94B4000C94B4000C94B40060
:100050000C94B4000C94B4000C94B4000C949C095F
:100060000C94B4000C945C0C0C94280D0C94B4000B
:100070000C94B4000C94B4000C94B4000C94B40030
:100080000C94B4000C94B4000C94B4000C94B40020
:100090000C948F0C0C94670D0C94B4000C94B40069
:1000A0000C94B4000C94B4000C94B4000C94B40000
:1000B0000C94B4000C94B4000C94B4000C94B400F0
:1000C0000C94B4000C94B4000C94B4000C94C20CC6
:1000D0000C94A60D0C94B4000C94F50C0C94E50D46
:1000E0000C94B4000C94F50B0C94000C0C94B6001A
:1000F0000C94D50B0C946D0A0C94B90B0C94AC0EAB
:100100000C94A90BAC0E11241FBECFEFD1E2DEBFC1
:10011000CDBF00E00CBF16E0A0E0B2E0E2E2F6E204
:1001200000E00BBF02C007900D92A833B107D9F7CA
:1001300029E0A8E3B6E001C01D92AB35B207E1F7B4
:1001400010E0C3E8D0E000E006C021970109802F4D
:10015000FE010E94E512C238D10780E00807A9F726
:100160000E94CE080C9464120C940000FB014081A4
:100170005181FC0120813181CA01821B930B0895BA
:100180000E94E60940E855E260E070E089E197E00E
:100190000E94240E40E855E260E070E083EB96E0B8
:1001A0000E94240E80E00E94480A0C947E0F0F9358
:1001B0001F93CF93DF9300EA16E0C0E0D0E028E180
:1001C00030E040E050E060E070E0CB010E94AA0F18
:1001D0009B01E0EAF6E040E050E04C175D0741F09B
:1001E000A191B1912A173B0731F04F5F5F4FF5CFD7
:1001F000F8017183608321960E5F1F4FC530D105D2
:10020000F1F689E197E0DF91CF911F910F910C9466
:10021000B30A0F931F93CF93DF9308E816E0C0E073
:10022000D0E028E130E040E050E060E070E0CB0159
:100230000E94AA0F9B01E8E8F6E040E050E04C176E
:100240005D0741F0A191B1912A173B0729F04F5F5B
:100250005F4FF5CF21E001C020E0211101C0FFCFA9
:10026000F801619371938F012196C530D105C9F6CC
:1002700089E197E0DF91CF911F910F910C94B30A20
:100280000F931F93CF93DF9302E916E0C0E0D0E015
:1002900028E130E040E050E060E070E0CB010E94F7
:1002A000AA0F9B01E2E9F6E040E050E04C175D0741
:1002B00041F0A191B1912A173B0731F04F5F5F4F99
:1002C000F5CFF8017183608321960E5F1F4FC73011
:1002D000D105F1F689E197E0DF91CF911F910F9160
:1002E0000C94B30ACF93DF93C6E0D2E029E130E06B
:1002F00040E050E060E070E0CB010E94AA0F660F82
:10030000771FFB01EA5FFD4F808191812881398150
:10031000318320838993999382E0C833D80731F7DA
:10032000DF91CF9108950F931F93CF93DF93409167
:1003300088065091890660918A0670918B06A0917B
:100340008C06B0918D06C0918E06D0918F060091DB
:10035000900610919106E4E5F6E080E090E03FE33E
:100360002FE48417950761F08617970749F08A17DD
:100370009B0731F08C179D0719F08017910711F436
:10038000208301C03083019631968931910549F768
:10039000DF91CF911F910F910895EDE6F6E08FE385
:1003A000819396E0E638F907D9F708950F931F93E4
:1003B000CF93DF936BE372E089E197E00E94AA0A92
:1003C0006AE472E089E197E00E94C70A64E872E09B
:1003D00089E197E00E94AA0A60EA72E089E197E069
:1003E0000E94C70A62EE72E089E197E00E94AA0AC1
:1003F0006FEF72E089E197E00E94C70A61E373E062
:1004000089E197E00E94AA0A6DE473E089E197E030
:100410000E94C70A62EE72E089E197E00E94AA0A90
:100420006DE773E089E197E00E94C70A68EA73E02C
:1004300089E197E00E94AA0A64EC73E089E197E001
:100440000E94C70A62EE72E089E197E00E94C70A43
:100450006EEF73E089E197E00E94C70A62EE72E0F6
:1004600089E197E00E94C70A6BE174E089E197E0B7
:100470000E94C70A68E472E089E197E00E94C70A17
:1004800068E374E089E197E00E94AA0A6091860619
:10049000709187064AE050E089E197E00E948B0B5B
:1004A0006FE474E089E197E00E94AA0A6091380243
:1004B000709139024AE050E089E197E00E94920B86
:1004C00061EA74E089E197E00E94AA0A0DE616E06D
:1004D000F801608189E197E00E94AC0A61EA74E06A
:1004E00089E197E00E94AA0AF801618189E197E019
:1004F0000E94AC0A61EA74E089E197E00E94AA0ACE
:10050000F801628189E197E00E94AC0A61EA74E037
:1005100089E197E00E94AA0AF801638189E197E0E6
:100520000E94AC0A61EA74E089E197E00E94AA0A9D
:10053000F801648189E197E00E94AC0A64E374E009
:1005400089E197E00E94AA0A68EA74E089E197E0ED
:100550000E94AA0A61EA74E089E197E00E94AA0A6F
:10056000C4E5D6E0688189E197E00E94AC0A61EABF
:1005700074E089E197E00E94AA0A698189E197E025
:100580000E94AC0A61EA74E089E197E00E94AA0A3D
:100590006A8189E197E00E94AC0A61EA74E089E12E
:1005A00097E00E94AA0A6B8189E197E00E94AC0A59
:1005B00061EA74E089E197E00E94AA0A6C8189E10E
:1005C00097E00E94AC0A64E374E089E197E00E943E
:1005D000C70A63EE72E089E197E00E94AA0A66EA20
:1005E00074E089E197E00E94AA0A63EE72E089E173
:1005F00097E00E94C70A61EA74E089E197E00E94EF
:10060000AA0AF801658189E197E00E94AC0A61EAD3
:1006100074E089E197E00E94AA0AF801668189E105
:1006200097E00E94AC0A61EA74E089E197E00E94D9
:10063000AA0AF801678189E197E00E94AC0A61EAA1
:1006400074E089E197E00E94AA0AF801608589E1D7
:1006500097E00E94AC0A61EA74E089E197E00E94A9
:10066000AA0AF801618589E197E00E94AC0A64E377
:1006700074E089E197E00E94AA0A68EA74E089E1DF
:1006800097E00E94AA0A61EA74E089E197E00E947B
:10069000AA0A6D8189E197E00E94AC0A61EA74E0E0
:1006A00089E197E00E94AA0A6E8189E197E00E94A1
:1006B000AC0A61EA74E089E197E00E94AA0A6F81BE
:1006C00089E197E00E94AC0A61EA74E089E197E071
:1006D0000E94AA0A688589E197E00E94AC0A61EA53
:1006E00074E089E197E00E94AA0A698589E197E0B0
:1006F0000E94AC0A64E374E089E197E00E94C70AB3
:1007000063EE72E089E197E00E94AA0A66EA74E06B
:1007100089E197E00E94AA0A63EE72E089E197E01E
:100720000E94C70A61EA74E089E197E00E94AA0A80
:10073000F801628589E197E00E94AC0A61EA74E001
:1007400089E197E00E94AA0AF801638589E197E0B0
:100750000E94AC0A61EA74E089E197E00E94AA0A6B
:10076000F801648589E197E00E94AC0A61EA74E0CF
:1007700089E197E00E94AA0AF801658589E197E07E
:100780000E94AC0A61EA74E089E197E00E94AA0A3B
:10079000F801668589E197E00E94AC0A64E374E0A1
:1007A00089E197E00E94AA0A68EA74E089E197E08B
:1007B0000E94AA0A61EA74E089E197E00E94AA0A0D
:1007C0006A8589E197E00E94AC0A61EA74E089E1F8
:1007D00097E00E94AA0A6B8589E197E00E94AC0A23
:1007E00061EA74E089E197E00E94AA0A6C8589E1D8
:1007F00097E00E94AC0A61EA74E089E197E00E9408
:10080000AA0A6D8589E197E00E94AC0A61EA74E06A
:1008100089E197E00E94AA0A6E8589E197E00E942B
:10082000AC0A64E374E089E197E00E94C70A63EED2
:1008300072E089E197E00E94AA0A66EA74E089E121
:1008400097E00E94AA0A63EE72E089E197E00E94B5
:10085000C70A61EA74E089E197E00E94AA0AF801F8
:10086000678589E197E00E94AC0A61EA74E089E15A
:1008700097E00E94AA0AF801608989E197E00E9446
:10088000AC0A61EA74E089E197E00E94AA0AF801E3
:10089000618989E197E00E94AC0A61EA74E089E12C
:1008A00097E00E94AA0AF801628989E197E00E9414
:1008B000AC0A61EA74E089E197E00E94AA0AF801B3
:1008C000638989E197E00E94AC0A64E374E089E1FE
:1008D00097E00E94AA0A68EA74E089E197E00E9422
:1008E000AA0A61EA74E089E197E00E94AA0A6F858A
:1008F00089E197E00E94AC0A61EA74E089E197E03F
:100900000E94AA0A688989E197E00E94AC0A61EA1C
:1009100074E089E197E00E94AA0A698989E197E079
:100920000E94AC0A61EA74E089E197E00E94AA0A99
:100930006A8989E197E00E94AC0A61EA74E089E182
:1009400097E00E94AA0A6B8989E197E00E94AC0AAD
:1009500064E374E089E197E00E94C70A63EE72E005
:1009600089E197E00E94AA0A66EA74E089E197E0CB
:100970000E94AA0A63EE72E089E197E00E94C70A2A
:1009800061EA74E089E197E00E94AA0AF8016489AB
:1009900089E197E00E94AC0A61EA74E089E197E09E
:1009A0000E94AA0AF801658989E197E00E94AC0AD1
:1009B00061EA74E089E197E00E94AA0AF801668979
:1009C00089E197E00E94AC0A61EA74E089E197E06E
:1009D0000E94AA0AF801678989E197E00E94AC0A9F
:1009E00061EA74E089E197E00E94AA0AF801608D4B
:1009F00089E197E00E94AC0A64E374E089E197E042
:100A00000E94AA0A68EA74E089E197E00E94AA0AB3
:100A100061EA74E089E197E00E94AA0A6C8989E1A1
:100A200097E00E94AC0A61EA74E089E197E00E94D5
:100A3000AA0A6D8989E197E00E94AC0A61EA74E034
:100A400089E197E00E94AA0A6E8989E197E00E94F5
:100A5000AC0A61EA74E089E197E00E94AA0A6F8912
:100A600089E197E00E94AC0A61EA74E089E197E0CD
:100A70000E94AA0A688D89E197E00E94AC0A64E3AB
:100A800074E089E197E00E94C70A63EE72E089E1B1
:100A900097E00E94AA0A66EA74E089E197E00E9462
:100AA000AA0A63EE72E089E197E0DF91CF911F918E
:100AB0000F910C94C70ACF93DF93EC0160919206DB
:100AC000709193064AE050E089E197E00E94920B12
:100AD00060919406709195064AE050E089E197E0B4
:100AE0000E94920B60919606709197064AE050E042
:100AF00089E197E00E94920B6091980670919906A7
:100B00004AE050E089E197E00E94920B60919A06DA
:100B100070919B064AE050E089E197E00E94920BB9
:100B200060919C0670919D064AE050E089E197E053
:100B30000E94920B60919E0670919F064AE050E0E1
:100B400089E197E00E94920B809192069091930622
:100B5000FE01E359F94FC817D907D1F588E580831D
:100B600080918606909187060197909387068093DF
:100B700086060E94D60167ED74E089E197E00E9445
:100B8000AA0A4AE050E0BE0189E197E00E94920B78
:100B90006FEE74E089E197E00E94C70A63EE72E0AD
:100BA00089E197E00E94C70A8091860690918706A6
:100BB000892B09F08BC00E94D6016EEF74E089E1A9
:100BC00097E00E94C70A10920502109204027EC0AC
:100BD0008091940690919506C817D90709F4BECF65
:100BE0008091960690919706C817D90709F4B6CF59
:100BF0008091980690919906C817D90709F4AECF4D
:100C000080919A0690919B06C817D90709F4A6CF40
:100C100080919C0690919D06C817D90709F49ECF34
:100C200080919E0690919F06C817D90709F496CF28
:100C30008DE280830E94D60167ED74E089E197E040
:100C40000E94AA0A4AE050E0BE0189E197E00E94B2
:100C5000920B6EE175E089E197E00E94C70A63EEAE
:100C600072E089E197E00E94C70AE2E9F6E0ACE3AE
:100C7000B6E0819191919E01281B390BC90137FF84
:100C800003C09195819591098D939D9336E0E03A4B
:100C9000F30779F726EB30E042E050E067E070E0E0
:100CA0008CE396E00E94131066E375E089E197E01B
:100CB0000E94AA0A60914806709149064AE050E0F5
:100CC00089E197E0DF91CF910C94920BDF91CF9166
:100CD0000895CF93DF93EC016091A0067091A10677
:100CE0004AE050E089E197E00E94920B6091A206F1
:100CF0007091A3064AE050E089E197E00E94920BD0
:100D00006091A4067091A5064AE050E089E197E061
:100D10000E94920B6091A6067091A7064AE050E0EF
:100D200089E197E00E94920B6091A8067091A90654
:100D30004AE050E089E197E00E94920B8091A00682
:100D40009091A106FE01E359F94FC817D907D1F5D3
:100D500088E580838091860690918706019790931D
:100D60008706809386060E94D60167ED74E089E1CC
:100D700097E00E94AA0A4AE050E0BE0189E197E0AC
:100D80000E94920B6FEE74E089E197E00E94C70A1F
:100D900063EE72E089E197E00E94C70A80918606BF
:100DA00090918706892B09F07BC00E94D6016EEFD7
:100DB00074E089E197E00E94C70A10920502109240
:100DC00004026EC08091A2069091A306C817D907AD
:100DD00009F4BECF8091A4069091A506C817D90743
:100DE00009F4B6CF8091A6069091A706C817D90737
:100DF00009F4AECF8091A8069091A906C817D9072B
:100E000009F4A6CF8DE280830E94D60167ED74E0DD
:100E100089E197E00E94AA0A4AE050E0BE0189E118
:100E200097E00E94920B6EE175E089E197E00E94E5
:100E3000C70A63EE72E089E197E00E94C70AE0EA20
:100E4000F6E0AAE4B6E0819191919E01281B390B4E
:100E5000C90137FF03C09195819591098D939D93A9
:100E600036E0EA3AF30779F726EB30E042E050E06B
:100E700065E070E08AE496E00E94131066E375E096
:100E800089E197E00E94AA0A609152067091530688
:100E90004AE050E089E197E0DF91CF910C94920B0A
:100EA000DF91CF910895CF93DF9380913806909191
:100EB0003906893191050CF07EC0209138023091BD
:100EC00039022115310529F410920502109204020D
:100ED00073C0880F991FFC01EA5FFD4FC081D1816B
:100EE0008091880690918906FE01EC5AF94FC81747
:100EF000D907E1F080918A0690918B06C817D9072F
:100F0000A9F080918C0690918D06C817D90771F0D1
:100F100080918E0690918F06C817D90739F080917D
:100F2000900690919106C817D907D1F481E2808389
:100F30002150310930933902209338020E94D601A2
:100F400065E475E089E197E00E94AA0A4AE050E072
:100F5000BE0189E197E00E94920B6DE575E013C038
:100F60008DE280830E94D60165E475E089E197E017
:100F70000E94AA0A4AE050E0BE0189E197E00E947F
:100F8000920B6FE675E089E197E00E94C70A63EE75
:100F900072E089E197E00E94C70A8091380690913B
:100FA0003906019690933906809338062091040201
:100FB0003091050201C001C0C901DF91CF910895B0
:100FC000AF92BF92CF92DF92FF920F931F93CF9376
:100FD000DF936C015C01C0E0D0E08B01015011098E
:100FE000C017D1077CF489E197E00E94A90B18167D
:100FF0001906B4F789E197E00E94D50BF82E8DE031
:10100000F8120DC0CC0DDD1D1882DF91CF911F911C
:101010000F91FF90DF90CF90BF90AF9008956F2D0C
:1010200089E197E00E94D90AF501F1925F012196CA
:10103000D7CFCF93DF93CDB7DEB7A0970FB6F89495
:10104000DEBF0FBECDBF89E197E00E94B30A61E920
:1010500075E089E197E00E94C70A60E270E0CE0186
:1010600001960E94E007CE0101960E943D12A096D3
:101070000FB6F894DEBF0FBECDBFDF91CF910895BC
:1010800089E197E00E94B30A64EC75E089E197E09A
:101090000E94C70A89E197E00E94A90B1816190659
:1010A000CCF789E197E00E94D50B8D3099F7089530
:1010B000AF92BF92CF92DF92FF920F931F93CF9385
:1010C000DF936C018B016DED75E089E197E00E9483
:1010D000AA0A5601C0E0D0E001501109C017D1079B
:1010E0007CF489E197E00E94A90B18161906B4F761
:1010F00089E197E00E94D50BF82E8DE0F8120DC023
:10110000CC0DDD1D1882DF91CF911F910F91FF90C3
:10111000DF90CF90BF90AF9008956F2D89E197E059
:101120000E94AC0AF501F1925F012196D7CFCF93CF
:10113000DF93CDB7DEB7A0970FB6F894DEBF0FBE32
:10114000CDBF60E270E0CE0101960E94580889E1AF
:1011500097E00E94B30A65EF75E089E197E00E948D
:10116000AA0ACE0101960E943D124AE050E089E1B0
:1011700097E00E948B0B60E076E089E197E00E94A7
:10118000C70ACE0101960E943D12A0960FB6F894B0
:10119000DEBF0FBECDBFDF91CF910895CF93DF9318
:1011A0000E94C0000E94190861307105D1F585E0E8
:1011B00090E090938706809386060E94CD010E945E
:1011C000D7000E9409010E9472010E9493010E94AF
:1011D000D6010E944008C2E0D0E0809104029091C4
:1011E0000502019709F09FC020913A0630913B0615
:1011F0002F5F3F4F30933B0620933A06C901BE0153
:101200000E949012019731F40E949708CB010E942E
:101210006906E3CF20FDE1CF0E945307892BE9F651
:101220005FC062307105C1F587E090E0909387065A
:10123000809386060E94CD010E9440010E94090110
:101240000E9472010E9493010E94D6010E944008F0
:10125000C2E0D0E08091040290910502019709F06C
:1012600062C080913A0690913B06019690933B06AE
:1012700080933A0680FD06C00E949708CB010E9429
:101280005B05E8CFBE010E949012019719F70E94FA
:101290005307892BF9F624C06330710509F043C068
:1012A00087E090E090938706809386060E94CD01A8
:1012B0000E9440010E9409010E9472010E94930154
:1012C0000E94D6010E944008C2E0D0E020C0BE01CA
:1012D0000E9490120197D9F40E945307892BF1F4D0
:1012E00065E076E089E197E00E94C70A1CC0809122
:1012F0003A0690913B06019690933B0680933A06FE
:1013000080FDE5CF0E949708CB010E945B0580918C
:10131000040290910502019751F305C00E94530702
:10132000892BA9F7DDCF89E197E00E94F50B80E0DA
:1013300090E0DF91CF9108951F920F920FB60F9218
:1013400011242F933F938F939F93AF93BF938091DB
:10135000AB069091AC06A091AD06B091AE0630916F
:10136000AA0623E0230F2D3720F40196A11DB11DFD
:1013700005C026E8230F0296A11DB11D2093AA06E1
:101380008093AB069093AC06A093AD06B093AE06E7
:101390008091AF069091B006A091B106B091B206CF
:1013A0000196A11DB11D8093AF069093B006A09346
:1013B000B106B093B206BF91AF919F918F913F91CB
:1013C0002F910F900FBE0F901F901895789484B5B1
:1013D000826084BD84B5816084BD85B5826085BD31
:1013E00085B5816085BDEEE6F0E080818160808317
:1013F000E1E8F0E0108280818260808380818160FA
:101400008083E0E8F0E0808181608083E1EBF0E0C0
:10141000808184608083E0EBF0E080818160808364
:10142000E1E9F0E080818260808380818160808357
:10143000E0E9F0E0808181608083E1EAF0E0808192
:1014400082608083808181608083E0EAF0E0808137
:1014500081608083E1E2F1E080818260808380812D
:1014600081608083E0E2F1E0808181608083EAE74F
:10147000F0E08081846080838081826080838081CD
:10148000816080838081806880831092C10008958C
:10149000863308F0865390917B00282F2870977F21
:1014A000922B90937B00877020913A0290E4299FC1
:1014B00090011124822B80937C0080917A008064BB
:1014C00080937A0080917A0086FDFCCF809178002D
:1014D0002091790090E0922B0895CF92DF92EF92C5
:1014E000FF920F931F93CF93DF936C01EB017B016E
:1014F000E40EF51E00E010E0CE15DF0561F0699105
:10150000D601ED91FC910190F081E02DC601199575
:10151000080F191FF1CFC801DF91CF911F910F91D3
:10152000FF90EF90DF90CF9008956115710579F0ED
:10153000FB0101900020E9F73197AF01461B570BE3
:10154000DC01ED91FC910280F381E02D199480E0A3
:1015500090E008950C94950ADC01ED91FC910190C6
:10156000F081E02D19940F931F93CF93DF93EC013B
:101570006DE00E94AC0A8C016AE0CE010E94AC0AC8
:10158000800F911FDF91CF911F910F9108950F93BD
:101590001F93CF93DF93EC010E94950A8C01CE013B
:1015A0000E94B30A800F911FDF91CF911F910F917D
:1015B00008950F931F93CF93DF93EC010E94AC0A21
:1015C0008C01CE010E94B30A800F911FDF91CF9151
:1015D0001F910F9108958F929F92AF92BF92CF92D9
:1015E000DF92EF92FF920F931F93CF93DF93CDB7CC
:1015F000DEB7A1970FB6F894DEBF0FBECDBF6C016A
:10160000142FE52FCB01022F19A2223008F40AE093
:101610007E0121E2E20EF11C802E912CA12CB12C36
:10162000612F7E2FA50194010E94A412029F101920
:10163000112481E0E81AF1081A3014F4105D01C099
:10164000195CF7011083122FE32FCA01232B242BDF
:10165000252B31F7B701C6010E94950AA1960FB656
:10166000F894DEBF0FBECDBFDF91CF911F910F91D8
:10167000FF90EF90DF90CF90BF90AF909F908F90B2
:101680000895CF92DF92EF92FF920F931F93CF9323
:10169000DF93EC016A017B012115310579F4E881C2
:1016A000F9810190F081E02D642FDF91CF911F919E
:1016B0000F91FF90EF90DF90CF9019942A30310571
:1016C000E9F477FF1AC06DE20E94AC0A8C0144274E
:1016D0005527BA014C195D096E097F092AE0CE0130
:1016E0000E94EB0A800F911FDF91CF911F910F9104
:1016F000FF90EF90DF90CF9008952AE0B701A60108
:10170000CE01DF91CF911F910F91FF90EF90DF906D
:10171000CF900C94EB0A9A01AB01770F660B770B15
:101720000C94410B0F931F93CF93DF93EC019A011D
:10173000AB01770F660B770B0E94410B8C01CE013A
:101740000E94B30A800F911FDF91CF911F910F91DB
:101750000895FC0124853585F901E05CFF4F808107
:101760009181329620813181821B930B8F7399274F
:101770000895DC011C96ED91FC911D97DF01A05CA2
:10178000BF4F2D913C91119712968D919C9111977D
:101790002817390739F08D919C91E80FF91F808146
:1017A00090E008958FEF9FEF0895FC01A485B58523
:1017B000FD01E05CFF4F2081318132968081918173
:1017C0002817390779F080819181A80FB91F8C9172
:1017D000208131812F5F3F4F2F7333273183208347
:1017E00090E008958FEF9FEF0895FC0181A1882379
:1017F00029F0A489B5898C9186FFFBCF11A20895A9
:101800000F931F93CF93DF93FC01A685B7858D01BE
:10181000005C1F4FE8018881998101968F73992799
:10182000AD014E5B5F4FEA01288139818217930732
:10183000D1F3E80128813981A20FB31F6C93A685EB
:10184000B785A05CBF4F11969C938E93A689B789EC
:101850002C9181E090E0078C02C0880F991F0A94B8
:10186000E2F7822B8C9381E081A30488F589E02D37
:1018700080818064808381E090E0DF91CF911F912F
:101880000F910895FB01E05CFF4F208131812F5FB4
:101890003F4F2F733327DB01AE5BBF4F4D915C9100
:1018A0002417350741F040815181DB01A40FB51F9A
:1018B0008C933183208308951F920F920FB60F925D
:1018C00011240BB60F922F933F934F935F936F9317
:1018D0007F938F939F93AF93BF93EF93FF938091E9
:1018E000C00082FD07C08091C60067E179E00E94D8
:1018F000420C02C08091C600FF91EF91BF91AF9161
:101900009F918F917F916F915F914F913F912F9117
:101910000F900BBE0F900FBE0F901F9018951F9247
:101920000F920FB60F9211240BB60F922F933F9385
:101930004F935F936F937F938F939F93AF93BF93D7
:10194000EF93FF938091C80082FD07C08091CE0085
:101950006FE878E00E94420C02C08091CE00FF91B7
:10196000EF91BF91AF919F918F917F916F915F9117
:101970004F913F912F910F900BBE0F900FBE0F9084
:101980001F9018951F920F920FB60F9211240BB64D
:101990000F922F933F934F935F936F937F938F9308
:1019A0009F93AF93BF93EF93FF938091D00082FDFD
:1019B00007C08091D60067E078E00E94420C02C028
:1019C0008091D600FF91EF91BF91AF919F918F9140
:1019D0007F916F915F914F913F912F910F900BBE2F
:1019E0000F900FBE0F901F9018951F920F920FB679
:1019F0000F9211240BB60F922F933F934F935F9347
:101A00006F937F938F939F93AF93BF93EF93FF93C6
:101A10008091300182FD07C0809136016FE777E049
:101A20000E94420C02C080913601FF91EF91BF915C
:101A3000AF919F918F917F916F915F914F913F9166
:101A40002F910F900BBE0F900FBE0F901F90189507
:101A50001F920F920FB60F9211240BB60F922F9375
:101A60003F938F939F93EF93FF93209113093091AE
:101A7000140980911509909116092817390731F436
:101A80008091C1008F7D8093C10014C0E091150941
:101A9000F0911609ED52F74F208180911509909130
:101AA000160901968F73992790931609809315094B
:101AB0002093C600FF91EF919F918F913F912F91BD
:101AC0000F900BBE0F900FBE0F901F9018951F9296
:101AD0000F920FB60F9211240BB60F922F933F93D4
:101AE0008F939F93EF93FF9320918B0830918C08F5
:101AF00080918D0890918E082817390731F48091D4
:101B0000C9008F7D8093C90014C0E0918D08F091C9
:101B10008E08E55BF74F208180918D0890918E08AB
:101B200001968F73992790938E0880938D08209348
:101B3000CE00FF91EF919F918F913F912F910F9048
:101B40000BBE0F900FBE0F901F9018951F920F9213
:101B50000FB60F9211240BB60F922F933F938F93D2
:101B60009F93EF93FF932091030830910408809195
:101B70000508909106082817390731F48091D100A3
:101B80008F7D8093D10014C0E0910508F091060884
:101B9000ED53F84F20818091050890910608019639
:101BA0008F73992790930608809305082093D60099
:101BB000FF91EF919F918F913F912F910F900BBECD
:101BC0000F900FBE0F901F9018951F920F920FB697
:101BD0000F9211240BB60F922F933F938F939F93E5
:101BE000EF93FF9320917B0730917C0780917D07D5
:101BF00090917E072817390731F4809131018F7D4C
:101C00008093310114C0E0917D07F0917E07E55C7F
:101C1000F84F208180917D0790917E0701968F7308
:101C2000992790937E0780937D0720933601FF913B
:101C3000EF919F918F913F912F910F900BBE0F903D
:101C40000FBE0F901F901895CF92DF92EF92FF92E8
:101C50000F931F93CF93DF93EC016A017B01411532
:101C6000514E6105710509F1EC89FD8981E090E033
:101C700008A002C0880F991F0A94E2F7808360E0F1
:101C800079E08DE390E0A70196010E94A4128901FA
:101C90009A010150110921093109369527951795A7
:101CA0000795980101151041A8F0EC89FD89108273
:101CB00060E874E88EE190E0A70196010E94A4120A
:101CC000DA01C9010197A109B109B695A7959795C0
:101CD00087959C01E889F9893083EA89FB8920830B
:101CE00019A2EE89FF89408181E090E09C010C8C73
:101CF00002C0220F331F0A94E2F7242B2083EE89BF
:101D0000FF8940819C010D8C02C0220F331F0A9471
:101D1000E2F7242B2083EE89FF8940819C010E8C01
:101D200002C0220F331F0A94E2F7242B2083EE898E
:101D3000FF8920810F8C02C0880F991F0A94E2F757
:101D4000809582238083DF91CF911F910F91FF9027
:101D5000EF90DF90CF900895CF92DF92EF92FF92B5
:101D6000E9E1F7E01382128288EEC82E83E0D82ED4
:101D7000E12CF12CC482D582E682F7826BE276E018
:101D80007183608387E199E09587848783ED98E08C
:101D90009787868785EC90E0918B808B84EC90E030
:101DA000938B828B80EC90E0958B848B81EC90E020
:101DB000978B868B82EC90E0918F808F86EC90E001
:101DC000938F828F44E0448F33E0358F27E0268F56
:101DD00095E0978F81E080A3E7EFF6E0138212820F
:101DE000C482D582E682F78271836083AFE8B8E06F
:101DF000B587A487ABE4B8E0B787A687ADECB0E0C1
:101E0000B18BA08BACECB0E0B38BA28BA8ECB0E0B4
:101E1000B58BA48BA9ECB0E0B78BA68BAAECB0E095
:101E2000B18FA08FAEECB0E0B38FA28F448F358F0F
:101E3000268F978F80A3E5EDF6E013821282C4828D
:101E4000D582E682F78271836083A7E0B8E0B58728
:101E5000A487A3ECB7E0B787A687A5EDB0E0B18B68
:101E6000A08BA4EDB0E0B38BA28BA0EDB0E0B58B5E
:101E7000A48BA1EDB0E0B78BA68BA2EDB0E0B18F43
:101E8000A08FA6EDB0E0B38FA28F448F358F268F41
:101E9000978F80A3E3EBF6E013821282C482D5828F
:101EA000E682F782718360836FE777E075876487E6
:101EB0006BE377E07787668765E371E0718B608B12
:101EC00064E371E0738B628B60E371E0758B648B0C
:101ED00061E371E0778B668B62E371E0718F608FF5
:101EE00066E371E0738F628F448F358F268F978FF3
:101EF00080A3FF90EF90DF90CF900895009729F096
:101F0000BC0180E090E00C9434120895CF93DF93ED
:101F100000D01F92CDB7DEB761157105810591051F
:101F200079F09B01AC0169833A834B835C830E9407
:101F3000301229813A814B815C810E94C61203C014
:101F400060E070E0CB010F900F900F900F90DF9149
:101F5000CF910895CF92DF92EF92FF920F931F934C
:101F6000621773078407950784F489019A016B014E
:101F70007C01C901B8016C197D098E099F090E9475
:101F8000860F6C0D7D1D8E1D9F1D1F910F91FF9063
:101F9000EF90DF90CF900895DC01FB018C91908150
:101FA0009D9381934150510914161506BCF3089571
:101FB000CF92DF92EF92FF920F931F93CF93DF9315
:101FC000D82FC92F6B018A017901F9011995B80140
:101FD00097FF0FC0C601F701199597FF02C0C60110
:101FE00019C0B8018D2F9C2FF701199597FD0EC0D0
:101FF0000FC0C601F70119951816190684F3B80128
:102000008D2F9C2FF701199597FD02C0C80102C0C2
:102010008D2F9C2FDF91CF911F910F91FF90EF900B
:10202000DF90CF9008952F923F924F925F926F92E0
:102030007F928F929F92AF92BF92CF92DF92EF9258
:10204000FF920F931F93CF93DF93CDB7DEB72A97FD
:102050000FB6F894DEBF0FBECDBF8C017B015A874F
:10206000498769015195419551095E834D832985C1
:102070003A85200F311F3A83298337E0E316F104B4
:1020800078F589809A8049855A85E49EC001E59E4D
:10209000900DF49E900D11247801E80EF91E8E1417
:1020A0009F0408F077C1340106151705A0F4530109
:1020B00069857A85A61AB70AB301C501F601199593
:1020C0001816190644F449855A85B501C3010E94C2
:1020D000CC0F3501E9CF29853A85820E931EDFCFDB
:1020E000C7019695879549855A85849F5001859F9C
:1020F000B00C949FB00C1124A00EB11EB70161501A
:1021000071097C836B8377E0E716F10409F44CC016
:102110008B819C81849F3001859F700C949F700CF3
:102120001124600E711E99E2E916F104A8F1C701AD
:1021300023E0969587952A95E1F7849F4001859F36
:10214000900C949F900C11241401220C331CA801B4
:10215000420D531DB801680D791D9601C8010E94FA
:10216000D80F2C01A501480D591D91948194910817
:102170009601B501C501880D991D0E94D80F5C011B
:10218000B301680D791D9601A301C301821993095A
:102190000E94D80F3C0101C028019601A301B5019E
:1021A000C2010E94D80F5C0149855A85B501C8015A
:1021B0000E94CC0F89809A804B815C8169857A85E9
:1021C000469F9001479F300D569F300D11243A8352
:1021D00029833901600E711E23015401140120E08E
:1021E00030E06A147B0408F43FC0B801C5012F83B6
:1021F0003887F60119952F81388518161906A4F12C
:10220000892B61F449855A85B501C1010E94CC0F23
:1022100089859A85280E391E21E030E0E985FA8506
:10222000AE0EBF1EDECFB801C3012F833887F60183
:102230001995A30169857A85461B570B5C834B83EF
:102240002F81388597FD14C0892B61F449855A8503
:10225000B201C3010E94CC0F29853A85421A530A64
:1022600021E030E06B807C806A147B04E0F60FC0D4
:1022700049855A85B301C5010E94CC0F49855A850D
:10228000A40EB51E6B807C8021E030E0AACF232B0A
:1022900069F5E985FA85EE9EC001EF9E900DFE9EE0
:1022A000900D11247801E80EF91E8E149F0408F099
:1022B00071C0340106151705A0F4530129853A852C
:1022C000A21AB30AB301C501F60119951816190629
:1022D00044F449855A85B501C3010E94CC0F3501EC
:1022E000E9CF29853A85820E931EDFCF89819A81B5
:1022F0004D815E81841B950BB801680F791F7A832D
:1023000069837501E218F308A101401B510BE41623
:10231000F5060CF4A7011416150634F4B501641B78
:10232000750BC8010E94CC0F42018618970849819D
:102330005A814419550989859A85481B590B841679
:10234000950608F4A401141615063CF469817A81F7
:10235000641B750BC5010E94CC0FE985FA85EE154B
:10236000FF0548F4C701BF010E947C129601AF012E
:10237000C8010E94131029853A852815390550F4A3
:1023800009811A8108191909C401B9010E947C1236
:102390007B016DCE2A960FB6F894DEBF0FBECDBF7F
:1023A000DF91CF911F910F91FF90EF90DF90CF9031
:1023B000BF90AF909F908F907F906F905F904F9065
:1023C0003F902F9008958F929F92AF92BF92CF929D
:1023D000DF92EF92FF92CF93DF93EC0168817981D6
:1023E0008A819B81611571058105910521F464E263
:1023F00079ED8BE597E02DE133EF41E050E00E946D
:10240000C61249015A019B01AC01A7EAB1E40E943E
:10241000ED126B017C01ACEEB4EFA50194010E94BA
:10242000FB12DC01CB018C0D9D1DAE1DBF1DB7FF46
:1024300003C00197A109B04888839983AA83BB830D
:10244000BC01CD019F77DF91CF91FF90EF90DF909E
:10245000CF90BF90AF909F908F9008950C94E31110
:1024600080E092E00C94E31160930002709301020B
:10247000809302029093030208951F93FC01992711
:102480008827BC01E89411911032E9F3193010F05B
:102490001E30C8F31B3251F01D3249F4689406C057
:1024A0000E946712610F711D811D911D11911053C2
:1024B0001A30B0F33EF490958095709561957F4FFA
:1024C0008F4F9F4F1F910895F8940C940F13592F1D
:1024D000482F372F262F660F771F881F991F660FEB
:1024E000771F881F991F620F731F841F951F660F28
:1024F000771F881F991F0895AA1BBB1B51E107C0B6
:10250000AA1FBB1FA617B70710F0A61BB70B881F83
:10251000991F5A95A9F780959095BC01CD01089512
:1025200097FB072E16F4009407D077FD09D00E9480
:102530007C1207FC05D03EF4909581959F4F08953D
:10254000709561957F4F0895A1E21A2EAA1BBB1BBF
:10255000FD010DC0AA1FBB1FEE1FFF1FA217B3076F
:10256000E407F50720F0A21BB30BE40BF50B661F85
:10257000771F881F991F1A9469F760957095809549
:1025800090959B01AC01BD01CF010895052E97FBED
:102590001EF400940E94DD1257FD07D00E94A41281
:1025A00007FC03D04EF40C94DD1250954095309505
:1025B00021953F4F4F4F5F4F0895909580957095AF
:1025C00061957F4F8F4F9F4F0895EE0FFF1F881F1C
:1025D0008BBF0790F691E02D19940E940013A59FE0
:1025E000900DB49F900DA49F800D911D112408950E
:1025F000B7FF0C94ED120E94ED12821B930B08950D
:10260000A29FB001B39FC001A39F700D811D112433
:10261000911DB29F700D811D1124911D0895F89494
:02262000FFCFEA
:10262200010000000100000001000200030004009C
:10263200050006000700080009000A000B000C0054
:102642000D000E000F001000110012001300140004
:102652001500160017001800050001506F73697409
:10266200696F6E696E673A200A00202020202020C0
:102672002020202020202020202020202020202058
:102682002020202020202020202020202020202048
:10269200202020202020202020202020204C656780
:1026A200656E6400207C202030207C202031207C3C
:1026B200202032207C202033207C202034207C00EB
:1026C20009090909093F3A206F6E20796F75722056
:1026D2006669656C6420697320656D707479207316
:1026E200706F742C206F6E206F70706F6E656E74D9
:1026F2007320697320756E6964656E7469666965B5
:102702006400202D2D2D2D2D2D2D2D2D2D2D2D2DFA
:102712002D2D2D2D2D2D2D2D2D2D2D2D2D2D000938
:10272200090909094F3A206F6E20796F7572206688
:1027320069656C6420697420697320706F736974B1
:10274200696F6E206F6620796F7572207368697089
:1027520000207C202035207C202036207C20203741
:10276200207C202038207C202039207C0009090987
:102772000909213A206F6E20796F757220666965AA
:102782006C64206D65616E7320796F75722064656B
:102792007374726F7965642073686970000909093E
:1027A20009092D3A206F6E20626F74682066696590
:1027B2006C6473206D65616E732061747461636B08
:1027C200206D697373656400207C203130207C2089
:1027D2003131207C203132207C203133207C203169
:1027E20034207C000909090909583A206F6E206FCC
:1027F20070706F6E656E7473206669656C64206DAF
:1028020065616E73206F70706F6E656E7473206495
:10281200657374726F796564207368697000207CD7
:10282200203135207C203136207C203137207C201D
:102832003138207C203139207C2000207C2032302D
:10284200207C203231207C203232207C2032332006
:102852007C203234207C2000596F7572206F70709A
:102862006F6E656E7473206669656C643A20002031
:102872007468656972207368697073206C65667428
:102882002120202020202020202020202020202045
:102892002020202020202020202020202020202036
:1028A200202020796F75722063757272656E7420B4
:1028B20072656D61696E696E675368697073202015
:1028C20000207C20200020202020202020202020EA
:1028D20020202020202020202020202020202020F6
:1028E20020202020202020202020202020202020E6
:1028F20020202020202000596F75206174746163AC
:102902006B656420706F736974696F6E2020005963
:102912006F75206869742061207368697000596F4F
:10292200752068697420616C6C2074686520736816
:1029320069707320796F752077696E202100596F55
:102942007520646964206E6F742068697420612048
:10295200736869702100596F75206D6973736564BE
:102962002062792000596F7572206F70706F6E65EA
:102972006E742061747461636B65642000596F75B5
:1029820072207368697020776173206869740059D6
:102992006F7572206F70706F6E656E7420646964FB
:1029A200206E6F74206869742061207368697021D9
:1029B200005069636B20796F75722064696666697D
:1029C20063756C74792028313A65617379292028FE
:1029D200323A6D656469756D292028333A686172EF
:1029E20064292000707265737320656E74657220AD
:1029F2006B657920746F20737461727400456E7414
:102A020065722074686520636F6F7264696E6174A9
:102A120065733A200041747461636B696E672000CC
:102A2200202E2E2E00596F75206C6F737420616CEE
:102A32006C20796F757220736869707320796F7575
:102A4200206C6F7365200000000000000C6D0AA965
:082A52000BD50BB90BF50B00CD
:00000001FF
