:100000000C9481000C94B2000C94B2000C94B200D9
:100010000C94B2000C94B2000C94B2000C94B20098
:100020000C94B2000C94B2000C94B2000C94B20088
:100030000C94B2000C94B2000C94B2000C94B20078
:100040000C94B2000C94B2000C94B2000C94B20068
:100050000C94B2000C94B2000C94B2000C94CF0536
:100060000C94B2000C947D080C9449090C94B200D5
:100070000C94B2000C94B2000C94B2000C94B20038
:100080000C94B2000C94B2000C94B2000C94B20028
:100090000C94B0080C9488090C94B2000C94B20033
:1000A0000C94B2000C94B2000C94B2000C94B20008
:1000B0000C94B2000C94B2000C94B2000C94B200F8
:1000C0000C94B2000C94B2000C94B2000C94E308AF
:1000D0000C94C7090C94B2000C9416090C94060AEF
:1000E0000C94B2000C94CD0A0C9416080C942108C0
:1000F0000C94F6070C94CA070C94A0060C94DA072B
:10010000CD0A11241FBECFEFD1E2DEBFCDBF00E08C
:100110000CBF13E0A0E0B2E0E6EEF9E100E00BBFB7
:1001200002C007900D92AC3EB107D9F726E0ACEEC5
:10013000B3E001C01D92A33EB207E1F710E0C1E8B1
:10014000D0E000E006C021970109802FFE010E9447
:10015000C70CC038D10780E00807A9F70E94B50591
:100160000C946E0C0C9400000E94190640E855E2B5
:1001700060E070E081EA94E00E94450A40E855E2C0
:1001800060E070E08BE394E00E94450A80E00E940A
:100190007B060C949F0BEF92FF920F931F93CF93CC
:1001A000DF93CEE1D4E07E0100E010E028E130E012
:1001B00040E050E060E070E0CB010E94CB0BEEE14C
:1001C000F4E080E090E08017910739F021913191BF
:1001D0006217730759F30196F6CFF7016193719394
:1001E0007F018C010F5F1F4F05301105F9F628E1E3
:1001F00030E040E050E060E070E0CB010E94CB0BCB
:10020000709329046093280467E072E081EA94E027
:100210000E94FA06699179914AE050E081EA94E0FF
:100220000E94B30784E0C832D807A1F740911E04AA
:1002300050911F046091200470912104A091220428
:10024000B0912304C0912404D09125040091260488
:1002500010912704ECEEF3E080E090E03FE32FE420
:100260008417950761F08617970749F08A179B074F
:1002700031F08C179D0719F08017910711F4208336
:1002800001C03083019631968931910549F7DF919C
:10029000CF911F910F91FF90EF900895E5E0F4E06A
:1002A0008FE3819394E0EE31F907D9F708950F9326
:1002B0001F93CF93DF9362E172E081EA94E00E94A2
:1002C000FA0661E272E081EA94E00E94FA066FE3C6
:1002D00072E081EA94E00E94FA066BE572E081EA3E
:1002E00094E00E94FA066FE372E081EA94E00E94D3
:1002F000FA0669E772E081EA94E00E94FA066FE389
:1003000072E081EA94E00E94FA0667E972E081EA0D
:1003100094E00E94FA066FE372E081EA94E00E94A2
:10032000FA0665EB72E081EA94E00E94FA0663ED5A
:1003300072E081EA94E00E94DD066091040270910F
:1003400005024AE050E081EA94E00E94AC076AEEC0
:1003500072E081EA94E00E94FA066AE373E081EABF
:1003600094E00E94DD0605E014E0F801608181EA76
:1003700094E00E94DF066AE373E081EA94E00E9461
:10038000DD06F801618181EA94E00E94DF066AE3FC
:1003900073E081EA94E00E94DD06F801628181EA5F
:1003A00094E00E94DF066AE373E081EA94E00E9431
:1003B000DD06F801638181EA94E00E94DF066AE3CA
:1003C00073E081EA94E00E94DD06F801648181EA2D
:1003D00094E00E94DF066BE372E081EA94E00E9401
:1003E000DD0661E473E081EA94E00E94DD066AE3E1
:1003F00073E081EA94E00E94DD06CCEED3E06881F0
:1004000081EA94E00E94DF066AE373E081EA94E007
:100410000E94DD06698181EA94E00E94DF066AE3BA
:1004200073E081EA94E00E94DD066A8181EA94E04B
:100430000E94DF066AE373E081EA94E00E94DD0631
:100440006B8181EA94E00E94DF066AE373E081EA4F
:1004500094E00E94DD066C8181EA94E00E94DF0650
:100460006BE372E081EA94E00E94FA066FE372E0C7
:1004700081EA94E00E94DD066FE373E081EA94E094
:100480000E94DD066FE372E081EA94E00E94FA06C2
:100490006AE373E081EA94E00E94DD06F801658179
:1004A00081EA94E00E94DF066AE373E081EA94E067
:1004B0000E94DD06F801668181EA94E00E94DF0671
:1004C0006AE373E081EA94E00E94DD06F801678147
:1004D00081EA94E00E94DF066AE373E081EA94E037
:1004E0000E94DD06F801608581EA94E00E94DF0643
:1004F0006AE373E081EA94E00E94DD06F801618519
:1005000081EA94E00E94DF066BE372E081EA94E006
:100510000E94DD0661E473E081EA94E00E94DD065A
:100520006AE373E081EA94E00E94DD066D8181EA6E
:1005300094E00E94DF066AE373E081EA94E00E949F
:10054000DD066E8181EA94E00E94DF066AE373E0D3
:1005500081EA94E00E94DD066F8181EA94E00E94C6
:10056000DF066AE373E081EA94E00E94DD066885B5
:1005700081EA94E00E94DF066AE373E081EA94E096
:100580000E94DD06698581EA94E00E94DF066BE344
:1005900072E081EA94E00E94FA066FE372E081EA79
:1005A00094E00E94DD066FE373E081EA94E00E942C
:1005B000DD066FE372E081EA94E00E94FA066AE3E6
:1005C00073E081EA94E00E94DD06F801628581EA29
:1005D00094E00E94DF066AE373E081EA94E00E94FF
:1005E000DD06F801638581EA94E00E94DF066AE394
:1005F00073E081EA94E00E94DD06F801648581EAF7
:1006000094E00E94DF066AE373E081EA94E00E94CE
:10061000DD06F801658581EA94E00E94DF066AE361
:1006200073E081EA94E00E94DD06F801668581EAC4
:1006300094E00E94DF066BE372E081EA94E00E949E
:10064000DD0661E473E081EA94E00E94DD066AE37E
:1006500073E081EA94E00E94DD066A8581EA94E015
:100660000E94DF066AE373E081EA94E00E94DD06FF
:100670006B8581EA94E00E94DF066AE373E081EA19
:1006800094E00E94DD066C8581EA94E00E94DF061A
:100690006AE373E081EA94E00E94DD066D8581EAF9
:1006A00094E00E94DF066AE373E081EA94E00E942E
:1006B000DD066E8581EA94E00E94DF066BE372E05E
:1006C00081EA94E00E94FA066FE372E081EA94E026
:1006D0000E94DD066FE373E081EA94E00E94DD068C
:1006E0006FE372E081EA94E00E94FA066AE373E045
:1006F00081EA94E00E94DD06F801678581EA94E0D2
:100700000E94DF066AE373E081EA94E00E94DD065E
:10071000F801608981EA94E00E94DF066AE373E0F1
:1007200081EA94E00E94DD06F801618981EA94E0A3
:100730000E94DF066AE373E081EA94E00E94DD062E
:10074000F801628981EA94E00E94DF066AE373E0BF
:1007500081EA94E00E94DD06F801638981EA94E071
:100760000E94DF066BE372E081EA94E00E94DD06FE
:1007700061E473E081EA94E00E94DD066AE373E0DD
:1007800081EA94E00E94DD066F8581EA94E00E9490
:10079000DF066AE373E081EA94E00E94DD0668897F
:1007A00081EA94E00E94DF066AE373E081EA94E064
:1007B0000E94DD06698981EA94E00E94DF066AE30F
:1007C00073E081EA94E00E94DD066A8981EA94E0A0
:1007D0000E94DF066AE373E081EA94E00E94DD068E
:1007E0006B8981EA94E00E94DF066BE372E081EAA4
:1007F00094E00E94FA066FE372E081EA94E00E94BE
:10080000DD066FE373E081EA94E00E94DD066FE3AA
:1008100072E081EA94E00E94FA066AE373E081EAFA
:1008200094E00E94DD06F801648981EA94E00E9468
:10083000DF066AE373E081EA94E00E94DD06F801D6
:10084000658981EA94E00E94DF066AE373E081EA49
:1008500094E00E94DD06F801668981EA94E00E9436
:10086000DF066AE373E081EA94E00E94DD06F801A6
:10087000678981EA94E00E94DF066AE373E081EA17
:1008800094E00E94DD06F801608D81EA94E00E9408
:10089000DF066BE372E081EA94E00E94DD0661E42A
:1008A00073E081EA94E00E94DD066AE373E081EA86
:1008B00094E00E94DD066C8981EA94E00E94DF06E4
:1008C0006AE373E081EA94E00E94DD066D8981EAC3
:1008D00094E00E94DF066AE373E081EA94E00E94FC
:1008E000DD066E8981EA94E00E94DF066AE373E028
:1008F00081EA94E00E94DD066F8981EA94E00E941B
:10090000DF066AE373E081EA94E00E94DD06688D09
:1009100081EA94E00E94DF066BE372E081EA94E0F2
:100920000E94FA066FE372E081EA94E00E94DD061D
:100930006FE373E081EA94E00E94DD066FE372E00A
:1009400081EA94E0DF91CF911F910F910C94FA0608
:10095000EF92FF920F931F93CF93DF93C8E2D4E0FF
:100960007E0100E010E028E130E040E050E060E08F
:1009700070E0CB010E94CB0BE8E2F4E080E090E075
:100980008017910739F0219131916217730759F35C
:100990000196F6CFF701619371937F018C010F5F90
:1009A0001F4F05301105F9F628E130E040E050E036
:1009B00060E070E0CB010E94CB0B70933304609336
:1009C0003204699179914AE050E081EA94E00E9412
:1009D000B30784E0C233D807A1F7DF91CF911F910D
:1009E0000F91FF90EF9008952091280430912904F1
:1009F000FC01EB5FFB4F82179307D1F488E58083FE
:100A00000E94570160E773E081EA94E00E94FA06D1
:100A100080910402909105020197909305028093C2
:100A20000402892B59F50E9457016BE773E022C03D
:100A300020912A0430912B0482179307F9F2209118
:100A40002C0430912D0482179307C1F220912E04BB
:100A500030912F048217930789F22091300430914E
:100A600031048217930751F28DE280830E9457016F
:100A70006BE973E081EA94E00C94FA060895AF9272
:100A8000BF92CF92DF92FF920F931F93CF93DF938A
:100A90006C018B0163EB73E081EA94E00E94DD0658
:100AA0005601C0E0D0E001501109C017D1077CF415
:100AB00081EA94E00E94CA0718161906B4F781EA81
:100AC00094E00E94F607F82E8DE0F8120DC0CC0DD0
:100AD000DD1D1882DF91CF911F910F91FF90DF9064
:100AE000CF90BF90AF9008956F2D81EA94E00E945F
:100AF000DF06F501F1925F012196D7CFCF93DF9307
:100B0000CDB7DEB7A0970FB6F894DEBF0FBECDBF4E
:100B100060E270E0CE0101960E943F0581EA94E018
:100B20000E94E6066BEC73E081EA94E00E94DD0629
:100B3000CE0101960E94470C4AE050E081EA94E021
:100B40000E94AC0766ED73E081EA94E00E94FA0629
:100B5000CE0101960E94470CA0960FB6F894DEBF16
:100B60000FBECDBFDF91CF9108950E94B4000E94C7
:100B70004E010E94A80481EA94E00E94E6060E94C9
:100B8000CB000E9457010E947E05CB010E94F40415
:100B900081EA94E00E94160880E090E008951F9298
:100BA0000F920FB60F9211242F933F938F939F9321
:100BB000AF93BF938091330490913404A091350496
:100BC000B09136043091320423E0230F2D3720F406
:100BD0000196A11DB11D05C026E8230F0296A11D97
:100BE000B11D209332048093330490933404A09376
:100BF0003504B09336048091370490913804A09165
:100C00003904B0913A040196A11DB11D80933704B7
:100C100090933804A0933904B0933A04BF91AF91F4
:100C20009F918F913F912F910F900FBE0F901F902A
:100C30001895789484B5826084BD84B5816084BD44
:100C400085B5826085BD85B5816085BDEEE6F0E045
:100C5000808181608083E1E8F0E0108280818260A1
:100C60008083808181608083E0E8F0E08081816022
:100C70008083E1EBF0E0808184608083E0EBF0E052
:100C8000808181608083E1E9F0E0808182608083FF
:100C9000808181608083E0E9F0E0808181608083F1
:100CA000E1EAF0E0808182608083808181608083DE
:100CB000E0EAF0E0808181608083E1E2F1E0808120
:100CC00082608083808181608083E0E2F1E08081C6
:100CD00081608083EAE7F0E08081846080838081A6
:100CE000826080838081816080838081806880834E
:100CF0001092C1000895863308F0865390917B00CE
:100D0000282F2870977F922B90937B0087702091DB
:100D1000060290E4299F90011124822B80937C008D
:100D200080917A00806480937A0080917A0086FDB9
:100D3000FCCF809178002091790090E0922B08956B
:100D4000CF92DF92EF92FF920F931F93CF93DF9397
:100D50006C01EB017B01E40EF51E00E010E0CE1506
:100D6000DF0561F06991D601ED91FC910190F08170
:100D7000E02DC6011995080F191FF1CFC801DF91A9
:100D8000CF911F910F91FF90EF90DF90CF9008953A
:100D90006115710579F0FB0101900020E9F73197A9
:100DA000AF01461B570BDC01ED91FC910280F381F2
:100DB000E02D199480E090E008950C94C806DC01C1
:100DC000ED91FC910190F081E02D19940F931F9308
:100DD000CF93DF93EC016DE00E94DF068C016AE0A7
:100DE000CE010E94DF06800F911FDF91CF911F91EE
:100DF0000F9108950F931F93CF93DF93EC010E94FF
:100E0000C8068C01CE010E94E606800F911FDF917B
:100E1000CF911F910F9108958F929F92AF92BF92A1
:100E2000CF92DF92EF92FF920F931F93CF93DF93B6
:100E3000CDB7DEB7A1970FB6F894DEBF0FBECDBF1A
:100E40006C01142FE52FCB01022F19A2223008F4D8
:100E50000AE07E0121E2E20EF11C802E912CA12CF1
:100E6000B12C612F7E2FA50194010E94860C029F58
:100E70001019112481E0E81AF1081A3014F4105DF9
:100E800001C0195CF7011083122FE32FCA01232B35
:100E9000242B252B31F7B701C6010E94C806A19665
:100EA0000FB6F894DEBF0FBECDBFDF91CF911F917B
:100EB0000F91FF90EF90DF90CF90BF90AF909F90F9
:100EC0008F900895CF92DF92EF92FF920F931F932E
:100ED000CF93DF93EC016A017B012115310579F491
:100EE000E881F9810190F081E02D642FDF91CF91AD
:100EF0001F910F91FF90EF90DF90CF9019942A30BF
:100F00003105E9F477FF1AC06DE20E94DF068C011B
:100F100044275527BA014C195D096E097F092AE05B
:100F2000CE010E940C07800F911FDF91CF911F917E
:100F30000F91FF90EF90DF90CF9008952AE0B701D6
:100F4000A601CE01DF91CF911F910F91FF90EF90FD
:100F5000DF90CF900C940C079A01AB01770F660BD2
:100F6000770B0C9462070F931F93CF93DF93EC01E1
:100F70009A01AB01770F660B770B0E9462078C0119
:100F8000CE010E94E606800F911FDF91CF911F9145
:100F90000F910895FC0124853585F901E05CFF4F30
:100FA00080819181329620813181821B930B8F73D6
:100FB00099270895DC011C96ED91FC911D97DF01A6
:100FC000A05CBF4F2D913C91119712968D919C91F1
:100FD00011972817390739F08D919C91E80FF91F67
:100FE000808190E008958FEF9FEF0895FC01A48524
:100FF000B585FD01E05CFF4F208131813296808113
:1010000091812817390779F080819181A80FB91F44
:101010008C91208131812F5F3F4F2F733327318394
:10102000208390E008958FEF9FEF0895FC0181A148
:10103000882329F0A489B5898C9186FFFBCF11A262
:1010400008950F931F93CF93DF93FC01A685B78577
:101050008D01005C1F4FE8018881998101968F7393
:101060009927AD014E5B5F4FEA01288139818217D4
:101070009307D1F3E80128813981A20FB31F6C9344
:10108000A685B785A05CBF4F11969C938E93A689C9
:10109000B7892C9181E090E0078C02C0880F991FDE
:1010A0000A94E2F7822B8C9381E081A30488F5896E
:1010B000E02D80818064808381E090E0DF91CF919A
:1010C0001F910F910895FB01E05CFF4F208131815A
:1010D0002F5F3F4F2F733327DB01AE5BBF4F4D9127
:1010E0005C912417350741F040815181DB01A40F49
:1010F000B51F8C933183208308951F920F920FB6F2
:101100000F9211240BB60F922F933F934F935F933F
:101110006F937F938F939F93AF93BF93EF93FF93BF
:101120008091C00082FD07C08091C6006FE976E023
:101130000E94630802C08091C600FF91EF91BF91A9
:10114000AF919F918F917F916F915F914F913F915F
:101150002F910F900BBE0F900FBE0F901F90189500
:101160001F920F920FB60F9211240BB60F922F936E
:101170003F934F935F936F937F938F939F93AF931F
:10118000BF93EF93FF938091C80082FD07C08091C9
:10119000CE0067E176E00E94630802C08091CE0035
:1011A000FF91EF91BF91AF919F918F917F916F913F
:1011B0005F914F913F912F910F900BBE0F900FBEFB
:1011C0000F901F9018951F920F920FB60F92112437
:1011D0000BB60F922F933F934F935F936F937F9331
:1011E0008F939F93AF93BF93EF93FF938091D00022
:1011F00082FD07C08091D6006FE875E00E94630809
:1012000002C08091D600FF91EF91BF91AF919F9165
:101210008F917F916F915F914F913F912F910F909F
:101220000BBE0F900FBE0F901F9018951F920F923C
:101230000FB60F9211240BB60F922F933F934F933B
:101240005F936F937F938F939F93AF93BF93EF932E
:10125000FF938091300182FD07C08091360167E0E5
:1012600075E00E94630802C080913601FF91EF9102
:10127000BF91AF919F918F917F916F915F914F91AE
:101280003F912F910F900BBE0F900FBE0F901F90AC
:1012900018951F920F920FB60F9211240BB60F9252
:1012A0002F933F938F939F93EF93FF9320919B06F0
:1012B00030919C0680919D0690919E0628173907D3
:1012C00031F48091C1008F7D8093C10014C0E09102
:1012D0009D06F0919E06E55AF94F208180919D066A
:1012E00090919E0601968F73992790939E06809306
:1012F0009D062093C600FF91EF919F918F913F91A2
:101300002F910F900BBE0F900FBE0F901F9018954E
:101310001F920F920FB60F9211240BB60F922F93BC
:101320003F938F939F93EF93FF93209113063091F8
:10133000140680911506909116062817390731F486
:101340008091C9008F7D8093C90014C0E09115067B
:10135000F0911606ED52FA4F20818091150690917A
:10136000160601968F73992790931606809315069B
:101370002093CE00FF91EF919F918F913F912F91FC
:101380000F900BBE0F900FBE0F901F9018951F92DD
:101390000F920FB60F9211240BB60F922F933F931B
:1013A0008F939F93EF93FF9320918B0530918C0542
:1013B00080918D0590918E052817390731F4809121
:1013C000D1008F7D8093D10014C0E0918D05F09104
:1013D0008E05E55BFA4F208180918D0590918E05F9
:1013E00001968F73992790938E0580938D05209396
:1013F000D600FF91EF919F918F913F912F910F9088
:101400000BBE0F900FBE0F901F9018951F920F925A
:101410000FB60F9211240BB60F922F933F938F9319
:101420009F93EF93FF9320910305309104058091E2
:101430000505909106052817390731F4809131018F
:101440008F7D8093310114C0E0910505F091060570
:10145000ED53FB4F20818091050590910605019683
:101460008F73992790930605809305052093360185
:10147000FF91EF919F918F913F912F910F900BBE14
:101480000F900FBE0F901F901895CF92DF92EF92A2
:10149000FF920F931F93CF93DF93EC016A017B01BF
:1014A0004115514E6105710509F1EC89FD8981E015
:1014B00090E008A002C0880F991F0A94E2F7808389
:1014C00060E079E08DE390E0A70196010E94860C30
:1014D00089019A0101501109210931093695279591
:1014E00017950795980101151041A8F0EC89FD8921
:1014F000108260E874E88EE190E0A70196010E94F6
:10150000860CDA01C9010197A109B109B695A79521
:10151000979587959C01E889F9893083EA89FB8949
:10152000208319A2EE89FF89408181E090E09C012F
:101530000C8C02C0220F331F0A94E2F7242B208365
:10154000EE89FF8940819C010D8C02C0220F331F60
:101550000A94E2F7242B2083EE89FF8940819C01C5
:101560000E8C02C0220F331F0A94E2F7242B208333
:10157000EE89FF8920810F8C02C0880F991F0A9481
:10158000E2F7809582238083DF91CF911F910F91A5
:10159000FF90EF90DF90CF900895CF92DF92EF927F
:1015A000FF92E1EAF4E01382128288EEC82E83E013
:1015B000D82EE12CF12CC482D582E682F7826FED21
:1015C00073E0718360838FE996E0958784878BE56C
:1015D00096E09787868785EC90E0918B808B84ECF2
:1015E00090E0938B828B80EC90E0958B848B81ECE8
:1015F00090E0978B868B82EC90E0918F808F86ECC9
:1016000090E0938F828F44E0448F33E0358F27E062
:10161000268F95E0978F81E080A3EFE7F4E01382B7
:101620001282C482D582E682F78271836083A7E149
:10163000B6E0B587A487A3EDB5E0B787A687ADEC84
:10164000B0E0B18BA08BACECB0E0B38BA28BA8EC7C
:10165000B0E0B58BA48BA9ECB0E0B78BA68BAAEC5D
:10166000B0E0B18FA08FAEECB0E0B38FA28F448F0B
:10167000358F268F978F80A3EDE5F4E013821282D9
:10168000C482D582E682F78271836083AFE8B5E0D9
:10169000B587A487ABE4B5E0B787A687A5EDB0E032
:1016A000B18BA08BA4EDB0E0B38BA28BA0EDB0E02A
:1016B000B58BA48BA1EDB0E0B78BA68BA2EDB0E00B
:1016C000B18FA08FA6EDB0E0B38FA28F448F358F7E
:1016D000268F978F80A3EBE3F4E013821282C482FB
:1016E000D582E682F7827183608367E075E0758753
:1016F000648763EC74E07787668765E371E0718BDC
:10170000608B64E371E0738B628B60E371E0758BD7
:10171000648B61E371E0778B668B62E371E0718FBC
:10172000608F66E371E0738F628F448F358F268FF1
:10173000978F80A3FF90EF90DF90CF900895009750
:1017400029F0BC0180E090E00C943E0C0895CF930A
:10175000DF9300D01F92CDB7DEB76115710581050B
:10176000910579F09B01AC0169833A834B835C83DB
:101770000E943A0C29813A814B815C810E94A80C1D
:1017800003C060E070E0CB010F900F900F900F90BE
:10179000DF91CF910895CF92DF92EF92FF920F9356
:1017A0001F93621773078407950784F489019A01D0
:1017B0006B017C01C901B8016C197D098E099F0973
:1017C0000E94A70B6C0D7D1D8E1D9F1D1F910F91FB
:1017D000FF90EF90DF90CF9008958F929F92AF92FD
:1017E000BF92CF92DF92EF92FF92CF93DF93EC0103
:1017F000688179818A819B816115710581059105D7
:1018000021F464E279ED8BE597E02DE133EF41E0DF
:1018100050E00E94A80C49015A019B01AC01A7EAC3
:10182000B1E40E94CF0C6B017C01ACEEB4EFA501DA
:1018300094010E94DD0CDC01CB018C0D9D1DAE1DC1
:10184000BF1DB7FF03C00197A109B04888839983E2
:10185000AA83BB83BC01CD019F77DF91CF91FF901D
:10186000EF90DF90CF90BF90AF909F908F900895B2
:101870000C94ED0B80E092E00C94ED0B6093000271
:1018800070930102809302029093030208951F93C4
:10189000FC0199278827BC01E89411911032E9F3E3
:1018A000193010F01E30C8F31B3251F01D3249F4CC
:1018B000689406C00E94710C610F711D811D911DFD
:1018C000119110531A30B0F33EF4909580957095B5
:1018D00061957F4F8F4F9F4F1F910895F8940C94FF
:1018E000F10C592F482F372F262F660F771F881F8F
:1018F000991F660F771F881F991F620F731F841F20
:10190000951F660F771F881F991F0895A1E21A2E51
:10191000AA1BBB1BFD010DC0AA1FBB1FEE1FFF1F93
:10192000A217B307E407F50720F0A21BB30BE40BE3
:10193000F50B661F771F881F991F1A9469F760952A
:101940007095809590959B01AC01BD01CF010895E4
:10195000052E97FB1EF400940E94BF0C57FD07D084
:101960000E94860C07FC03D04EF40C94BF0C5095DB
:101970004095309521953F4F4F4F5F4F089590957B
:101980008095709561957F4F8F4F9F4F0895EE0F13
:10199000FF1F881F8BBF0790F691E02D19940E94BE
:1019A000E20CA59F900DB49F900DA49F800D911DFA
:1019B00011240895B7FF0C94CF0C0E94CF0C821B0A
:1019C000930B0895A29FB001B39FC001A39F700D18
:1019D000811D1124911DB29F700D811D1124911D37
:0619E0000895F894FFCF0A
:1019E60001000000050001796F7572207368697047
:1019F6007300506F736974696F6E696E673A200A77
:101A060000207C20202030207C202031207C2020BB
:101A160032207C203320207C202034207C20002D86
:101A26002D2D2D2D2D2D2D2D2D2D2D2D2D2D2D2DE0
:101A36002D2D2D2D2D2D2D2D2D2D00207C202020E2
:101A460035207C202036207C202037207C20382022
:101A5600207C202039207C2000207C202031302052
:101A66007C203131207C203132207C203133207C97
:101A7600203134207C2000207C20203135207C2021
:101A86003136207C203137207C203138207C2031B3
:101A960039207C2000207C20203230207C203231EE
:101AA600207C203232207C203233207C20323420AD
:101AB6007C2000596F7572206F70706F6E656E7442
:101AC60073206669656C643A2000207468656972E3
:101AD600207368697073206C65667421202020204D
:101AE60020202020202020202020202020202020F0
:101AF6002020202020202020202020202020796F38
:101B060075722063757272656E742072656D616997
:101B16006E696E67536869707300207C2020002010
:101B260020202020202020202020202020202020AF
:101B3600202020202020202020202020202020209F
:101B460020202020202020202020202020202000AF
:101B56004869742061207368697000596F75206840
:101B6600697420616C6C2074686520736869707391
:101B760020796F752077696E202100596F75206472
:101B86006964206E6F7420686974206120736869C7
:101B9600702100456E7465722074686520636F6FEE
:101BA6007264696E617465733A200041747461638E
:101BB6006B696E672000202E2E2E0000000000218B
:0C1BC60008A006CA07F607DA0716080098
:00000001FF
