:100000000C9444010C9475010C9475010C947501C9
:100010000C9475010C9475010C9475010C94750188
:100020000C9475010C9475010C9475010C94750178
:100030000C9475010C9475010C9475010C94750168
:100040000C9475010C9475010C9475010C94750158
:100050000C9475010C9475010C9475010C942C0D85
:100060000C9475010C942A110C94F6110C947501E2
:100070000C9475010C9475010C9475010C94750128
:100080000C9475010C9475010C9475010C94750118
:100090000C945D110C9435120C9475010C9475013F
:1000A0000C9475010C9475010C9475010C947501F8
:1000B0000C9475010C9475010C9475010C947501E8
:1000C0000C9475010C9475010C9475010C949011AD
:1000D0000C9474120C9475010C94C3110C94B3120B
:1000E0000C9475016B0E6E0E610E650EA50E720EF0
:1000F000760E7C0E800E840E8A0E8E0E920EA50E4B
:10010000980E9C0EA00E0C94650E0C9477010C9426
:10011000A00E0C946B0E0C949C0E0C947C0E0C9404
:10012000980E0C9477100C94840E0C946E0E0C9414
:10013000610E0C94800E0C94CE100C94720E0C94E4
:100140008E0E0C9487100C94760E0C947A130C94EB
:10015000920E0C94A3100C948A0E0C94C3100C9461
:100160003B0F0C94A50E0000090A02080B0C0D07AA
:100170000603040100000000000000000000000071
:10018000000000000000000000000000000000006F
:10019000000011100F00000000000000000000002F
:1001A000000000000000000000000000010210201C
:1001B000200808102040102040800201020108049D
:1001C0000201010204081020408080402010080431
:1001D000020180040201804020100804020108048A
:1001E00002010102040810204080010204081020CE
:1001F00040800505050507050808080802020202F7
:100200000A0A0808040404040101010101010101B2
:100210000303030303030303040707070C0C0C0C7D
:100220000C0C0C0C02020202060606060606060666
:100230000B0B0B0B0B0B0B0B0000200023002600FD
:1002400029002C002F0032000001000003010601EC
:10025000090100002200250028002B002E0031009B
:10026000340002010000050108010B01000021001B
:10027000240027002A002D00300033000101000077
:10028000040107010A017A1311241FBECFEFD1E246
:10029000DEBFCDBF00E00CBF19E0A0E0B2E0E2E7B6
:1002A000F0E300E00BBF02C007900D92AE34B1073F
:1002B000D9F72CE0AEE4B9E001C01D92A937B2072E
:1002C000E1F711E0C4E4D1E000E006C021970109A4
:1002D000802FFE010E940D18C334D10780E008076B
:1002E000A9F70E943F0B0C948C170C940000FB01A3
:1002F00040815181FC0120813181CA01821B930B15
:1003000008950E94CD0D40E855E260E070E087E37B
:100310009AE00E94F21261E089E00E94A60E61E07C
:100320008AE00E94A60E61E08BE00E94A60E61E0CA
:100330008CE00E94A60E61E08DE00E94A60E60E0B7
:1003400087E00E94A60E61E087E00E94E20E60E076
:1003500084E00E94A60E61E084E00E94E20E60E06C
:1003600085E00E94A60E61E085E00E94E20E60E05A
:1003700086E00E94A60E61E086E00E94E20E80E028
:100380000E942F0E0C944C14CF92DF92EF92FF92AA
:100390000F931F93CF93DF930E94760D6B017C0127
:1003A000C0E0D0E003E010E00E94760DDC01CB015C
:1003B0008C199D09AE09BF0980319742A105B1058D
:1003C00008F06CC00E94FC16B8010E94B817FC012E
:1003D000EE0FFF1FE95CF64F61E080810E94E20EA4
:1003E00084E00E94120F892B29F489E00E94120FE9
:1003F0000197D9F085E00E94120F892B29F48AE039
:100400000E94120F019721F186E00E94120F892BA2
:1004100029F48BE00E94120F019769F164EF71E0FB
:1004200080E090E00E94A70DBFCF21966FE372E0BD
:1004300087E39AE00E94780F4AE050E0BE0187E32C
:100440009AE00E94601060E089E00E94E20ED2CF44
:1004500021966FE372E087E39AE00E94780F4AE00A
:1004600050E0BE0187E39AE00E94601060E08AE0FD
:100470000E94E20EC9CF21966FE372E087E39AE013
:100480000E94780F4AE050E0BE0187E39AE00E94A4
:10049000601060E08BE00E94E20EC0CFCE01DF91E1
:1004A000CF911F910F91FF90EF90DF90CF90089523
:1004B0006FE472E087E39AE00E94950F61E672E0D4
:1004C00087E39AE00E94950F6BE872E087E39AE079
:1004D0000E94780F66EC72E087E39AE00E94950F25
:1004E00069ED72E087E39AE00E94950F62E173E0A4
:1004F00087E39AE00E94780F68E473E087E39AE06C
:100500000E94950F64E673E087E39AE00E94950FDE
:1005100066E873E087E39AE00E94780F62EC73E08C
:1005200087E39AE00E94950F64EE73E087E39AE018
:100530000E94950F61E08CE00E94E20E87E00E942D
:10054000120F892BD9F760E08CE00E94E20E61E087
:100550008DE00E94E20E6AE074E087E39AE00E9478
:10056000950F0E94C4019093C7098093C60960E269
:1005700074E087E39AE00E94950F60E08CE00E94AF
:10058000E20E60E08DE00E94E20E60E089E00E94F1
:10059000E20E60E08AE00E94E20E60E08BE00E94E2
:1005A000E20E8091C6099091C70908950F931F9399
:1005B000CF93DF9306EB19E0C0E0D0E028E130E014
:1005C00040E050E060E070E0CB010E9478149B01B5
:1005D000E6EBF9E040E050E04C175D0741F0A191F7
:1005E000B1912A173B0731F04F5F5F4FF5CFF8010C
:1005F0007183608321960E5F1F4FC530D105F1F6E0
:1006000087E39AE0DF91CF911F910F910C94810FB6
:100610000F931F93CF93DF930EE919E0C0E0D0E072
:1006200028E130E040E050E060E070E0CB010E9463
:1006300078149B01EEE9F9E040E050E04C175D07CB
:1006400041F0A191B1912A173B0729F04F5F5F4F0D
:10065000F5CF21E001C020E0211101C0FFCFF8015A
:10066000619371938F012196C530D105C9F687E357
:100670009AE0DF91CF911F910F910C94810F0F930E
:100680001F93CF93DF9308EA19E0C0E0D0E028E1A0
:1006900030E040E050E060E070E0CB010E94781470
:1006A0009B01E8EAF9E040E050E04C175D0741F0BB
:1006B000A191B1912A173B0731F04F5F5F4FF5CF02
:1006C000F8017183608321960E5F1F4FC730D105FB
:1006D000F1F687E39AE0DF91CF911F910F910C948F
:1006E000810FCF93DF93CAE0D2E029E130E040E010
:1006F00050E060E070E0CB010E947814660F771F35
:10070000FB01E65FFD4F8081918128813981318332
:1007100020838993999382E0CC33D80731F7DF9116
:10072000CF9108950F931F93CF93DF9340919E092C
:1007300050919F096091A0097091A109A091A2090F
:10074000B091A309C091A409D091A5090091A6096F
:100750001091A709EAE6F9E080E090E03FE32FE49A
:100760008417950761F08617970749F08A179B074A
:1007700031F08C179D0719F08017910711F4208331
:1007800001C03083019631968931910549F7DF9197
:10079000CF911F910F910895E3E8F9E08FE38193E2
:1007A00099E0EC39F907D9F708950F931F93CF9388
:1007B000DF9363E374E087E39AE00E94780F62E4DA
:1007C00074E087E39AE00E94950F6CE774E087E39A
:1007D0009AE00E94780F68E974E087E39AE00E944B
:1007E000950F6AED74E087E39AE00E94780F67EF57
:1007F00074E087E39AE00E94950F69E275E087E371
:100800009AE00E94780F65E475E087E39AE00E9421
:10081000950F6AED74E087E39AE00E94780F65E730
:1008200075E087E39AE00E94950F60EA75E087E340
:100830009AE00E94780F6CEB75E087E39AE00E94E3
:10084000950F6AED74E087E39AE00E94950F66EFDA
:1008500075E087E39AE00E94950F6AED74E087E304
:100860009AE00E94950F63E176E087E39AE00E94A8
:10087000950F60E474E087E39AE00E94950F60E3CF
:1008800076E087E39AE00E94780F60919C0970916E
:100890009D094AE050E087E39AE00E94591068E41D
:1008A00076E087E39AE00E94780F60913C027091B5
:1008B0003D024AE050E087E39AE00E9460106AE956
:1008C00076E087E39AE00E94780F03E819E0F801E8
:1008D000608187E39AE00E947A0F6AE976E087E315
:1008E0009AE00E94780FF801618187E39AE00E9404
:1008F0007A0F6AE976E087E39AE00E94780FF801C0
:10090000628187E39AE00E947A0F6AE976E087E3E2
:100910009AE00E94780FF801638187E39AE00E94D1
:100920007A0F6AE976E087E39AE00E94780FF8018F
:10093000648187E39AE00E947A0F6CE276E087E3B5
:100940009AE00E94780F61EA76E087E39AE00E94DD
:10095000780F6AE976E087E39AE00E94780FCAE6AA
:10096000D9E0688187E39AE00E947A0F6AE976E02D
:1009700087E39AE00E94780F698187E39AE00E94FA
:100980007A0F6AE976E087E39AE00E94780F6A813D
:1009900087E39AE00E947A0F6AE976E087E39AE0BB
:1009A0000E94780F6B8187E39AE00E947A0F6AE9D0
:1009B00076E087E39AE00E94780F6C8187E39AE003
:1009C0000E947A0F6CE276E087E39AE00E94950F2E
:1009D0006BED74E087E39AE00E94780F6FE976E0B0
:1009E00087E39AE00E94780F6BED74E087E39AE06A
:1009F0000E94950F6AE976E087E39AE00E94780FFB
:100A0000F801658187E39AE00E947A0F6AE976E04F
:100A100087E39AE00E94780FF801668187E39AE005
:100A20000E947A0F6AE976E087E39AE00E94780FE5
:100A3000F801678187E39AE00E947A0F6AE976E01D
:100A400087E39AE00E94780FF801608587E39AE0D7
:100A50000E947A0F6AE976E087E39AE00E94780FB5
:100A6000F801618587E39AE00E947A0F6CE276E0F4
:100A700087E39AE00E94780F61EA76E087E39AE0E4
:100A80000E94780F6AE976E087E39AE00E94780F87
:100A90006D8187E39AE00E947A0F6AE976E087E346
:100AA0009AE00E94780F6E8187E39AE00E947A0FA5
:100AB0006AE976E087E39AE00E94780F6F8187E326
:100AC0009AE00E947A0F6AE976E087E39AE00E9452
:100AD000780F688587E39AE00E947A0F6AE976E0EA
:100AE00087E39AE00E94780F698587E39AE00E9485
:100AF0007A0F6CE276E087E39AE00E94950F6BED47
:100B000074E087E39AE00E94780F6FE976E087E36C
:100B10009AE00E94780F6BED74E087E39AE00E9400
:100B2000950F6AE976E087E39AE00E94780FF80172
:100B3000628587E39AE00E947A0F6AE976E087E3AC
:100B40009AE00E94780FF801638587E39AE00E949B
:100B50007A0F6AE976E087E39AE00E94780FF8015D
:100B6000648587E39AE00E947A0F6AE976E087E37A
:100B70009AE00E94780FF801658587E39AE00E9469
:100B80007A0F6AE976E087E39AE00E94780FF8012D
:100B9000668587E39AE00E947A0F6CE276E087E34D
:100BA0009AE00E94780F61EA76E087E39AE00E947B
:100BB000780F6AE976E087E39AE00E94780F6A8509
:100BC00087E39AE00E947A0F6AE976E087E39AE089
:100BD0000E94780F6B8587E39AE00E947A0F6AE99A
:100BE00076E087E39AE00E94780F6C8587E39AE0CD
:100BF0000E947A0F6AE976E087E39AE00E94780F14
:100C00006D8587E39AE00E947A0F6AE976E087E3D0
:100C10009AE00E94780F6E8587E39AE00E947A0F2F
:100C20006CE276E087E39AE00E94950F6BED74E04A
:100C300087E39AE00E94780F6FE976E087E39AE015
:100C40000E94780F6BED74E087E39AE00E94950FA5
:100C50006AE976E087E39AE00E94780FF8016785F9
:100C600087E39AE00E947A0F6AE976E087E39AE0E8
:100C70000E94780FF801608987E39AE00E947A0F5A
:100C80006AE976E087E39AE00E94780FF8016189CB
:100C900087E39AE00E947A0F6AE976E087E39AE0B8
:100CA0000E94780FF801628987E39AE00E947A0F28
:100CB0006AE976E087E39AE00E94780FF801638999
:100CC00087E39AE00E947A0F6CE276E087E39AE08D
:100CD0000E94780F61EA76E087E39AE00E94780F3D
:100CE0006AE976E087E39AE00E94780F6F8587E3F0
:100CF0009AE00E947A0F6AE976E087E39AE00E9420
:100D0000780F688987E39AE00E947A0F6AE976E0B3
:100D100087E39AE00E94780F698987E39AE00E944E
:100D20007A0F6AE976E087E39AE00E94780F6A8991
:100D300087E39AE00E947A0F6AE976E087E39AE017
:100D40000E94780F6B8987E39AE00E947A0F6CE229
:100D500076E087E39AE00E94950F6BED74E087E3FD
:100D60009AE00E94780F6FE976E087E39AE00E94AC
:100D7000780F6BED74E087E39AE00E94950F6AE9C3
:100D800076E087E39AE00E94780FF801648987E3B0
:100D90009AE00E947A0F6AE976E087E39AE00E947F
:100DA000780FF801658987E39AE00E947A0F6AE973
:100DB00076E087E39AE00E94780FF801668987E37E
:100DC0009AE00E947A0F6AE976E087E39AE00E944F
:100DD000780FF801678987E39AE00E947A0F6AE941
:100DE00076E087E39AE00E94780FF801608D87E350
:100DF0009AE00E947A0F6CE276E087E39AE00E9424
:100E0000780F61EA76E087E39AE00E94780F6AE95A
:100E100076E087E39AE00E94780F6C8987E39AE096
:100E20000E947A0F6AE976E087E39AE00E94780FE1
:100E30006D8987E39AE00E947A0F6AE976E087E39A
:100E40009AE00E94780F6E8987E39AE00E947A0FF9
:100E50006AE976E087E39AE00E94780F6F8987E37A
:100E60009AE00E947A0F6AE976E087E39AE00E94AE
:100E7000780F688D87E39AE00E947A0F6CE276E043
:100E800087E39AE00E94950F6BED74E087E39AE0A8
:100E90000E94780F6FE976E087E39AE00E94780F6E
:100EA0006BED74E087E39AE0DF91CF911F910F9192
:100EB0000C94950F0F931F93CF93DF93EC018091C8
:100EC000A8099091A9098E010D57164FC817D90787
:100ED00009F07EC01092C5091092C409F801808102
:100EE000883591F460ED76E087E39AE00E94950FF3
:100EF00067EF76E087E39AE00E94950F81E090E04B
:100F00009093C5098093C4098091C4099091C50943
:100F1000892B09F00AC10E94580264E177E087E357
:100F20009AE00E94780F6091C6097091C7094AE063
:100F300050E087E39AE00E9460108091C60990918A
:100F4000C7090A970CF441C088E5F80180838091B5
:100F50009C0990919D09019790939D0980939C090C
:100F60000E94D5036BED74E087E39AE00E94950F31
:100F70006AE277E087E39AE00E94780F4AE050E067
:100F8000BE0187E39AE00E94601062E477E087E3A5
:100F90009AE00E94950F6BED74E087E39AE00E945F
:100FA000950F80919C0990919D09892B09F0BDC0F6
:100FB0000E94D50362E577E087E39AE00E94950FEF
:100FC0001092090210920802B0C062E777E0A5C053
:100FD0008091AA099091AB09C817D90719F180919E
:100FE000AC099091AD09C817D907E1F08091AE091D
:100FF0009091AF09C817D907A9F08091B0099091D5
:10100000B109C817D90771F08091B2099091B3095D
:10101000C817D90739F08091B4099091B509C8175C
:10102000D90731F51092C5091092C409F8018081E1
:10103000883591F460ED76E087E39AE00E94950FA1
:1010400067EF76E087E39AE00E94950F81E090E0F9
:101050009093C5098093C4098091C4099091C509F2
:10106000892B09F062C00E94580261E977E057CFEE
:101070008DE2F80180830E94D5036BED74E087E375
:101080009AE00E94950F6AE277E087E39AE00E9477
:10109000780F4AE050E0BE0187E39AE00E946010BA
:1010A00067EA77E087E39AE00E94950F6BED74E0C2
:1010B00087E39AE00E94950FE8EAF9E0A2E5B9E03B
:1010C000819191919E01281B390BC90137FF03C003
:1010D0009195819591098D939D9339E0E63BF307B6
:1010E00079F727E731E042E050E067E070E082E521
:1010F00099E00E94E1146FEB77E087E39AE00E94A9
:10110000780F60915E0970915F094AE050E087E3D3
:101110009AE00E9460106BED74E087E39AE0DF9143
:10112000CF911F910F910C94950FDF91CF911F914B
:101130000F9108950F931F93CF93DF93EC0180914C
:10114000B6099091B7098E010D57164FC817D907E8
:1011500009F07EC01092C5091092C409F80180817F
:10116000883591F460ED76E087E39AE00E94950F70
:1011700067EF76E087E39AE00E94950F81E090E0C8
:101180009093C5098093C4098091C4099091C509C1
:10119000892B09F0DAC00E94580261E977E087E301
:1011A0009AE00E94780F6091C6097091C7094AE0E1
:1011B00050E087E39AE00E9460108091C609909108
:1011C000C70905970CF441C088E5F8018083809138
:1011D0009C0990919D09019790939D0980939C098A
:1011E0000E94D5036BED74E087E39AE00E94950FAF
:1011F0006AE277E087E39AE00E94780F4AE050E0E5
:10120000BE0187E39AE00E94601062E477E087E322
:101210009AE00E94950F6BED74E087E39AE00E94DC
:10122000950F80919C0990919D09892B09F08DC0A3
:101230000E94D50362E577E087E39AE00E94950F6C
:10124000109209021092080280C062E777E075C030
:101250008091B8099091B909C817D90709F47ACFD4
:101260008091BA099091BB09C817D90709F472CFC8
:101270008091BC099091BD09C817D90709F46ACFBC
:101280008091BE099091BF09C817D90709F462CFB0
:101290008DE2F80180830E94D5036BED74E087E353
:1012A0009AE00E94950F6AE277E087E39AE00E9455
:1012B000780F4AE050E0BE0187E39AE00E94601098
:1012C00067EA77E087E39AE00E94950F6BED74E0A0
:1012D00087E39AE00E94950FE6EBF9E0A0E6B9E01B
:1012E000819191919E01281B390BC90137FF03C0E1
:1012F0009195819591098D939D9339E0E03CF30799
:1013000079F727E731E042E050E065E070E080E601
:1013100099E00E94E1146FEB77E087E39AE00E9486
:10132000780F60916809709169094AE050E087E39D
:101330009AE00E9460106BED74E087E39AE0DF9121
:10134000CF911F910F910C94950FDF91CF911F9129
:101350000F910895CF93DF9380914E0990914F099B
:10136000893191050CF098C020913C0230913D02EA
:101370002115310529F410920902109208028DC03E
:10138000880F991FFC01E65FFD4FC081D1818091DC
:101390009E0990919F09FE01E659F64FC817D9079B
:1013A000D1F481E280832150310930933D022093B2
:1013B0003C020E94D5036EEC77E087E39AE00E943E
:1013C000780F4AE050E0BE0187E39AE00E94601087
:1013D00066EE77E049C08091A0099091A109C817F5
:1013E000D907A9F08091A2099091A309C817D9073C
:1013F00071F08091A4099091A509C817D90739F017
:101400008091A6099091A709C817D907D1F481E264
:1014100080832150310930933D0220933C020E9489
:10142000D5036EEC77E087E39AE00E94780F4AE0FC
:1014300050E0BE0187E39AE00E94601069EF77E018
:1014400013C08DE280830E94D5036EEC77E087E3C2
:101450009AE00E94780F4AE050E0BE0187E39AE0EC
:101460000E9460106BE078E087E39AE00E94950F9D
:101470006BED74E087E39AE00E94950F80914E092E
:1014800090914F09019690934F0980934E092091B6
:1014900008023091090201C001C0C901DF91CF915A
:1014A0000895AF92BF92CF92DF92FF920F931F9356
:1014B000CF93DF936C015C01C0E0D0E08B01015061
:1014C0001109C017D1077CF487E39AE00E947710D6
:1014D00018161906B4F787E39AE00E94A310F82EB5
:1014E0008DE0F8120DC0CC0DDD1D1882DF91CF917B
:1014F0001F910F91FF90DF90CF90BF90AF90089514
:101500006F2D87E39AE00E94A70FF501F1925F012A
:101510002196D7CFCF93DF93CDB7DEB7A0970FB685
:10152000F894DEBF0FBECDBF87E39AE00E94810F23
:101530006DE278E087E39AE00E94950F60E270E048
:10154000CE0101960E94510ACE0101960E946517B4
:10155000A0960FB6F894DEBF0FBECDBFDF91CF913E
:10156000089587E39AE00E94810F69E678E087E3B7
:101570009AE00E94950F87E39AE00E947710181670
:101580001906CCF787E39AE00E94A3108D3099F7F3
:101590000895AF92BF92CF92DF92FF920F931F9365
:1015A000CF93DF936C018B0167E878E087E39AE0E3
:1015B0000E94780F5601C0E0D0E001501109C01719
:1015C000D1077CF487E39AE00E9477101816190679
:1015D000B4F787E39AE00E94A310F82E8DE0F8128A
:1015E0000DC0CC0DDD1D1882DF91CF911F910F91A1
:1015F000FF90DF90CF90BF90AF9008956F2D87E35D
:101600009AE00E947A0FF501F1925F012196D7CFFF
:10161000CF93DF93CDB7DEB7A0970FB6F894DEBFB8
:101620000FBECDBF60E270E0CE0101960E94C90AF4
:1016300087E39AE00E94810F62EB78E087E39AE00B
:101640000E94780FCE0101960E9465174AE050E093
:1016500087E39AE00E9459106BE174E087E39AE017
:101660000E94950FCE0101960E946517A0960FB6B5
:10167000F894DEBF0FBECDBFDF91CF9108950F93D9
:101680001F93CF93DF930E9481010E948A0AFB017E
:10169000AB01415051094330510508F121E030E0E0
:1016A0003093C3092093C2092091C2093091C30924
:1016B00021303105A1F46DEB78E087E39AE00E94D8
:1016C000950F0E948A0AFB01AB014150510943303A
:1016D000510550F71092C3091092C209E5CFE130CD
:1016E000F10509F094C085E090E090939D09809306
:1016F0009C090E94CC030E94D6020E9408030E940B
:1017000071030E9492036CED78E087E39AE00E94F7
:10171000950F6091B6097091B7094AE050E087E3F0
:101720009AE00E9460106091B8097091B9094AE08E
:1017300050E087E39AE00E9460106091BA097091CE
:10174000BB094AE050E087E39AE00E946010609194
:10175000BC097091BD094AE050E087E39AE00E941D
:1017600060106091BE097091BF094AE050E087E3C4
:101770009AE00E9460100E94D5030E94B10AC2E064
:10178000D0E08091080290910902019709F059C1B7
:1017900020915009309151092F5F3F4F30935109EB
:1017A00020935009C901BE010E94B8178C0101970E
:1017B00031F50E94080BAB0169317105E0F010931F
:1017C000C1090093C0092091C0093091C10921309D
:1017D000310589F46BEE78E087E39AE00E94950F7B
:1017E0000E94080BAB016931710568F71092C109BD
:1017F0001092C009E8CFCA010E949A08C2CF20FD0A
:10180000C0CF0E94AA09892B09F0BBCFF7C0E230F4
:10181000F10509F084C087E090E090939D098093E2
:101820009C090E94CC030E943F030E9408030E946F
:1018300071030E9492036CED78E087E39AE00E94C6
:10184000950F6091A8097091A9094AE050E087E3DB
:101850009AE00E9460106091AA097091AB094AE079
:1018600050E087E39AE00E9460106091AC097091AB
:10187000AD094AE050E087E39AE00E946010609171
:10188000AE097091AF094AE050E087E39AE00E9408
:1018900060106091B0097091B1094AE050E087E3AF
:1018A0009AE00E9460106091B2097091B3094AE019
:1018B00050E087E39AE00E9460106091B409709153
:1018C000B5094AE050E087E39AE00E9460100E9468
:1018D000D5030E94B10AC2E0D0E080910802909145
:1018E0000902019709F0ADC080915009909151090A
:1018F0000196909351098093500980FD06C00E9483
:10190000080BCB010E945A07E8CFBE010E94B8170E
:10191000019719F70E94AA09892BF9F66FC033972E
:1019200009F08FC087E090E090939D0980939C0917
:101930000E94CC030E943F030E9408030E9471038F
:101940000E9492036CED78E087E39AE00E94950F85
:101950006091A8097091A9094AE050E087E39AE0F4
:101960000E9460106091AA097091AB094AE050E0B2
:1019700087E39AE00E9460106091AC097091AD0914
:101980004AE050E087E39AE00E9460106091AE095F
:101990007091AF094AE050E087E39AE00E9460103E
:1019A0006091B0097091B1094AE050E087E39AE094
:1019B0000E9460106091B2097091B3094AE050E052
:1019C00087E39AE00E9460106091B4097091B509B4
:1019D0004AE050E087E39AE00E9460100E94D5033D
:1019E0000E94B10AC2E0D0E020C0BE010E94B81738
:1019F0000197D9F40E94AA09892BF1F463E179E0F7
:101A000087E39AE00E94950F1CC080915009909145
:101A100051090196909351098093500980FDE5CFBB
:101A20000E94080BCB010E945A07809108029091F6
:101A30000902019751F305C00E94AA09892BA9F751
:101A4000DDCF87E39AE00E94C31080E090E0DF9151
:101A5000CF911F910F9108951F920F920FB60F9281
:101A600011242F933F938F939F93AF93BF938091B4
:101A7000C9099091CA09A091CB09B091CC093091C4
:101A8000C80923E0230F2D3720F40196A11DB11DB5
:101A900005C026E8230F0296A11DB11D2093C80999
:101AA0008093C9099093CA09A093CB09B093CC093C
:101AB0008091CD099091CE09A091CF09B091D00924
:101AC0000196A11DB11D8093CD099093CE09A093DD
:101AD000CF09B093D009BF91AF919F918F913F9162
:101AE0002F910F900FBE0F901F9018952FB7F8945D
:101AF0006091C9097091CA098091CB099091CC0974
:101B00002FBF08953FB7F8948091CD099091CE09E9
:101B1000A091CF09B091D00926B5A89B05C02F3F51
:101B200019F00196A11DB11D3FBFBA2FA92F982F03
:101B30008827820F911DA11DB11DBC01CD0142E07E
:101B4000660F771F881F991F4A95D1F70895CF9286
:101B5000DF92EF92FF92CF93DF936B017C010E94A3
:101B6000820DEB01C114D104E104F10479F00E946B
:101B7000820D6C1B7D0B683E7340A0F381E0C81A98
:101B8000D108E108F108C851DC4FECCFDF91CF91CB
:101B9000FF90EF90DF90CF900895789484B58260A5
:101BA00084BD84B5816084BD85B5826085BD85B501
:101BB000816085BDEEE6F0E0808181608083E1E8B0
:101BC000F0E01082808182608083808181608083E8
:101BD000E0E8F0E0808181608083E1EBF0E08081EB
:101BE00084608083E0EBF0E0808181608083E1E9C4
:101BF000F0E0808182608083808181608083E0E981
:101C0000F0E0808181608083E1EAF0E080818260A1
:101C10008083808181608083E0EAF0E08081816060
:101C20008083E1E2F1E08081826080838081816055
:101C30008083E0E2F1E0808181608083EAE7F0E088
:101C400080818460808380818260808380818160E4
:101C500080838081806880831092C10008958633DC
:101C600008F0865390917B00282F2870977F922B45
:101C700090937B00877020913E0290E4299F900111
:101C80001124822B80937C0080917A008064809361
:101C90007A0080917A0086FDFCCF809178002091B7
:101CA000790090E0922B089590E0FC013197E131AA
:101CB000F10508F04AC08827EE58FF4F8F4F0C946B
:101CC0000D18809180008F7703C0809180008F7DF8
:101CD00080938000089584B58F7702C084B58F7D8E
:101CE00084BD08958091B0008F7703C08091B000CB
:101CF0008F7D8093B0000895809190008F7707C00A
:101D0000809190008F7D03C080919000877F8093A9
:101D1000900008958091A0008F7707C08091A00067
:101D20008F7D03C08091A000877F8093A0000895DD
:101D3000809120018F7707C0809120018F7D03C0A3
:101D400080912001877F809320010895CF93DF93B6
:101D500090E0FC01E455FE4F2491FC01EE50FE4F53
:101D60008491882361F190E0880F991FFC01E45968
:101D7000FD4FC591D491FC01EE5AFD4FA591B49150
:101D8000611109C09FB7F8948881209582238883C8
:101D9000EC912E230BC0623061F49FB7F894388128
:101DA000822F809583238883EC912E2B2C939FBFC9
:101DB00006C08FB7F894E8812E2B28838FBFDF9160
:101DC000CF9108951F93CF93DF93282F30E0F9012F
:101DD000EA59FE4F8491F901E455FE4FD491F9017F
:101DE000EE50FE4FC491CC23C9F0162F81110E94F2
:101DF000540EEC2FF0E0EE0FFF1FEE5AFD4FA591B1
:101E0000B4918FB7F894111105C09C91ED2FE09516
:101E1000E92302C0EC91ED2BEC938FBFDF91CF91C2
:101E20001F910895CF93DF93282F30E0F901EA59ED
:101E3000FE4F8491F901E455FE4FD491F901EE5023
:101E4000FE4FC491CC2391F081110E94540EEC2FCF
:101E5000F0E0EE0FFF1FE85CFD4FA591B491EC910F
:101E6000ED2381E090E021F480E002C080E090E08A
:101E7000DF91CF910895CF92DF92EF92FF920F936F
:101E80001F93CF93DF936C01EB017B01E40EF51EF2
:101E900000E010E0CE15DF0561F06991D601ED910B
:101EA000FC910190F081E02DC6011995080F191FD2
:101EB000F1CFC801DF91CF911F910F91FF90EF906B
:101EC000DF90CF9008956115710579F0FB010190C5
:101ED0000020E9F73197AF01461B570BDC01ED916C
:101EE000FC910280F381E02D199480E090E0089548
:101EF0000C94630FDC01ED91FC910190F081E02DD9
:101F000019940F931F93CF93DF93EC016DE00E9420
:101F10007A0F8C016AE0CE010E947A0F800F911F28
:101F2000DF91CF911F910F9108950F931F93CF933E
:101F3000DF93EC010E94630F8C01CE010E94810FA0
:101F4000800F911FDF91CF911F910F9108950F93F3
:101F50001F93CF93DF93EC010E947A0F8C01CE0187
:101F60000E94810F800F911FDF91CF911F910F91E0
:101F700008958F929F92AF92BF92CF92DF92EF928D
:101F8000FF920F931F93CF93DF93CDB7DEB7A19747
:101F90000FB6F894DEBF0FBECDBF6C01142FE52F36
:101FA000CB01022F19A2223008F40AE07E0121E2BF
:101FB000E20EF11C802E912CA12CB12C612F7E2FD2
:101FC000A50194010E94CC17029F1019112481E0F1
:101FD000E81AF1081A3014F4105D01C0195CF70119
:101FE0001083122FE32FCA01232B242B252B31F72B
:101FF000B701C6010E94630FA1960FB6F894DEBF29
:102000000FBECDBFDF91CF911F910F91FF90EF9049
:10201000DF90CF90BF90AF909F908F900895CF9218
:10202000DF92EF92FF920F931F93CF93DF93EC0118
:102030006A017B012115310579F4E881F98101906C
:10204000F081E02D642FDF91CF911F910F91FF90D0
:10205000EF90DF90CF9019942A303105E9F477FFA3
:102060001AC06DE20E947A0F8C0144275527BA01ED
:102070004C195D096E097F092AE0CE010E94B90F53
:10208000800F911FDF91CF911F910F91FF90EF90E3
:10209000DF90CF9008952AE0B701A601CE01DF912D
:1020A000CF911F910F91FF90EF90DF90CF900C9404
:1020B000B90F9A01AB01770F660B770B0C940F10D9
:1020C0000F931F93CF93DF93EC019A01AB01770F2E
:1020D000660B770B0E940F108C01CE010E94810FBE
:1020E000800F911FDF91CF911F910F910895FC01F7
:1020F00024853585F901E05CFF4F8081918132961E
:1021000020813181821B930B8F7399270895DC0105
:102110001C96ED91FC911D97DF01A05CBF4F2D91A6
:102120003C91119712968D919C9111972817390720
:1021300039F08D919C91E80FF91F808190E008950E
:102140008FEF9FEF0895FC01A485B585FD01E05C4C
:10215000FF4F208131813296808191812817390784
:1021600079F080819181A80FB91F8C9120813181F4
:102170002F5F3F4F2F7333273183208390E00895E3
:102180008FEF9FEF0895FC0181A1882329F0A48996
:10219000B5898C9186FFFBCF11A208950F931F93F1
:1021A000CF93DF93FC01A685B7858D01005C1F4F9F
:1021B000E8018881998101968F739927AD014E5B63
:1021C0005F4FEA012881398182179307D1F3E80133
:1021D00028813981A20FB31F6C93A685B785A05CB7
:1021E000BF4F11969C938E93A689B7892C9181E05D
:1021F00090E0078C02C0880F991F0A94E2F7822BA7
:102200008C9381E081A30488F589E02D808180642E
:10221000808381E090E0DF91CF911F910F9108952D
:10222000FB01E05CFF4F208131812F5F3F4F2F7317
:102230003327DB01AE5BBF4F4D915C91241735070F
:1022400041F040815181DB01A40FB51F8C93318394
:10225000208308951F920F920FB60F9211240BB690
:102260000F922F933F934F935F936F937F938F932F
:102270009F93AF93BF93EF93FF938091C00082FD34
:1022800007C08091C60065E37CE00E94101102C087
:102290008091C600FF91EF91BF91AF919F918F9177
:1022A0007F916F915F914F913F912F910F900BBE56
:1022B0000F900FBE0F901F9018951F920F920FB6A0
:1022C0000F9211240BB60F922F933F934F935F936E
:1022D0006F937F938F939F93AF93BF93EF93FF93EE
:1022E0008091C80082FD07C08091CE006DEA7BE03E
:1022F0000E94101102C08091CE00FF91EF91BF911A
:10230000AF919F918F917F916F915F914F913F918D
:102310002F910F900BBE0F900FBE0F901F9018952E
:102320001F920F920FB60F9211240BB60F922F939C
:102330003F934F935F936F937F938F939F93AF934D
:10234000BF93EF93FF938091D00082FD07C08091EF
:10235000D60065E27BE00E94101102C08091D60099
:10236000FF91EF91BF91AF919F918F917F916F916D
:102370005F914F913F912F910F900BBE0F900FBE29
:102380000F901F9018951F920F920FB60F92112465
:102390000BB60F922F933F934F935F936F937F935F
:1023A0008F939F93AF93BF93EF93FF9380913001EF
:1023B00082FD07C0809136016DE97AE00E9410111C
:1023C00002C080913601FF91EF91BF91AF919F9133
:1023D0008F917F916F915F914F913F912F910F90CE
:1023E0000BBE0F900FBE0F901F9018951F920F926B
:1023F0000FB60F9211240BB60F922F933F938F932A
:102400009F93EF93FF932091310C3091320C809188
:10241000330C9091340C2817390731F48091C100A6
:102420008F7D8093C10014C0E091330CF091340C87
:10243000EF50F44F20818091330C9091340C019631
:102440008F7399279093340C8093330C2093C6009C
:10245000FF91EF919F918F913F912F910F900BBE24
:102460000F900FBE0F901F9018951F920F920FB6EE
:102470000F9211240BB60F922F933F938F939F933C
:10248000EF93FF932091A90B3091AA0B8091AB0B96
:102490009091AC0B2817390731F48091C9008F7DDA
:1024A0008093C90014C0E091AB0BF091AC0BE759DD
:1024B000F44F20818091AB0B9091AC0B01968F7300
:1024C00099279093AC0B8093AB0B2093CE00FF9198
:1024D000EF919F918F913F912F910F900BBE0F9095
:1024E0000FBE0F901F9018951F920F920FB60F926C
:1024F00011240BB60F922F933F938F939F93EF93DB
:10250000FF932091210B3091220B8091230B90910E
:10251000240B2817390731F48091D1008F7D8093E7
:10252000D10014C0E091230BF091240BEF51F54F33
:1025300020818091230B9091240B01968F73992712
:102540009093240B8093230B2093D600FF91EF915F
:102550009F918F913F912F910F900BBE0F900FBEC7
:102560000F901F9018951F920F920FB60F92112483
:102570000BB60F922F933F938F939F93EF93FF93FD
:102580002091990A30919A0A80919B0A90919C0A15
:102590002817390731F4809131018F7D8093310103
:1025A00014C0E0919B0AF0919C0AE75AF54F2081F4
:1025B00080919B0A90919C0A01968F739927909322
:1025C0009C0A80939B0A20933601FF91EF919F9183
:1025D0008F913F912F910F900BBE0F900FBE0F90D8
:1025E0001F901895CF92DF92EF92FF920F931F9357
:1025F000CF93DF93EC016A017B014115514E6105D8
:10260000710509F1EC89FD8981E090E008A002C024
:10261000880F991F0A94E2F7808360E079E08DE3E8
:1026200090E0A70196010E94CC1789019A01015000
:1026300011092109310936952795179507959801B4
:1026400001151041A8F0EC89FD89108260E874E85A
:102650008EE190E0A70196010E94CC17DA01C90132
:102660000197A109B109B695A795979587959C0102
:10267000E889F9893083EA89FB89208319A2EE89E8
:10268000FF89408181E090E09C010C8C02C0220F08
:10269000331F0A94E2F7242B2083EE89FF894081BF
:1026A0009C010D8C02C0220F331F0A94E2F7242BE9
:1026B0002083EE89FF8940819C010E8C02C0220F8D
:1026C000331F0A94E2F7242B2083EE89FF892081AF
:1026D0000F8C02C0880F991F0A94E2F7809582231D
:1026E0008083DF91CF911F910F91FF90EF90DF904A
:1026F000CF900895CF92DF92EF92FF92E7E3FAE056
:102700001382128288EEC82E83E0D82EE12CF12CA1
:10271000C482D582E682F78261E479E071836083C6
:1027200085E39CE09587848781EF9BE09787868788
:1027300085EC90E0918B808B84EC90E0938B828B86
:1027400080EC90E0958B848B81EC90E0978B868B6E
:1027500082EC90E0918F808F86EC90E0938F828F57
:1027600044E0448F33E0358F27E0268F95E0978F44
:1027700081E080A3E5E1FAE013821282C482D5826F
:10278000E682F78271836083ADEABBE0B587A487F8
:10279000A9E6BBE0B787A687ADECB0E0B18BA08B14
:1027A000ACECB0E0B38BA28BA8ECB0E0B58BA48B03
:1027B000A9ECB0E0B78BA68BAAECB0E0B18FA08FEC
:1027C000AEECB0E0B38FA28F448F358F268F978FFA
:1027D00080A3E3EFF9E013821282C482D582E682FD
:1027E000F78271836083A5E2BBE0B587A487A1EE81
:1027F000BAE0B787A687A5EDB0E0B18BA08BA4EDBA
:10280000B0E0B38BA28BA0EDB0E0B58BA48BA1EDB3
:10281000B0E0B78BA68BA2EDB0E0B18FA08FA6ED94
:10282000B0E0B38FA28F448F358F268F978F80A310
:10283000E1EDF9E013821282C482D582E682F7824A
:10284000718360836DE97AE07587648769E57AE072
:102850007787668765E371E0718B608B64E371E075
:10286000738B628B60E371E0758B648B61E371E065
:10287000778B668B62E371E0718F608F66E371E046
:10288000738F628F448F358F268F978F80A3FF9031
:10289000EF90DF90CF900895009729F0BC0180E081
:1028A00090E00C945C170895CF93DF9300D01F92B3
:1028B000CDB7DEB7611571058105910579F09B01F2
:1028C000AC0169833A834B835C830E94581729814A
:1028D0003A814B815C810E94EE1703C060E070E09A
:1028E000CB010F900F900F900F90DF91CF91089533
:1028F000CF92DF92EF92FF920F931F9362177307AD
:102900008407950784F489019A016B017C01C90150
:10291000B8016C197D098E099F090E9454146C0D31
:102920007D1D8E1D9F1D1F910F91FF90EF90DF90D9
:10293000CF900895DC01FB018C9190819D93819350
:102940004150510914161506BCF30895CF92DF9239
:10295000EF92FF920F931F93CF93DF93D82FC92F3E
:102960006B018A017901F9011995B80197FF0FC030
:10297000C601F701199597FF02C0C60119C0B80139
:102980008D2F9C2FF701199597FD0EC00FC0C60122
:10299000F70119951816190684F3B8018D2F9C2F8D
:1029A000F701199597FD02C0C80102C08D2F9C2F19
:1029B000DF91CF911F910F91FF90EF90DF90CF901B
:1029C00008952F923F924F925F926F927F928F92D3
:1029D0009F92AF92BF92CF92DF92EF92FF920F93AE
:1029E0001F93CF93DF93CDB7DEB72A970FB6F89436
:1029F000DEBF0FBECDBF8C017B015A8749876901BD
:102A00005195419551095E834D8329853A85200F63
:102A1000311F3A83298337E0E316F10478F5898082
:102A20009A8049855A85E49EC001E59E900DF49EEA
:102A3000900D11247801E80EF91E8E149F0408F001
:102A400077C1340106151705A0F4530169857A850D
:102A5000A61AB70AB301C501F60119951816190689
:102A600044F449855A85B501C3010E949A14350181
:102A7000E9CF29853A85820E931EDFCFC70196954F
:102A8000879549855A85849F5001859FB00C949FF6
:102A9000B00C1124A00EB11EB701615071097C83E6
:102AA0006B8377E0E716F10409F44CC08B819C81BD
:102AB000849F3001859F700C949F700C1124600ED0
:102AC000711E99E2E916F104A8F1C70123E0969579
:102AD00087952A95E1F7849F4001859F900C949FEC
:102AE000900C11241401220C331CA801420D531D1B
:102AF000B801680D791D9601C8010E94A6142C0129
:102B0000A501480D591D9194819491089601B50134
:102B1000C501880D991D0E94A6145C01B301680DC2
:102B2000791D9601A301C301821993090E94A6147D
:102B30003C0101C028019601A301B501C2010E9418
:102B4000A6145C0149855A85B501C8010E949A14F2
:102B500089809A804B815C8169857A85469F900146
:102B6000479F300D569F300D11243A832983390138
:102B7000600E711E23015401140120E030E06A143C
:102B80007B0408F43FC0B801C5012F833887F601E4
:102B900019952F81388518161906A4F1892B61F42F
:102BA00049855A85B501C1010E949A1489859A8583
:102BB000280E391E21E030E0E985FA85AE0EBF1EF1
:102BC000DECFB801C3012F833887F6011995A30121
:102BD00069857A85461B570B5C834B832F8138852B
:102BE00097FD14C0892B61F449855A85B201C30150
:102BF0000E949A1429853A85421A530A21E030E04E
:102C00006B807C806A147B04E0F60FC049855A858E
:102C1000B301C5010E949A1449855A85A40EB51EB8
:102C20006B807C8021E030E0AACF232B69F5E98519
:102C3000FA85EE9EC001EF9E900DFE9E900D112430
:102C40007801E80EF91E8E149F0408F071C034015B
:102C500006151705A0F4530129853A85A21AB30A6F
:102C6000B301C501F60119951816190644F44985F2
:102C70005A85B501C3010E949A143501E9CF29850F
:102C80003A85820E931EDFCF89819A814D815E81C4
:102C9000841B950BB801680F791F7A8369837501CE
:102CA000E218F308A101401B510BE416F5060CF4E1
:102CB000A7011416150634F4B501641B750BC80181
:102CC0000E949A1442018618970849815A81441932
:102CD000550989859A85481B590B8416950608F471
:102CE000A401141615063CF469817A81641B750BE6
:102CF000C5010E949A14E985FA85EE15FF0548F48E
:102D0000C701BF010E94A4179601AF01C8010E942C
:102D1000E11429853A852815390550F409811A816D
:102D200008191909C401B9010E94A4177B016DCECD
:102D30002A960FB6F894DEBF0FBECDBFDF91CF91BC
:102D40001F910F91FF90EF90DF90CF90BF90AF90C9
:102D50009F908F907F906F905F904F903F902F90BB
:102D600008958F929F92AF92BF92CF92DF92EF928F
:102D7000FF92CF93DF93EC01688179818A819B81F7
:102D8000611571058105910521F464E279ED8BE50A
:102D900097E02DE133EF41E050E00E94EE1749014A
:102DA0005A019B01AC01A7EAB1E40E9415186B011E
:102DB0007C01ACEEB4EFA50194010E942318DC0164
:102DC000CB018C0D9D1DAE1DBF1DB7FF03C001972C
:102DD000A109B04888839983AA83BB839F77DF9139
:102DE000CF91FF90EF90DF90CF90BF90AF909F90EA
:102DF0008F9008950C94B11680E092E00C94B11677
:102E0000A0E0B0E08093000290930102A093020240
:102E1000B093030208958F929F92AF92BF92CF9288
:102E2000DF92EF92FF92CF93DF93EC01688179817B
:102E30008A819B81611571058105910521F464E208
:102E400079ED8BE597E02DE133EF41E050E00E9412
:102E5000EE1749015A019B01AC01A7EAB1E40E94B7
:102E600015186B017C01ACEEB4EFA50194010E9432
:102E70002318DC01CB018C0D9D1DAE1DBF1DB7FFBE
:102E800003C00197A109B04888839983AA83BB83B3
:102E9000BC01CD019F77DF91CF91FF90EF90DF9044
:102EA000CF90BF90AF909F908F9008950C940B1788
:102EB00084E092E00C940B17609304027093050277
:102EC000809306029093070208951F93FC019927AF
:102ED0008827BC01E89411911032E9F3193010F001
:102EE0001E30C8F31B3251F01D3249F4689406C0FD
:102EF0000E948F17610F711D811D911D119110533B
:102F00001A30B0F33EF490958095709561957F4F9F
:102F10008F4F9F4F1F910895F8940C943718592F95
:102F2000482F372F262F660F771F881F991F660F90
:102F3000771F881F991F620F731F841F951F660FCD
:102F4000771F881F991F0895AA1BBB1B51E107C05B
:102F5000AA1FBB1FA617B70710F0A61BB70B881F29
:102F6000991F5A95A9F780959095BC01CD010895B8
:102F700097FB072E16F4009407D077FD09D00E9426
:102F8000A41707FC05D03EF4909581959F4F0895B6
:102F9000709561957F4F0895A1E21A2EAA1BBB1B65
:102FA000FD010DC0AA1FBB1FEE1FFF1FA217B30715
:102FB000E407F50720F0A21BB30BE40BF50B661F2B
:102FC000771F881F991F1A9469F7609570958095EF
:102FD00090959B01AC01BD01CF010895052E97FB93
:102FE0001EF400940E94051857FD07D00E94CC17CC
:102FF00007FC03D04EF40C9405185095409530957D
:1030000021953F4F4F4F5F4F089590958095709554
:1030100061957F4F8F4F9F4F0895EE0FFF1F881FC1
:103020008BBF0790F691E02D19940E942818A59F58
:10303000900DB49F900DA49F800D911D11240895B3
:10304000B7FF0C9415180E941518821B930B089556
:10305000A29FB001B39FC001A39F700D811D1124D9
:10306000911DB29F700D811D1124911D0895F8943A
:02307000FFCF90
:103072000100000001000000010000000100020048
:1030820003000400050006000700080009000A000A
:103092000B000C000D000E000F00100011001200BA
:1030A200130014001500160017001800050001593E
:1030B2006F75722073636F72652069733A200059CD
:1030C2006F7520666F756E64206120736869702168
:1030D2000054686973206D696E6967616D65206F60
:1030E2006E6C792075736573207468652033207265
:1030F20069676874204C4544732E0050726573737F
:1031020020616E6420686F6C642061206C69742099
:103112004C4544277320627574746F6E207768651E
:103122006E2074686579207475726E206F6E2075DA
:103132006E74696C2000746865204C454420747577
:10314200726E73206F66662E004561636820737528
:10315200636365737366756C20627574746F6E2039
:10316200707265737320696E637265617365732033
:10317200796F75722073636F726520627920312EC8
:103182002000466F722061207375636365737366F6
:10319200756C207368697020686974206765742093
:1031A20061626F766520352073636F7265206F6E82
:1031B20020456173792C200061626F766520313081
:1031C200206F6E204D656469756D206F72204861B5
:1031D20072642E00596F75722073636F7265207767
:1031E200696C6C20757064617465206F6E20736306
:1031F2007265656E2E005072657373206C6566741D
:103202006D6F7374206669726520627574746F6E77
:10321200207768656E207265616479202D2074685C
:1032220065206C6566746D6F737420677265656E78
:1032320020004C45442077696C6C207374617920BE
:103242006F6E20647572696E6720746865206761AD
:103252006D652E005468652067616D65206C617331
:103262007473203130207365636F6E64732E204750
:103272006F6F64206C75636B2100537461727469A3
:103282006E67206D696E6967616D65202E2E2E0056
:103292004D696E6967616D652066696E69736865FF
:1032A200642100506F736974696F6E696E673A20AA
:1032B2000A00202020202020202020202020202042
:1032C20020202020202020202020202020202020FC
:1032D20020202020202020202020202020202020EC
:1032E20020202020204C6567656E6400207C202011
:1032F20030207C202031207C202032207C20203372
:10330200207C202034207C0009090909093F3A2049
:103312006F6E20796F7572206669656C64206973BF
:1033220020656D7074792073706F742C206F6E201D
:103332006F70706F6E656E747320697320756E693D
:1033420064656E74696669656400202D2D2D2D2DCE
:103352002D2D2D2D2D2D2D2D2D2D2D2D2D2D2D2D9B
:103362002D2D2D2D2D2D0009090909094F3A206F08
:103372006E20796F7572206669656C6420697420AD
:10338200697320706F736974696F6E206F6620793C
:103392006F7572207368697000207C202035207C54
:1033A200202036207C202037207C202038207C20C2
:1033B2002039207C000909090909213A206F6E2071
:1033C200796F7572206669656C64206D65616E73D4
:1033D20020796F75722064657374726F79656420E9
:1033E200736869700009090909092D3A206F6E2076
:1033F200626F7468206669656C6473206D65616EC6
:10340200732061747461636B206D6973736564000A
:10341200207C203130207C203131207C2031322030
:103422007C203133207C203134207C0009090909B9
:1034320009583A206F6E206F70706F6E656E7473EC
:10344200206669656C64206D65616E73206F7070B3
:103452006F6E656E74732064657374726F796564E0
:10346200207368697000207C203135207C20313641
:10347200207C203137207C203138207C20313920BB
:103482007C2000207C203230207C203231207C20A5
:103492003232207C203233207C203234207C2000C7
:1034A200596F7572206F70706F6E656E742773201E
:1034B2006669656C643A2000207368697073206CD9
:1034C200656674212020202020202020202020201A
:1034D20020202020202020202020202020202020EA
:1034E2002020202020202020202020596F757220AB
:1034F20063757272656E742072656D61696E696E54
:10350200672073686970733A2000207C20200020B5
:1035120020202020202020202020202020202020A9
:103522002020202020202020202020202020202099
:1035320020202020202020202020202020202000A9
:10354200596F7527766520616C72656164792061B7
:10355200747461636B6564207468697320706F733F
:103562006974696F6E2100596F752073756E6B20D7
:103572007468652073686970206576656E206D6F6A
:1035820072652100596F75722066696E616C2073D5
:10359200636F72652069733A2000596F75206174F8
:1035A2007461636B656420706F736974696F6E20F8
:1035B2002000596F752068697420612073686970F2
:1035C2002100596F752068697420616C6C207468E1
:1035D2006520736869707320796F752077696E2032
:1035E20021005468652061747461636B2077617394
:1035F200206E6F74207375636365737366756C21D7
:103602000056616C7565206F6620636F756E746518
:10361200722069733A2000596F7520646964206EC4
:103622006F74206869742061207368697021005981
:103632006F75206D69737365642062792000596F1C
:103642007572206F70706F6E656E74206174746134
:10365200636B65642000596F75722073686970200E
:10366200776173206869742100596F7572207368DD
:103672006970207761732068697400596F757220D0
:103682006F70706F6E656E7420646964206E6F7403
:103692002068697420612073686970210050696331
:1036A2006B20796F757220646966666963756C74E4
:1036B200793A203120666F7220456173792C20326D
:1036C20020666F72204D656469756D2C203320660B
:1036D2006F7220486172642E005072657373207499
:1036E200686520456E746572206B657920746F2061
:1036F20073746172743A00456E7465722074686501
:1037020020636F6F7264696E6174657320796F757F
:10371200207769736820746F2061747461636B3AF7
:10372200200041747461636B696E672000496E7694
:10373200616C6964206D6F64652C20706C656173C7
:1037420065207265656E7465723A200044656D6F1E
:1037520020707572706F7365732000496E76616CAC
:10376200696420636F6F7264696E617465732C2083
:10377200706C656173652074727920616761696E2E
:103782003A2000596F75206C6F737420616C6C2045
:10379200796F75722073686970732120596F752073
:1037A2006C6F736521200009000A000B0000000005
:0E37B20000CE103B0F7710A3108710C310003D
:00000001FF
