:100000000C9481000C94B2000C94B2000C94B200D9
:100010000C94B2000C94B2000C94B2000C94B20098
:100020000C94B2000C94B2000C94B2000C94B20088
:100030000C94B2000C94B2000C94B2000C94B20078
:100040000C94B2000C94B2000C94B2000C94B20068
:100050000C94B2000C94B2000C94B2000C943903CE
:100060000C94B2000C94E7050C94B3060C94B20007
:100070000C94B2000C94B2000C94B2000C94B20038
:100080000C94B2000C94B2000C94B2000C94B20028
:100090000C941A060C94F2060C94B2000C94B20064
:1000A0000C94B2000C94B2000C94B2000C94B20008
:1000B0000C94B2000C94B2000C94B2000C94B200F8
:1000C0000C94B2000C94B2000C94B2000C944D0647
:1000D0000C9431070C94B2000C9480060C947007B9
:1000E0000C94B2000C9480050C940A040C9437080C
:1000F0000C948B050C9444050C9434050C94600509
:10010000370811241FBECFEFD1E2DEBFCDBF00E024
:100110000CBF13E0A0E0B2E0E2E4F4E100E00BBFCA
:1001200002C007900D92AA34B107D9F726E0AAE4DD
:10013000B3E001C01D92AE31B207E1F710E0C1E8B3
:10014000D0E000E006C021970109802FFE010E9447
:10015000F509C038D10780E00807A9F70E942803F5
:100160000C94B1090C9400000E94830340E855E20E
:1001700060E070E08CED93E00E94AF0740E855E24C
:1001800060E070E086E793E00E94AF0780E00E94A5
:10019000E5030C940909EAE4F3E08FE3819393E02B
:1001A000E336F907D9F70895CF93DF9367E072E05C
:1001B0008CED93E00E94640466E172E08CED93E0C4
:1001C0000E94640461EE72E08CED93E00E9464048E
:1001D00063E372E08CED93E00E94640461EE72E0F0
:1001E0008CED93E00E94640460E572E08CED93E096
:1001F0000E94640461EE72E08CED93E00E9464045E
:100200006EE672E08CED93E00E94640461EE72E0B1
:100210008CED93E00E9464046CE872E08CED93E056
:100220000E9464046AEA72E08CED93E00E94470445
:1002300060910402709105024AE050E08CED93E079
:100240000E94160561EC72E08CED93E00E9464045C
:1002500064ED72E08CED93E00E944704CAE4D3E0C1
:1002600068818CED93E00E94490464ED72E08CEDAE
:1002700093E00E94470469818CED93E00E94490459
:1002800064ED72E08CED93E00E9447046A818CED8E
:1002900093E00E94490464ED72E08CED93E00E94CB
:1002A00047046B818CED93E00E94490464ED72E099
:1002B0008CED93E00E9447046C818CED93E00E94EA
:1002C00049046FE272E08CED93E00E9464046DEDEE
:1002D00072E08CED93E00E94640464ED72E08CEDBA
:1002E00093E00E9447046D818CED93E00E944904E5
:1002F00064ED72E08CED93E00E9447046E818CED1A
:1003000093E00E94490464ED72E08CED93E00E945A
:1003100047046F818CED93E00E94490464ED72E024
:100320008CED93E00E94470468858CED93E00E9479
:10033000490464ED72E08CED93E00E944704698506
:100340008CED93E00E9449046FE272E08CED93E043
:100350000E9464046DED72E08CED93E00E946404F1
:1003600064ED72E08CED93E00E9447046A858CEDA9
:1003700093E00E94490464ED72E08CED93E00E94EA
:1003800047046B858CED93E00E94490464ED72E0B4
:100390008CED93E00E9447046C858CED93E00E9405
:1003A000490464ED72E08CED93E00E9447046D8592
:1003B0008CED93E00E94490464ED72E08CED93E0D3
:1003C0000E9447046E858CED93E00E9449046FE221
:1003D00072E08CED93E00E9464046DED72E08CEDB0
:1003E00093E00E94640464ED72E08CED93E00E945F
:1003F00047046F858CED93E00E94490464ED72E040
:100400008CED93E00E94470468898CED93E00E9494
:10041000490464ED72E08CED93E00E944704698921
:100420008CED93E00E94490464ED72E08CED93E062
:100430000E9447046A898CED93E00E94490464EDB0
:1004400072E08CED93E00E9447046B898CED93E0A1
:100450000E9449046FE272E08CED93E00E94640414
:100460006DED72E08CED93E00E94640464ED72E047
:100470008CED93E00E9447046C898CED93E00E9420
:10048000490464ED72E08CED93E00E9447046D89AD
:100490008CED93E00E94490464ED72E08CED93E0F2
:1004A0000E9447046E898CED93E00E94490464ED3C
:1004B00072E08CED93E00E9447046F898CED93E02D
:1004C0000E94490464ED72E08CED93E00E944704C1
:1004D000688D8CED93E00E9449046FE272E08CED30
:1004E00093E00E94640469ED72E08CED93E0DF918B
:1004F000CF910C946404EF92FF920F931F93CF93CC
:10050000DF93C3E6D3E07E0100E010E028E130E0B5
:1005100040E050E060E070E0CB010E943509E3E686
:10052000F3E080E090E08017910739F0219131915C
:100530006217730759F30196F6CFF7016193719330
:100540007F018C010F5F1F4F05301105F9F628E17F
:1005500030E040E050E060E070E0CB010E943509FF
:1005600070936E0360936D03699179914AE050E056
:100570008CED93E00E941D0583E0CD36D807A1F7EE
:10058000DF91CF911F910F91FF90EF900895AF925F
:10059000BF92DF92EF92FF920F931F93CF93DF935F
:1005A000CDB7DEB7A0970FB6F894DEBF0FBECDBFB4
:1005B00069EF72E08CED93E00E9464048E010F5F9E
:1005C0001F4F78015701A01AB10A8CED93E00E94E9
:1005D0003405892BD1F38CED93E00E946005D82E71
:1005E0008DE0D8122CC08CED93E00E9450046AE29A
:1005F00073E08CED93E00E9447047801C701801BF3
:10060000910B8A159B0544F4F70161917F018CEDF4
:1006100093E00E944904F2CF8CED93E0A0960FB6D0
:10062000F894DEBF0FBECDBFDF91CF911F910F9128
:10063000FF90EF90DF90BF90AF900C9450046D2D21
:100640008CED93E00E944904F701D1927F01BACF6B
:100650000E94B4000E94CB000E947B020E94D40042
:100660000E94C7028CED93E00E94800580E090E03C
:1006700008951F920F920FB60F9211242F933F935C
:100680008F939F93AF93BF9380916E0390916F036D
:10069000A0917003B091710330916D0323E0230F9B
:1006A0002D3720F40196A11DB11D05C026E8230FAA
:1006B0000296A11DB11D20936D0380936E0390934C
:1006C0006F03A0937003B0937103809172039091B4
:1006D0007303A0917403B09175030196A11DB11D20
:1006E0008093720390937303A0937403B093750384
:1006F000BF91AF919F918F913F912F910F900FBE1E
:100700000F901F901895789484B5826084BD84B54D
:10071000816084BD85B5826085BD85B5816085BDFC
:10072000EEE6F0E0808181608083E1E8F0E0108215
:10073000808182608083808181608083E0E8F0E056
:10074000808181608083E1EBF0E080818460808340
:10075000E0EBF0E0808181608083E1E9F0E080817E
:1007600082608083808181608083E0E9F0E0808125
:1007700081608083E1EAF0E0808182608083808113
:1007800081608083E0EAF0E0808181608083E1E243
:10079000F1E0808182608083808181608083E0E2FB
:1007A000F1E0808181608083EAE7F0E0808184600D
:1007B000808380818260808380818160808380816A
:1007C000806880831092C1000895863308F08653B4
:1007D00090917B00282F2870977F922B90937B001D
:1007E00087702091060290E4299F90011124822BAA
:1007F00080937C0080917A00806480937A0080915D
:100800007A0086FDFCCF809178002091790090E0FD
:10081000922B0895CF92DF92EF92FF920F931F9346
:10082000CF93DF936C01EB017B01E40EF51E00E03A
:1008300010E0CE15DF0561F06991D601ED91FC91D4
:100840000190F081E02DC6011995080F191FF1CF15
:10085000C801DF91CF911F910F91FF90EF90DF9032
:10086000CF9008956115710579F0FB01019000208A
:10087000E9F73197AF01461B570BDC01ED91FC9175
:100880000280F381E02D199480E090E008950C94AB
:100890003204DC01ED91FC910190F081E02D19947E
:1008A0000F931F93CF93DF93EC016DE00E944904F7
:1008B0008C016AE0CE010E944904800F911FDF91F4
:1008C000CF911F910F9108950F931F93CF93DF93B3
:1008D000EC010E9432048C01CE010E945004800F72
:1008E000911FDF91CF911F910F9108958F929F9249
:1008F000AF92BF92CF92DF92EF92FF920F931F932E
:10090000CF93DF93CDB7DEB7A1970FB6F894DEBFD4
:100910000FBECDBF6C01142FE52FCB01022F19A202
:10092000223008F40AE07E0121E2E20EF11C802E62
:10093000912CA12CB12C612F7E2FA50194010E9436
:10094000B409029F1019112481E0E81AF1081A3045
:1009500014F4105D01C0195CF7011083122FE32F0E
:10096000CA01232B242B252B31F7B701C6010E9486
:100970003204A1960FB6F894DEBF0FBECDBFDF9153
:10098000CF911F910F91FF90EF90DF90CF90BF908C
:10099000AF909F908F900895CF92DF92EF92FF9249
:1009A0000F931F93CF93DF93EC016A017B01211515
:1009B000310579F4E881F9810190F081E02D642F0F
:1009C000DF91CF911F910F91FF90EF90DF90CF902B
:1009D00019942A303105E9F477FF1AC06DE20E94BC
:1009E00049048C0144275527BA014C195D096E0949
:1009F0007F092AE0CE010E947604800F911FDF91CB
:100A0000CF911F910F91FF90EF90DF90CF900895BD
:100A10002AE0B701A601CE01DF91CF911F910F917E
:100A2000FF90EF90DF90CF900C9476049A01AB0189
:100A3000770F660B770B0C94CC040F931F93CF9317
:100A4000DF93EC019A01AB01770F660B770B0E94E5
:100A5000CC048C01CE010E945004800F911FDF91C5
:100A6000CF911F910F910895FC0124853585F901DF
:100A7000E05CFF4F80819181329620813181821B21
:100A8000930B8F7399270895DC011C96ED91FC91CF
:100A90001D97DF01A05CBF4F2D913C9111971296DD
:100AA0008D919C9111972817390739F08D919C9160
:100AB000E80FF91F808190E008958FEF9FEF089570
:100AC000FC01A485B585FD01E05CFF4F20813181EB
:100AD0003296808191812817390779F08081918140
:100AE000A80FB91F8C91208131812F5F3F4F2F7349
:100AF00033273183208390E008958FEF9FEF08958F
:100B0000FC0181A1882329F0A489B5898C9186FFF5
:100B1000FBCF11A208950F931F93CF93DF93FC0196
:100B2000A685B7858D01005C1F4FE80188819981FA
:100B300001968F739927AD014E5B5F4FEA012881C3
:100B4000398182179307D1F3E80128813981A20FF7
:100B5000B31F6C93A685B785A05CBF4F11969C937D
:100B60008E93A689B7892C9181E090E0078C02C012
:100B7000880F991F0A94E2F7822B8C9381E081A35E
:100B80000488F589E02D80818064808381E090E095
:100B9000DF91CF911F910F910895FB01E05CFF4F12
:100BA000208131812F5F3F4F2F733327DB01AE5BF5
:100BB000BF4F4D915C912417350741F04081518121
:100BC000DB01A40FB51F8C933183208308951F92FE
:100BD0000F920FB60F9211240BB60F922F933F93E3
:100BE0004F935F936F937F938F939F93AF93BF9335
:100BF000EF93FF938091C00082FD07C08091C600F3
:100C00006AED75E00E94CD0502C08091C600FF919B
:100C1000EF91BF91AF919F918F917F916F915F9174
:100C20004F913F912F910F900BBE0F900FBE0F90E1
:100C30001F9018951F920F920FB60F9211240BB6AA
:100C40000F922F933F934F935F936F937F938F9365
:100C50009F93AF93BF93EF93FF938091C80082FD62
:100C600007C08091CE0062E575E00E94CD0502C00C
:100C70008091CE00FF91EF91BF91AF919F918F91A5
:100C80007F916F915F914F913F912F910F900BBE8C
:100C90000F900FBE0F901F9018951F920F920FB6D6
:100CA0000F9211240BB60F922F933F934F935F93A4
:100CB0006F937F938F939F93AF93BF93EF93FF9324
:100CC0008091D00082FD07C08091D6006AEC74E06C
:100CD0000E94CD0502C08091D600FF91EF91BF9197
:100CE000AF919F918F917F916F915F914F913F91C4
:100CF0002F910F900BBE0F900FBE0F901F90189565
:100D00001F920F920FB60F9211240BB60F922F93D2
:100D10003F934F935F936F937F938F939F93AF9383
:100D2000BF93EF93FF938091300182FD07C08091C4
:100D3000360162E474E00E94CD0502C08091360164
:100D4000FF91EF91BF91AF919F918F917F916F91A3
:100D50005F914F913F912F910F900BBE0F900FBE5F
:100D60000F901F9018951F920F920FB60F9211249B
:100D70000BB60F922F933F938F939F93EF93FF9315
:100D80002091D6053091D7058091D8059091D9054D
:100D90002817390731F48091C1008F7D8093C100FD
:100DA00014C0E091D805F091D905EA56FA4F208198
:100DB0008091D8059091D90501968F7399279093CA
:100DC000D9058093D8052093C600FF91EF919F919C
:100DD0008F913F912F910F900BBE0F900FBE0F90F0
:100DE0001F9018951F920F920FB60F9211240BB6F9
:100DF0000F922F933F938F939F93EF93FF932091A5
:100E00004E0530914F05809150059091510528175E
:100E1000390731F48091C9008F7D8093C90014C0D7
:100E2000E0915005F0915105E25FFA4F20818091E9
:100E300050059091510501968F7399279093510514
:100E4000809350052093CE00FF91EF919F918F9159
:100E50003F912F910F900BBE0F900FBE0F901F90E0
:100E600018951F920F920FB60F9211240BB60F9286
:100E70002F933F938F939F93EF93FF932091C604FB
:100E80003091C7048091C8049091C904281739078C
:100E900031F48091D1008F7D8093D10014C0E09116
:100EA000C804F091C904EA57FB4F20818091C8041F
:100EB0009091C90401968F7399279093C9048093E8
:100EC000C8042093D600FF91EF919F918F913F919D
:100ED0002F910F900BBE0F900FBE0F901F90189583
:100EE0001F920F920FB60F9211240BB60F922F93F1
:100EF0003F938F939F93EF93FF9320913E04309104
:100F00003F0480914004909141042817390731F43F
:100F1000809131018F7D8093310114C0E0914004B4
:100F2000F0914104E250FC4F208180914004909167
:100F3000410401968F739927909341048093400454
:100F400020933601FF91EF919F918F913F912F91C7
:100F50000F900BBE0F900FBE0F901F901895CF9261
:100F6000DF92EF92FF920F931F93CF93DF93EC01E9
:100F70006A017B014115514E6105710509F1EC894A
:100F8000FD8981E090E008A002C0880F991F0A94B3
:100F9000E2F7808360E079E08DE390E0A7019601BD
:100FA0000E94B40989019A010150110921093109EE
:100FB0003695279517950795980101151041A8F0CA
:100FC000EC89FD89108260E874E88EE190E0A70169
:100FD00096010E94B409DA01C9010197A109B1097A
:100FE000B695A795979587959C01E889F9893083EF
:100FF000EA89FB89208319A2EE89FF89408181E07B
:1010000090E09C010C8C02C0220F331F0A94E2F77F
:10101000242B2083EE89FF8940819C010D8C02C026
:10102000220F331F0A94E2F7242B2083EE89FF89D5
:1010300040819C010E8C02C0220F331F0A94E2F7FC
:10104000242B2083EE89FF8920810F8C02C0880F1A
:10105000991F0A94E2F7809582238083DF91CF91D4
:101060001F910F91FF90EF90DF90CF900895CF9256
:10107000DF92EF92FF92ECEDF3E01382128288EEA2
:10108000C82E83E0D82EE12CF12CC482D582E682D2
:10109000F7826EE373E0718360838AED95E0958754
:1010A000848786E995E09787868785EC90E0918B29
:1010B000808B84EC90E0938B828B80EC90E0958B1E
:1010C000848B81EC90E0978B868B82EC90E0918F03
:1010D000808F86EC90E0938F828F44E0448F33E0E2
:1010E000358F27E0268F95E0978F81E080A3EAEB8C
:1010F000F3E013821282C482D582E682F782718382
:101100006083A2E5B5E0B587A487AEE0B5E0B78718
:10111000A687ADECB0E0B18BA08BACECB0E0B38BAC
:10112000A28BA8ECB0E0B58BA48BA9ECB0E0B78B98
:10113000A68BAAECB0E0B18FA08FAEECB0E0B38F7D
:10114000A28F448F358F268F978F80A3E8E9F3E035
:1011500013821282C482D582E682F7827183608311
:10116000AAECB4E0B587A487A6E8B4E0B787A68761
:10117000A5EDB0E0B18BA08BA4EDB0E0B38BA28B5A
:10118000A0EDB0E0B58BA48BA1EDB0E0B78BA68B42
:10119000A2EDB0E0B18FA08FA6EDB0E0B38FA28F2B
:1011A000448F358F268F978F80A3E6E7F3E0138275
:1011B0001282C482D582E682F7827183608362E400
:1011C00074E0758764876EEF73E07787668765E301
:1011D00071E0718B608B64E371E0738B628B60E311
:1011E00071E0758B648B61E371E0778B668B62E3F2
:1011F00071E0718F608F66E371E0738F628F448F4F
:10120000358F268F978F80A3FF90EF90DF90CF9040
:101210000895009729F0BC0180E090E00C94A809A3
:101220000895CF93DF9300D01F92CDB7DEB761153D
:1012300071058105910579F09B01AC0169833A83C1
:101240004B835C830E94A40929813A814B815C8194
:101250000E94D60903C060E070E0CB010F900F90B0
:101260000F900F90DF91CF910895CF92DF92EF9280
:10127000FF920F931F93621773078407950784F4F7
:1012800089019A016B017C01C901B8016C197D09C2
:101290008E099F090E9411096C0D7D1D8E1D9F1DD9
:1012A0001F910F91FF90EF90DF90CF9008958F9254
:1012B0009F92AF92BF92CF92DF92EF92FF92CF9325
:1012C000DF93EC01688179818A819B8161157105C9
:1012D0008105910521F464E279ED8BE597E02DE13C
:1012E00033EF41E050E00E94D60949015A019B01C9
:1012F000AC01A7EAB1E40E94FD096B017C01ACEEF0
:10130000B4EFA50194010E940B0ADC01CB018C0D06
:101310009D1DAE1DBF1DB7FF03C00197A109B048B9
:1013200088839983AA83BB83BC01CD019F77DF911A
:10133000CF91FF90EF90DF90CF90BF90AF909F90B4
:101340008F9008950C94570980E092E00C9457090F
:101350006093000270930102809302029093030253
:101360000895F8940C941F0AA1E21A2EAA1BBB1B25
:10137000FD010DC0AA1FBB1FEE1FFF1FA217B30761
:10138000E407F50720F0A21BB30BE40BF50B661F77
:10139000771F881F991F1A9469F76095709580953B
:1013A00090959B01AC01BD01CF010895052E97FBDF
:1013B0001EF400940E94ED0957FD07D00E94B40965
:1013C00007FC03D04EF40C94ED09509540953095F0
:1013D00021953F4F4F4F5F4F0895909580957095A1
:1013E00061957F4F8F4F9F4F0895EE0FFF1F881F0E
:1013F0008BBF0790F691E02D19940E94100AA59FCB
:10140000900DB49F900DA49F800D911D11240895FF
:10141000B7FF0C94FD090E94FD09821B930B0895F0
:10142000A29FB001B39FC001A39F700D811D112425
:10143000911DB29F700D811D1124911D0895F89486
:02144000FFCFDC
:1014420001000000050001506F736974696F6E69D5
:101452006E673A200A00207C20202030207C202049
:1014620031207C202032207C203320207C2034201C
:101472007C2000207C20202035207C202036207CEF
:10148200202037207C203820207C2039207C20001E
:10149200207C20203130207C203131207C203132D0
:1014A200207C203133207C203134207C2000207CA1
:1014B20020203135207C203136207C203137207CA1
:1014C200203138207C203139207C2000207C2020D3
:1014D2003230207C203231207C203232207C20327B
:1014E20033207C203234207C2000596F7572206FAB
:1014F20070706F6E656E7473206669656C643A20F5
:1015020000207468656972207368697073206C6565
:1015120066742100207C2020002D2D2D2D2D2D2DB7
:101522002D2D2D2D2D2D2D2D2D2D2D2D2D2D2D2DE9
:101532002D2D2D2D2D2D2D2D00456E7465722074AF
:10154200686520636F6F7264696E61746573207978
:101552006F75207769736820746F2061747461639A
:101562006B2062656C6F773A2000596F7572206943
:101572006E7075742069733A2000000000008B05BC
:0A1582000A043405600544058005E5
:00000001FF
