:100000000C9481000C94B2000C94B2000C94B200D9
:100010000C94B2000C94B2000C94B2000C94B20098
:100020000C94B2000C94B2000C94B2000C94B20088
:100030000C94B2000C94B2000C94B2000C94B20078
:100040000C94B2000C94B2000C94B2000C94B20068
:100050000C94B2000C94B2000C94B2000C94E90021
:100060000C94B2000C9457030C9423040C94B2002B
:100070000C94B2000C94B2000C94B2000C94B20038
:100080000C94B2000C94B2000C94B2000C94B20028
:100090000C948A030C9462040C94B2000C94B20089
:1000A0000C94B2000C94B2000C94B2000C94B20008
:1000B0000C94B2000C94B2000C94B2000C94B200F8
:1000C0000C94B2000C94B2000C94B2000C94BD03DA
:1000D0000C94A1040C94B2000C94F0030C94E00472
:1000E0000C94B2000C94D0020C94A7050C94FB0263
:1000F0000C94F0020C9495010C94B4020C94A4029C
:10010000A70511241FBECFEFD1E2DEBFCDBF00E0B7
:100110000CBF12E0A0E0B2E0E0E5FDE000E00BBFC4
:1001200002C007900D92A031B107D9F724E0A0E1F9
:10013000B2E001C01D92A73CB207E1F710E0C1E8B0
:10014000D0E000E006C021970109802FFE010E9447
:100150009E06C038D10780E00807A9F70E94C600B4
:100160000C9479060C9400000E94330140E855E29B
:1001700060E070E085E892E00E941F0540E855E2EB
:1001800060E070E08FE192E00C941F050E94B400E3
:1001900060911402709115024AE050E085E892E007
:1001A0000E948D0260911202709113024AE050E0A9
:1001B00085E892E00E948D02609110027091110218
:1001C0004AE050E085E892E00E948D0280E090E0F5
:1001D00008951F920F920FB60F9211242F933F9301
:1001E0008F939F93AF93BF938091170290911802C2
:1001F000A0911902B0911A023091160223E0230F48
:100200002D3720F40196A11DB11D05C026E8230F4E
:100210000296A11DB11D20931602809317029093A0
:100220001802A0931902B0931A0280911B029091B8
:100230001C02A0911D02B0911E020196A11DB11DCC
:1002400080931B0290931C02A0931D02B0931E0288
:10025000BF91AF919F918F913F912F910F900FBEC2
:100260000F901F901895789484B5826084BD84B5F2
:10027000816084BD85B5826085BD85B5816085BDA1
:10028000EEE6F0E0808181608083E1E8F0E01082BA
:10029000808182608083808181608083E0E8F0E0FB
:1002A000808181608083E1EBF0E0808184608083E5
:1002B000E0EBF0E0808181608083E1E9F0E0808123
:1002C00082608083808181608083E0E9F0E08081CA
:1002D00081608083E1EAF0E08081826080838081B8
:1002E00081608083E0EAF0E0808181608083E1E2E8
:1002F000F1E0808182608083808181608083E0E2A0
:10030000F1E0808181608083EAE7F0E080818460B1
:10031000808380818260808380818160808380810E
:10032000806880831092C1000895CF92DF92EF928F
:10033000FF920F931F93CF93DF936C01EB017B012F
:10034000E40EF51E00E010E0CE15DF0561F06991C6
:10035000D601ED91FC910190F081E02DC601199537
:10036000080F191FF1CFC801DF91CF911F910F9195
:10037000FF90EF90DF90CF9008956115710579F0AF
:10038000FB0101900020E9F73197AF01461B570BA5
:10039000DC01ED91FC910280F381E02D199480E065
:1003A00090E00895DC01ED91FC910190F081E02D49
:1003B00019940F931F93CF93DF93EC016DE00E948C
:1003C000D2018C016AE0CE010E94D201800F911F00
:1003D000DF91CF911F910F9108958F929F92AF92CD
:1003E000BF92CF92DF92EF92FF920F931F93CF9322
:1003F000DF93CDB7DEB7A1970FB6F894DEBF0FBE7F
:10040000CDBF6C01142FE52FCB01022F19A2223092
:1004100008F40AE07E0121E2E20EF11C802E912C0C
:10042000A12CB12C612F7E2FA50194010E947C0686
:10043000029F1019112481E0E81AF1081A3014F40F
:10044000105D01C0195CF7011083122FE32FCA0160
:10045000232B242B252B31F7B701C6010E94BD01A8
:10046000A1960FB6F894DEBF0FBECDBFDF91CF913E
:100470001F910F91FF90EF90DF90CF90BF90AF90C2
:100480009F908F900895CF92DF92EF92FF920F93FB
:100490001F93CF93DF93EC016A017B012115310596
:1004A00079F4E881F9810190F081E02D642FDF91EA
:1004B000CF911F910F91FF90EF90DF90CF90199403
:1004C0002A303105E9F477FF1AC06DE20E94D201AB
:1004D0008C0144275527BA014C195D096E097F0923
:1004E0002AE0CE010E94ED01800F911FDF91CF9194
:1004F0001F910F91FF90EF90DF90CF9008952AE029
:10050000B701A601CE01DF91CF911F910F91FF900E
:10051000EF90DF90CF900C94ED010F931F93CF934A
:10052000DF93EC019A01AB01770F660B770B0E940A
:1005300043028C01CE010E94D901800F911FDF91EF
:10054000CF911F910F910895FC0124853585F90104
:10055000E05CFF4F80819181329620813181821B46
:10056000930B8F7399270895DC011C96ED91FC91F4
:100570001D97DF01A05CBF4F2D913C911197129602
:100580008D919C9111972817390739F08D919C9185
:10059000E80FF91F808190E008958FEF9FEF089595
:1005A000FC01A485B585FD01E05CFF4F2081318110
:1005B0003296808191812817390779F08081918165
:1005C000A80FB91F8C91208131812F5F3F4F2F736E
:1005D00033273183208390E008958FEF9FEF0895B4
:1005E000FC0181A1882329F0A489B5898C9186FF1B
:1005F000FBCF11A208950F931F93CF93DF93FC01BC
:10060000A685B7858D01005C1F4FE801888199811F
:1006100001968F739927AD014E5B5F4FEA012881E8
:10062000398182179307D1F3E80128813981A20F1C
:10063000B31F6C93A685B785A05CBF4F11969C93A2
:100640008E93A689B7892C9181E090E0078C02C037
:10065000880F991F0A94E2F7822B8C9381E081A383
:100660000488F589E02D80818064808381E090E0BA
:10067000DF91CF911F910F910895FB01E05CFF4F37
:10068000208131812F5F3F4F2F733327DB01AE5B1A
:10069000BF4F4D915C912417350741F04081518146
:1006A000DB01A40FB51F8C933183208308951F9223
:1006B0000F920FB60F9211240BB60F922F933F9308
:1006C0004F935F936F937F938F939F93AF93BF935A
:1006D000EF93FF938091C00082FD07C08091C60018
:1006E00063E874E00E943D0302C08091C600FF9160
:1006F000EF91BF91AF919F918F917F916F915F919A
:100700004F913F912F910F900BBE0F900FBE0F9006
:100710001F9018951F920F920FB60F9211240BB6CF
:100720000F922F933F934F935F936F937F938F938A
:100730009F93AF93BF93EF93FF938091C80082FD87
:1007400007C08091CE006BEF73E00E943D0302C0B2
:100750008091CE00FF91EF91BF91AF919F918F91CA
:100760007F916F915F914F913F912F910F900BBEB1
:100770000F900FBE0F901F9018951F920F920FB6FB
:100780000F9211240BB60F922F933F934F935F93C9
:100790006F937F938F939F93AF93BF93EF93FF9349
:1007A0008091D00082FD07C08091D60063E773E09E
:1007B0000E943D0302C08091D600FF91EF91BF914E
:1007C000AF919F918F917F916F915F914F913F91E9
:1007D0002F910F900BBE0F900FBE0F901F9018958A
:1007E0001F920F920FB60F9211240BB60F922F93F8
:1007F0003F934F935F936F937F938F939F93AF93A9
:10080000BF93EF93FF938091300182FD07C08091E9
:1008100036016BEE72E00E943D0302C0809136010A
:10082000FF91EF91BF91AF919F918F917F916F91C8
:100830005F914F913F912F910F900BBE0F900FBE84
:100840000F901F9018951F920F920FB60F921124C0
:100850000BB60F922F933F938F939F93EF93FF933A
:1008600020917F04309180048091810490918204D2
:100870002817390731F48091C1008F7D8093C10022
:1008800014C0E0918104F0918204E15CFB4F20816F
:10089000809181049091820401968F73992790939F
:1008A0008204809381042093C600FF91EF919F9171
:1008B0008F913F912F910F900BBE0F900FBE0F9015
:1008C0001F9018951F920F920FB60F9211240BB61E
:1008D0000F922F933F938F939F93EF93FF932091CA
:1008E000F7033091F8038091F9039091FA032817E8
:1008F000390731F48091C9008F7D8093C90014C0FD
:10090000E091F903F091FA03E954FC4F20818091C2
:10091000F9039091FA0301968F7399279093FA0344
:100920008093F9032093CE00FF91EF919F918F91D7
:100930003F912F910F900BBE0F900FBE0F901F9005
:1009400018951F920F920FB60F9211240BB60F92AB
:100950002F933F938F939F93EF93FF9320916F0378
:1009600030917003809171039091720328173907B9
:1009700031F48091D1008F7D8093D10014C0E0913B
:100980007103F0917203E15DFC4F2081809171034E
:100990009091720301968F739927909372038093BD
:1009A00071032093D600FF91EF919F918F913F911A
:1009B0002F910F900BBE0F900FBE0F901F901895A8
:1009C0001F920F920FB60F9211240BB60F922F9316
:1009D0003F938F939F93EF93FF932091E702309182
:1009E000E8028091E9029091EA022817390731F470
:1009F000809131018F7D8093310114C0E091E90233
:100A0000F091EA02E955FD4F20818091E902909131
:100A1000EA0201968F7399279093EA028093E90284
:100A200020933601FF91EF919F918F913F912F91EC
:100A30000F900BBE0F900FBE0F901F901895CF9286
:100A4000DF92EF92FF920F931F93CF93DF93EC010E
:100A50006A017B014115514E6105710509F1EC896F
:100A6000FD8981E090E008A002C0880F991F0A94D8
:100A7000E2F7808360E079E08DE390E0A7019601E2
:100A80000E947C0689019A0101501109210931094E
:100A90003695279517950795980101151041A8F0EF
:100AA000EC89FD89108260E874E88EE190E0A7018E
:100AB00096010E947C06DA01C9010197A109B109DA
:100AC000B695A795979587959C01E889F989308314
:100AD000EA89FB89208319A2EE89FF89408181E0A0
:100AE00090E09C010C8C02C0220F331F0A94E2F7A5
:100AF000242B2083EE89FF8940819C010D8C02C04C
:100B0000220F331F0A94E2F7242B2083EE89FF89FA
:100B100040819C010E8C02C0220F331F0A94E2F721
:100B2000242B2083EE89FF8920810F8C02C0880F3F
:100B3000991F0A94E2F7809582238083DF91CF91F9
:100B40001F910F91FF90EF90DF90CF900895CF927B
:100B5000DF92EF92FF92E5E8F2E01382128288EED4
:100B6000C82E83E0D82EE12CF12CC482D582E682F7
:100B7000F78264E072E07183608383E894E0958794
:100B800084878FE394E09787868785EC90E0918B4C
:100B9000808B84EC90E0938B828B80EC90E0958B43
:100BA000848B81EC90E0978B868B82EC90E0918F28
:100BB000808F86EC90E0938F828F44E0448F33E007
:100BC000358F27E0268F95E0978F81E080A3E3E6BD
:100BD000F2E013821282C482D582E682F7827183A8
:100BE0006083ABEFB3E0B587A487A7EBB3E0B7872B
:100BF000A687ADECB0E0B18BA08BACECB0E0B38BD2
:100C0000A28BA8ECB0E0B58BA48BA9ECB0E0B78BBD
:100C1000A68BAAECB0E0B18FA08FAEECB0E0B38FA2
:100C2000A28F448F358F268F978F80A3E1E4F2E067
:100C300013821282C482D582E682F7827183608336
:100C4000A3E7B3E0B587A487AFE2B3E0B787A68791
:100C5000A5EDB0E0B18BA08BA4EDB0E0B38BA28B7F
:100C6000A0EDB0E0B58BA48BA1EDB0E0B78BA68B67
:100C7000A2EDB0E0B18FA08FA6EDB0E0B38FA28F50
:100C8000448F358F268F978F80A3EFE1F2E0138298
:100C90001282C482D582E682F782718360836BEE12
:100CA00072E07587648767EA72E07787668765E335
:100CB00071E0718B608B64E371E0738B628B60E336
:100CC00071E0758B648B61E371E0778B668B62E317
:100CD00071E0718F608F66E371E0738F628F448F74
:100CE000358F268F978F80A3FF90EF90DF90CF9066
:100CF0000895F8940C94A606A1E21A2EAA1BBB1B19
:100D0000FD010DC0AA1FBB1FEE1FFF1FA217B307D7
:100D1000E407F50720F0A21BB30BE40BF50B661FED
:100D2000771F881F991F1A9469F7609570958095B1
:100D300090959B01AC01BD01CF010895EE0FFF1FFF
:100D4000881F8BBF0790F691E02D1994F894FFCF80
:100D500000000000FB029501A402D002B402F002E0
:00000001FF
