:100000000C9481000C94B2000C94B2000C94B200D9
:100010000C94B2000C94B2000C94B2000C94B20098
:100020000C94B2000C94B2000C94B2000C94B20088
:100030000C94B2000C94B2000C94B2000C94B20078
:100040000C94B2000C94B2000C94B2000C94B20068
:100050000C94B2000C94B2000C94B2000C94930374
:100060000C94B2000C9441060C940D070C94B20051
:100070000C94B2000C94B2000C94B2000C94B20038
:100080000C94B2000C94B2000C94B2000C94B20028
:100090000C9474060C944C070C94B2000C94B200AF
:1000A0000C94B2000C94B2000C94B2000C94B20008
:1000B0000C94B2000C94B2000C94B2000C94B200F8
:1000C0000C94B2000C94B2000C94B2000C94A706ED
:1000D0000C948B070C94B2000C94DA060C94CA07AB
:1000E0000C94B2000C948E050C9464040C949E0540
:1000F0000C94E5050C94BA050C9491080C94DA055F
:10010000910811241FBECFEFD1E2DEBFCDBF00E0CA
:100110000CBF13E0A0E0B2E0EEE6F5E100E00BBFBB
:1001200002C007900D92A631B107D9F725E0A6E1EC
:10013000B3E001C01D92A43FB207E1F710E0C1E8AF
:10014000D0E000E006C021970109802FFE010E9447
:100150008B0AC038D10780E00807A9F70E9469031D
:100160000C94320A0C9400000E94DD0340E855E232
:1001700060E070E082EB93E00E94090840E855E2FD
:1001800060E070E08CE493E00E94090880E00E9447
:100190003F040C946309E6E1F3E08FE3819393E07D
:1001A000EF32F907D9F70895CF93DF9367E072E054
:1001B00082EB93E00E94BE0466E172E082EB93E082
:1001C0000E94BE0464E372E082EB93E00E94BE04EE
:1001D00060E572E082EB93E00E94BE0464E372E0AB
:1001E00082EB93E00E94BE046EE672E082EB93E045
:1001F0000E94BE0464E372E082EB93E00E94BE04BE
:100200006CE872E082EB93E00E94BE0464E372E06B
:1002100082EB93E00E94BE046AEA72E082EB93E014
:100220000E94BE0468EC72E082EB93E00E94A1049D
:1002300060910402709105024AE050E082EB93E085
:100240000E9470056FED72E082EB93E00E94BE04A5
:1002500062EF72E082EB93E00E94A104C6E1D3E07A
:10026000688182EB93E00E94A30462EF72E082EB6C
:1002700093E00E94A104698182EB93E00E94A304B1
:1002800062EF72E082EB93E00E94A1046A8182EB4C
:1002900093E00E94A30462EF72E082EB93E00E947D
:1002A000A1046B8182EB93E00E94A30462EF72E0F1
:1002B00082EB93E00E94A1046C8182EB93E00E94A8
:1002C000A30460E372E082EB93E00E94BE0464E367
:1002D00072E082EB93E00E94BE0462EF72E082EB78
:1002E00093E00E94A1046D8182EB93E00E94A3043D
:1002F00062EF72E082EB93E00E94A1046E8182EBD8
:1003000093E00E94A30462EF72E082EB93E00E940C
:10031000A1046F8182EB93E00E94A30462EF72E07C
:1003200082EB93E00E94A104688582EB93E00E9437
:10033000A30462EF72E082EB93E00E94A10469855E
:1003400082EB93E00E94A30460E372E082EB93E00F
:100350000E94BE0464E372E082EB93E00E94BE045C
:1003600062EF72E082EB93E00E94A1046A8582EB67
:1003700093E00E94A30462EF72E082EB93E00E949C
:10038000A1046B8582EB93E00E94A30462EF72E00C
:1003900082EB93E00E94A1046C8582EB93E00E94C3
:1003A000A30462EF72E082EB93E00E94A1046D85EA
:1003B00082EB93E00E94A30462EF72E082EB93E091
:1003C0000E94A1046E8582EB93E00E94A30460E387
:1003D00072E082EB93E00E94BE0464E372E082EB81
:1003E00093E00E94BE0462EF72E082EB93E00E9411
:1003F000A1046F8582EB93E00E94A30462EF72E098
:1004000082EB93E00E94A104688982EB93E00E9452
:10041000A30462EF72E082EB93E00E94A104698979
:1004200082EB93E00E94A30462EF72E082EB93E020
:100430000E94A1046A8982EB93E00E94A30462EF08
:1004400072E082EB93E00E94A1046B8982EB93E05F
:100450000E94A30460E372E082EB93E00E94BE047A
:1004600064E372E082EB93E00E94BE0462EF72E00C
:1004700082EB93E00E94A1046C8982EB93E00E94DE
:10048000A30462EF72E082EB93E00E94A1046D8905
:1004900082EB93E00E94A30462EF72E082EB93E0B0
:1004A0000E94A1046E8982EB93E00E94A30462EF94
:1004B00072E082EB93E00E94A1046F8982EB93E0EB
:1004C0000E94A30462EF72E082EB93E00E94A10419
:1004D000688D82EB93E00E94A30460E372E082EBFC
:1004E00093E00E94BE0464E372E082EB93E0DF914C
:1004F000CF910C94BE04EF92FF920F931F93CF9372
:10050000DF93C9E3D3E07E0100E010E028E130E0B2
:1005100040E050E060E070E0CB010E948F09E9E329
:10052000F3E080E090E08017910739F0219131915C
:100530006217730759F30196F6CFF7016193719330
:100540007F018C010F5F1F4F05301105F9F628E17F
:1005500030E040E050E060E070E0CB010E948F09A5
:100560007093440360934303699179914AE050E0AA
:1005700082EB93E00E94770583E0C334D807A1F7AC
:10058000DF91CF911F910F91FF90EF900895EF921F
:10059000FF920F931F93CF93DF93CFE2D3E07E01BF
:1005A00000E010E028E130E040E050E060E070E082
:1005B000CB010E948F09EFE2F3E080E090E080172A
:1005C000910739F0219131916217730759F3019620
:1005D000F6CFF701619371937F018C010F5F1F4F7D
:1005E00005301105F9F628E130E040E050E060E028
:1005F00070E0CB010E948F0970933A036093390336
:10060000699179914AE050E082EB93E00E9477058E
:1006100083E0C933D807A1F7DF91CF911F910F91E4
:10062000FF90EF900895AF92BF92CF92DF92FF922A
:100630000F931F93CF93DF936C015C01C0E0D0E078
:100640008B0101501109C017D1077CF482EB93E0B4
:100650000E948E0518161906B4F782EB93E00E94EB
:10066000BA05F82E8DE0F8120DC0CC0DDD1D1882F4
:10067000DF91CF911F910F91FF90DF90CF90BF90AE
:10068000AF9008956F2D82EB93E00E94A304F501D3
:10069000F1925F012196D7CFCF93DF93CDB7DEB72D
:1006A000A0970FB6F894DEBF0FBECDBF60E270E03A
:1006B000CE0101960E941303CE0101960E940B0AFF
:1006C000A0960FB6F894DEBF0FBECDBFDF91CF91DD
:1006D0000895CF92DF92EF92FF920E94B4000E94A1
:1006E000CB000E947B020E94C7020E94D4000E949D
:1006F0004C036B017C0167EF72E082EB93E00E9498
:10070000A1044AE050E0B60182EB93E00E94770535
:1007100082EB93E00E94DA0580E090E0FF90EF909A
:10072000DF90CF9008951F920F920FB60F92112471
:100730002F933F938F939F93AF93BF9380914403E5
:1007400090914503A0914603B09147033091430334
:1007500023E0230F2D3720F40196A11DB11D05C004
:1007600026E8230F0296A11DB11D20934303809319
:10077000440390934503A0934603B09347038091AD
:10078000480390914903A0914A03B0914B0301960D
:10079000A11DB11D8093480390934903A0934A0380
:1007A000B0934B03BF91AF919F918F913F912F9148
:1007B0000F900FBE0F901F901895789484B58260AB
:1007C00084BD84B5816084BD85B5826085BD85B5F5
:1007D000816085BDEEE6F0E0808181608083E1E8A4
:1007E000F0E01082808182608083808181608083DC
:1007F000E0E8F0E0808181608083E1EBF0E08081DF
:1008000084608083E0EBF0E0808181608083E1E9B7
:10081000F0E0808182608083808181608083E0E974
:10082000F0E0808181608083E1EAF0E08081826095
:100830008083808181608083E0EAF0E08081816054
:100840008083E1E2F1E08081826080838081816049
:100850008083E0E2F1E0808181608083EAE7F0E07C
:1008600080818460808380818260808380818160D8
:1008700080838081806880831092C10008958633D0
:1008800008F0865390917B00282F2870977F922B39
:1008900090937B0087702091060290E4299F90013D
:1008A0001124822B80937C0080917A008064809355
:1008B0007A0080917A0086FDFCCF809178002091AB
:1008C000790090E0922B0895CF92DF92EF92FF9201
:1008D0000F931F93CF93DF936C01EB017B01E40E29
:1008E000F51E00E010E0CE15DF0561F06991D6013C
:1008F000ED91FC910190F081E02DC6011995080F52
:10090000191FF1CFC801DF91CF911F910F91FF9077
:10091000EF90DF90CF9008956115710579F0FB019C
:1009200001900020E9F73197AF01461B570BDC011E
:10093000ED91FC910280F381E02D199480E090E02C
:1009400008950C948C04DC01ED91FC910190F081F0
:10095000E02D19940F931F93CF93DF93EC016DE07B
:100960000E94A3048C016AE0CE010E94A304800FC0
:10097000911FDF91CF911F910F9108950F931F93B6
:10098000CF93DF93EC010E948C048C01CE010E9476
:10099000AA04800F911FDF91CF911F910F910895AD
:1009A0008F929F92AF92BF92CF92DF92EF92FF927F
:1009B0000F931F93CF93DF93CDB7DEB7A1970FB6F9
:1009C000F894DEBF0FBECDBF6C01142FE52FCB0115
:1009D000022F19A2223008F40AE07E0121E2E20E81
:1009E000F11C802E912CA12CB12C612F7E2FA50102
:1009F00094010E944A0A029F1019112481E0E81A0A
:100A0000F1081A3014F4105D01C0195CF70110836D
:100A1000122FE32FCA01232B242B252B31F7B701EB
:100A2000C6010E948C04A1960FB6F894DEBF0FBEDB
:100A3000CDBFDF91CF911F910F91FF90EF90DF908D
:100A4000CF90BF90AF909F908F900895CF92DF92FC
:100A5000EF92FF920F931F93CF93DF93EC016A0104
:100A60007B012115310579F4E881F9810190F0814C
:100A7000E02D642FDF91CF911F910F91FF90EF90A8
:100A8000DF90CF9019942A303105E9F477FF1AC02E
:100A90006DE20E94A3048C0144275527BA014C192A
:100AA0005D096E097F092AE0CE010E94D004800F03
:100AB000911FDF91CF911F910F91FF90EF90DF90E9
:100AC000CF9008952AE0B701A601CE01DF91CF9122
:100AD0001F910F91FF90EF90DF90CF900C94D00476
:100AE0009A01AB01770F660B770B0C9426050F93D9
:100AF0001F93CF93DF93EC019A01AB01770F660B45
:100B0000770B0E9426058C01CE010E94AA04800F5B
:100B1000911FDF91CF911F910F910895FC012485C2
:100B20003585F901E05CFF4F80819181329620810B
:100B30003181821B930B8F7399270895DC011C96DA
:100B4000ED91FC911D97DF01A05CBF4F2D913C9171
:100B5000119712968D919C9111972817390739F0AA
:100B60008D919C91E80FF91F808190E008958FEF9F
:100B70009FEF0895FC01A485B585FD01E05CFF4F62
:100B8000208131813296808191812817390779F04F
:100B900080819181A80FB91F8C91208131812F5FB5
:100BA0003F4F2F7333273183208390E008958FEFD9
:100BB0009FEF0895FC0181A1882329F0A489B589BC
:100BC0008C9186FFFBCF11A208950F931F93CF93B3
:100BD000DF93FC01A685B7858D01005C1F4FE801FE
:100BE0008881998101968F739927AD014E5B5F4F84
:100BF000EA012881398182179307D1F3E80128811E
:100C00003981A20FB31F6C93A685B785A05CBF4F37
:100C100011969C938E93A689B7892C9181E090E0E0
:100C2000078C02C0880F991F0A94E2F7822B8C93DD
:100C300081E081A30488F589E02D80818064808330
:100C400081E090E0DF91CF911F910F910895FB011A
:100C5000E05CFF4F208131812F5F3F4F2F7333279F
:100C6000DB01AE5BBF4F4D915C912417350741F01E
:100C700040815181DB01A40FB51F8C933183208308
:100C800008951F920F920FB60F9211240BB60F9278
:100C90002F933F934F935F936F937F938F939F9384
:100CA000AF93BF93EF93FF938091C00082FD07C085
:100CB0008091C60060EB75E00E94270602C080911B
:100CC000C600FF91EF91BF91AF919F918F917F915E
:100CD0006F915F914F913F912F910F900BBE0F90AD
:100CE0000FBE0F901F9018951F920F920FB60F9284
:100CF00011240BB60F922F933F934F935F936F93F3
:100D00007F938F939F93AF93BF93EF93FF938091C4
:100D1000C80082FD07C08091CE0068E275E00E94A5
:100D2000270602C08091CE00FF91EF91BF91AF9155
:100D30009F918F917F916F915F914F913F912F91F3
:100D40000F900BBE0F900FBE0F901F9018951F9223
:100D50000F920FB60F9211240BB60F922F933F9361
:100D60004F935F936F937F938F939F93AF93BF93B3
:100D7000EF93FF938091D00082FD07C08091D60051
:100D800060EA74E00E94270602C08091D600FF91BD
:100D9000EF91BF91AF919F918F917F916F915F91F3
:100DA0004F913F912F910F900BBE0F900FBE0F9060
:100DB0001F9018951F920F920FB60F9211240BB629
:100DC0000F922F933F934F935F936F937F938F93E4
:100DD0009F93AF93BF93EF93FF938091300182FD78
:100DE00007C08091360168E174E00E94270602C0C6
:100DF00080913601FF91EF91BF91AF919F918F91BB
:100E00007F916F915F914F913F912F910F900BBE0A
:100E10000F900FBE0F901F9018951F920F920FB654
:100E20000F9211240BB60F922F933F938F939F93A2
:100E3000EF93FF932091AC053091AD058091AE0505
:100E40009091AF052817390731F48091C1008F7D4B
:100E50008093C10014C0E091AE05F091AF05E45954
:100E6000FA4F20818091AE059091AF0501968F7366
:100E700099279093AF058093AE052093C600FF910C
:100E8000EF919F918F913F912F910F900BBE0F90FB
:100E90000FBE0F901F9018951F920F920FB60F92D2
:100EA00011240BB60F922F933F938F939F93EF9341
:100EB000FF9320912405309125058091260590917E
:100EC00027052817390731F48091C9008F7D809359
:100ED000C90014C0E0912605F0912705EC51FB4FA5
:100EE0002081809126059091270501968F7399277F
:100EF00090932705809326052093CE00FF91EF91D4
:100F00009F918F913F912F910F900BBE0F900FBE2D
:100F10000F901F9018951F920F920FB60F921124E9
:100F20000BB60F922F933F938F939F93EF93FF9363
:100F300020919C0430919D0480919E0490919F0487
:100F40002817390731F48091D1008F7D8093D1002B
:100F500014C0E0919E04F0919F04E45AFB4F20815D
:100F600080919E0490919F0401968F73992790938E
:100F70009F0480939E042093D600FF91EF919F9150
:100F80008F913F912F910F900BBE0F900FBE0F903E
:100F90001F9018951F920F920FB60F9211240BB647
:100FA0000F922F933F938F939F93EF93FF932091F3
:100FB0001404309115048091160490911704281799
:100FC000390731F4809131018F7D8093310114C054
:100FD000E0911604F0911704EC52FC4F20818091AF
:100FE00016049091170401968F7399279093170414
:100FF0008093160420933601FF91EF919F918F917A
:101000003F912F910F900BBE0F900FBE0F901F902E
:101010001895CF92DF92EF92FF920F931F93CF9389
:10102000DF93EC016A017B014115514E61057105A9
:1010300009F1EC89FD8981E090E008A002C0880FE9
:10104000991F0A94E2F7808360E079E08DE390E0F5
:10105000A70196010E944A0A89019A0101501109CB
:10106000210931093695279517950795980101159E
:101070001041A8F0EC89FD89108260E874E88EE1E7
:1010800090E0A70196010E944A0ADA01C90101977E
:10109000A109B109B695A795979587959C01E8890F
:1010A000F9893083EA89FB89208319A2EE89FF89B7
:1010B000408181E090E09C010C8C02C0220F331F24
:1010C0000A94E2F7242B2083EE89FF8940819C015A
:1010D0000D8C02C0220F331F0A94E2F7242B2083C9
:1010E000EE89FF8940819C010E8C02C0220F331FC4
:1010F0000A94E2F7242B2083EE89FF8920810F8C4C
:1011000002C0880F991F0A94E2F78095822380839A
:10111000DF91CF911F910F91FF90EF90DF90CF90D3
:101120000895CF92DF92EF92FF92E2EBF3E0138209
:10113000128288EEC82E83E0D82EE12CF12CC482D6
:10114000D582E682F78269E073E07183608380EB89
:1011500095E0958784878CE695E09787868785EC70
:1011600090E0918B808B84EC90E0938B828B80EC71
:1011700090E0958B848B81EC90E0978B868B82EC52
:1011800090E0918F808F86EC90E0938F828F44E087
:10119000448F33E0358F27E0268F95E0978F81E0ED
:1011A00080A3E0E9F3E013821282C482D582E68252
:1011B000F78271836083A8E2B5E0B587A487A4EEC7
:1011C000B4E0B787A687ADECB0E0B18BA08BACECF8
:1011D000B0E0B38BA28BA8ECB0E0B58BA48BA9ECEC
:1011E000B0E0B78BA68BAAECB0E0B18FA08FAEECCD
:1011F000B0E0B38FA28F448F358F268F978F80A357
:10120000EEE6F3E013821282C482D582E682F78290
:1012100071836083A0EAB4E0B587A487ACE5B4E04D
:10122000B787A687A5EDB0E0B18BA08BA4EDB0E0A9
:10123000B38BA28BA0EDB0E0B58BA48BA1EDB0E099
:10124000B78BA68BA2EDB0E0B18FA08FA6EDB0E07A
:10125000B38FA28F448F358F268F978F80A3ECE4B6
:10126000F3E013821282C482D582E682F782718310
:10127000608368E174E07587648764ED73E0778765
:10128000668765E371E0718B608B64E371E0738B5B
:10129000628B60E371E0758B648B61E371E0778B47
:1012A000668B62E371E0718F608F66E371E0738F2C
:1012B000628F448F358F268F978F80A3FF90EF909A
:1012C000DF90CF900895009729F0BC0180E090E076
:1012D0000C94020A0895CF93DF9300D01F92CDB7EC
:1012E000DEB7611571058105910579F09B01AC01AF
:1012F00069833A834B835C830E94FE0929813A818A
:101300004B815C810E946C0A03C060E070E0CB01FD
:101310000F900F900F900F90DF91CF910895CF9283
:10132000DF92EF92FF920F931F9362177307840768
:10133000950784F489019A016B017C01C901B80108
:101340006C197D098E099F090E946B096C0D7D1D2A
:101350008E1D9F1D1F910F91FF90EF90DF90CF90FA
:1013600008958F929F92AF92BF92CF92DF92EF92A9
:10137000FF92CF93DF93EC01688179818A819B8111
:10138000611571058105910521F464E279ED8BE524
:1013900097E02DE133EF41E050E00E946C0A4901F3
:1013A0005A019B01AC01A7EAB1E40E94930A6B01C8
:1013B0007C01ACEEB4EFA50194010E94A10ADC010E
:1013C000CB018C0D9D1DAE1DBF1DB7FF03C0019746
:1013D000A109B04888839983AA83BB83BC01CD014E
:1013E0009F77DF91CF91FF90EF90DF90CF90BF90EC
:1013F000AF909F908F9008950C94B10980E092E097
:101400000C94B10960930002709301028093020270
:101410009093030208951F93FC0199278827BC012C
:10142000E89411911032E9F3193010F01E30C8F32E
:101430001B3251F01D3249F4689406C00E94350AEF
:10144000610F711D811D911D119110531A30B0F360
:101450003EF490958095709561957F4F8F4F9F4F8B
:101460001F910895F8940C94B50A592F482F372FDF
:10147000262F660F771F881F991F660F771F881FFB
:10148000991F620F731F841F951F660F771F881F98
:10149000991F0895A1E21A2EAA1BBB1BFD010DC0C6
:1014A000AA1FBB1FEE1FFF1FA217B307E407F50714
:1014B00020F0A21BB30BE40BF50B661F771F881FF0
:1014C000991F1A9469F760957095809590959B0186
:1014D000AC01BD01CF010895052E97FB1EF40094C9
:1014E0000E94830A57FD07D00E944A0A07FC03D0D6
:1014F0004EF40C94830A50954095309521953F4FBA
:101500004F4F5F4F089590958095709561957F4FEF
:101510008F4F9F4F0895EE0FFF1F881F8BBF0790BF
:10152000F691E02D19940E94A60AA59F900DB49FF4
:10153000900DA49F800D911D11240895B7FF0C9468
:10154000930A0E94930A821B930B0895A29FB001F5
:10155000B39FC001A39F700D811D1124911DB29FE7
:0E156000700D811D1124911D0895F894FFCF88
:10156E0001000000050001506F736974696F6E69A8
:10157E006E673A200A00207C20202030207C20201C
:10158E0031207C202032207C203320207C202034EF
:10159E00207C20002D2D2D2D2D2D2D2D2D2D2D2D65
:1015AE002D2D2D2D2D2D2D2D2D2D2D2D2D2D2D008A
:1015BE00207C20202035207C202036207C202037C7
:1015CE00207C203820207C202039207C2000207C8C
:1015DE0020203130207C203131207C203132207C83
:1015EE00203133207C203134207C2000207C2020B0
:1015FE003135207C203136207C203137207C203143
:10160E0038207C203139207C2000207C2020323074
:10161E00207C203231207C203232207C203233203C
:10162E007C203234207C2000596F7572206F7070D0
:10163E006F6E656E7473206669656C643A20002067
:10164E007468656972207368697073206C6566745E
:10165E002100207C202000436F6F7264696E6174DC
:10166E0065733A200000000000E50564048E05BA9B
:06167E00059E05DA0500DF
:00000001FF
