:100000000C9481000C94B2000C94B2000C94B200D9
:100010000C94B2000C94B2000C94B2000C94B20098
:100020000C94B2000C94B2000C94B2000C94B20088
:100030000C94B2000C94B2000C94B2000C94B20078
:100040000C94B2000C94B2000C94B2000C94B20068
:100050000C94B2000C94B2000C94B2000C942201E7
:100060000C94B2000C94DB020C94A7030C94B20025
:100070000C94B2000C94B2000C94B2000C94B20038
:100080000C94B2000C94B2000C94B2000C94B20028
:100090000C940E030C94E6030C94B2000C94B20082
:1000A0000C94B2000C94B2000C94B2000C94B20008
:1000B0000C94B2000C94B2000C94B2000C94B200F8
:1000C0000C94B2000C94B2000C94B2000C94410356
:1000D0000C9425040C94B2000C9474030C946404E6
:1000E0000C94B2000C94CE010C9438020C942802AB
:1000F0000C9454020C9474020C947F020C942B0503
:100100002B0511241FBECFEFD1E2DEBFCDBF00E033
:100110000CBF12E0A0E0B2E0E8E5FCE000E00BBFBD
:1001200002C007900D92A032B107D9F724E0A0E2F7
:10013000B2E001C01D92A13DB207E1F710E0C1E8B5
:10014000D0E000E006C021970109802FFE010E9447
:100150002206C038D10780E00807A9F70E94BE0038
:100160000C94FD050C9400000E946C0140E855E2DF
:1001700060E070E08FE892E00C94A304AF92BF922D
:10018000DF92EF92FF920F931F93CF93DF93CDB740
:10019000DEB7A0970FB6F894DEBF0FBECDBF0E94AA
:1001A000B4008E010F5F1F4F78015701A01AB10AEA
:1001B0008FE892E00E942802892BD1F38FE892E029
:1001C0000E945402D82E8DE0D81219C08FE892E018
:1001D0000E94140260E072E08FE892E00E940B023D
:1001E0007801C701801B910B8A159B058CF4F701E0
:1001F00061917F018FE892E00E940D02F2CF6D2D98
:100200008FE892E00E940D02F701D1927F01CDCFDD
:100210008FE892E00E9414028FE892E00E9474023C
:1002200080E090E0A0960FB6F894DEBF0FBECDBF81
:10023000DF91CF911F910F91FF90EF90DF90BF90D2
:10024000AF9008951F920F920FB60F9211242F9323
:100250003F938F939F93AF93BF938091210290918F
:100260002202A0912302B09124023091200223E0C7
:10027000230F2D3720F40196A11DB11D05C026E8DE
:10028000230F0296A11DB11D20932002809321020D
:1002900090932202A0932302B0932402809125021E
:1002A00090912602A0912702B09128020196A11DEB
:1002B000B11D8093250290932602A0932702B0934C
:1002C0002802BF91AF919F918F913F912F910F90F5
:1002D0000FBE0F901F901895789484B5826084BDEE
:1002E00084B5816084BD85B5826085BD85B581603A
:1002F00085BDEEE6F0E0808181608083E1E8F0E09A
:100300001082808182608083808181608083E0E8C8
:10031000F0E0808181608083E1EBF0E080818460A7
:100320008083E0EBF0E0808181608083E1E9F0E0B0
:10033000808182608083808181608083E0E9F0E059
:10034000808181608083E1EAF0E080818260808347
:10035000808181608083E0EAF0E080818160808339
:10036000E1E2F1E08081826080838081816080832E
:10037000E0E2F1E0808181608083EAE7F0E0808163
:1003800084608083808182608083808181608083BB
:100390008081806880831092C1000895CF92DF929F
:1003A000EF92FF920F931F93CF93DF936C01EB01BA
:1003B0007B01E40EF51E00E010E0CE15DF0561F0D4
:1003C0006991D601ED91FC910190F081E02DC6017B
:1003D0001995080F191FF1CFC801DF91CF911F9117
:1003E0000F91FF90EF90DF90CF9008956115710508
:1003F00079F0FB0101900020E9F73197AF01461B2E
:10040000570BDC01ED91FC910280F381E02D1994F2
:1004100080E090E008950C94F601DC01ED91FC91F0
:100420000190F081E02D19940F931F93CF93DF93E8
:10043000EC016DE00E940D028C016AE0CE010E9489
:100440000D02800F911FDF91CF911F910F910895A1
:10045000FC0124853585F901E05CFF4F80819181A5
:10046000329620813181821B930B8F7399270895D7
:10047000DC011C96ED91FC911D97DF01A05CBF4F44
:100480002D913C91119712968D919C91119728175F
:10049000390739F08D919C91E80FF91F808190E028
:1004A00008958FEF9FEF0895FC01A485B585FD01A8
:1004B000E05CFF4F20813181329680819181281745
:1004C000390779F080819181A80FB91F8C91208123
:1004D00031812F5F3F4F2F7333273183208390E08B
:1004E00008958FEF9FEF0895FC0181A1882329F0E3
:1004F000A489B5898C9186FFFBCF11A208950F9333
:100500001F93CF93DF93FC01A685B7858D01005C17
:100510001F4FE8018881998101968F739927AD015A
:100520004E5B5F4FEA012881398182179307D1F32F
:10053000E80128813981A20FB31F6C93A685B78586
:10054000A05CBF4F11969C938E93A689B7892C917E
:1005500081E090E0078C02C0880F991F0A94E2F7AF
:10056000822B8C9381E081A30488F589E02D808122
:100570008064808381E090E0DF91CF911F910F91A3
:100580000895FB01E05CFF4F208131812F5F3F4FD9
:100590002F733327DB01AE5BBF4F4D915C91241766
:1005A000350741F040815181DB01A40FB51F8C93C9
:1005B0003183208308951F920F920FB60F9211245A
:1005C0000BB60F922F933F934F935F936F937F934D
:1005D0008F939F93AF93BF93EF93FF938091C0004E
:1005E00082FD07C08091C6006DE874E00E94C102E0
:1005F00002C08091C600FF91EF91BF91AF919F9192
:100600008F917F916F915F914F913F912F910F90BB
:100610000BBE0F900FBE0F901F9018951F920F9258
:100620000FB60F9211240BB60F922F933F934F9357
:100630005F936F937F938F939F93AF93BF93EF934A
:10064000FF938091C80082FD07C08091CE0065E0D5
:1006500074E00E94C10202C08091CE00FF91EF9130
:10066000BF91AF919F918F917F916F915F914F91CA
:100670003F912F910F900BBE0F900FBE0F901F90C8
:1006800018951F920F920FB60F9211240BB60F926E
:100690002F933F934F935F936F937F938F939F938A
:1006A000AF93BF93EF93FF938091D00082FD07C07B
:1006B0008091D6006DE773E00E94C10202C0809174
:1006C000D600FF91EF91BF91AF919F918F917F9154
:1006D0006F915F914F913F912F910F900BBE0F90B3
:1006E0000FBE0F901F9018951F920F920FB60F928A
:1006F00011240BB60F922F933F934F935F936F93F9
:100700007F938F939F93AF93BF93EF93FF938091CA
:10071000300182FD07C08091360165EF72E00E94D2
:10072000C10202C080913601FF91EF91BF91AF915C
:100730009F918F917F916F915F914F913F912F91F9
:100740000F900BBE0F900FBE0F901F9018951F9229
:100750000F920FB60F9211240BB60F922F933F9367
:100760008F939F93EF93FF932091890430918A0494
:1007700080918B0490918C042817390731F4809173
:10078000C1008F7D8093C10014C0E0918B04F09173
:100790008C04E75BFB4F208180918B0490918C044B
:1007A00001968F73992790938C0480938B042093E8
:1007B000C600FF91EF919F918F913F912F910F90E4
:1007C0000BBE0F900FBE0F901F9018951F920F92A7
:1007D0000FB60F9211240BB60F922F933F938F9366
:1007E0009F93EF93FF932091010430910204809135
:1007F0000304909104042817390731F48091C9004B
:100800008F7D8093C90014C0E0910304F09104042B
:10081000EF53FC4F208180910304909104040196D2
:100820008F73992790930404809303042093CE0040
:10083000FF91EF919F918F913F912F910F900BBE60
:100840000F900FBE0F901F9018951F920F920FB62A
:100850000F9211240BB60F922F933F938F939F9378
:10086000EF93FF932091790330917A0380917B037A
:1008700090917C032817390731F48091D1008F7D46
:100880008093D10014C0E0917B03F0917C03E75C7E
:10089000FC4F208180917B0390917C0301968F73A4
:1008A000992790937C0380937B032093D600FF913C
:1008B000EF919F918F913F912F910F900BBE0F90D1
:1008C0000FBE0F901F9018951F920F920FB60F92A8
:1008D00011240BB60F922F933F938F939F93EF9317
:1008E000FF932091F1023091F2028091F3029091F6
:1008F000F4022817390731F4809131018F7D8093FC
:10090000310114C0E091F302F091F402EF54FD4F75
:1009100020818091F3029091F40201968F739927C0
:100920009093F4028093F30220933601FF91EF91AC
:100930009F918F913F912F910F900BBE0F900FBE03
:100940000F901F901895CF92DF92EF92FF920F9326
:100950001F93CF93DF93EC016A017B014115514E48
:100960006105710509F1EC89FD8981E090E008A03D
:1009700002C0880F991F0A94E2F7808360E079E053
:100980008DE390E0A70196010E94000689019A017B
:1009900001501109210931093695279517950795B9
:1009A000980101151041A8F0EC89FD89108260E8DA
:1009B00074E88EE190E0A70196010E940006DA013A
:1009C000C9010197A109B109B695A7959795879592
:1009D0009C01E889F9893083EA89FB89208319A27F
:1009E000EE89FF89408181E090E09C010C8C02C07F
:1009F000220F331F0A94E2F7242B2083EE89FF890C
:100A000040819C010D8C02C0220F331F0A94E2F733
:100A1000242B2083EE89FF8940819C010E8C02C02B
:100A2000220F331F0A94E2F7242B2083EE89FF89DB
:100A300020810F8C02C0880F991F0A94E2F78095DD
:100A400082238083DF91CF911F910F91FF90EF90D0
:100A5000DF90CF900895CF92DF92EF92FF92EFE870
:100A6000F2E01382128288EEC82E83E0D82EE12CA9
:100A7000F12CC482D582E682F78264E172E0718350
:100A800060838DE894E09587848789E494E0978774
:100A9000868785EC90E0918B808B84EC90E0938B43
:100AA000828B80EC90E0958B848B81EC90E0978B2F
:100AB000868B82EC90E0918F808F86EC90E0938F14
:100AC000828F44E0448F33E0358F27E0268F95E016
:100AD000978F81E080A3EDE6F2E013821282C48258
:100AE000D582E682F78271836083A5E0B4E0B587A2
:100AF000A487A1ECB3E0B787A687ADECB0E0B18BDB
:100B0000A08BACECB0E0B38BA28BA8ECB0E0B58BC3
:100B1000A48BA9ECB0E0B78BA68BAAECB0E0B18FA8
:100B2000A08FAEECB0E0B38FA28F448F358F268FAD
:100B3000978F80A3EBE4F2E013821282C482D58205
:100B4000E682F78271836083ADE7B3E0B587A4875F
:100B5000A9E3B3E0B787A687A5EDB0E0B18BA08B82
:100B6000A4EDB0E0B38BA28BA0EDB0E0B58BA48B6D
:100B7000A1EDB0E0B78BA68BA2EDB0E0B18FA08F56
:100B8000A6EDB0E0B38FA28F448F358F268F978F5D
:100B900080A3E9E2F2E013821282C482D582E68267
:100BA000F7827183608365EF72E07587648761EB1C
:100BB00072E07787668765E371E0718B608B64E331
:100BC00071E0738B628B60E371E0758B648B61E322
:100BD00071E0778B668B62E371E0718F608F66E303
:100BE00071E0738F628F448F358F268F978F80A32C
:100BF000FF90EF90DF90CF900895F8940C942A0620
:100C0000A1E21A2EAA1BBB1BFD010DC0AA1FBB1F10
:100C1000EE1FFF1FA217B307E407F50720F0A21B82
:100C2000B30BE40BF50B661F771F881F991F1A94EF
:100C300069F760957095809590959B01AC01BD0119
:100C4000CF010895EE0FFF1F881F8BBF0790F6910D
:080C5000E02D1994F894FFCF88
:100C5800596F757220696E7075742069733A200037
:100C6800000000007F02CE012802540238027402FC
:00000001FF
